{
  "contractName": "CertificateStorage",
  "abi": [
    {
      "anonymous": false,
      "inputs": [
        {
          "indexed": true,
          "name": "rdid",
          "type": "address"
        },
        {
          "indexed": false,
          "name": "universityName",
          "type": "string"
        },
        {
          "indexed": false,
          "name": "typeOfDegree",
          "type": "string"
        },
        {
          "indexed": false,
          "name": "major",
          "type": "string"
        },
        {
          "indexed": false,
          "name": "name",
          "type": "string"
        },
        {
          "indexed": false,
          "name": "name",
          "type": "string"
        },
        {
          "indexed": false,
          "name": "name",
          "type": "string"
        }
      ],
      "name": "setCertificateEvent",
      "type": "event"
    },
    {
      "anonymous": false,
      "inputs": [
        {
          "indexed": true,
          "name": "rdid",
          "type": "address"
        },
        {
          "indexed": false,
          "name": "dateOfBirth",
          "type": "string"
        },
        {
          "indexed": false,
          "name": "status",
          "type": "string"
        },
        {
          "indexed": false,
          "name": "yearOfGraduation",
          "type": "uint256"
        },
        {
          "indexed": false,
          "name": "degreeClassification",
          "type": "string"
        },
        {
          "indexed": false,
          "name": "_number",
          "type": "uint256"
        },
        {
          "indexed": false,
          "name": "_regNo",
          "type": "string"
        }
      ],
      "name": "setCertificateAdditionEvent",
      "type": "event"
    },
    {
      "anonymous": false,
      "inputs": [
        {
          "indexed": true,
          "name": "rdid",
          "type": "address"
        },
        {
          "indexed": false,
          "name": "modeOfStudy",
          "type": "string"
        },
        {
          "indexed": false,
          "name": "certificateDeliveryDate",
          "type": "string"
        },
        {
          "indexed": false,
          "name": "number",
          "type": "uint256"
        },
        {
          "indexed": false,
          "name": "regNo",
          "type": "string"
        },
        {
          "indexed": false,
          "name": "index",
          "type": "uint256"
        }
      ],
      "name": "setCertificateAdditionEventDetail",
      "type": "event"
    },
    {
      "constant": false,
      "inputs": [
        {
          "name": "rdhid",
          "type": "address",
          "indexed": true
        },
        {
          "name": "nguoitt",
          "type": "address",
          "indexed": false
        },
        {
          "name": "idCer",
          "type": "address",
          "indexed": false
        },
        {
          "name": "thaotac",
          "type": "string",
          "indexed": false
        },
        {
          "name": "createTimeCertificate",
          "type": "string",
          "indexed": false
        },
        {
          "name": "comment",
          "type": "string",
          "indexed": false
        },
        {
          "name": "index",
          "type": "uint256",
          "indexed": false
        },
        {
          "name": "_yearOfGraduation",
          "type": "uint256"
        },
        {
          "name": "_degreeClassification",
          "type": "string"
        },
        {
          "name": "_modeOfStudy",
          "type": "string"
        },
        {
          "name": "_certificateDeliveryDate",
          "type": "uint256"
        },
        {
          "name": "_number",
          "type": "uint256"
        },
        {
          "name": "_regNo",
          "type": "string"
        }
      ],
      "name": "setHistoryEvent",
      "outputs": [],
      "payable": false,
      "stateMutability": "nonpayable",
      "type": "event",
      "anonymous": false
    },
    {
      "constant": false,
      "inputs": [
        {
          "name": "rdid",
          "type": "address",
          "indexed": true
        },
        {
          "name": "universityName",
          "type": "string",
          "indexed": false
        },
        {
          "name": "typeOfDegree",
          "type": "string",
          "indexed": false
        },
        {
          "name": "typeOfDegree",
          "type": "string",
          "indexed": false
        },
        {
          "indexed": false,
          "name": "typeOfDegree",
          "type": "string"
        }
      ],
      "name": "updateStatus",
      "outputs": [],
      "payable": false,
      "stateMutability": "nonpayable",
      "type": "event",
      "anonymous": false
    },
    {
      "constant": true,
      "inputs": [
        {
          "name": "major",
          "type": "string",
          "indexed": false
        },
        {
          "indexed": false,
          "name": "name",
          "type": "string"
        },
        {
          "indexed": false,
          "name": "dateOfBirth",
          "type": "string"
        },
        {
          "indexed": false,
          "name": "status",
          "type": "string"
        }
      ],
      "name": "updateStatusAddition",
      "outputs": [
        {
          "name": "id",
          "type": "string"
        },
        {
          "name": "universityName",
          "type": "string"
        },
        {
          "name": "typeOfDegree",
          "type": "string"
        },
        {
          "name": "major",
          "type": "string"
        },
        {
          "name": "name",
          "type": "string"
        },
        {
          "name": "dateOfBirth",
          "type": "uint256"
        },
        {
          "name": "status",
          "type": "string"
        }
      ],
      "payable": false,
      "stateMutability": "view",
      "type": "event",
      "anonymous": false
    },
    {
      "constant": true,
      "inputs": [
        {
          "name": "yearOfGraduation",
          "type": "uint256",
          "indexed": false
        },
        {
          "indexed": false,
          "name": "degreeClassification",
          "type": "string"
        },
        {
          "indexed": false,
          "name": "modeOfStudy",
          "type": "string"
        },
        {
          "indexed": false,
          "name": "certificateDeliveryDate",
          "type": "string"
        },
        {
          "indexed": false,
          "name": "number",
          "type": "uint256"
        },
        {
          "indexed": false,
          "name": "regNo",
          "type": "string"
        },
        {
          "indexed": false,
          "name": "index",
          "type": "uint256"
        }
      ],
      "name": "updateStatusAdditionDetail",
      "outputs": [
        {
          "name": "id",
          "type": "string"
        },
        {
          "name": "yearOfGraduation",
          "type": "uint256"
        },
        {
          "name": "degreeClassification",
          "type": "string"
        },
        {
          "name": "modeOfStudy",
          "type": "string"
        },
        {
          "name": "certificateDeliveryDate",
          "type": "uint256"
        },
        {
          "name": "number",
          "type": "uint256"
        },
        {
          "name": "regNo",
          "type": "string"
        }
      ],
      "payable": false,
      "stateMutability": "view",
      "type": "event",
      "anonymous": false
    },
    {
      "constant": false,
      "inputs": [
        {
          "name": "rdid",
          "type": "address"
        },
        {
          "name": "universityName",
          "type": "string"
        },
        {
          "name": "typeOfDegree",
          "type": "string"
        },
        {
          "name": "major",
          "type": "string"
        },
        {
          "name": "name",
          "type": "string"
        },
        {
          "name": "name",
          "type": "string"
        },
        {
          "name": "name",
          "type": "string"
        }
      ],
      "name": "setCertificate",
      "outputs": [
        {
          "name": "_index",
          "type": "uint256"
        },
        {
          "name": "userName",
          "type": "string"
        },
        {
          "name": "dateTime",
          "type": "uint256"
        },
        {
          "name": "comment",
          "type": "string"
        }
      ],
      "payable": false,
      "stateMutability": "nonpayable",
      "type": "function"
    },
    {
      "constant": false,
      "inputs": [
        {
          "name": "rdid",
          "type": "address"
        },
        {
          "name": "dateOfBirth",
          "type": "string"
        },
        {
          "name": "status",
          "type": "string"
        },
        {
          "name": "yearOfGraduation",
          "type": "uint256"
        },
        {
          "name": "degreeClassification",
          "type": "string"
        }
      ],
      "name": "setCertificateAddition",
      "outputs": [
        {
          "name": "_index",
          "type": "uint256"
        }
      ],
      "payable": false,
      "stateMutability": "nonpayable",
      "type": "function"
    },
    {
      "constant": false,
      "inputs": [
        {
          "name": "rdid",
          "type": "address"
        },
        {
          "name": "modeOfStudy",
          "type": "string"
        },
        {
          "name": "certificateDeliveryDate",
          "type": "string"
        },
        {
          "name": "number",
          "type": "uint256"
        },
        {
          "name": "regNo",
          "type": "string"
        }
      ],
      "name": "setCertificateAdditionDetail",
      "outputs": [
        {
          "name": "_index",
          "type": "uint256"
        }
      ],
      "payable": false,
      "stateMutability": "nonpayable",
      "type": "function"
    },
    {
      "constant": false,
      "inputs": [
        {
          "name": "rdid",
          "type": "address"
        },
        {
          "name": "nguoitt",
          "type": "address"
        },
        {
          "name": "idCer",
          "type": "address"
        },
        {
          "name": "thaotac",
          "type": "string"
        },
        {
          "name": "createTimeCertificate",
          "type": "string"
        },
        {
          "name": "comment",
          "type": "string"
        }
      ],
      "name": "setHistoryCer",
      "outputs": [
        {
          "name": "_index",
          "type": "uint256"
        }
      ],
      "payable": false,
      "stateMutability": "nonpayable",
      "type": "function"
    },
    {
      "constant": true,
      "inputs": [
        {
          "name": "_rdid",
          "type": "address"
        }
      ],
      "name": "getHistoryCertificate",
      "outputs": [
        {
          "name": "rdid",
          "type": "address"
        },
        {
          "name": "nguoitt",
          "type": "address"
        },
        {
          "name": "idCer",
          "type": "address"
        },
        {
          "name": "thaotac",
          "type": "string"
        },
        {
          "name": "createTimeCertificate",
          "type": "string"
        },
        {
          "name": "comment",
          "type": "string"
        }
      ],
      "payable": false,
      "stateMutability": "view",
      "type": "function"
    },
    {
      "constant": false,
      "inputs": [
        {
          "name": "rdid",
          "type": "address"
        },
        {
          "name": "status",
          "type": "string"
        }
      ],
      "name": "approveCertificate",
      "outputs": [
        {
          "name": "success",
          "type": "bool"
        }
      ],
      "payable": false,
      "stateMutability": "nonpayable",
      "type": "function"
    },
    {
      "constant": true,
      "inputs": [
        {
          "name": "_rdid",
          "type": "address"
        }
      ],
      "name": "getCertificate",
      "outputs": [
        {
          "name": "rdid",
          "type": "address"
        },
        {
          "name": "universityName",
          "type": "string"
        },
        {
          "name": "typeOfDegree",
          "type": "string"
        },
        {
          "name": "major",
          "type": "string"
        },
        {
          "name": "name",
          "type": "string"
        },
        {
          "name": "name",
          "type": "string"
        },
        {
          "name": "name",
          "type": "string"
        }
      ],
      "payable": false,
      "stateMutability": "view",
      "type": "function"
    },
    {
      "constant": true,
      "inputs": [
        {
          "name": "_rdid",
          "type": "address"
        }
      ],
      "name": "getCertificateAddition",
      "outputs": [
        {
          "name": "dateOfBirth",
          "type": "string"
        },
        {
          "name": "status",
          "type": "string"
        },
        {
          "name": "yearOfGraduation",
          "type": "uint256"
        },
        {
          "name": "degreeClassification",
          "type": "string"
        }
      ],
      "payable": false,
      "stateMutability": "view",
      "type": "function"
    },
    {
      "constant": true,
      "inputs": [
        {
          "name": "_rdid",
          "type": "address"
        }
      ],
      "name": "getCertificateAdditionDetail",
      "outputs": [
        {
          "name": "modeOfStudy",
          "type": "string"
        },
        {
          "name": "certificateDeliveryDate",
          "type": "string"
        },
        {
          "name": "number",
          "type": "uint256"
        },
        {
          "name": "regNo",
          "type": "string"
        },
        {
          "name": "index",
          "type": "uint256"
        }
      ],
      "payable": false,
      "stateMutability": "view",
      "type": "function"
    },
    {
      "constant": true,
      "inputs": [
        {
          "name": "id",
          "type": "address"
        }
      ],
      "name": "isUser",
      "outputs": [
        {
          "name": "isIndeed",
          "type": "bool"
        }
      ],
      "payable": false,
      "stateMutability": "view",
      "type": "function"
    },
    {
      "constant": true,
      "inputs": [],
      "name": "getUserCount",
      "outputs": [
        {
          "name": "count",
          "type": "uint256"
        }
      ],
      "payable": false,
      "stateMutability": "view",
      "type": "function"
    },
    {
      "constant": true,
      "inputs": [
        {
          "name": "_index",
          "type": "uint256"
        }
      ],
      "name": "getCertificateIndex",
      "outputs": [
        {
          "name": "_id",
          "type": "address"
        }
      ],
      "payable": false,
      "stateMutability": "view",
      "type": "function"
    },
    {
      "constant": true,
      "inputs": [],
      "name": "getHisCount",
      "outputs": [
        {
          "name": "count",
          "type": "uint256"
        }
      ],
      "payable": false,
      "stateMutability": "view",
      "type": "function"
    },
    {
      "constant": true,
      "inputs": [
        {
          "name": "_index",
          "type": "uint256"
        }
      ],
      "name": "getHisIndex",
      "outputs": [
        {
          "name": "_id",
          "type": "address"
        }
      ],
      "payable": false,
      "stateMutability": "view",
      "type": "function"
    }
  ],
  "bytecode": "0x608060405234801561001057600080fd5b50613709806100206000396000f3fe6080604052600436106100d0576000357c0100000000000000000000000000000000000000000000000000000000900463ffffffff16806313df0c9d146100d55780633f9add1c146103965780634209fff1146105465780634ab754d7146105af5780636813644a1461062a578063aba90f9f14610894578063ae4aa97514610ac8578063b1fa7bf614610d03578063b485175d14610d2e578063b5cb15f714610ed7578063ccc6231114610f02578063d7d9211a14611136578063ebbb69ce146111b1578063fd531e93146112b1575b600080fd5b3480156100e157600080fd5b50610380600480360360a08110156100f857600080fd5b81019080803573ffffffffffffffffffffffffffffffffffffffff1690602001909291908035906020019064010000000081111561013557600080fd5b82018360208201111561014757600080fd5b8035906020019184600183028401116401000000008311171561016957600080fd5b91908080601f016020809104026020016040519081016040528093929190818152602001838380828437600081840152601f19601f820116905080830192505050505050509192919290803590602001906401000000008111156101cc57600080fd5b8201836020820111156101de57600080fd5b8035906020019184600183028401116401000000008311171561020057600080fd5b91908080601f016020809104026020016040519081016040528093929190818152602001838380828437600081840152601f19601f8201169050808301925050505050505091929192908035906020019064010000000081111561026357600080fd5b82018360208201111561027557600080fd5b8035906020019184600183028401116401000000008311171561029757600080fd5b91908080601f016020809104026020016040519081016040528093929190818152602001838380828437600081840152601f19601f820116905080830192505050505050509192919290803590602001906401000000008111156102fa57600080fd5b82018360208201111561030c57600080fd5b8035906020019184600183028401116401000000008311171561032e57600080fd5b91908080601f016020809104026020016040519081016040528093929190818152602001838380828437600081840152601f19601f8201169050808301925050505050505091929192905050506114f2565b6040518082815260200191505060405180910390f35b3480156103a257600080fd5b506103e5600480360360208110156103b957600080fd5b81019080803573ffffffffffffffffffffffffffffffffffffffff169060200190929190505050611859565b60405180806020018060200186815260200180602001858152602001848103845289818151815260200191508051906020019080838360005b8381101561043957808201518184015260208101905061041e565b50505050905090810190601f1680156104665780820380516001836020036101000a031916815260200191505b50848103835288818151815260200191508051906020019080838360005b8381101561049f578082015181840152602081019050610484565b50505050905090810190601f1680156104cc5780820380516001836020036101000a031916815260200191505b50848103825286818151815260200191508051906020019080838360005b838110156105055780820151818401526020810190506104ea565b50505050905090810190601f1680156105325780820380516001836020036101000a031916815260200191505b509850505050505050505060405180910390f35b34801561055257600080fd5b506105956004803603602081101561056957600080fd5b81019080803573ffffffffffffffffffffffffffffffffffffffff169060200190929190505050611b90565b604051808215151515815260200191505060405180910390f35b3480156105bb57600080fd5b506105e8600480360360208110156105d257600080fd5b8101908080359060200190929190505050611c59565b604051808273ffffffffffffffffffffffffffffffffffffffff1673ffffffffffffffffffffffffffffffffffffffff16815260200191505060405180910390f35b34801561063657600080fd5b5061087e600480360360c081101561064d57600080fd5b81019080803573ffffffffffffffffffffffffffffffffffffffff169060200190929190803573ffffffffffffffffffffffffffffffffffffffff169060200190929190803573ffffffffffffffffffffffffffffffffffffffff169060200190929190803590602001906401000000008111156106ca57600080fd5b8201836020820111156106dc57600080fd5b803590602001918460018302840111640100000000831117156106fe57600080fd5b91908080601f016020809104026020016040519081016040528093929190818152602001838380828437600081840152601f19601f8201169050808301925050505050505091929192908035906020019064010000000081111561076157600080fd5b82018360208201111561077357600080fd5b8035906020019184600183028401116401000000008311171561079557600080fd5b91908080601f016020809104026020016040519081016040528093929190818152602001838380828437600081840152601f19601f820116905080830192505050505050509192919290803590602001906401000000008111156107f857600080fd5b82018360208201111561080a57600080fd5b8035906020019184600183028401116401000000008311171561082c57600080fd5b91908080601f016020809104026020016040519081016040528093929190818152602001838380828437600081840152601f19601f820116905080830192505050505050509192919290505050611c9c565b6040518082815260200191505060405180910390f35b3480156108a057600080fd5b50610ab2600480360360a08110156108b757600080fd5b81019080803573ffffffffffffffffffffffffffffffffffffffff169060200190929190803590602001906401000000008111156108f457600080fd5b82018360208201111561090657600080fd5b8035906020019184600183028401116401000000008311171561092857600080fd5b91908080601f016020809104026020016040519081016040528093929190818152602001838380828437600081840152601f19601f8201169050808301925050505050505091929192908035906020019064010000000081111561098b57600080fd5b82018360208201111561099d57600080fd5b803590602001918460018302840111640100000000831117156109bf57600080fd5b91908080601f016020809104026020016040519081016040528093929190818152602001838380828437600081840152601f19601f8201169050808301925050505050505091929192908035906020019092919080359060200190640100000000811115610a2c57600080fd5b820183602082011115610a3e57600080fd5b80359060200191846001830284011164010000000083111715610a6057600080fd5b91908080601f016020809104026020016040519081016040528093929190818152602001838380828437600081840152601f19601f8201169050808301925050505050505091929192905050506121a7565b6040518082815260200191505060405180910390f35b348015610ad457600080fd5b50610b1760048036036020811015610aeb57600080fd5b81019080803573ffffffffffffffffffffffffffffffffffffffff169060200190929190505050612499565b604051808773ffffffffffffffffffffffffffffffffffffffff1673ffffffffffffffffffffffffffffffffffffffff1681526020018673ffffffffffffffffffffffffffffffffffffffff1673ffffffffffffffffffffffffffffffffffffffff1681526020018573ffffffffffffffffffffffffffffffffffffffff1673ffffffffffffffffffffffffffffffffffffffff168152602001806020018060200180602001848103845287818151815260200191508051906020019080838360005b83811015610bf5578082015181840152602081019050610bda565b50505050905090810190601f168015610c225780820380516001836020036101000a031916815260200191505b50848103835286818151815260200191508051906020019080838360005b83811015610c5b578082015181840152602081019050610c40565b50505050905090810190601f168015610c885780820380516001836020036101000a031916815260200191505b50848103825285818151815260200191508051906020019080838360005b83811015610cc1578082015181840152602081019050610ca6565b50505050905090810190601f168015610cee5780820380516001836020036101000a031916815260200191505b50995050505050505050505060405180910390f35b348015610d0f57600080fd5b50610d18612819565b6040518082815260200191505060405180910390f35b348015610d3a57600080fd5b50610d7d60048036036020811015610d5157600080fd5b81019080803573ffffffffffffffffffffffffffffffffffffffff169060200190929190505050612826565b60405180806020018060200185815260200180602001848103845288818151815260200191508051906020019080838360005b83811015610dcb578082015181840152602081019050610db0565b50505050905090810190601f168015610df85780820380516001836020036101000a031916815260200191505b50848103835287818151815260200191508051906020019080838360005b83811015610e31578082015181840152602081019050610e16565b50505050905090810190601f168015610e5e5780820380516001836020036101000a031916815260200191505b50848103825285818151815260200191508051906020019080838360005b83811015610e97578082015181840152602081019050610e7c565b50505050905090810190601f168015610ec45780820380516001836020036101000a031916815260200191505b5097505050505050505060405180910390f35b348015610ee357600080fd5b50610eec612b15565b6040518082815260200191505060405180910390f35b348015610f0e57600080fd5b50611120600480360360a0811015610f2557600080fd5b81019080803573ffffffffffffffffffffffffffffffffffffffff16906020019092919080359060200190640100000000811115610f6257600080fd5b820183602082011115610f7457600080fd5b80359060200191846001830284011164010000000083111715610f9657600080fd5b91908080601f016020809104026020016040519081016040528093929190818152602001838380828437600081840152601f19601f82011690508083019250505050505050919291929080359060200190640100000000811115610ff957600080fd5b82018360208201111561100b57600080fd5b8035906020019184600183028401116401000000008311171561102d57600080fd5b91908080601f016020809104026020016040519081016040528093929190818152602001838380828437600081840152601f19601f820116905080830192505050505050509192919290803590602001909291908035906020019064010000000081111561109a57600080fd5b8201836020820111156110ac57600080fd5b803590602001918460018302840111640100000000831117156110ce57600080fd5b91908080601f016020809104026020016040519081016040528093929190818152602001838380828437600081840152601f19601f820116905080830192505050505050509192919290505050612b22565b6040518082815260200191505060405180910390f35b34801561114257600080fd5b5061116f6004803603602081101561115957600080fd5b8101908080359060200190929190505050612f09565b604051808273ffffffffffffffffffffffffffffffffffffffff1673ffffffffffffffffffffffffffffffffffffffff16815260200191505060405180910390f35b3480156111bd57600080fd5b50611297600480360360408110156111d457600080fd5b81019080803573ffffffffffffffffffffffffffffffffffffffff1690602001909291908035906020019064010000000081111561121157600080fd5b82018360208201111561122357600080fd5b8035906020019184600183028401116401000000008311171561124557600080fd5b91908080601f016020809104026020016040519081016040528093929190818152602001838380828437600081840152601f19601f820116905080830192505050505050509192919290505050612f4c565b604051808215151515815260200191505060405180910390f35b3480156112bd57600080fd5b50611300600480360360208110156112d457600080fd5b81019080803573ffffffffffffffffffffffffffffffffffffffff1690602001909291905050506132a8565b604051808673ffffffffffffffffffffffffffffffffffffffff1673ffffffffffffffffffffffffffffffffffffffff16815260200180602001806020018060200180602001858103855289818151815260200191508051906020019080838360005b8381101561137e578082015181840152602081019050611363565b50505050905090810190601f1680156113ab5780820380516001836020036101000a031916815260200191505b50858103845288818151815260200191508051906020019080838360005b838110156113e45780820151818401526020810190506113c9565b50505050905090810190601f1680156114115780820380516001836020036101000a031916815260200191505b50858103835287818151815260200191508051906020019080838360005b8381101561144a57808201518184015260208101905061142f565b50505050905090810190601f1680156114775780820380516001836020036101000a031916815260200191505b50858103825286818151815260200191508051906020019080838360005b838110156114b0578082015181840152602081019050611495565b50505050905090810190601f1680156114dd5780820380516001836020036101000a031916815260200191505b50995050505050505050505060405180910390f35b6000846000808873ffffffffffffffffffffffffffffffffffffffff1673ffffffffffffffffffffffffffffffffffffffff1681526020019081526020016000206000019080519060200190611549929190613638565b50836000808873ffffffffffffffffffffffffffffffffffffffff1673ffffffffffffffffffffffffffffffffffffffff168152602001908152602001600020600101908051906020019061159f929190613638565b50826000808873ffffffffffffffffffffffffffffffffffffffff1673ffffffffffffffffffffffffffffffffffffffff16815260200190815260200160002060020190805190602001906115f5929190613638565b50816000808873ffffffffffffffffffffffffffffffffffffffff1673ffffffffffffffffffffffffffffffffffffffff168152602001908152602001600020600301908051906020019061164b929190613638565b508573ffffffffffffffffffffffffffffffffffffffff167f508623c46c5a2caaf2b5e545968c83cbcd1035de74b58111138a7c6de820936a868686866040518080602001806020018060200180602001858103855289818151815260200191508051906020019080838360005b838110156116d45780820151818401526020810190506116b9565b50505050905090810190601f1680156117015780820380516001836020036101000a031916815260200191505b50858103845288818151815260200191508051906020019080838360005b8381101561173a57808201518184015260208101905061171f565b50505050905090810190601f1680156117675780820380516001836020036101000a031916815260200191505b50858103835287818151815260200191508051906020019080838360005b838110156117a0578082015181840152602081019050611785565b50505050905090810190601f1680156117cd5780820380516001836020036101000a031916815260200191505b50858103825286818151815260200191508051906020019080838360005b838110156118065780820151818401526020810190506117eb565b50505050905090810190601f1680156118335780820380516001836020036101000a031916815260200191505b509850505050505050505060405180910390a26001808054905003905095945050505050565b6060806000606060008060008773ffffffffffffffffffffffffffffffffffffffff1673ffffffffffffffffffffffffffffffffffffffff1681526020019081526020016000206008016000808873ffffffffffffffffffffffffffffffffffffffff1673ffffffffffffffffffffffffffffffffffffffff1681526020019081526020016000206009016000808973ffffffffffffffffffffffffffffffffffffffff1673ffffffffffffffffffffffffffffffffffffffff168152602001908152602001600020600a01546000808a73ffffffffffffffffffffffffffffffffffffffff1673ffffffffffffffffffffffffffffffffffffffff168152602001908152602001600020600b016000808b73ffffffffffffffffffffffffffffffffffffffff1673ffffffffffffffffffffffffffffffffffffffff168152602001908152602001600020600c0154848054600181600116156101000203166002900480601f016020809104026020016040519081016040528092919081815260200182805460018160011615610100020316600290048015611a3e5780601f10611a1357610100808354040283529160200191611a3e565b820191906000526020600020905b815481529060010190602001808311611a2157829003601f168201915b50505050509450838054600181600116156101000203166002900480601f016020809104026020016040519081016040528092919081815260200182805460018160011615610100020316600290048015611ada5780601f10611aaf57610100808354040283529160200191611ada565b820191906000526020600020905b815481529060010190602001808311611abd57829003601f168201915b50505050509350818054600181600116156101000203166002900480601f016020809104026020016040519081016040528092919081815260200182805460018160011615610100020316600290048015611b765780601f10611b4b57610100808354040283529160200191611b76565b820191906000526020600020905b815481529060010190602001808311611b5957829003601f168201915b505050505091509450945094509450945091939590929450565b6000806001805490501415611ba85760009050611c54565b8173ffffffffffffffffffffffffffffffffffffffff1660016000808573ffffffffffffffffffffffffffffffffffffffff1673ffffffffffffffffffffffffffffffffffffffff168152602001908152602001600020600c0154815481101515611c0f57fe5b9060005260206000200160009054906101000a900473ffffffffffffffffffffffffffffffffffffffff1673ffffffffffffffffffffffffffffffffffffffff161490505b919050565b6000600182815481101515611c6a57fe5b9060005260206000200160009054906101000a900473ffffffffffffffffffffffffffffffffffffffff169050919050565b600085600260008973ffffffffffffffffffffffffffffffffffffffff1673ffffffffffffffffffffffffffffffffffffffff16815260200190815260200160002060000160006101000a81548173ffffffffffffffffffffffffffffffffffffffff021916908373ffffffffffffffffffffffffffffffffffffffff16021790555084600260008973ffffffffffffffffffffffffffffffffffffffff1673ffffffffffffffffffffffffffffffffffffffff16815260200190815260200160002060010160006101000a81548173ffffffffffffffffffffffffffffffffffffffff021916908373ffffffffffffffffffffffffffffffffffffffff16021790555083600260008973ffffffffffffffffffffffffffffffffffffffff1673ffffffffffffffffffffffffffffffffffffffff1681526020019081526020016000206002019080519060200190611df6929190613638565b5082600260008973ffffffffffffffffffffffffffffffffffffffff1673ffffffffffffffffffffffffffffffffffffffff1681526020019081526020016000206003019080519060200190611e4d929190613638565b5081600260008973ffffffffffffffffffffffffffffffffffffffff1673ffffffffffffffffffffffffffffffffffffffff1681526020019081526020016000206004019080519060200190611ea4929190613638565b50600160038890806001815401808255809150509060018203906000526020600020016000909192909190916101000a81548173ffffffffffffffffffffffffffffffffffffffff021916908373ffffffffffffffffffffffffffffffffffffffff16021790555003600260008973ffffffffffffffffffffffffffffffffffffffff1673ffffffffffffffffffffffffffffffffffffffff168152602001908152602001600020600501819055508673ffffffffffffffffffffffffffffffffffffffff167f64343c5dd19e30217eee301409eb0ff0bfc8201f2b4c621f80a8178622b26af68787878787600260008f73ffffffffffffffffffffffffffffffffffffffff1673ffffffffffffffffffffffffffffffffffffffff16815260200190815260200160002060050154604051808773ffffffffffffffffffffffffffffffffffffffff1673ffffffffffffffffffffffffffffffffffffffff1681526020018673ffffffffffffffffffffffffffffffffffffffff1673ffffffffffffffffffffffffffffffffffffffff168152602001806020018060200180602001858152602001848103845288818151815260200191508051906020019080838360005b8381101561208557808201518184015260208101905061206a565b50505050905090810190601f1680156120b25780820380516001836020036101000a031916815260200191505b50848103835287818151815260200191508051906020019080838360005b838110156120eb5780820151818401526020810190506120d0565b50505050905090810190601f1680156121185780820380516001836020036101000a031916815260200191505b50848103825286818151815260200191508051906020019080838360005b83811015612151578082015181840152602081019050612136565b50505050905090810190601f16801561217e5780820380516001836020036101000a031916815260200191505b50995050505050505050505060405180910390a260016003805490500390509695505050505050565b6000846000808873ffffffffffffffffffffffffffffffffffffffff1673ffffffffffffffffffffffffffffffffffffffff16815260200190815260200160002060040190805190602001906121fe929190613638565b50836000808873ffffffffffffffffffffffffffffffffffffffff1673ffffffffffffffffffffffffffffffffffffffff1681526020019081526020016000206005019080519060200190612254929190613638565b50826000808873ffffffffffffffffffffffffffffffffffffffff1673ffffffffffffffffffffffffffffffffffffffff16815260200190815260200160002060060181905550816000808873ffffffffffffffffffffffffffffffffffffffff1673ffffffffffffffffffffffffffffffffffffffff16815260200190815260200160002060070190805190602001906122f0929190613638565b508573ffffffffffffffffffffffffffffffffffffffff167f10e090d3000bdeaac1b2e49a4dd366a65361c9f19eff59a52950d0416862f8108686868660405180806020018060200185815260200180602001848103845288818151815260200191508051906020019080838360005b8381101561237b578082015181840152602081019050612360565b50505050905090810190601f1680156123a85780820380516001836020036101000a031916815260200191505b50848103835287818151815260200191508051906020019080838360005b838110156123e15780820151818401526020810190506123c6565b50505050905090810190601f16801561240e5780820380516001836020036101000a031916815260200191505b50848103825285818151815260200191508051906020019080838360005b8381101561244757808201518184015260208101905061242c565b50505050905090810190601f1680156124745780820380516001836020036101000a031916815260200191505b5097505050505050505060405180910390a26001808054905003905095945050505050565b6000806000606080606086600260008973ffffffffffffffffffffffffffffffffffffffff1673ffffffffffffffffffffffffffffffffffffffff16815260200190815260200160002060000160009054906101000a900473ffffffffffffffffffffffffffffffffffffffff16600260008a73ffffffffffffffffffffffffffffffffffffffff1673ffffffffffffffffffffffffffffffffffffffff16815260200190815260200160002060010160009054906101000a900473ffffffffffffffffffffffffffffffffffffffff16600260008b73ffffffffffffffffffffffffffffffffffffffff1673ffffffffffffffffffffffffffffffffffffffff168152602001908152602001600020600201600260008c73ffffffffffffffffffffffffffffffffffffffff1673ffffffffffffffffffffffffffffffffffffffff168152602001908152602001600020600301600260008d73ffffffffffffffffffffffffffffffffffffffff1673ffffffffffffffffffffffffffffffffffffffff168152602001908152602001600020600401828054600181600116156101000203166002900480601f0160208091040260200160405190810160405280929190818152602001828054600181600116156101000203166002900480156126c55780601f1061269a576101008083540402835291602001916126c5565b820191906000526020600020905b8154815290600101906020018083116126a857829003601f168201915b50505050509250818054600181600116156101000203166002900480601f0160208091040260200160405190810160405280929190818152602001828054600181600116156101000203166002900480156127615780601f1061273657610100808354040283529160200191612761565b820191906000526020600020905b81548152906001019060200180831161274457829003601f168201915b50505050509150808054600181600116156101000203166002900480601f0160208091040260200160405190810160405280929190818152602001828054600181600116156101000203166002900480156127fd5780601f106127d2576101008083540402835291602001916127fd565b820191906000526020600020905b8154815290600101906020018083116127e057829003601f168201915b5050505050905095509550955095509550955091939550919395565b6000600380549050905090565b606080600060606000808673ffffffffffffffffffffffffffffffffffffffff1673ffffffffffffffffffffffffffffffffffffffff1681526020019081526020016000206004016000808773ffffffffffffffffffffffffffffffffffffffff1673ffffffffffffffffffffffffffffffffffffffff1681526020019081526020016000206005016000808873ffffffffffffffffffffffffffffffffffffffff1673ffffffffffffffffffffffffffffffffffffffff168152602001908152602001600020600601546000808973ffffffffffffffffffffffffffffffffffffffff1673ffffffffffffffffffffffffffffffffffffffff168152602001908152602001600020600701838054600181600116156101000203166002900480601f0160208091040260200160405190810160405280929190818152602001828054600181600116156101000203166002900480156129c75780601f1061299c576101008083540402835291602001916129c7565b820191906000526020600020905b8154815290600101906020018083116129aa57829003601f168201915b50505050509350828054600181600116156101000203166002900480601f016020809104026020016040519081016040528092919081815260200182805460018160011615610100020316600290048015612a635780601f10612a3857610100808354040283529160200191612a63565b820191906000526020600020905b815481529060010190602001808311612a4657829003601f168201915b50505050509250808054600181600116156101000203166002900480601f016020809104026020016040519081016040528092919081815260200182805460018160011615610100020316600290048015612aff5780601f10612ad457610100808354040283529160200191612aff565b820191906000526020600020905b815481529060010190602001808311612ae257829003601f168201915b5050505050905093509350935093509193509193565b6000600180549050905090565b6000846000808873ffffffffffffffffffffffffffffffffffffffff1673ffffffffffffffffffffffffffffffffffffffff1681526020019081526020016000206008019080519060200190612b79929190613638565b50836000808873ffffffffffffffffffffffffffffffffffffffff1673ffffffffffffffffffffffffffffffffffffffff1681526020019081526020016000206009019080519060200190612bcf929190613638565b50826000808873ffffffffffffffffffffffffffffffffffffffff1673ffffffffffffffffffffffffffffffffffffffff168152602001908152602001600020600a0181905550816000808873ffffffffffffffffffffffffffffffffffffffff1673ffffffffffffffffffffffffffffffffffffffff168152602001908152602001600020600b019080519060200190612c6b929190613638565b506001808790806001815401808255809150509060018203906000526020600020016000909192909190916101000a81548173ffffffffffffffffffffffffffffffffffffffff021916908373ffffffffffffffffffffffffffffffffffffffff160217905550036000808873ffffffffffffffffffffffffffffffffffffffff1673ffffffffffffffffffffffffffffffffffffffff168152602001908152602001600020600c01819055508573ffffffffffffffffffffffffffffffffffffffff167f56196f8df6c00c40f1b406f39e840f3d393c7c8a61288d156e90b32031677572868686866000808d73ffffffffffffffffffffffffffffffffffffffff1673ffffffffffffffffffffffffffffffffffffffff168152602001908152602001600020600c015460405180806020018060200186815260200180602001858152602001848103845289818151815260200191508051906020019080838360005b83811015612dea578082015181840152602081019050612dcf565b50505050905090810190601f168015612e175780820380516001836020036101000a031916815260200191505b50848103835288818151815260200191508051906020019080838360005b83811015612e50578082015181840152602081019050612e35565b50505050905090810190601f168015612e7d5780820380516001836020036101000a031916815260200191505b50848103825286818151815260200191508051906020019080838360005b83811015612eb6578082015181840152602081019050612e9b565b50505050905090810190601f168015612ee35780820380516001836020036101000a031916815260200191505b509850505050505050505060405180910390a26001808054905003905095945050505050565b6000600382815481101515612f1a57fe5b9060005260206000200160009054906101000a900473ffffffffffffffffffffffffffffffffffffffff169050919050565b6000816000808573ffffffffffffffffffffffffffffffffffffffff1673ffffffffffffffffffffffffffffffffffffffff1681526020019081526020016000206005019080519060200190612fa3929190613638565b507f17a1672dc9e7c293feba36470f1f87ff1b7fde8c211cfc86deb24cc53cbd43ae6000808573ffffffffffffffffffffffffffffffffffffffff1673ffffffffffffffffffffffffffffffffffffffff1681526020019081526020016000206002016000808673ffffffffffffffffffffffffffffffffffffffff1673ffffffffffffffffffffffffffffffffffffffff1681526020019081526020016000206003016000808773ffffffffffffffffffffffffffffffffffffffff1673ffffffffffffffffffffffffffffffffffffffff16815260200190815260200160002060040185604051808060200180602001806020018060200185810385528981815460018160011615610100020316600290048152602001915080546001816001161561010002031660029004801561311e5780601f106130f35761010080835404028352916020019161311e565b820191906000526020600020905b81548152906001019060200180831161310157829003601f168201915b50508581038452888181546001816001161561010002031660029004815260200191508054600181600116156101000203166002900480156131a15780601f10613176576101008083540402835291602001916131a1565b820191906000526020600020905b81548152906001019060200180831161318457829003601f168201915b50508581038352878181546001816001161561010002031660029004815260200191508054600181600116156101000203166002900480156132245780601f106131f957610100808354040283529160200191613224565b820191906000526020600020905b81548152906001019060200180831161320757829003601f168201915b5050858103825286818151815260200191508051906020019080838360005b8381101561325e578082015181840152602081019050613243565b50505050905090810190601f16801561328b5780820380516001836020036101000a031916815260200191505b509850505050505050505060405180910390a16001905092915050565b6000606080606080856000808873ffffffffffffffffffffffffffffffffffffffff1673ffffffffffffffffffffffffffffffffffffffff1681526020019081526020016000206000016000808973ffffffffffffffffffffffffffffffffffffffff1673ffffffffffffffffffffffffffffffffffffffff1681526020019081526020016000206001016000808a73ffffffffffffffffffffffffffffffffffffffff1673ffffffffffffffffffffffffffffffffffffffff1681526020019081526020016000206002016000808b73ffffffffffffffffffffffffffffffffffffffff1673ffffffffffffffffffffffffffffffffffffffff168152602001908152602001600020600301838054600181600116156101000203166002900480601f01602080910402602001604051908101604052809291908181526020018280546001816001161561010002031660029004801561344a5780601f1061341f5761010080835404028352916020019161344a565b820191906000526020600020905b81548152906001019060200180831161342d57829003601f168201915b50505050509350828054600181600116156101000203166002900480601f0160208091040260200160405190810160405280929190818152602001828054600181600116156101000203166002900480156134e65780601f106134bb576101008083540402835291602001916134e6565b820191906000526020600020905b8154815290600101906020018083116134c957829003601f168201915b50505050509250818054600181600116156101000203166002900480601f0160208091040260200160405190810160405280929190818152602001828054600181600116156101000203166002900480156135825780601f1061355757610100808354040283529160200191613582565b820191906000526020600020905b81548152906001019060200180831161356557829003601f168201915b50505050509150808054600181600116156101000203166002900480601f01602080910402602001604051908101604052809291908181526020018280546001816001161561010002031660029004801561361e5780601f106135f35761010080835404028352916020019161361e565b820191906000526020600020905b81548152906001019060200180831161360157829003601f168201915b505050505090509450945094509450945091939590929450565b828054600181600116156101000203166002900490600052602060002090601f016020900481019282601f1061367957805160ff19168380011785556136a7565b828001600101855582156136a7579182015b828111156136a657825182559160200191906001019061368b565b5b5090506136b491906136b8565b5090565b6136da91905b808211156136d65760008160009055506001016136be565b5090565b9056fea165627a7a7230582076939d3781ffcb92ab15d425b1c9e83f4d4b6b825723004cb5925d266b58ef380029",
  "source": "pragma solidity >=0.4.21 <0.6.0;\n\ncontract CertificateStorage {\n    struct Certificate{\n        string universityName;\n        string typeOfDegree;\n        string major;\n        string name;\n        string dateOfBirth;\n        string status;\n        uint256 yearOfGraduation;\n        string degreeClassification;\n        string modeOfStudy;\n        string certificateDeliveryDate;\n        uint256 number;\n        string regNo;\n        uint index;\n    }\n\n    struct historyUserCertificate {\n        address nguoitt;\n        address idCer;\n        string thaotac;\n        string createTimeCertificate;\n        string comment;\n        uint index;\n    }\n\n\n    mapping (address => Certificate) private CertificateMapping;\n    address[] private certificateIndex;\n\n    mapping (address => historyUserCertificate) private historyCertificate;\n    address[] private historyCerIndex;\n\n\n    event setCertificateEvent(\n        address indexed rdid,\n        string universityName,\n        string typeOfDegree,\n        string major,\n        string name);\n\n    event setCertificateAdditionEvent(\n        address indexed rdid,\n        string dateOfBirth,\n        string  status,\n        uint256 yearOfGraduation,\n        string degreeClassification);\n\n    event setCertificateAdditionEventDetail(\n        address indexed rdid,\n        string modeOfStudy,\n        string certificateDeliveryDate,\n        uint256 number,\n        string regNo,\n        uint index);\n\n    //end event insert certificate\n\n\n    event setHistoryEvent(\n        address indexed rdhid,\n        address nguoitt,\n        address idCer,\n        string thaotac,\n        string createTimeCertificate,\n        string comment,\n        uint index);\n\n    //event update status\n    event updateStatus(\n        address indexed rdid,\n        string universityName,\n        string typeOfDegree\n    );\n\n    event updateStatusAddition(\n        string major,\n        string name,\n        string dateOfBirth,\n        string  status\n    );\n\n    event updateStatusAdditionDetail(\n        uint256 yearOfGraduation,\n        string degreeClassification,\n        string modeOfStudy,\n        string certificateDeliveryDate,\n        uint256 number,\n        string regNo,\n        uint index\n    );\n    //End update\n    //begin insert certificate\n    function setCertificate(\n        address rdid,\n        string memory universityName,\n        string memory typeOfDegree,\n        string memory major,\n        string memory name\n        ) public returns(uint _index){\n            CertificateMapping[rdid].universityName = universityName;\n            CertificateMapping[rdid].typeOfDegree = typeOfDegree;\n            CertificateMapping[rdid].major = major;\n            CertificateMapping[rdid].name = name;\n                emit setCertificateEvent(\n                    rdid,\n                    universityName,\n                    typeOfDegree,\n                    major,\n                    name\n                    );\n                return certificateIndex.length-1;\n    }\n\n    function setCertificateAddition(\n        address rdid,\n        string memory dateOfBirth,\n        string memory status,\n        uint256 yearOfGraduation,\n        string memory degreeClassification\n    )public returns(uint _index){\n        CertificateMapping[rdid].dateOfBirth = dateOfBirth;\n        CertificateMapping[rdid].status = status;\n        CertificateMapping[rdid].yearOfGraduation = yearOfGraduation;\n        CertificateMapping[rdid].degreeClassification = degreeClassification;\n        emit setCertificateAdditionEvent(\n            rdid,\n            dateOfBirth,\n            status,\n            yearOfGraduation,\n            degreeClassification\n        );\n        return certificateIndex.length-1;\n    }\n\n\n    function setCertificateAdditionDetail(\n        address rdid,\n        string memory modeOfStudy,\n        string memory certificateDeliveryDate,\n        uint256 number,\n        string memory regNo\n    )public returns(uint _index){\n        CertificateMapping[rdid].modeOfStudy = modeOfStudy;\n        CertificateMapping[rdid].certificateDeliveryDate = certificateDeliveryDate;\n        CertificateMapping[rdid].number = number;\n        CertificateMapping[rdid].regNo = regNo;\n        CertificateMapping[rdid].index = certificateIndex.push(rdid)-1;\n        emit setCertificateAdditionEventDetail(\n            rdid,\n            modeOfStudy,\n            certificateDeliveryDate,\n            number,\n            regNo,\n            CertificateMapping[rdid].index\n        );\n        return certificateIndex.length-1;\n    }\n\n\n    //end insert certificate\n    //insert history certificate\n\n    function setHistoryCer(\n        address rdid,\n        address nguoitt,\n        address idCer,\n        string memory thaotac,\n        string memory createTimeCertificate,\n        string memory comment\n    ) public returns(uint _index){\n        historyCertificate[rdid].nguoitt = nguoitt;\n        historyCertificate[rdid].idCer = idCer;\n        historyCertificate[rdid].thaotac = thaotac;\n        historyCertificate[rdid].createTimeCertificate = createTimeCertificate;\n        historyCertificate[rdid].comment = comment;\n        historyCertificate[rdid].index = historyCerIndex.push(rdid)-1;\n        emit setHistoryEvent(\n            rdid,\n            nguoitt,\n            idCer,\n            thaotac,\n            createTimeCertificate,\n            comment,\n            historyCertificate[rdid].index);\n        return historyCerIndex.length-1;\n    }\n    //end insert history event\n\n\n    //show history\n    function getHistoryCertificate(address _rdid) public view returns(\n        address rdid,\n        address nguoitt,\n        address idCer,\n        string memory thaotac,\n        string memory createTimeCertificate,\n        string memory comment\n    ){\n        return(\n            _rdid,\n            historyCertificate[_rdid].nguoitt,\n            historyCertificate[_rdid].idCer,\n            historyCertificate[_rdid].thaotac,\n            historyCertificate[_rdid].createTimeCertificate,\n            historyCertificate[_rdid].comment\n        );\n    }\n    //end show history\n\n\n    //update status certificate approve\n    function approveCertificate(\n        address rdid,\n        string memory status\n    ) public returns(bool success){\n        CertificateMapping[rdid].status = status;\n        emit updateStatusAddition(\n            CertificateMapping[rdid].major,\n            CertificateMapping[rdid].name,\n            CertificateMapping[rdid].dateOfBirth,\n            status\n        );\n        return true;\n    }\n\n    //Begin get certificate\n    function getCertificate(address _rdid) public view returns(address rdid,\n        string memory universityName,\n        string memory typeOfDegree,\n        string memory major,\n        string memory name){\n        return(\n            _rdid,\n            CertificateMapping[_rdid].universityName,\n            CertificateMapping[_rdid].typeOfDegree,\n            CertificateMapping[_rdid].major,\n            CertificateMapping[_rdid].name\n        );\n    }\n\n\n    function getCertificateAddition(address _rdid) public view returns(\n        string memory dateOfBirth,\n        string memory status,\n        uint256 yearOfGraduation,\n        string memory degreeClassification){\n        return(\n            CertificateMapping[_rdid].dateOfBirth,\n            CertificateMapping[_rdid].status,\n            CertificateMapping[_rdid].yearOfGraduation,\n            CertificateMapping[_rdid].degreeClassification\n        );\n    }\n\n\n    function getCertificateAdditionDetail(address _rdid) public view returns(\n        string memory modeOfStudy,\n        string memory certificateDeliveryDate,\n        uint256 number,\n        string memory regNo,\n        uint index){\n        return(\n            CertificateMapping[_rdid].modeOfStudy,\n            CertificateMapping[_rdid].certificateDeliveryDate,\n            CertificateMapping[_rdid].number,\n            CertificateMapping[_rdid].regNo,\n            CertificateMapping[_rdid].index\n        );\n    }\n    //End get certificate\n\n    //Check user or not\n    function isUser(address id) public view returns(bool isIndeed)\n    {\n        if(certificateIndex.length == 0) return false;\n        return (certificateIndex[CertificateMapping[id].index] == id);\n    }\n\n    function getUserCount() public view returns(uint count)\n    {\n        return certificateIndex.length;\n    }\n\n    function getCertificateIndex(uint _index) public view returns(address _id)\n    {\n        return certificateIndex[_index];\n    }\n\n\n    //history\n\n    function getHisCount() public view returns(uint count)\n    {\n        return historyCerIndex.length;\n    }\n\n    function getHisIndex(uint _index) public view returns(address _id)\n    {\n        return historyCerIndex[_index];\n    }\n\n}",
  "sourcePath": "/opt/lampp/htdocs/thuctap/blockchaindemo/TG_UNIVERSITY_CERTIFICATE_VERIFICATION_SERVER/contracts/Certificate.sol",
  "compiler": {
    "name": "solc",
    "version": "0.5.0+commit.1d4f565a.Emscripten.clang"
  },
  "schemaVersion": "3.0.9",
  "updatedAt": "2019-06-26T01:36:47.789Z",
  "devdoc": {
    "methods": {}
  },
  "userdoc": {
    "methods": {}
  }
}