{
  "contractName": "CertificateStorage",
  "abi": [
    {
      "anonymous": false,
      "inputs": [
        {
          "indexed": true,
          "name": "rdid",
          "type": "address"
        },
        {
          "indexed": false,
          "name": "universityName",
          "type": "string"
        },
        {
          "indexed": false,
          "name": "typeOfDegree",
          "type": "string"
        },
        {
          "indexed": false,
          "name": "major",
          "type": "string"
        },
        {
          "indexed": false,
          "name": "name",
          "type": "string"
        },
        {
          "indexed": false,
          "name": "name",
          "type": "string"
        },
        {
          "indexed": false,
          "name": "name",
          "type": "string"
        }
      ],
      "name": "setCertificateEvent",
      "type": "event"
    },
    {
      "anonymous": false,
      "inputs": [
        {
          "indexed": true,
          "name": "rdid",
          "type": "address"
        },
        {
          "indexed": false,
          "name": "dateOfBirth",
          "type": "string"
        },
        {
          "indexed": false,
          "name": "status",
          "type": "string"
        },
        {
          "indexed": false,
          "name": "yearOfGraduation",
          "type": "uint256"
        },
        {
          "indexed": false,
          "name": "degreeClassification",
          "type": "string"
        },
        {
          "indexed": false,
          "name": "_number",
          "type": "uint256"
        },
        {
          "indexed": false,
          "name": "_regNo",
          "type": "string"
        }
      ],
      "name": "setCertificateAdditionEvent",
      "type": "event"
    },
    {
      "anonymous": false,
      "inputs": [
        {
          "indexed": true,
          "name": "rdid",
          "type": "address"
        },
        {
          "indexed": false,
          "name": "modeOfStudy",
          "type": "string"
        },
        {
          "indexed": false,
          "name": "certificateDeliveryDate",
          "type": "string"
        },
        {
          "indexed": false,
          "name": "number",
          "type": "uint256"
        },
        {
          "indexed": false,
          "name": "regNo",
          "type": "string"
        },
        {
          "indexed": false,
          "name": "index",
          "type": "uint256"
        }
      ],
      "name": "setCertificateAdditionEventDetail",
      "type": "event"
    },
    {
      "constant": false,
      "inputs": [
        {
          "name": "rdhid",
          "type": "address",
          "indexed": true
        },
        {
          "name": "thaotac",
          "type": "string",
          "indexed": false
        },
        {
          "name": "createTimeCertificate",
          "type": "string",
          "indexed": false
        },
        {
          "name": "comment",
          "type": "string",
          "indexed": false
        },
        {
          "name": "index",
          "type": "uint256",
          "indexed": false
        },
        {
          "name": "index",
          "type": "uint256",
          "indexed": false
        },
        {
          "name": "_status",
          "type": "string"
        },
        {
          "name": "_yearOfGraduation",
          "type": "uint256"
        },
        {
          "name": "_degreeClassification",
          "type": "string"
        },
        {
          "name": "_modeOfStudy",
          "type": "string"
        },
        {
          "name": "_certificateDeliveryDate",
          "type": "uint256"
        },
        {
          "name": "_number",
          "type": "uint256"
        },
        {
          "name": "_regNo",
          "type": "string"
        }
      ],
      "name": "setHistoryEvent",
      "outputs": [],
      "payable": false,
      "stateMutability": "nonpayable",
      "type": "event",
      "anonymous": false
    },
    {
      "constant": false,
      "inputs": [
        {
          "name": "rdid",
          "type": "address",
          "indexed": true
        },
        {
          "name": "universityName",
          "type": "string",
          "indexed": false
        },
        {
          "name": "typeOfDegree",
          "type": "string",
          "indexed": false
        },
        {
          "name": "typeOfDegree",
          "type": "string",
          "indexed": false
        },
        {
          "indexed": false,
          "name": "typeOfDegree",
          "type": "string"
        }
      ],
      "name": "updateStatus",
      "outputs": [],
      "payable": false,
      "stateMutability": "nonpayable",
      "type": "event",
      "anonymous": false
    },
    {
      "constant": true,
      "inputs": [
        {
          "name": "major",
          "type": "string",
          "indexed": false
        },
        {
          "indexed": false,
          "name": "name",
          "type": "string"
        },
        {
          "indexed": false,
          "name": "dateOfBirth",
          "type": "string"
        },
        {
          "indexed": false,
          "name": "status",
          "type": "string"
        }
      ],
      "name": "updateStatusAddition",
      "outputs": [
        {
          "name": "id",
          "type": "string"
        },
        {
          "name": "universityName",
          "type": "string"
        },
        {
          "name": "typeOfDegree",
          "type": "string"
        },
        {
          "name": "major",
          "type": "string"
        },
        {
          "name": "name",
          "type": "string"
        },
        {
          "name": "dateOfBirth",
          "type": "uint256"
        },
        {
          "name": "status",
          "type": "string"
        }
      ],
      "payable": false,
      "stateMutability": "view",
      "type": "event",
      "anonymous": false
    },
    {
      "constant": true,
      "inputs": [
        {
          "name": "yearOfGraduation",
          "type": "uint256",
          "indexed": false
        },
        {
          "indexed": false,
          "name": "degreeClassification",
          "type": "string"
        },
        {
          "indexed": false,
          "name": "modeOfStudy",
          "type": "string"
        },
        {
          "indexed": false,
          "name": "certificateDeliveryDate",
          "type": "string"
        },
        {
          "indexed": false,
          "name": "number",
          "type": "uint256"
        },
        {
          "indexed": false,
          "name": "regNo",
          "type": "string"
        },
        {
          "indexed": false,
          "name": "index",
          "type": "uint256"
        }
      ],
      "name": "updateStatusAdditionDetail",
      "outputs": [
        {
          "name": "id",
          "type": "string"
        },
        {
          "name": "yearOfGraduation",
          "type": "uint256"
        },
        {
          "name": "degreeClassification",
          "type": "string"
        },
        {
          "name": "modeOfStudy",
          "type": "string"
        },
        {
          "name": "certificateDeliveryDate",
          "type": "uint256"
        },
        {
          "name": "number",
          "type": "uint256"
        },
        {
          "name": "regNo",
          "type": "string"
        }
      ],
      "payable": false,
      "stateMutability": "view",
      "type": "event",
      "anonymous": false
    },
    {
      "constant": false,
      "inputs": [
        {
          "name": "rdid",
          "type": "address"
        },
        {
          "name": "universityName",
          "type": "string"
        },
        {
          "name": "typeOfDegree",
          "type": "string"
        },
        {
          "name": "major",
          "type": "string"
        },
        {
          "name": "name",
          "type": "string"
        },
        {
          "name": "name",
          "type": "string"
        },
        {
          "name": "name",
          "type": "string"
        }
      ],
      "name": "setCertificate",
      "outputs": [
        {
          "name": "_index",
          "type": "uint256"
        },
        {
          "name": "userName",
          "type": "string"
        },
        {
          "name": "dateTime",
          "type": "uint256"
        },
        {
          "name": "comment",
          "type": "string"
        }
      ],
      "payable": false,
      "stateMutability": "nonpayable",
      "type": "function"
    },
    {
      "constant": false,
      "inputs": [
        {
          "name": "rdid",
          "type": "address"
        },
        {
          "name": "dateOfBirth",
          "type": "string"
        },
        {
          "name": "status",
          "type": "string"
        },
        {
          "name": "yearOfGraduation",
          "type": "uint256"
        },
        {
          "name": "degreeClassification",
          "type": "string"
        }
      ],
      "name": "setCertificateAddition",
      "outputs": [
        {
          "name": "_index",
          "type": "uint256"
        }
      ],
      "payable": false,
      "stateMutability": "nonpayable",
      "type": "function"
    },
    {
      "constant": false,
      "inputs": [
        {
          "name": "rdid",
          "type": "address"
        },
        {
          "name": "modeOfStudy",
          "type": "string"
        },
        {
          "name": "certificateDeliveryDate",
          "type": "string"
        },
        {
          "name": "number",
          "type": "uint256"
        },
        {
          "name": "regNo",
          "type": "string"
        }
      ],
      "name": "setCertificateAdditionDetail",
      "outputs": [
        {
          "name": "_index",
          "type": "uint256"
        }
      ],
      "payable": false,
      "stateMutability": "nonpayable",
      "type": "function"
    },
    {
      "constant": false,
      "inputs": [
        {
          "name": "rdid",
          "type": "address"
        },
        {
          "name": "thaotac",
          "type": "string"
        },
        {
          "name": "createTimeCertificate",
          "type": "string"
        },
        {
          "name": "comment",
          "type": "string"
        },
        {
          "name": "comment",
          "type": "string"
        }
      ],
      "name": "setHistoryCer",
      "outputs": [
        {
          "name": "_index",
          "type": "uint256"
        }
      ],
      "payable": false,
      "stateMutability": "nonpayable",
      "type": "function"
    },
    {
      "constant": true,
      "inputs": [
        {
          "name": "_rdid",
          "type": "address"
        }
      ],
      "name": "getHistoryCertificate",
      "outputs": [
        {
          "name": "rdid",
          "type": "address"
        },
        {
          "name": "thaotac",
          "type": "string"
        },
        {
          "name": "createTimeCertificate",
          "type": "string"
        },
        {
          "name": "comment",
          "type": "string"
        },
        {
          "name": "comment",
          "type": "string"
        }
      ],
      "payable": false,
      "stateMutability": "view",
      "type": "function"
    },
    {
      "constant": false,
      "inputs": [
        {
          "name": "rdid",
          "type": "address"
        },
        {
          "name": "status",
          "type": "string"
        }
      ],
      "name": "approveCertificate",
      "outputs": [
        {
          "name": "success",
          "type": "bool"
        }
      ],
      "payable": false,
      "stateMutability": "nonpayable",
      "type": "function"
    },
    {
      "constant": true,
      "inputs": [
        {
          "name": "_rdid",
          "type": "address"
        }
      ],
      "name": "getCertificate",
      "outputs": [
        {
          "name": "rdid",
          "type": "address"
        },
        {
          "name": "universityName",
          "type": "string"
        },
        {
          "name": "typeOfDegree",
          "type": "string"
        },
        {
          "name": "major",
          "type": "string"
        },
        {
          "name": "name",
          "type": "string"
        },
        {
          "name": "name",
          "type": "string"
        },
        {
          "name": "name",
          "type": "string"
        }
      ],
      "payable": false,
      "stateMutability": "view",
      "type": "function"
    },
    {
      "constant": true,
      "inputs": [
        {
          "name": "_rdid",
          "type": "address"
        }
      ],
      "name": "getCertificateAddition",
      "outputs": [
        {
          "name": "dateOfBirth",
          "type": "string"
        },
        {
          "name": "status",
          "type": "string"
        },
        {
          "name": "yearOfGraduation",
          "type": "uint256"
        },
        {
          "name": "degreeClassification",
          "type": "string"
        }
      ],
      "payable": false,
      "stateMutability": "view",
      "type": "function"
    },
    {
      "constant": true,
      "inputs": [
        {
          "name": "_rdid",
          "type": "address"
        }
      ],
      "name": "getCertificateAdditionDetail",
      "outputs": [
        {
          "name": "modeOfStudy",
          "type": "string"
        },
        {
          "name": "certificateDeliveryDate",
          "type": "string"
        },
        {
          "name": "number",
          "type": "uint256"
        },
        {
          "name": "regNo",
          "type": "string"
        },
        {
          "name": "index",
          "type": "uint256"
        }
      ],
      "payable": false,
      "stateMutability": "view",
      "type": "function"
    },
    {
      "constant": true,
      "inputs": [
        {
          "name": "id",
          "type": "address"
        }
      ],
      "name": "isUser",
      "outputs": [
        {
          "name": "isIndeed",
          "type": "bool"
        }
      ],
      "payable": false,
      "stateMutability": "view",
      "type": "function"
    },
    {
      "constant": true,
      "inputs": [],
      "name": "getUserCount",
      "outputs": [
        {
          "name": "count",
          "type": "uint256"
        }
      ],
      "payable": false,
      "stateMutability": "view",
      "type": "function"
    },
    {
      "constant": true,
      "inputs": [
        {
          "name": "_index",
          "type": "uint256"
        }
      ],
      "name": "getCertificateIndex",
      "outputs": [
        {
          "name": "_id",
          "type": "address"
        }
      ],
      "payable": false,
      "stateMutability": "view",
      "type": "function"
    }
  ],
  "bytecode": "0x608060405234801561001057600080fd5b5061331c806100206000396000f3fe6080604052600436106100ba576000357c0100000000000000000000000000000000000000000000000000000000900463ffffffff16806313df0c9d146100bf5780633f9add1c146103805780634209fff1146105305780634ab754d714610599578063aba90f9f14610614578063ae4aa97514610848578063b485175d14610a1d578063b5cb15f714610bc6578063ccc6231114610bf1578063ebbb69ce14610e25578063f519143a14610f25578063fd531e931461114f575b600080fd5b3480156100cb57600080fd5b5061036a600480360360a08110156100e257600080fd5b81019080803573ffffffffffffffffffffffffffffffffffffffff1690602001909291908035906020019064010000000081111561011f57600080fd5b82018360208201111561013157600080fd5b8035906020019184600183028401116401000000008311171561015357600080fd5b91908080601f016020809104026020016040519081016040528093929190818152602001838380828437600081840152601f19601f820116905080830192505050505050509192919290803590602001906401000000008111156101b657600080fd5b8201836020820111156101c857600080fd5b803590602001918460018302840111640100000000831117156101ea57600080fd5b91908080601f016020809104026020016040519081016040528093929190818152602001838380828437600081840152601f19601f8201169050808301925050505050505091929192908035906020019064010000000081111561024d57600080fd5b82018360208201111561025f57600080fd5b8035906020019184600183028401116401000000008311171561028157600080fd5b91908080601f016020809104026020016040519081016040528093929190818152602001838380828437600081840152601f19601f820116905080830192505050505050509192919290803590602001906401000000008111156102e457600080fd5b8201836020820111156102f657600080fd5b8035906020019184600183028401116401000000008311171561031857600080fd5b91908080601f016020809104026020016040519081016040528093929190818152602001838380828437600081840152601f19601f820116905080830192505050505050509192919290505050611390565b6040518082815260200191505060405180910390f35b34801561038c57600080fd5b506103cf600480360360208110156103a357600080fd5b81019080803573ffffffffffffffffffffffffffffffffffffffff1690602001909291905050506116f7565b60405180806020018060200186815260200180602001858152602001848103845289818151815260200191508051906020019080838360005b83811015610423578082015181840152602081019050610408565b50505050905090810190601f1680156104505780820380516001836020036101000a031916815260200191505b50848103835288818151815260200191508051906020019080838360005b8381101561048957808201518184015260208101905061046e565b50505050905090810190601f1680156104b65780820380516001836020036101000a031916815260200191505b50848103825286818151815260200191508051906020019080838360005b838110156104ef5780820151818401526020810190506104d4565b50505050905090810190601f16801561051c5780820380516001836020036101000a031916815260200191505b509850505050505050505060405180910390f35b34801561053c57600080fd5b5061057f6004803603602081101561055357600080fd5b81019080803573ffffffffffffffffffffffffffffffffffffffff169060200190929190505050611a2e565b604051808215151515815260200191505060405180910390f35b3480156105a557600080fd5b506105d2600480360360208110156105bc57600080fd5b8101908080359060200190929190505050611af7565b604051808273ffffffffffffffffffffffffffffffffffffffff1673ffffffffffffffffffffffffffffffffffffffff16815260200191505060405180910390f35b34801561062057600080fd5b50610832600480360360a081101561063757600080fd5b81019080803573ffffffffffffffffffffffffffffffffffffffff1690602001909291908035906020019064010000000081111561067457600080fd5b82018360208201111561068657600080fd5b803590602001918460018302840111640100000000831117156106a857600080fd5b91908080601f016020809104026020016040519081016040528093929190818152602001838380828437600081840152601f19601f8201169050808301925050505050505091929192908035906020019064010000000081111561070b57600080fd5b82018360208201111561071d57600080fd5b8035906020019184600183028401116401000000008311171561073f57600080fd5b91908080601f016020809104026020016040519081016040528093929190818152602001838380828437600081840152601f19601f82011690508083019250505050505050919291929080359060200190929190803590602001906401000000008111156107ac57600080fd5b8201836020820111156107be57600080fd5b803590602001918460018302840111640100000000831117156107e057600080fd5b91908080601f016020809104026020016040519081016040528093929190818152602001838380828437600081840152601f19601f820116905080830192505050505050509192919290505050611b3a565b6040518082815260200191505060405180910390f35b34801561085457600080fd5b506108976004803603602081101561086b57600080fd5b81019080803573ffffffffffffffffffffffffffffffffffffffff169060200190929190505050611e2c565b604051808573ffffffffffffffffffffffffffffffffffffffff1673ffffffffffffffffffffffffffffffffffffffff168152602001806020018060200180602001848103845287818151815260200191508051906020019080838360005b838110156109115780820151818401526020810190506108f6565b50505050905090810190601f16801561093e5780820380516001836020036101000a031916815260200191505b50848103835286818151815260200191508051906020019080838360005b8381101561097757808201518184015260208101905061095c565b50505050905090810190601f1680156109a45780820380516001836020036101000a031916815260200191505b50848103825285818151815260200191508051906020019080838360005b838110156109dd5780820151818401526020810190506109c2565b50505050905090810190601f168015610a0a5780820380516001836020036101000a031916815260200191505b5097505050505050505060405180910390f35b348015610a2957600080fd5b50610a6c60048036036020811015610a4057600080fd5b81019080803573ffffffffffffffffffffffffffffffffffffffff1690602001909291905050506120dd565b60405180806020018060200185815260200180602001848103845288818151815260200191508051906020019080838360005b83811015610aba578082015181840152602081019050610a9f565b50505050905090810190601f168015610ae75780820380516001836020036101000a031916815260200191505b50848103835287818151815260200191508051906020019080838360005b83811015610b20578082015181840152602081019050610b05565b50505050905090810190601f168015610b4d5780820380516001836020036101000a031916815260200191505b50848103825285818151815260200191508051906020019080838360005b83811015610b86578082015181840152602081019050610b6b565b50505050905090810190601f168015610bb35780820380516001836020036101000a031916815260200191505b5097505050505050505060405180910390f35b348015610bd257600080fd5b50610bdb6123cc565b6040518082815260200191505060405180910390f35b348015610bfd57600080fd5b50610e0f600480360360a0811015610c1457600080fd5b81019080803573ffffffffffffffffffffffffffffffffffffffff16906020019092919080359060200190640100000000811115610c5157600080fd5b820183602082011115610c6357600080fd5b80359060200191846001830284011164010000000083111715610c8557600080fd5b91908080601f016020809104026020016040519081016040528093929190818152602001838380828437600081840152601f19601f82011690508083019250505050505050919291929080359060200190640100000000811115610ce857600080fd5b820183602082011115610cfa57600080fd5b80359060200191846001830284011164010000000083111715610d1c57600080fd5b91908080601f016020809104026020016040519081016040528093929190818152602001838380828437600081840152601f19601f8201169050808301925050505050505091929192908035906020019092919080359060200190640100000000811115610d8957600080fd5b820183602082011115610d9b57600080fd5b80359060200191846001830284011164010000000083111715610dbd57600080fd5b91908080601f016020809104026020016040519081016040528093929190818152602001838380828437600081840152601f19601f8201169050808301925050505050505091929192905050506123d9565b6040518082815260200191505060405180910390f35b348015610e3157600080fd5b50610f0b60048036036040811015610e4857600080fd5b81019080803573ffffffffffffffffffffffffffffffffffffffff16906020019092919080359060200190640100000000811115610e8557600080fd5b820183602082011115610e9757600080fd5b80359060200191846001830284011164010000000083111715610eb957600080fd5b91908080601f016020809104026020016040519081016040528093929190818152602001838380828437600081840152601f19601f8201169050808301925050505050505091929192905050506127c0565b604051808215151515815260200191505060405180910390f35b348015610f3157600080fd5b5061113960048036036080811015610f4857600080fd5b81019080803573ffffffffffffffffffffffffffffffffffffffff16906020019092919080359060200190640100000000811115610f8557600080fd5b820183602082011115610f9757600080fd5b80359060200191846001830284011164010000000083111715610fb957600080fd5b91908080601f016020809104026020016040519081016040528093929190818152602001838380828437600081840152601f19601f8201169050808301925050505050505091929192908035906020019064010000000081111561101c57600080fd5b82018360208201111561102e57600080fd5b8035906020019184600183028401116401000000008311171561105057600080fd5b91908080601f016020809104026020016040519081016040528093929190818152602001838380828437600081840152601f19601f820116905080830192505050505050509192919290803590602001906401000000008111156110b357600080fd5b8201836020820111156110c557600080fd5b803590602001918460018302840111640100000000831117156110e757600080fd5b91908080601f016020809104026020016040519081016040528093929190818152602001838380828437600081840152601f19601f820116905080830192505050505050509192919290505050612b1c565b6040518082815260200191505060405180910390f35b34801561115b57600080fd5b5061119e6004803603602081101561117257600080fd5b81019080803573ffffffffffffffffffffffffffffffffffffffff169060200190929190505050612ebb565b604051808673ffffffffffffffffffffffffffffffffffffffff1673ffffffffffffffffffffffffffffffffffffffff16815260200180602001806020018060200180602001858103855289818151815260200191508051906020019080838360005b8381101561121c578082015181840152602081019050611201565b50505050905090810190601f1680156112495780820380516001836020036101000a031916815260200191505b50858103845288818151815260200191508051906020019080838360005b83811015611282578082015181840152602081019050611267565b50505050905090810190601f1680156112af5780820380516001836020036101000a031916815260200191505b50858103835287818151815260200191508051906020019080838360005b838110156112e85780820151818401526020810190506112cd565b50505050905090810190601f1680156113155780820380516001836020036101000a031916815260200191505b50858103825286818151815260200191508051906020019080838360005b8381101561134e578082015181840152602081019050611333565b50505050905090810190601f16801561137b5780820380516001836020036101000a031916815260200191505b50995050505050505050505060405180910390f35b6000846000808873ffffffffffffffffffffffffffffffffffffffff1673ffffffffffffffffffffffffffffffffffffffff16815260200190815260200160002060000190805190602001906113e792919061324b565b50836000808873ffffffffffffffffffffffffffffffffffffffff1673ffffffffffffffffffffffffffffffffffffffff168152602001908152602001600020600101908051906020019061143d92919061324b565b50826000808873ffffffffffffffffffffffffffffffffffffffff1673ffffffffffffffffffffffffffffffffffffffff168152602001908152602001600020600201908051906020019061149392919061324b565b50816000808873ffffffffffffffffffffffffffffffffffffffff1673ffffffffffffffffffffffffffffffffffffffff16815260200190815260200160002060030190805190602001906114e992919061324b565b508573ffffffffffffffffffffffffffffffffffffffff167f508623c46c5a2caaf2b5e545968c83cbcd1035de74b58111138a7c6de820936a868686866040518080602001806020018060200180602001858103855289818151815260200191508051906020019080838360005b83811015611572578082015181840152602081019050611557565b50505050905090810190601f16801561159f5780820380516001836020036101000a031916815260200191505b50858103845288818151815260200191508051906020019080838360005b838110156115d85780820151818401526020810190506115bd565b50505050905090810190601f1680156116055780820380516001836020036101000a031916815260200191505b50858103835287818151815260200191508051906020019080838360005b8381101561163e578082015181840152602081019050611623565b50505050905090810190601f16801561166b5780820380516001836020036101000a031916815260200191505b50858103825286818151815260200191508051906020019080838360005b838110156116a4578082015181840152602081019050611689565b50505050905090810190601f1680156116d15780820380516001836020036101000a031916815260200191505b509850505050505050505060405180910390a26001808054905003905095945050505050565b6060806000606060008060008773ffffffffffffffffffffffffffffffffffffffff1673ffffffffffffffffffffffffffffffffffffffff1681526020019081526020016000206008016000808873ffffffffffffffffffffffffffffffffffffffff1673ffffffffffffffffffffffffffffffffffffffff1681526020019081526020016000206009016000808973ffffffffffffffffffffffffffffffffffffffff1673ffffffffffffffffffffffffffffffffffffffff168152602001908152602001600020600a01546000808a73ffffffffffffffffffffffffffffffffffffffff1673ffffffffffffffffffffffffffffffffffffffff168152602001908152602001600020600b016000808b73ffffffffffffffffffffffffffffffffffffffff1673ffffffffffffffffffffffffffffffffffffffff168152602001908152602001600020600c0154848054600181600116156101000203166002900480601f0160208091040260200160405190810160405280929190818152602001828054600181600116156101000203166002900480156118dc5780601f106118b1576101008083540402835291602001916118dc565b820191906000526020600020905b8154815290600101906020018083116118bf57829003601f168201915b50505050509450838054600181600116156101000203166002900480601f0160208091040260200160405190810160405280929190818152602001828054600181600116156101000203166002900480156119785780601f1061194d57610100808354040283529160200191611978565b820191906000526020600020905b81548152906001019060200180831161195b57829003601f168201915b50505050509350818054600181600116156101000203166002900480601f016020809104026020016040519081016040528092919081815260200182805460018160011615610100020316600290048015611a145780601f106119e957610100808354040283529160200191611a14565b820191906000526020600020905b8154815290600101906020018083116119f757829003601f168201915b505050505091509450945094509450945091939590929450565b6000806001805490501415611a465760009050611af2565b8173ffffffffffffffffffffffffffffffffffffffff1660016000808573ffffffffffffffffffffffffffffffffffffffff1673ffffffffffffffffffffffffffffffffffffffff168152602001908152602001600020600c0154815481101515611aad57fe5b9060005260206000200160009054906101000a900473ffffffffffffffffffffffffffffffffffffffff1673ffffffffffffffffffffffffffffffffffffffff161490505b919050565b6000600182815481101515611b0857fe5b9060005260206000200160009054906101000a900473ffffffffffffffffffffffffffffffffffffffff169050919050565b6000846000808873ffffffffffffffffffffffffffffffffffffffff1673ffffffffffffffffffffffffffffffffffffffff1681526020019081526020016000206004019080519060200190611b9192919061324b565b50836000808873ffffffffffffffffffffffffffffffffffffffff1673ffffffffffffffffffffffffffffffffffffffff1681526020019081526020016000206005019080519060200190611be792919061324b565b50826000808873ffffffffffffffffffffffffffffffffffffffff1673ffffffffffffffffffffffffffffffffffffffff16815260200190815260200160002060060181905550816000808873ffffffffffffffffffffffffffffffffffffffff1673ffffffffffffffffffffffffffffffffffffffff1681526020019081526020016000206007019080519060200190611c8392919061324b565b508573ffffffffffffffffffffffffffffffffffffffff167f10e090d3000bdeaac1b2e49a4dd366a65361c9f19eff59a52950d0416862f8108686868660405180806020018060200185815260200180602001848103845288818151815260200191508051906020019080838360005b83811015611d0e578082015181840152602081019050611cf3565b50505050905090810190601f168015611d3b5780820380516001836020036101000a031916815260200191505b50848103835287818151815260200191508051906020019080838360005b83811015611d74578082015181840152602081019050611d59565b50505050905090810190601f168015611da15780820380516001836020036101000a031916815260200191505b50848103825285818151815260200191508051906020019080838360005b83811015611dda578082015181840152602081019050611dbf565b50505050905090810190601f168015611e075780820380516001836020036101000a031916815260200191505b5097505050505050505060405180910390a26001808054905003905095945050505050565b6000606080606084600260008773ffffffffffffffffffffffffffffffffffffffff1673ffffffffffffffffffffffffffffffffffffffff168152602001908152602001600020600001600260008873ffffffffffffffffffffffffffffffffffffffff1673ffffffffffffffffffffffffffffffffffffffff168152602001908152602001600020600101600260008973ffffffffffffffffffffffffffffffffffffffff1673ffffffffffffffffffffffffffffffffffffffff168152602001908152602001600020600201828054600181600116156101000203166002900480601f016020809104026020016040519081016040528092919081815260200182805460018160011615610100020316600290048015611f8f5780601f10611f6457610100808354040283529160200191611f8f565b820191906000526020600020905b815481529060010190602001808311611f7257829003601f168201915b50505050509250818054600181600116156101000203166002900480601f01602080910402602001604051908101604052809291908181526020018280546001816001161561010002031660029004801561202b5780601f106120005761010080835404028352916020019161202b565b820191906000526020600020905b81548152906001019060200180831161200e57829003601f168201915b50505050509150808054600181600116156101000203166002900480601f0160208091040260200160405190810160405280929190818152602001828054600181600116156101000203166002900480156120c75780601f1061209c576101008083540402835291602001916120c7565b820191906000526020600020905b8154815290600101906020018083116120aa57829003601f168201915b5050505050905093509350935093509193509193565b606080600060606000808673ffffffffffffffffffffffffffffffffffffffff1673ffffffffffffffffffffffffffffffffffffffff1681526020019081526020016000206004016000808773ffffffffffffffffffffffffffffffffffffffff1673ffffffffffffffffffffffffffffffffffffffff1681526020019081526020016000206005016000808873ffffffffffffffffffffffffffffffffffffffff1673ffffffffffffffffffffffffffffffffffffffff168152602001908152602001600020600601546000808973ffffffffffffffffffffffffffffffffffffffff1673ffffffffffffffffffffffffffffffffffffffff168152602001908152602001600020600701838054600181600116156101000203166002900480601f01602080910402602001604051908101604052809291908181526020018280546001816001161561010002031660029004801561227e5780601f106122535761010080835404028352916020019161227e565b820191906000526020600020905b81548152906001019060200180831161226157829003601f168201915b50505050509350828054600181600116156101000203166002900480601f01602080910402602001604051908101604052809291908181526020018280546001816001161561010002031660029004801561231a5780601f106122ef5761010080835404028352916020019161231a565b820191906000526020600020905b8154815290600101906020018083116122fd57829003601f168201915b50505050509250808054600181600116156101000203166002900480601f0160208091040260200160405190810160405280929190818152602001828054600181600116156101000203166002900480156123b65780601f1061238b576101008083540402835291602001916123b6565b820191906000526020600020905b81548152906001019060200180831161239957829003601f168201915b5050505050905093509350935093509193509193565b6000600180549050905090565b6000846000808873ffffffffffffffffffffffffffffffffffffffff1673ffffffffffffffffffffffffffffffffffffffff168152602001908152602001600020600801908051906020019061243092919061324b565b50836000808873ffffffffffffffffffffffffffffffffffffffff1673ffffffffffffffffffffffffffffffffffffffff168152602001908152602001600020600901908051906020019061248692919061324b565b50826000808873ffffffffffffffffffffffffffffffffffffffff1673ffffffffffffffffffffffffffffffffffffffff168152602001908152602001600020600a0181905550816000808873ffffffffffffffffffffffffffffffffffffffff1673ffffffffffffffffffffffffffffffffffffffff168152602001908152602001600020600b01908051906020019061252292919061324b565b506001808790806001815401808255809150509060018203906000526020600020016000909192909190916101000a81548173ffffffffffffffffffffffffffffffffffffffff021916908373ffffffffffffffffffffffffffffffffffffffff160217905550036000808873ffffffffffffffffffffffffffffffffffffffff1673ffffffffffffffffffffffffffffffffffffffff168152602001908152602001600020600c01819055508573ffffffffffffffffffffffffffffffffffffffff167f56196f8df6c00c40f1b406f39e840f3d393c7c8a61288d156e90b32031677572868686866000808d73ffffffffffffffffffffffffffffffffffffffff1673ffffffffffffffffffffffffffffffffffffffff168152602001908152602001600020600c015460405180806020018060200186815260200180602001858152602001848103845289818151815260200191508051906020019080838360005b838110156126a1578082015181840152602081019050612686565b50505050905090810190601f1680156126ce5780820380516001836020036101000a031916815260200191505b50848103835288818151815260200191508051906020019080838360005b838110156127075780820151818401526020810190506126ec565b50505050905090810190601f1680156127345780820380516001836020036101000a031916815260200191505b50848103825286818151815260200191508051906020019080838360005b8381101561276d578082015181840152602081019050612752565b50505050905090810190601f16801561279a5780820380516001836020036101000a031916815260200191505b509850505050505050505060405180910390a26001808054905003905095945050505050565b6000816000808573ffffffffffffffffffffffffffffffffffffffff1673ffffffffffffffffffffffffffffffffffffffff168152602001908152602001600020600501908051906020019061281792919061324b565b507f17a1672dc9e7c293feba36470f1f87ff1b7fde8c211cfc86deb24cc53cbd43ae6000808573ffffffffffffffffffffffffffffffffffffffff1673ffffffffffffffffffffffffffffffffffffffff1681526020019081526020016000206002016000808673ffffffffffffffffffffffffffffffffffffffff1673ffffffffffffffffffffffffffffffffffffffff1681526020019081526020016000206003016000808773ffffffffffffffffffffffffffffffffffffffff1673ffffffffffffffffffffffffffffffffffffffff1681526020019081526020016000206004018560405180806020018060200180602001806020018581038552898181546001816001161561010002031660029004815260200191508054600181600116156101000203166002900480156129925780601f1061296757610100808354040283529160200191612992565b820191906000526020600020905b81548152906001019060200180831161297557829003601f168201915b5050858103845288818154600181600116156101000203166002900481526020019150805460018160011615610100020316600290048015612a155780601f106129ea57610100808354040283529160200191612a15565b820191906000526020600020905b8154815290600101906020018083116129f857829003601f168201915b5050858103835287818154600181600116156101000203166002900481526020019150805460018160011615610100020316600290048015612a985780601f10612a6d57610100808354040283529160200191612a98565b820191906000526020600020905b815481529060010190602001808311612a7b57829003601f168201915b5050858103825286818151815260200191508051906020019080838360005b83811015612ad2578082015181840152602081019050612ab7565b50505050905090810190601f168015612aff5780820380516001836020036101000a031916815260200191505b509850505050505050505060405180910390a16001905092915050565b600083600260008773ffffffffffffffffffffffffffffffffffffffff1673ffffffffffffffffffffffffffffffffffffffff1681526020019081526020016000206000019080519060200190612b7492919061324b565b5082600260008773ffffffffffffffffffffffffffffffffffffffff1673ffffffffffffffffffffffffffffffffffffffff1681526020019081526020016000206001019080519060200190612bcb92919061324b565b5081600260008773ffffffffffffffffffffffffffffffffffffffff1673ffffffffffffffffffffffffffffffffffffffff1681526020019081526020016000206002019080519060200190612c2292919061324b565b50600160038690806001815401808255809150509060018203906000526020600020016000909192909190916101000a81548173ffffffffffffffffffffffffffffffffffffffff021916908373ffffffffffffffffffffffffffffffffffffffff16021790555003600260008773ffffffffffffffffffffffffffffffffffffffff1673ffffffffffffffffffffffffffffffffffffffff168152602001908152602001600020600301819055508473ffffffffffffffffffffffffffffffffffffffff167f55ae1dbc52814f813c542f53ae566b56571e79ad26ad094b5f5d729192dc6a09858585600260008b73ffffffffffffffffffffffffffffffffffffffff1673ffffffffffffffffffffffffffffffffffffffff1681526020019081526020016000206003015460405180806020018060200180602001858152602001848103845288818151815260200191508051906020019080838360005b83811015612d9d578082015181840152602081019050612d82565b50505050905090810190601f168015612dca5780820380516001836020036101000a031916815260200191505b50848103835287818151815260200191508051906020019080838360005b83811015612e03578082015181840152602081019050612de8565b50505050905090810190601f168015612e305780820380516001836020036101000a031916815260200191505b50848103825286818151815260200191508051906020019080838360005b83811015612e69578082015181840152602081019050612e4e565b50505050905090810190601f168015612e965780820380516001836020036101000a031916815260200191505b5097505050505050505060405180910390a26001600380549050039050949350505050565b6000606080606080856000808873ffffffffffffffffffffffffffffffffffffffff1673ffffffffffffffffffffffffffffffffffffffff1681526020019081526020016000206000016000808973ffffffffffffffffffffffffffffffffffffffff1673ffffffffffffffffffffffffffffffffffffffff1681526020019081526020016000206001016000808a73ffffffffffffffffffffffffffffffffffffffff1673ffffffffffffffffffffffffffffffffffffffff1681526020019081526020016000206002016000808b73ffffffffffffffffffffffffffffffffffffffff1673ffffffffffffffffffffffffffffffffffffffff168152602001908152602001600020600301838054600181600116156101000203166002900480601f01602080910402602001604051908101604052809291908181526020018280546001816001161561010002031660029004801561305d5780601f106130325761010080835404028352916020019161305d565b820191906000526020600020905b81548152906001019060200180831161304057829003601f168201915b50505050509350828054600181600116156101000203166002900480601f0160208091040260200160405190810160405280929190818152602001828054600181600116156101000203166002900480156130f95780601f106130ce576101008083540402835291602001916130f9565b820191906000526020600020905b8154815290600101906020018083116130dc57829003601f168201915b50505050509250818054600181600116156101000203166002900480601f0160208091040260200160405190810160405280929190818152602001828054600181600116156101000203166002900480156131955780601f1061316a57610100808354040283529160200191613195565b820191906000526020600020905b81548152906001019060200180831161317857829003601f168201915b50505050509150808054600181600116156101000203166002900480601f0160208091040260200160405190810160405280929190818152602001828054600181600116156101000203166002900480156132315780601f1061320657610100808354040283529160200191613231565b820191906000526020600020905b81548152906001019060200180831161321457829003601f168201915b505050505090509450945094509450945091939590929450565b828054600181600116156101000203166002900490600052602060002090601f016020900481019282601f1061328c57805160ff19168380011785556132ba565b828001600101855582156132ba579182015b828111156132b957825182559160200191906001019061329e565b5b5090506132c791906132cb565b5090565b6132ed91905b808211156132e95760008160009055506001016132d1565b5090565b9056fea165627a7a723058205879f79f590d1c349397538ffba8bfd570cf2d2a9af1f7065a9a2b7c41cf084e0029",
  "source": "pragma solidity >=0.4.21 <0.6.0;\n\ncontract CertificateStorage {\n    struct Certificate{\n        string universityName;\n        string typeOfDegree;\n        string major;\n        string name;\n        string dateOfBirth;\n        string status;\n        uint256 yearOfGraduation;\n        string degreeClassification;\n        string modeOfStudy;\n        string certificateDeliveryDate;\n        uint256 number;\n        string regNo;\n        uint index;\n    }\n\n    struct historyUserCertificate {\n        string thaotac;\n        string createTimeCertificate;\n        string comment;\n        uint index;\n    }\n\n\n    mapping (address => Certificate) private CertificateMapping;\n    address[] private certificateIndex;\n\n    mapping (address => historyUserCertificate) private historyCertificate;\n    address[] private historyCerIndex;\n\n\n    event setCertificateEvent(\n        address indexed rdid,\n        string universityName,\n        string typeOfDegree,\n        string major,\n        string name);\n\n    event setCertificateAdditionEvent(\n        address indexed rdid,\n        string dateOfBirth,\n        string  status,\n        uint256 yearOfGraduation,\n        string degreeClassification);\n\n    event setCertificateAdditionEventDetail(\n        address indexed rdid,\n        string modeOfStudy,\n        string certificateDeliveryDate,\n        uint256 number,\n        string regNo,\n        uint index);\n\n    //end event insert certificate\n\n\n    event setHistoryEvent(\n        address indexed rdhid,\n        string thaotac,\n        string createTimeCertificate,\n        string comment,\n        uint index);\n\n    //event update status\n    event updateStatus(\n        address indexed rdid,\n        string universityName,\n        string typeOfDegree\n    );\n\n    event updateStatusAddition(\n        string major,\n        string name,\n        string dateOfBirth,\n        string  status\n    );\n\n    event updateStatusAdditionDetail(\n        uint256 yearOfGraduation,\n        string degreeClassification,\n        string modeOfStudy,\n        string certificateDeliveryDate,\n        uint256 number,\n        string regNo,\n        uint index\n    );\n    //End update\n    //begin insert certificate\n    function setCertificate(\n        address rdid,\n        string memory universityName,\n        string memory typeOfDegree,\n        string memory major,\n        string memory name\n        ) public returns(uint _index){\n            CertificateMapping[rdid].universityName = universityName;\n            CertificateMapping[rdid].typeOfDegree = typeOfDegree;\n            CertificateMapping[rdid].major = major;\n            CertificateMapping[rdid].name = name;\n                emit setCertificateEvent(\n                    rdid,\n                    universityName,\n                    typeOfDegree,\n                    major,\n                    name\n                    );\n                return certificateIndex.length-1;\n    }\n\n    function setCertificateAddition(\n        address rdid,\n        string memory dateOfBirth,\n        string memory status,\n        uint256 yearOfGraduation,\n        string memory degreeClassification\n    )public returns(uint _index){\n        CertificateMapping[rdid].dateOfBirth = dateOfBirth;\n        CertificateMapping[rdid].status = status;\n        CertificateMapping[rdid].yearOfGraduation = yearOfGraduation;\n        CertificateMapping[rdid].degreeClassification = degreeClassification;\n        emit setCertificateAdditionEvent(\n            rdid,\n            dateOfBirth,\n            status,\n            yearOfGraduation,\n            degreeClassification\n        );\n        return certificateIndex.length-1;\n    }\n\n\n    function setCertificateAdditionDetail(\n        address rdid,\n        string memory modeOfStudy,\n        string memory certificateDeliveryDate,\n        uint256 number,\n        string memory regNo\n    )public returns(uint _index){\n        CertificateMapping[rdid].modeOfStudy = modeOfStudy;\n        CertificateMapping[rdid].certificateDeliveryDate = certificateDeliveryDate;\n        CertificateMapping[rdid].number = number;\n        CertificateMapping[rdid].regNo = regNo;\n        CertificateMapping[rdid].index = certificateIndex.push(rdid)-1;\n        emit setCertificateAdditionEventDetail(\n            rdid,\n            modeOfStudy,\n            certificateDeliveryDate,\n            number,\n            regNo,\n            CertificateMapping[rdid].index\n        );\n        return certificateIndex.length-1;\n    }\n\n\n    //end insert certificate\n    //insert history certificate\n\n    function setHistoryCer(\n        address rdid,\n        string memory thaotac,\n        string memory createTimeCertificate,\n        string memory comment\n    ) public returns(uint _index){\n        historyCertificate[rdid].thaotac = thaotac;\n        historyCertificate[rdid].createTimeCertificate = createTimeCertificate;\n        historyCertificate[rdid].comment = comment;\n        historyCertificate[rdid].index = historyCerIndex.push(rdid)-1;\n        emit setHistoryEvent(\n            rdid,\n            thaotac,\n            createTimeCertificate,\n            comment,\n            historyCertificate[rdid].index);\n        return historyCerIndex.length-1;\n    }\n    //end insert history event\n\n\n    //show history\n    function getHistoryCertificate(address _rdid) public view returns(\n        address rdid,\n        string memory thaotac,\n        string memory createTimeCertificate,\n        string memory comment\n    ){\n        return(\n            _rdid,\n            historyCertificate[_rdid].thaotac,\n            historyCertificate[_rdid].createTimeCertificate,\n            historyCertificate[_rdid].comment\n        );\n    }\n    //end show history\n\n\n    //update status certificate approve\n    function approveCertificate(\n        address rdid,\n        string memory status\n    ) public returns(bool success){\n        CertificateMapping[rdid].status = status;\n        emit updateStatusAddition(\n            CertificateMapping[rdid].major,\n            CertificateMapping[rdid].name,\n            CertificateMapping[rdid].dateOfBirth,\n            status\n        );\n        return true;\n    }\n\n    //Begin get certificate\n    function getCertificate(address _rdid) public view returns(address rdid,\n        string memory universityName,\n        string memory typeOfDegree,\n        string memory major,\n        string memory name){\n        return(\n            _rdid,\n            CertificateMapping[_rdid].universityName,\n            CertificateMapping[_rdid].typeOfDegree,\n            CertificateMapping[_rdid].major,\n            CertificateMapping[_rdid].name\n        );\n    }\n\n\n    function getCertificateAddition(address _rdid) public view returns(\n        string memory dateOfBirth,\n        string memory status,\n        uint256 yearOfGraduation,\n        string memory degreeClassification){\n        return(\n            CertificateMapping[_rdid].dateOfBirth,\n            CertificateMapping[_rdid].status,\n            CertificateMapping[_rdid].yearOfGraduation,\n            CertificateMapping[_rdid].degreeClassification\n        );\n    }\n\n\n    function getCertificateAdditionDetail(address _rdid) public view returns(\n        string memory modeOfStudy,\n        string memory certificateDeliveryDate,\n        uint256 number,\n        string memory regNo,\n        uint index){\n        return(\n            CertificateMapping[_rdid].modeOfStudy,\n            CertificateMapping[_rdid].certificateDeliveryDate,\n            CertificateMapping[_rdid].number,\n            CertificateMapping[_rdid].regNo,\n            CertificateMapping[_rdid].index\n        );\n    }\n    //End get certificate\n\n    //Check user or not\n    function isUser(address id) public view returns(bool isIndeed)\n    {\n        if(certificateIndex.length == 0) return false;\n        return (certificateIndex[CertificateMapping[id].index] == id);\n    }\n\n    function getUserCount() public view returns(uint count)\n    {\n        return certificateIndex.length;\n    }\n\n    function getCertificateIndex(uint _index) public view returns(address _id)\n    {\n        return certificateIndex[_index];\n    }\n\n\n}",
  "sourcePath": "/opt/lampp/htdocs/thuctap/blockchaindemo/TG_UNIVERSITY_CERTIFICATE_VERIFICATION_SERVER/contracts/Certificate.sol",
  "compiler": {
    "name": "solc",
    "version": "0.5.0+commit.1d4f565a.Emscripten.clang"
  },
  "schemaVersion": "3.0.9",
  "updatedAt": "2019-06-13T14:08:58.053Z",
  "devdoc": {
    "methods": {}
  },
  "userdoc": {
    "methods": {}
  }
}