{
  "contractName": "CertificateStorage",
  "abi": [
    {
      "anonymous": false,
      "inputs": [
        {
          "indexed": false,
          "name": "_id",
          "type": "string"
        },
        {
          "indexed": false,
          "name": "_universityName",
          "type": "string"
        },
        {
          "indexed": false,
          "name": "_typeOfDegree",
          "type": "string"
        },
        {
          "indexed": false,
          "name": "_major",
          "type": "string"
        },
        {
          "indexed": false,
          "name": "_name",
          "type": "string"
        },
        {
          "indexed": false,
          "name": "_dateOfBirth",
          "type": "uint256"
        },
        {
          "indexed": false,
          "name": "_status",
          "type": "string"
        }
      ],
      "name": "setCertificateEvent",
      "type": "event"
    },
    {
      "anonymous": false,
      "inputs": [
        {
          "indexed": false,
          "name": "_id",
          "type": "string"
        },
        {
          "indexed": false,
          "name": "_yearOfGraduation",
          "type": "uint256"
        },
        {
          "indexed": false,
          "name": "_degreeClassification",
          "type": "string"
        },
        {
          "indexed": false,
          "name": "_modeOfStudy",
          "type": "string"
        },
        {
          "indexed": false,
          "name": "_certificateDeliveryDate",
          "type": "uint256"
        },
        {
          "indexed": false,
          "name": "_number",
          "type": "uint256"
        },
        {
          "indexed": false,
          "name": "_regNo",
          "type": "string"
        }
      ],
      "name": "setCertificateAdditionEvent",
      "type": "event"
    },
    {
      "anonymous": false,
      "inputs": [
        {
          "indexed": false,
          "name": "_userId",
          "type": "string"
        },
        {
          "indexed": false,
          "name": "_userName",
          "type": "string"
        },
        {
          "indexed": false,
          "name": "_dateTime",
          "type": "uint256"
        },
        {
          "indexed": false,
          "name": "_comment",
          "type": "string"
        }
      ],
      "name": "setUserConfirmCertificateEvent",
      "type": "event"
    },
    {
      "constant": false,
      "inputs": [
        {
          "name": "_id",
          "type": "string"
        },
        {
          "name": "_universityName",
          "type": "string"
        },
        {
          "name": "_typeOfDegree",
          "type": "string"
        },
        {
          "name": "_major",
          "type": "string"
        },
        {
          "name": "_name",
          "type": "string"
        },
        {
          "name": "_dateOfBirth",
          "type": "uint256"
        },
        {
          "name": "_status",
          "type": "string"
        },
        {
          "name": "_yearOfGraduation",
          "type": "uint256"
        },
        {
          "name": "_degreeClassification",
          "type": "string"
        },
        {
          "name": "_modeOfStudy",
          "type": "string"
        },
        {
          "name": "_certificateDeliveryDate",
          "type": "uint256"
        },
        {
          "name": "_number",
          "type": "uint256"
        },
        {
          "name": "_regNo",
          "type": "string"
        }
      ],
      "name": "setCertificate",
      "outputs": [],
      "payable": false,
      "stateMutability": "nonpayable",
      "type": "function"
    },
    {
      "constant": false,
      "inputs": [
        {
          "name": "_userId",
          "type": "string"
        },
        {
          "name": "_userName",
          "type": "string"
        },
        {
          "name": "_dateTime",
          "type": "uint256"
        },
        {
          "name": "_comment",
          "type": "string"
        }
      ],
      "name": "setUserConfirmCertificate",
      "outputs": [],
      "payable": false,
      "stateMutability": "nonpayable",
      "type": "function"
    },
    {
      "constant": true,
      "inputs": [
        {
          "name": "_id",
          "type": "string"
        }
      ],
      "name": "getCertificate",
      "outputs": [
        {
          "name": "id",
          "type": "string"
        },
        {
          "name": "universityName",
          "type": "string"
        },
        {
          "name": "typeOfDegree",
          "type": "string"
        },
        {
          "name": "major",
          "type": "string"
        },
        {
          "name": "name",
          "type": "string"
        },
        {
          "name": "dateOfBirth",
          "type": "uint256"
        },
        {
          "name": "status",
          "type": "string"
        }
      ],
      "payable": false,
      "stateMutability": "view",
      "type": "function"
    },
    {
      "constant": true,
      "inputs": [
        {
          "name": "_id",
          "type": "string"
        }
      ],
      "name": "getCertificateAddition",
      "outputs": [
        {
          "name": "id",
          "type": "string"
        },
        {
          "name": "yearOfGraduation",
          "type": "uint256"
        },
        {
          "name": "degreeClassification",
          "type": "string"
        },
        {
          "name": "modeOfStudy",
          "type": "string"
        },
        {
          "name": "certificateDeliveryDate",
          "type": "uint256"
        },
        {
          "name": "number",
          "type": "uint256"
        },
        {
          "name": "regNo",
          "type": "string"
        }
      ],
      "payable": false,
      "stateMutability": "view",
      "type": "function"
    },
    {
      "constant": true,
      "inputs": [
        {
          "name": "_id",
          "type": "string"
        }
      ],
      "name": "getUserConfirmCertificatioin",
      "outputs": [
        {
          "name": "userId",
          "type": "string"
        },
        {
          "name": "userName",
          "type": "string"
        },
        {
          "name": "dateTime",
          "type": "uint256"
        },
        {
          "name": "comment",
          "type": "string"
        }
      ],
      "payable": false,
      "stateMutability": "view",
      "type": "function"
    },
    {
      "constant": true,
      "inputs": [],
      "name": "getCertificateIndex",
      "outputs": [
        {
          "name": "",
          "type": "uint256"
        }
      ],
      "payable": false,
      "stateMutability": "view",
      "type": "function"
    }
  ],
  "bytecode": "0x608060405234801561001057600080fd5b5061301d806100206000396000f3fe608060405260043610610078576000357c0100000000000000000000000000000000000000000000000000000000900463ffffffff16806316011ae31461007d57806320dd7b0514610317578063359ed71b146108c05780635f94415214610ae0578063608bb4e014610ce0578063ed0f2e7514610d0b575b600080fd5b34801561008957600080fd5b50610143600480360360208110156100a057600080fd5b81019080803590602001906401000000008111156100bd57600080fd5b8201836020820111156100cf57600080fd5b803590602001918460018302840111640100000000831117156100f157600080fd5b91908080601f016020809104026020016040519081016040528093929190818152602001838380828437600081840152601f19601f82011690508083019250505050505050919291929050505061106f565b604051808060200188815260200180602001806020018781526020018681526020018060200185810385528c818151815260200191508051906020019080838360005b838110156101a1578082015181840152602081019050610186565b50505050905090810190601f1680156101ce5780820380516001836020036101000a031916815260200191505b5085810384528a818151815260200191508051906020019080838360005b838110156102075780820151818401526020810190506101ec565b50505050905090810190601f1680156102345780820380516001836020036101000a031916815260200191505b50858103835289818151815260200191508051906020019080838360005b8381101561026d578082015181840152602081019050610252565b50505050905090810190601f16801561029a5780820380516001836020036101000a031916815260200191505b50858103825286818151815260200191508051906020019080838360005b838110156102d35780820151818401526020810190506102b8565b50505050905090810190601f1680156103005780820380516001836020036101000a031916815260200191505b509b50505050505050505050505060405180910390f35b34801561032357600080fd5b506108be60048036036101a081101561033b57600080fd5b810190808035906020019064010000000081111561035857600080fd5b82018360208201111561036a57600080fd5b8035906020019184600183028401116401000000008311171561038c57600080fd5b91908080601f016020809104026020016040519081016040528093929190818152602001838380828437600081840152601f19601f820116905080830192505050505050509192919290803590602001906401000000008111156103ef57600080fd5b82018360208201111561040157600080fd5b8035906020019184600183028401116401000000008311171561042357600080fd5b91908080601f016020809104026020016040519081016040528093929190818152602001838380828437600081840152601f19601f8201169050808301925050505050505091929192908035906020019064010000000081111561048657600080fd5b82018360208201111561049857600080fd5b803590602001918460018302840111640100000000831117156104ba57600080fd5b91908080601f016020809104026020016040519081016040528093929190818152602001838380828437600081840152601f19601f8201169050808301925050505050505091929192908035906020019064010000000081111561051d57600080fd5b82018360208201111561052f57600080fd5b8035906020019184600183028401116401000000008311171561055157600080fd5b91908080601f016020809104026020016040519081016040528093929190818152602001838380828437600081840152601f19601f820116905080830192505050505050509192919290803590602001906401000000008111156105b457600080fd5b8201836020820111156105c657600080fd5b803590602001918460018302840111640100000000831117156105e857600080fd5b91908080601f016020809104026020016040519081016040528093929190818152602001838380828437600081840152601f19601f820116905080830192505050505050509192919290803590602001909291908035906020019064010000000081111561065557600080fd5b82018360208201111561066757600080fd5b8035906020019184600183028401116401000000008311171561068957600080fd5b91908080601f016020809104026020016040519081016040528093929190818152602001838380828437600081840152601f19601f82011690508083019250505050505050919291929080359060200190929190803590602001906401000000008111156106f657600080fd5b82018360208201111561070857600080fd5b8035906020019184600183028401116401000000008311171561072a57600080fd5b91908080601f016020809104026020016040519081016040528093929190818152602001838380828437600081840152601f19601f8201169050808301925050505050505091929192908035906020019064010000000081111561078d57600080fd5b82018360208201111561079f57600080fd5b803590602001918460018302840111640100000000831117156107c157600080fd5b91908080601f016020809104026020016040519081016040528093929190818152602001838380828437600081840152601f19601f82011690508083019250505050505050919291929080359060200190929190803590602001909291908035906020019064010000000081111561083857600080fd5b82018360208201111561084a57600080fd5b8035906020019184600183028401116401000000008311171561086c57600080fd5b91908080601f016020809104026020016040519081016040528093929190818152602001838380828437600081840152601f19601f820116905080830192505050505050509192919290505050611609565b005b3480156108cc57600080fd5b50610986600480360360208110156108e357600080fd5b810190808035906020019064010000000081111561090057600080fd5b82018360208201111561091257600080fd5b8035906020019184600183028401116401000000008311171561093457600080fd5b91908080601f016020809104026020016040519081016040528093929190818152602001838380828437600081840152601f19601f820116905080830192505050505050509192919290505050612150565b60405180806020018060200185815260200180602001848103845288818151815260200191508051906020019080838360005b838110156109d45780820151818401526020810190506109b9565b50505050905090810190601f168015610a015780820380516001836020036101000a031916815260200191505b50848103835287818151815260200191508051906020019080838360005b83811015610a3a578082015181840152602081019050610a1f565b50505050905090810190601f168015610a675780820380516001836020036101000a031916815260200191505b50848103825285818151815260200191508051906020019080838360005b83811015610aa0578082015181840152602081019050610a85565b50505050905090810190601f168015610acd5780820380516001836020036101000a031916815260200191505b5097505050505050505060405180910390f35b348015610aec57600080fd5b50610cde60048036036080811015610b0357600080fd5b8101908080359060200190640100000000811115610b2057600080fd5b820183602082011115610b3257600080fd5b80359060200191846001830284011164010000000083111715610b5457600080fd5b91908080601f016020809104026020016040519081016040528093929190818152602001838380828437600081840152601f19601f82011690508083019250505050505050919291929080359060200190640100000000811115610bb757600080fd5b820183602082011115610bc957600080fd5b80359060200191846001830284011164010000000083111715610beb57600080fd5b91908080601f016020809104026020016040519081016040528093929190818152602001838380828437600081840152601f19601f8201169050808301925050505050505091929192908035906020019092919080359060200190640100000000811115610c5857600080fd5b820183602082011115610c6a57600080fd5b80359060200191846001830284011164010000000083111715610c8c57600080fd5b91908080601f016020809104026020016040519081016040528093929190818152602001838380828437600081840152601f19601f8201169050808301925050505050505091929192905050506124f3565b005b348015610cec57600080fd5b50610cf5612873565b6040518082815260200191505060405180910390f35b348015610d1757600080fd5b50610dd160048036036020811015610d2e57600080fd5b8101908080359060200190640100000000811115610d4b57600080fd5b820183602082011115610d5d57600080fd5b80359060200191846001830284011164010000000083111715610d7f57600080fd5b91908080601f016020809104026020016040519081016040528093929190818152602001838380828437600081840152601f19601f82011690508083019250505050505050919291929050505061287c565b6040518080602001806020018060200180602001806020018881526020018060200187810387528e818151815260200191508051906020019080838360005b83811015610e2b578082015181840152602081019050610e10565b50505050905090810190601f168015610e585780820380516001836020036101000a031916815260200191505b5087810386528d818151815260200191508051906020019080838360005b83811015610e91578082015181840152602081019050610e76565b50505050905090810190601f168015610ebe5780820380516001836020036101000a031916815260200191505b5087810385528c818151815260200191508051906020019080838360005b83811015610ef7578082015181840152602081019050610edc565b50505050905090810190601f168015610f245780820380516001836020036101000a031916815260200191505b5087810384528b818151815260200191508051906020019080838360005b83811015610f5d578082015181840152602081019050610f42565b50505050905090810190601f168015610f8a5780820380516001836020036101000a031916815260200191505b5087810383528a818151815260200191508051906020019080838360005b83811015610fc3578082015181840152602081019050610fa8565b50505050905090810190601f168015610ff05780820380516001836020036101000a031916815260200191505b50878103825288818151815260200191508051906020019080838360005b8381101561102957808201518184015260208101905061100e565b50505050905090810190601f1680156110565780820380516001836020036101000a031916815260200191505b509d505050505050505050505050505060405180910390f35b6060600060608060008060606002886040518082805190602001908083835b6020831015156110b3578051825260208201915060208101905060208303925061108e565b6001836020036101000a03801982511681845116808217855250505050505090500191505090815260200160405180910390206000016002896040518082805190602001908083835b60208310151561112157805182526020820191506020810190506020830392506110fc565b6001836020036101000a03801982511681845116808217855250505050505090500191505090815260200160405180910390206001015460028a6040518082805190602001908083835b602083101515611190578051825260208201915060208101905060208303925061116b565b6001836020036101000a038019825116818451168082178552505050505050905001915050908152602001604051809103902060020160028b6040518082805190602001908083835b6020831015156111fe57805182526020820191506020810190506020830392506111d9565b6001836020036101000a038019825116818451168082178552505050505050905001915050908152602001604051809103902060030160028c6040518082805190602001908083835b60208310151561126c5780518252602082019150602081019050602083039250611247565b6001836020036101000a03801982511681845116808217855250505050505090500191505090815260200160405180910390206004015460028d6040518082805190602001908083835b6020831015156112db57805182526020820191506020810190506020830392506112b6565b6001836020036101000a03801982511681845116808217855250505050505090500191505090815260200160405180910390206005015460028e6040518082805190602001908083835b60208310151561134a5780518252602082019150602081019050602083039250611325565b6001836020036101000a0380198251168184511680821785525050505050509050019150509081526020016040518091039020600601868054600181600116156101000203166002900480601f0160208091040260200160405190810160405280929190818152602001828054600181600116156101000203166002900480156114155780601f106113ea57610100808354040283529160200191611415565b820191906000526020600020905b8154815290600101906020018083116113f857829003601f168201915b50505050509650848054600181600116156101000203166002900480601f0160208091040260200160405190810160405280929190818152602001828054600181600116156101000203166002900480156114b15780601f10611486576101008083540402835291602001916114b1565b820191906000526020600020905b81548152906001019060200180831161149457829003601f168201915b50505050509450838054600181600116156101000203166002900480601f01602080910402602001604051908101604052809291908181526020018280546001816001161561010002031660029004801561154d5780601f106115225761010080835404028352916020019161154d565b820191906000526020600020905b81548152906001019060200180831161153057829003601f168201915b50505050509350808054600181600116156101000203166002900480601f0160208091040260200160405190810160405280929190818152602001828054600181600116156101000203166002900480156115e95780601f106115be576101008083540402835291602001916115e9565b820191906000526020600020905b8154815290600101906020018083116115cc57829003601f168201915b505050505090509650965096509650965096509650919395979092949650565b8c60018e6040518082805190602001908083835b602083101515611642578051825260208201915060208101905060208303925061161d565b6001836020036101000a0380198251168184511680821785525050505050509050019150509081526020016040518091039020600001908051906020019061168b929190612f4c565b508b60018e6040518082805190602001908083835b6020831015156116c557805182526020820191506020810190506020830392506116a0565b6001836020036101000a0380198251168184511680821785525050505050509050019150509081526020016040518091039020600101908051906020019061170e929190612f4c565b508a60018e6040518082805190602001908083835b6020831015156117485780518252602082019150602081019050602083039250611723565b6001836020036101000a03801982511681845116808217855250505050505090500191505090815260200160405180910390206002019080519060200190611791929190612f4c565b508960018e6040518082805190602001908083835b6020831015156117cb57805182526020820191506020810190506020830392506117a6565b6001836020036101000a03801982511681845116808217855250505050505090500191505090815260200160405180910390206003019080519060200190611814929190612f4c565b508860018e6040518082805190602001908083835b60208310151561184e5780518252602082019150602081019050602083039250611829565b6001836020036101000a03801982511681845116808217855250505050505090500191505090815260200160405180910390206004019080519060200190611897929190612f4c565b508760018e6040518082805190602001908083835b6020831015156118d157805182526020820191506020810190506020830392506118ac565b6001836020036101000a0380198251168184511680821785525050505050509050019150509081526020016040518091039020600501819055508660018e6040518082805190602001908083835b602083101515611944578051825260208201915060208101905060208303925061191f565b6001836020036101000a0380198251168184511680821785525050505050509050019150509081526020016040518091039020600601908051906020019061198d929190612f4c565b508560028e6040518082805190602001908083835b6020831015156119c757805182526020820191506020810190506020830392506119a2565b6001836020036101000a0380198251168184511680821785525050505050509050019150509081526020016040518091039020600101819055508460028e6040518082805190602001908083835b602083101515611a3a5780518252602082019150602081019050602083039250611a15565b6001836020036101000a03801982511681845116808217855250505050505090500191505090815260200160405180910390206002019080519060200190611a83929190612f4c565b508360028e6040518082805190602001908083835b602083101515611abd5780518252602082019150602081019050602083039250611a98565b6001836020036101000a03801982511681845116808217855250505050505090500191505090815260200160405180910390206003019080519060200190611b06929190612f4c565b508260028e6040518082805190602001908083835b602083101515611b405780518252602082019150602081019050602083039250611b1b565b6001836020036101000a0380198251168184511680821785525050505050509050019150509081526020016040518091039020600401819055508160028e6040518082805190602001908083835b602083101515611bb35780518252602082019150602081019050602083039250611b8e565b6001836020036101000a0380198251168184511680821785525050505050509050019150509081526020016040518091039020600501819055508060028e6040518082805190602001908083835b602083101515611c265780518252602082019150602081019050602083039250611c01565b6001836020036101000a03801982511681845116808217855250505050505090500191505090815260200160405180910390206006019080519060200190611c6f929190612f4c565b507f307571129073e249727f9b9f6403b1724c13bebf4915feca44b4b9d336ee91128d8d8d8d8d8d8d6040518080602001806020018060200180602001806020018881526020018060200187810387528e818151815260200191508051906020019080838360005b83811015611cf2578082015181840152602081019050611cd7565b50505050905090810190601f168015611d1f5780820380516001836020036101000a031916815260200191505b5087810386528d818151815260200191508051906020019080838360005b83811015611d58578082015181840152602081019050611d3d565b50505050905090810190601f168015611d855780820380516001836020036101000a031916815260200191505b5087810385528c818151815260200191508051906020019080838360005b83811015611dbe578082015181840152602081019050611da3565b50505050905090810190601f168015611deb5780820380516001836020036101000a031916815260200191505b5087810384528b818151815260200191508051906020019080838360005b83811015611e24578082015181840152602081019050611e09565b50505050905090810190601f168015611e515780820380516001836020036101000a031916815260200191505b5087810383528a818151815260200191508051906020019080838360005b83811015611e8a578082015181840152602081019050611e6f565b50505050905090810190601f168015611eb75780820380516001836020036101000a031916815260200191505b50878103825288818151815260200191508051906020019080838360005b83811015611ef0578082015181840152602081019050611ed5565b50505050905090810190601f168015611f1d5780820380516001836020036101000a031916815260200191505b509d505050505050505050505050505060405180910390a17fbb3b310cd36c17891eff96c4d540f576916870e956d44a0c3751caf17223a7948d878787878787604051808060200188815260200180602001806020018781526020018681526020018060200185810385528c818151815260200191508051906020019080838360005b83811015611fbb578082015181840152602081019050611fa0565b50505050905090810190601f168015611fe85780820380516001836020036101000a031916815260200191505b5085810384528a818151815260200191508051906020019080838360005b83811015612021578082015181840152602081019050612006565b50505050905090810190601f16801561204e5780820380516001836020036101000a031916815260200191505b50858103835289818151815260200191508051906020019080838360005b8381101561208757808201518184015260208101905061206c565b50505050905090810190601f1680156120b45780820380516001836020036101000a031916815260200191505b50858103825286818151815260200191508051906020019080838360005b838110156120ed5780820151818401526020810190506120d2565b50505050905090810190601f16801561211a5780820380516001836020036101000a031916815260200191505b509b50505050505050505050505060405180910390a1600080815480929190600101919050555050505050505050505050505050565b606080600060606003856040518082805190602001908083835b60208310151561218f578051825260208201915060208101905060208303925061216a565b6001836020036101000a03801982511681845116808217855250505050505090500191505090815260200160405180910390206000016003866040518082805190602001908083835b6020831015156121fd57805182526020820191506020810190506020830392506121d8565b6001836020036101000a03801982511681845116808217855250505050505090500191505090815260200160405180910390206001016003876040518082805190602001908083835b60208310151561226b5780518252602082019150602081019050602083039250612246565b6001836020036101000a0380198251168184511680821785525050505050509050019150509081526020016040518091039020600201546003886040518082805190602001908083835b6020831015156122da57805182526020820191506020810190506020830392506122b5565b6001836020036101000a0380198251168184511680821785525050505050509050019150509081526020016040518091039020600301838054600181600116156101000203166002900480601f0160208091040260200160405190810160405280929190818152602001828054600181600116156101000203166002900480156123a55780601f1061237a576101008083540402835291602001916123a5565b820191906000526020600020905b81548152906001019060200180831161238857829003601f168201915b50505050509350828054600181600116156101000203166002900480601f0160208091040260200160405190810160405280929190818152602001828054600181600116156101000203166002900480156124415780601f1061241657610100808354040283529160200191612441565b820191906000526020600020905b81548152906001019060200180831161242457829003601f168201915b50505050509250808054600181600116156101000203166002900480601f0160208091040260200160405190810160405280929190818152602001828054600181600116156101000203166002900480156124dd5780601f106124b2576101008083540402835291602001916124dd565b820191906000526020600020905b8154815290600101906020018083116124c057829003601f168201915b5050505050905093509350935093509193509193565b836003856040518082805190602001908083835b60208310151561252c5780518252602082019150602081019050602083039250612507565b6001836020036101000a03801982511681845116808217855250505050505090500191505090815260200160405180910390206000019080519060200190612575929190612f4c565b50826003856040518082805190602001908083835b6020831015156125af578051825260208201915060208101905060208303925061258a565b6001836020036101000a038019825116818451168082178552505050505050905001915050908152602001604051809103902060010190805190602001906125f8929190612f4c565b50816003856040518082805190602001908083835b602083101515612632578051825260208201915060208101905060208303925061260d565b6001836020036101000a038019825116818451168082178552505050505050905001915050908152602001604051809103902060020181905550806003856040518082805190602001908083835b6020831015156126a55780518252602082019150602081019050602083039250612680565b6001836020036101000a038019825116818451168082178552505050505050905001915050908152602001604051809103902060030190805190602001906126ee929190612f4c565b507fad2224bf499d185a073e27783ae622a3220af7a613957a128a02cff4299276f68484848460405180806020018060200185815260200180602001848103845288818151815260200191508051906020019080838360005b83811015612762578082015181840152602081019050612747565b50505050905090810190601f16801561278f5780820380516001836020036101000a031916815260200191505b50848103835287818151815260200191508051906020019080838360005b838110156127c85780820151818401526020810190506127ad565b50505050905090810190601f1680156127f55780820380516001836020036101000a031916815260200191505b50848103825285818151815260200191508051906020019080838360005b8381101561282e578082015181840152602081019050612813565b50505050905090810190601f16801561285b5780820380516001836020036101000a031916815260200191505b5097505050505050505060405180910390a150505050565b60008054905090565b6060806060806060600060606001886040518082805190602001908083835b6020831015156128c0578051825260208201915060208101905060208303925061289b565b6001836020036101000a03801982511681845116808217855250505050505090500191505090815260200160405180910390206000016001896040518082805190602001908083835b60208310151561292e5780518252602082019150602081019050602083039250612909565b6001836020036101000a038019825116818451168082178552505050505050905001915050908152602001604051809103902060010160018a6040518082805190602001908083835b60208310151561299c5780518252602082019150602081019050602083039250612977565b6001836020036101000a038019825116818451168082178552505050505050905001915050908152602001604051809103902060020160018b6040518082805190602001908083835b602083101515612a0a57805182526020820191506020810190506020830392506129e5565b6001836020036101000a038019825116818451168082178552505050505050905001915050908152602001604051809103902060030160018c6040518082805190602001908083835b602083101515612a785780518252602082019150602081019050602083039250612a53565b6001836020036101000a038019825116818451168082178552505050505050905001915050908152602001604051809103902060040160018d6040518082805190602001908083835b602083101515612ae65780518252602082019150602081019050602083039250612ac1565b6001836020036101000a03801982511681845116808217855250505050505090500191505090815260200160405180910390206005015460018e6040518082805190602001908083835b602083101515612b555780518252602082019150602081019050602083039250612b30565b6001836020036101000a0380198251168184511680821785525050505050509050019150509081526020016040518091039020600601868054600181600116156101000203166002900480601f016020809104026020016040519081016040528092919081815260200182805460018160011615610100020316600290048015612c205780601f10612bf557610100808354040283529160200191612c20565b820191906000526020600020905b815481529060010190602001808311612c0357829003601f168201915b50505050509650858054600181600116156101000203166002900480601f016020809104026020016040519081016040528092919081815260200182805460018160011615610100020316600290048015612cbc5780601f10612c9157610100808354040283529160200191612cbc565b820191906000526020600020905b815481529060010190602001808311612c9f57829003601f168201915b50505050509550848054600181600116156101000203166002900480601f016020809104026020016040519081016040528092919081815260200182805460018160011615610100020316600290048015612d585780601f10612d2d57610100808354040283529160200191612d58565b820191906000526020600020905b815481529060010190602001808311612d3b57829003601f168201915b50505050509450838054600181600116156101000203166002900480601f016020809104026020016040519081016040528092919081815260200182805460018160011615610100020316600290048015612df45780601f10612dc957610100808354040283529160200191612df4565b820191906000526020600020905b815481529060010190602001808311612dd757829003601f168201915b50505050509350828054600181600116156101000203166002900480601f016020809104026020016040519081016040528092919081815260200182805460018160011615610100020316600290048015612e905780601f10612e6557610100808354040283529160200191612e90565b820191906000526020600020905b815481529060010190602001808311612e7357829003601f168201915b50505050509250808054600181600116156101000203166002900480601f016020809104026020016040519081016040528092919081815260200182805460018160011615610100020316600290048015612f2c5780601f10612f0157610100808354040283529160200191612f2c565b820191906000526020600020905b815481529060010190602001808311612f0f57829003601f168201915b505050505090509650965096509650965096509650919395979092949650565b828054600181600116156101000203166002900490600052602060002090601f016020900481019282601f10612f8d57805160ff1916838001178555612fbb565b82800160010185558215612fbb579182015b82811115612fba578251825591602001919060010190612f9f565b5b509050612fc89190612fcc565b5090565b612fee91905b80821115612fea576000816000905550600101612fd2565b5090565b9056fea165627a7a723058202f292dc7fe458ef75ae45afbfa89418a7a737f48161d62fb2384f1fb95c905210029",
  "source": "pragma solidity >=0.4.21 <0.6.0;\r\n\r\ncontract CertificateStorage {\r\n\r\n    event setCertificateEvent(\r\n        string  _id,\r\n        string _universityName,\r\n        string _typeOfDegree,\r\n        string _major,\r\n        string _name,\r\n        uint256 _dateOfBirth,\r\n        string  _status);\r\n\r\n    event setCertificateAdditionEvent(\r\n        string  _id,\r\n        uint256 _yearOfGraduation,\r\n        string _degreeClassification,\r\n        string _modeOfStudy,\r\n        uint256 _certificateDeliveryDate,\r\n        uint256 _number,\r\n        string _regNo);\r\n\r\n    event setUserConfirmCertificateEvent(\r\n        string  _userId,\r\n        string _userName,\r\n        uint256 _dateTime,\r\n        string _comment);\r\n\r\n    uint256 index;\r\n\r\n    struct Certificate {\r\n        string id;\r\n        string universityName;\r\n        string typeOfDegree;\r\n        string major;\r\n        string name;\r\n        uint256 dateOfBirth;\r\n        string status;\r\n    }\r\n\r\n    struct CertificateAddition {\r\n        string id;\r\n        uint256 yearOfGraduation;\r\n        string degreeClassification;\r\n        string modeOfStudy;\r\n        uint256 certificateDeliveryDate;\r\n        uint256 number;\r\n        string regNo;\r\n    }\r\n\r\n    struct UserConfirmCertificate {\r\n        string userId;\r\n        string userName;\r\n        uint256 dateTime;\r\n        string comment;\r\n    }\r\n    mapping (string => Certificate) CertificateMapping;\r\n    mapping (string => CertificateAddition) CertificateAdditionMapping;\r\n    mapping (string => UserConfirmCertificate) UserConfirmCertificateMapping;\r\n\r\n    function setCertificate(string memory _id,\r\n        string memory _universityName,\r\n        string memory _typeOfDegree,\r\n        string memory _major,\r\n        string memory _name,\r\n        uint256 _dateOfBirth,\r\n        string memory _status,\r\n        uint256 _yearOfGraduation,\r\n        string memory _degreeClassification,\r\n        string memory _modeOfStudy,\r\n        uint256 _certificateDeliveryDate,\r\n        uint256 _number,\r\n        string memory _regNo) public {\r\n        CertificateMapping[_id].id = _id;\r\n        CertificateMapping[_id].universityName = _universityName;\r\n        CertificateMapping[_id].typeOfDegree = _typeOfDegree;\r\n        CertificateMapping[_id].major = _major;\r\n        CertificateMapping[_id].name = _name;\r\n        CertificateMapping[_id].dateOfBirth = _dateOfBirth;\r\n        CertificateMapping[_id].status = _status;\r\n\r\n        CertificateAdditionMapping[_id].yearOfGraduation = _yearOfGraduation;\r\n        CertificateAdditionMapping[_id].degreeClassification = _degreeClassification;\r\n        CertificateAdditionMapping[_id].modeOfStudy = _modeOfStudy;\r\n        CertificateAdditionMapping[_id].certificateDeliveryDate = _certificateDeliveryDate;\r\n        CertificateAdditionMapping[_id].number = _number;\r\n        CertificateAdditionMapping[_id].regNo = _regNo;\r\n        emit setCertificateEvent(_id, _universityName, _typeOfDegree, _major, _name, _dateOfBirth, _status);\r\n        emit setCertificateAdditionEvent(_id, _yearOfGraduation, _degreeClassification, _modeOfStudy,\r\n            _certificateDeliveryDate, _number, _regNo);\r\n\r\n        index++;\r\n    }\r\n\r\n    // function setCertificateAddition(string memory _id,\r\n    //     uint256 _yearOfGraduation,\r\n    //     string memory _degreeClassification,\r\n    //     string memory _modeOfStudy,\r\n    //     uint256 _certificateDeliveryDate,\r\n    //     uint256 _number,\r\n    //     string memory _regNo) public {\r\n    //     CertificateAdditionMapping[_id].id = _id;\r\n    //     CertificateAdditionMapping[_id].yearOfGraduation = _yearOfGraduation;\r\n    //     CertificateAdditionMapping[_id].degreeClassification = _degreeClassification;\r\n    //     CertificateAdditionMapping[_id].modeOfStudy = _modeOfStudy;\r\n    //     CertificateAdditionMapping[_id].certificateDeliveryDate = _certificateDeliveryDate;\r\n    //     CertificateAdditionMapping[_id].number = _number;\r\n    //     CertificateAdditionMapping[_id].regNo = _regNo;\r\n\r\n    //     emit setCertificateAdditionEvent(_id, _yearOfGraduation, _degreeClassification, _modeOfStudy,\r\n    //         _certificateDeliveryDate, _number, _regNo);\r\n    // }\r\n\r\n    function setUserConfirmCertificate(string memory _userId,\r\n        string memory _userName,\r\n        uint256 _dateTime,\r\n        string memory _comment) public {\r\n            UserConfirmCertificateMapping[_userId].userId = _userId;\r\n            UserConfirmCertificateMapping[_userId].userName = _userName;\r\n            UserConfirmCertificateMapping[_userId].dateTime = _dateTime;\r\n            UserConfirmCertificateMapping[_userId].comment = _comment;\r\n\r\n            emit setUserConfirmCertificateEvent(_userId, _userName, _dateTime, _comment);\r\n        }\r\n\r\n    function getCertificate(string memory _id) public view returns(string memory id,\r\n        string memory universityName,\r\n        string memory typeOfDegree,\r\n        string memory major,\r\n        string memory name,\r\n        uint256 dateOfBirth,\r\n        string memory status) {\r\n        return (CertificateMapping[_id].id,\r\n            CertificateMapping[_id].universityName,\r\n            CertificateMapping[_id].typeOfDegree,\r\n            CertificateMapping[_id].major,\r\n            CertificateMapping[_id].name,\r\n            CertificateMapping[_id].dateOfBirth,\r\n            CertificateMapping[_id].status);\r\n    }\r\n\r\n    function getCertificateAddition(string memory _id) public view returns(string memory id,\r\n        uint256 yearOfGraduation,\r\n        string memory degreeClassification,\r\n        string memory modeOfStudy,\r\n        uint256 certificateDeliveryDate,\r\n        uint256 number,\r\n        string memory regNo) {\r\n        return (CertificateAdditionMapping[_id].id,\r\n        CertificateAdditionMapping[_id].yearOfGraduation,\r\n        CertificateAdditionMapping[_id].degreeClassification,\r\n        CertificateAdditionMapping[_id].modeOfStudy,\r\n        CertificateAdditionMapping[_id].certificateDeliveryDate,\r\n        CertificateAdditionMapping[_id].number,\r\n        CertificateAdditionMapping[_id].regNo);\r\n    }\r\n\r\n    function getUserConfirmCertificatioin(string memory _id) public view returns(string memory userId,\r\n        string memory userName,\r\n        uint256 dateTime,\r\n        string memory comment) {\r\n            return (UserConfirmCertificateMapping[_id].userId,\r\n            UserConfirmCertificateMapping[_id].userName,\r\n            UserConfirmCertificateMapping[_id].dateTime,\r\n            UserConfirmCertificateMapping[_id].comment);\r\n        }\r\n    function getCertificateIndex() public view returns(uint256) {\r\n        return index;\r\n    }\r\n}",
  "sourcePath": "C:/xampp/htdocs/Blockchain/blockchaindemo/TG_UNIVERSITY_CERTIFICATE_VERIFICATION_SERVER/contracts/Certificate.sol",
  "compiler": {
    "name": "solc",
    "version": "0.5.0+commit.1d4f565a.Emscripten.clang"
  },
  "schemaVersion": "3.0.9",
  "updatedAt": "2019-06-12T03:53:00.672Z",
  "devdoc": {
    "methods": {}
  },
  "userdoc": {
    "methods": {}
  }
}