{
  "contractName": "DegreeKindStorage",
  "abi": [
    {
      "anonymous": false,
      "inputs": [
        {
          "indexed": false,
          "name": "degreeKindId",
          "type": "uint8"
        },
        {
          "indexed": false,
          "name": "degreeKindName",
          "type": "string"
        }
      ],
      "name": "LeaderUpdated",
      "type": "event"
    },
    {
      "anonymous": false,
      "inputs": [
        {
          "indexed": false,
          "name": "degreeKindId",
          "type": "uint8"
        }
      ],
      "name": "CountryDelete",
      "type": "event"
    },
    {
      "constant": false,
      "inputs": [
        {
          "name": "_degreeKindId",
          "type": "uint8"
        },
        {
          "name": "_degreeKindName",
          "type": "string"
        }
      ],
      "name": "setDegreeKind",
      "outputs": [
        {
          "name": "",
          "type": "bool"
        }
      ],
      "payable": false,
      "stateMutability": "nonpayable",
      "type": "function"
    },
    {
      "constant": true,
      "inputs": [
        {
          "name": "_degreeKindId",
          "type": "uint8"
        }
      ],
      "name": "getDegreeKind",
      "outputs": [
        {
          "name": "degreeKindId",
          "type": "uint8"
        },
        {
          "name": "degreeKindName",
          "type": "string"
        }
      ],
      "payable": false,
      "stateMutability": "view",
      "type": "function"
    },
    {
      "constant": true,
      "inputs": [],
      "name": "getDegreeKindIndex",
      "outputs": [
        {
          "name": "",
          "type": "uint256"
        }
      ],
      "payable": false,
      "stateMutability": "view",
      "type": "function"
    }
  ],
  "bytecode": "0x608060405234801561001057600080fd5b5061054a806100206000396000f3fe608060405234801561001057600080fd5b50600436106100415760003560e01c8063402c41661461004657806365ee7adc1461006457806372d4f7731461011b575b600080fd5b61004e6101fb565b6040518082815260200191505060405180910390f35b6100936004803603602081101561007a57600080fd5b81019080803560ff169060200190929190505050610204565b604051808360ff1660ff16815260200180602001828103825283818151815260200191508051906020019080838360005b838110156100df5780820151818401526020810190506100c4565b50505050905090810190601f16801561010c5780820380516001836020036101000a031916815260200191505b50935050505060405180910390f35b6101e16004803603604081101561013157600080fd5b81019080803560ff1690602001909291908035906020019064010000000081111561015b57600080fd5b82018360208201111561016d57600080fd5b8035906020019184600183028401116401000000008311171561018f57600080fd5b91908080601f016020809104026020016040519081016040528093929190818152602001838380828437600081840152601f19601f82011690508083019250505050505050919291929050505061030c565b604051808215151515815260200191505060405180910390f35b60008054905090565b600060606102106103d5565b600160008560ff1660ff1681526020019081526020016000206040518060400160405290816000820160009054906101000a900460ff1660ff1660ff168152602001600182018054600181600116156101000203166002900480601f0160208091040260200160405190810160405280929190818152602001828054600181600116156101000203166002900480156102ea5780601f106102bf576101008083540402835291602001916102ea565b820191906000526020600020905b8154815290600101906020018083116102cd57829003601f168201915b5050505050815250509050806000015181602001518090509250925050915091565b600082600260000160006101000a81548160ff021916908360ff16021790555081600260010190805190602001906103459291906103f2565b506002600160008560ff1660ff1681526020019081526020016000206000820160009054906101000a900460ff168160000160006101000a81548160ff021916908360ff160217905550600182018160010190805460018160011615610100020316600290046103b6929190610472565b5090505060008081548092919060010191905055506001905092915050565b6040518060400160405280600060ff168152602001606081525090565b828054600181600116156101000203166002900490600052602060002090601f016020900481019282601f1061043357805160ff1916838001178555610461565b82800160010185558215610461579182015b82811115610460578251825591602001919060010190610445565b5b50905061046e91906104f9565b5090565b828054600181600116156101000203166002900490600052602060002090601f016020900481019282601f106104ab57805485556104e8565b828001600101855582156104e857600052602060002091601f016020900482015b828111156104e75782548255916001019190600101906104cc565b5b5090506104f591906104f9565b5090565b61051b91905b808211156105175760008160009055506001016104ff565b5090565b9056fea165627a7a7230582020d3a34a5f1d8d2a0f1385d03848613cad48934e622022c1d329d0a7985828df0029",
  "source": "pragma solidity >=0.4.21 <0.6.0;\r\n\r\ncontract DegreeKindStorage {\r\n\r\n    // event setDegreeKindEvent(uint degreeKindId, string degreeKindName);\r\n    uint256 index;\r\n\r\n    struct DegreeKind {\r\n        uint8 degreeKindId;\r\n        string degreeKindName;\r\n    }\r\n\r\n    mapping (uint8 => DegreeKind) DegreeKindMapping;\r\n\r\n\r\n    event LeaderUpdated(uint8 degreeKindId , string degreeKindName);\r\n    event CountryDelete(uint8 degreeKindId);\r\n\r\n    DegreeKind degreeKind;\r\n\r\n    function setDegreeKind(uint8 _degreeKindId, string memory _degreeKindName) public returns(bool) {\r\n        degreeKind.degreeKindId = _degreeKindId;\r\n        degreeKind.degreeKindName = _degreeKindName;\r\n\r\n        DegreeKindMapping[_degreeKindId] = degreeKind;\r\n        // emit setDegreeKindEvent(_degreeKindId, _degreeKindName);\r\n        index++;\r\n\r\n        return true;\r\n    }\r\n\r\n    function getDegreeKind(uint8 _degreeKindId) public view returns(uint8 degreeKindId, string memory degreeKindName) {\r\n        DegreeKind memory tmpData = DegreeKindMapping[_degreeKindId];\r\n        return (tmpData.degreeKindId, tmpData.degreeKindName);\r\n    }\r\n\r\n    function getDegreeKindIndex() public view returns(uint256) {\r\n        return index;\r\n    }\r\n}",
  "sourcePath": "C:/xampp/htdocs/B/blockchaindemo/TG_UNIVERSITY_CERTIFICATE_VERIFICATION_SERVER/contracts/DegreeKind.sol",
  "compiler": {
    "name": "solc",
    "version": "0.5.8+commit.23d335f2.Emscripten.clang"
  },
  "schemaVersion": "3.0.11",
  "updatedAt": "2019-07-03T09:50:50.934Z",
  "devdoc": {
    "methods": {}
  },
  "userdoc": {
    "methods": {}
  }
}