{
  "contractName": "DegreeNameStorage",
  "abi": [
    {
      "anonymous": false,
      "inputs": [
        {
          "indexed": false,
          "name": "_degreeNameId",
          "type": "address"
        },
        {
          "indexed": false,
          "name": "_degreeKindId",
          "type": "address"
        },
        {
          "indexed": false,
          "name": "_degreeName",
          "type": "string"
        },
        {
          "indexed": false,
          "name": "index",
          "type": "uint256"
        }
      ],
      "name": "SetDegreeNameEvent",
      "type": "event"
    },
    {
      "constant": false,
      "inputs": [
        {
          "name": "_degreeNameId",
          "type": "address",
          "indexed": false
        },
        {
          "name": "index",
          "type": "uint256",
          "indexed": false
        },
        {
          "name": "degreeName",
          "type": "string"
        }
      ],
      "name": "SetDeleteDegreeName",
      "outputs": [
        {
          "name": "index",
          "type": "uint256"
        }
      ],
      "payable": false,
      "stateMutability": "nonpayable",
      "type": "event",
      "anonymous": false
    },
    {
      "constant": true,
      "inputs": [
        {
          "name": "_degreeKindId",
          "type": "address",
          "indexed": false
        },
        {
          "name": "_degreeKindId",
          "type": "address",
          "indexed": false
        },
        {
          "name": "_degreeName",
          "type": "string",
          "indexed": false
        }
      ],
      "name": "isUser",
      "outputs": [
        {
          "name": "isIndeed",
          "type": "bool"
        },
        {
          "name": "degreeKindId1",
          "type": "address"
        },
        {
          "name": "degreeName",
          "type": "string"
        }
      ],
      "payable": false,
      "stateMutability": "view",
      "type": "function",
      "anonymous": false
    },
    {
      "constant": false,
      "inputs": [
        {
          "name": "_degreeNameId",
          "type": "address"
        },
        {
          "name": "_degreeKindId",
          "type": "address"
        },
        {
          "name": "_degreeName",
          "type": "string"
        }
      ],
      "name": "InsertDegreeName",
      "outputs": [
        {
          "name": "index",
          "type": "uint256"
        }
      ],
      "payable": false,
      "stateMutability": "nonpayable",
      "type": "function"
    },
    {
      "constant": false,
      "inputs": [
        {
          "name": "_degreeNameId",
          "type": "address"
        }
      ],
      "name": "deleteDegreeName",
      "outputs": [
        {
          "name": "index",
          "type": "uint256"
        },
        {
          "name": "degreeKindId",
          "type": "address"
        },
        {
          "name": "degreeName",
          "type": "string"
        }
      ],
      "payable": false,
      "stateMutability": "nonpayable",
      "type": "function"
    },
    {
      "constant": true,
      "inputs": [
        {
          "name": "_degreeNameId",
          "type": "address"
        },
        {
          "name": "_degreeKindId",
          "type": "address"
        }
      ],
      "name": "getDegreeName",
      "outputs": [
        {
          "name": "degreeNameId",
          "type": "address"
        },
        {
          "name": "degreeKindId",
          "type": "address"
        },
        {
          "name": "degreeName",
          "type": "string"
        }
      ],
      "payable": false,
      "stateMutability": "view",
      "type": "function"
    },
    {
      "constant": false,
      "inputs": [
        {
          "name": "_degreeNameId",
          "type": "address"
        },
        {
          "name": "_degreeKindId",
          "type": "address"
        }
      ],
      "name": "updateDegreeKindName",
      "outputs": [
        {
          "name": "success",
          "type": "bool"
        }
      ],
      "payable": false,
      "stateMutability": "nonpayable",
      "type": "function"
    },
    {
      "constant": false,
      "inputs": [
        {
          "name": "_degreeNameId",
          "type": "address"
        },
        {
          "name": "_degreeName",
          "type": "string"
        }
      ],
      "name": "updateDegreeName",
      "outputs": [
        {
          "name": "success",
          "type": "bool"
        }
      ],
      "payable": false,
      "stateMutability": "nonpayable",
      "type": "function"
    },
    {
      "constant": true,
      "inputs": [
        {
          "name": "_index",
          "type": "uint256"
        }
      ],
      "name": "getDegreeNameCount",
      "outputs": [
        {
          "name": "count",
          "type": "uint256"
        }
      ],
      "payable": false,
      "stateMutability": "view",
      "type": "function"
    },
    {
      "constant": true,
      "inputs": [
        {
          "name": "_index",
          "type": "uint256"
        }
      ],
      "name": "getDegreeNameAtIndex",
      "outputs": [
        {
          "name": "_degreeNameId",
          "type": "address"
        }
      ],
      "payable": false,
      "stateMutability": "view",
      "type": "function"
    }
  ],
  "bytecode": "0x608060405234801561001057600080fd5b50611092806100206000396000f3fe60806040526004361061008e576000357c0100000000000000000000000000000000000000000000000000000000900463ffffffff1680631db7d3fc146100935780634209fff1146101c3578063533154951461022c578063943d88ef146102a7578063b48d0b7a1461030c578063b580e8f81461040c578063dfa7a22414610528578063fe465cd814610553575b600080fd5b34801561009f57600080fd5b506100e2600480360360208110156100b657600080fd5b81019080803573ffffffffffffffffffffffffffffffffffffffff1690602001909291905050506105dc565b604051808473ffffffffffffffffffffffffffffffffffffffff1673ffffffffffffffffffffffffffffffffffffffff1681526020018373ffffffffffffffffffffffffffffffffffffffff1673ffffffffffffffffffffffffffffffffffffffff16815260200180602001828103825283818151815260200191508051906020019080838360005b8381101561018657808201518184015260208101905061016b565b50505050905090810190601f1680156101b35780820380516001836020036101000a031916815260200191505b5094505050505060405180910390f35b3480156101cf57600080fd5b50610212600480360360208110156101e657600080fd5b81019080803573ffffffffffffffffffffffffffffffffffffffff16906020019092919050505061072e565b604051808215151515815260200191505060405180910390f35b34801561023857600080fd5b506102656004803603602081101561024f57600080fd5b81019080803590602001909291905050506107f7565b604051808273ffffffffffffffffffffffffffffffffffffffff1673ffffffffffffffffffffffffffffffffffffffff16815260200191505060405180910390f35b3480156102b357600080fd5b506102f6600480360360208110156102ca57600080fd5b81019080803573ffffffffffffffffffffffffffffffffffffffff16906020019092919050505061083a565b6040518082815260200191505060405180910390f35b34801561031857600080fd5b506103f26004803603604081101561032f57600080fd5b81019080803573ffffffffffffffffffffffffffffffffffffffff1690602001909291908035906020019064010000000081111561036c57600080fd5b82018360208201111561037e57600080fd5b803590602001918460018302840111640100000000831117156103a057600080fd5b91908080601f016020809104026020016040519081016040528093929190818152602001838380828437600081840152601f19601f820116905080830192505050505050509192919290505050610bb8565b604051808215151515815260200191505060405180910390f35b34801561041857600080fd5b506105126004803603606081101561042f57600080fd5b81019080803573ffffffffffffffffffffffffffffffffffffffff169060200190929190803573ffffffffffffffffffffffffffffffffffffffff1690602001909291908035906020019064010000000081111561048c57600080fd5b82018360208201111561049e57600080fd5b803590602001918460018302840111640100000000831117156104c057600080fd5b91908080601f016020809104026020016040519081016040528093929190818152602001838380828437600081840152601f19601f820116905080830192505050505050509192919290505050610c1a565b6040518082815260200191505060405180910390f35b34801561053457600080fd5b5061053d610efc565b6040518082815260200191505060405180910390f35b34801561055f57600080fd5b506105c26004803603604081101561057657600080fd5b81019080803573ffffffffffffffffffffffffffffffffffffffff169060200190929190803573ffffffffffffffffffffffffffffffffffffffff169060200190929190505050610f09565b604051808215151515815260200191505060405180910390f35b6000806060836000808673ffffffffffffffffffffffffffffffffffffffff1673ffffffffffffffffffffffffffffffffffffffff16815260200190815260200160002060000160009054906101000a900473ffffffffffffffffffffffffffffffffffffffff166000808773ffffffffffffffffffffffffffffffffffffffff1673ffffffffffffffffffffffffffffffffffffffff168152602001908152602001600020600101808054600181600116156101000203166002900480601f01602080910402602001604051908101604052809291908181526020018280546001816001161561010002031660029004801561071a5780601f106106ef5761010080835404028352916020019161071a565b820191906000526020600020905b8154815290600101906020018083116106fd57829003601f168201915b505050505090509250925092509193909250565b600080600180549050141561074657600090506107f2565b8173ffffffffffffffffffffffffffffffffffffffff1660016000808573ffffffffffffffffffffffffffffffffffffffff1673ffffffffffffffffffffffffffffffffffffffff168152602001908152602001600020600201548154811015156107ad57fe5b9060005260206000200160009054906101000a900473ffffffffffffffffffffffffffffffffffffffff1673ffffffffffffffffffffffffffffffffffffffff161490505b919050565b600060018281548110151561080857fe5b9060005260206000200160009054906101000a900473ffffffffffffffffffffffffffffffffffffffff169050919050565b6000806000808473ffffffffffffffffffffffffffffffffffffffff1673ffffffffffffffffffffffffffffffffffffffff168152602001908152602001600020600201549050600060018080805490500381548110151561089857fe5b9060005260206000200160009054906101000a900473ffffffffffffffffffffffffffffffffffffffff169050806001838154811015156108d557fe5b9060005260206000200160006101000a81548173ffffffffffffffffffffffffffffffffffffffff021916908373ffffffffffffffffffffffffffffffffffffffff160217905550816000808373ffffffffffffffffffffffffffffffffffffffff1673ffffffffffffffffffffffffffffffffffffffff1681526020019081526020016000206002018190555060018054809190600190036109789190610f95565b507f5269eba88c7a79192ac3ae38b00c09607a3fa323463242817cbef0c27b6f5c2a8483604051808373ffffffffffffffffffffffffffffffffffffffff1673ffffffffffffffffffffffffffffffffffffffff1681526020018281526020019250505060405180910390a17f511eb8303d2df2bc00fd627661b4a89433ec9551971be2bb0c5546a46b0f91d4816000808473ffffffffffffffffffffffffffffffffffffffff1673ffffffffffffffffffffffffffffffffffffffff16815260200190815260200160002060000160009054906101000a900473ffffffffffffffffffffffffffffffffffffffff166000808573ffffffffffffffffffffffffffffffffffffffff1673ffffffffffffffffffffffffffffffffffffffff16815260200190815260200160002060010185604051808573ffffffffffffffffffffffffffffffffffffffff1673ffffffffffffffffffffffffffffffffffffffff1681526020018473ffffffffffffffffffffffffffffffffffffffff1673ffffffffffffffffffffffffffffffffffffffff16815260200180602001838152602001828103825284818154600181600116156101000203166002900481526020019150805460018160011615610100020316600290048015610b9d5780601f10610b7257610100808354040283529160200191610b9d565b820191906000526020600020905b815481529060010190602001808311610b8057829003601f168201915b50509550505050505060405180910390a18192505050919050565b6000816000808573ffffffffffffffffffffffffffffffffffffffff1673ffffffffffffffffffffffffffffffffffffffff1681526020019081526020016000206001019080519060200190610c0f929190610fc1565b506001905092915050565b6000826000808673ffffffffffffffffffffffffffffffffffffffff1673ffffffffffffffffffffffffffffffffffffffff16815260200190815260200160002060000160006101000a81548173ffffffffffffffffffffffffffffffffffffffff021916908373ffffffffffffffffffffffffffffffffffffffff160217905550816000808673ffffffffffffffffffffffffffffffffffffffff1673ffffffffffffffffffffffffffffffffffffffff1681526020019081526020016000206001019080519060200190610cf1929190610fc1565b506001808590806001815401808255809150509060018203906000526020600020016000909192909190916101000a81548173ffffffffffffffffffffffffffffffffffffffff021916908373ffffffffffffffffffffffffffffffffffffffff160217905550036000808673ffffffffffffffffffffffffffffffffffffffff1673ffffffffffffffffffffffffffffffffffffffff168152602001908152602001600020600201819055507f511eb8303d2df2bc00fd627661b4a89433ec9551971be2bb0c5546a46b0f91d48484846000808973ffffffffffffffffffffffffffffffffffffffff1673ffffffffffffffffffffffffffffffffffffffff16815260200190815260200160002060020154604051808573ffffffffffffffffffffffffffffffffffffffff1673ffffffffffffffffffffffffffffffffffffffff1681526020018473ffffffffffffffffffffffffffffffffffffffff1673ffffffffffffffffffffffffffffffffffffffff16815260200180602001838152602001828103825284818151815260200191508051906020019080838360005b83811015610eae578082015181840152602081019050610e93565b50505050905090810190601f168015610edb5780820380516001836020036101000a031916815260200191505b509550505050505060405180910390a1600180805490500390509392505050565b6000600180549050905090565b6000816000808573ffffffffffffffffffffffffffffffffffffffff1673ffffffffffffffffffffffffffffffffffffffff16815260200190815260200160002060000160006101000a81548173ffffffffffffffffffffffffffffffffffffffff021916908373ffffffffffffffffffffffffffffffffffffffff1602179055506001905092915050565b815481835581811115610fbc57818360005260206000209182019101610fbb9190611041565b5b505050565b828054600181600116156101000203166002900490600052602060002090601f016020900481019282601f1061100257805160ff1916838001178555611030565b82800160010185558215611030579182015b8281111561102f578251825591602001919060010190611014565b5b50905061103d9190611041565b5090565b61106391905b8082111561105f576000816000905550600101611047565b5090565b9056fea165627a7a72305820b9d95872b3f48852807352a0bd2428beca00307a8b8b848358f7280a842c30580029",
  "source": "pragma solidity >=0.4.21 <0.6.0;\r\n\r\ncontract DegreeNameStorage {\r\n    struct DegreeName {\r\n        address degreeKindId;\r\n        string degreeName;\r\n        uint256 index;\r\n    }\r\n\r\n    mapping (address => DegreeName) DegreeNameMapping;\r\n    address[] degreeNameIndex;\r\n\r\n    // Update degreeName\r\n    event SetDegreeNameEvent(\r\n        address _degreeNameId,\r\n        address _degreeKindId,\r\n        string _degreeName,\r\n        uint256 index\r\n    );\r\n\r\n    // Delete degreeName\r\n    event SetDeleteDegreeName(\r\n        address _degreeNameId,\r\n        uint256 index\r\n    );\r\n\r\n    function isUser(address _degreeKindId) public view returns(bool isIndeed) {\r\n      if(degreeNameIndex.length == 0) return false;\r\n      return (degreeNameIndex[DegreeNameMapping[_degreeKindId].index] == _degreeKindId);\r\n   }\r\n\r\n    function InsertDegreeName(\r\n        address _degreeNameId,\r\n        address _degreeKindId,\r\n        string memory _degreeName\r\n    ) public returns(uint256 index){\r\n        DegreeNameMapping[_degreeNameId].degreeKindId = _degreeKindId;\r\n        DegreeNameMapping[_degreeNameId].degreeName = _degreeName;\r\n        DegreeNameMapping[_degreeNameId].index = degreeNameIndex.push(_degreeNameId)-1;\r\n        emit SetDegreeNameEvent(\r\n            _degreeNameId,\r\n            _degreeKindId,\r\n            _degreeName,\r\n            DegreeNameMapping[_degreeNameId].index);\r\n        return degreeNameIndex.length-1;\r\n    }\r\n\r\n    function deleteDegreeName(address _degreeNameId) public returns(uint256 index){\r\n        uint256 rowToDelete = DegreeNameMapping[_degreeNameId].index;\r\n        address keyToMove = degreeNameIndex[degreeNameIndex.length-1];\r\n        degreeNameIndex[rowToDelete] = keyToMove;\r\n        DegreeNameMapping[keyToMove].index = rowToDelete;\r\n\r\n        degreeNameIndex.length--;\r\n        emit SetDeleteDegreeName(\r\n            _degreeNameId,\r\n            rowToDelete);\r\n        emit SetDegreeNameEvent(\r\n            keyToMove,\r\n            DegreeNameMapping[keyToMove].degreeKindId,\r\n            DegreeNameMapping[keyToMove].degreeName,\r\n            rowToDelete);\r\n        return rowToDelete;\r\n    }\r\n\r\n    function getDegreeName(\r\n        address _degreeNameId\r\n    ) public view returns(\r\n        address degreeNameId,\r\n        address degreeKindId,\r\n        string memory degreeName\r\n    ) { return (\r\n        _degreeNameId,\r\n        DegreeNameMapping[_degreeNameId].degreeKindId,\r\n        DegreeNameMapping[_degreeNameId].degreeName);\r\n    }\r\n\r\n    function updateDegreeKindName(\r\n        address _degreeNameId,\r\n        address _degreeKindId\r\n    ) public returns(bool success) {\r\n        DegreeNameMapping[_degreeNameId].degreeKindId = _degreeKindId;\r\n        return true;\r\n    }\r\n\r\n    function updateDegreeName(\r\n        address _degreeNameId,\r\n        string  memory  _degreeName\r\n    ) public returns(bool success) {\r\n        DegreeNameMapping[_degreeNameId].degreeName = _degreeName;\r\n        return true;\r\n    }\r\n\r\n    function getDegreeNameCount() public view returns(uint256 count){\r\n        return degreeNameIndex.length;\r\n      }\r\n\r\n    function getDegreeNameAtIndex(uint256 _index) public view returns(address _degreeNameId) {\r\n        return degreeNameIndex[_index];\r\n    }\r\n}",
  "sourcePath": "C:/xampp/htdocs/blockchaindemo/TG_UNIVERSITY_CERTIFICATE_VERIFICATION_SERVER/contracts/DegreeName.sol",
  "compiler": {
    "name": "solc",
    "version": "0.5.0+commit.1d4f565a.Emscripten.clang"
  },
  "schemaVersion": "3.0.9",
  "updatedAt": "2019-06-26T14:51:03.756Z",
  "devdoc": {
    "methods": {}
  },
  "userdoc": {
    "methods": {}
  }
}