{
  "contractName": "DegreeHistory",
  "abi": [
    {
      "anonymous": false,
      "inputs": [
        {
          "indexed": false,
          "name": "_idHistory",
          "type": "address"
        },
        {
          "indexed": false,
          "name": "_taiKhoan",
          "type": "address"
        },
        {
          "indexed": false,
          "name": "_thaoTac",
          "type": "string"
        },
        {
          "indexed": false,
          "name": "_ngay",
          "type": "string"
        },
        {
          "indexed": false,
          "name": "index",
          "type": "uint256"
        }
      ],
      "name": "SetHistoryEvent",
      "type": "event"
    },
    {
      "constant": false,
      "inputs": [
        {
          "name": "_idHistory",
          "type": "address"
        },
        {
          "name": "_taiKhoan",
          "type": "address"
        },
        {
          "name": "_thaoTac",
          "type": "string"
        },
        {
          "name": "_ngay",
          "type": "string"
        }
      ],
      "name": "InsertHistory",
      "outputs": [
        {
          "name": "index",
          "type": "uint256"
        }
      ],
      "payable": false,
      "stateMutability": "nonpayable",
      "type": "function"
    },
    {
      "constant": true,
      "inputs": [
        {
          "name": "_idHistory",
          "type": "address"
        }
      ],
      "name": "getHistory",
      "outputs": [
        {
          "name": "taiKhoan",
          "type": "address"
        },
        {
          "name": "thaoTac",
          "type": "string"
        },
        {
          "name": "ngay",
          "type": "string"
        }
      ],
      "payable": false,
      "stateMutability": "view",
      "type": "function"
    },
    {
      "constant": true,
      "inputs": [],
      "name": "getHistoryCount",
      "outputs": [
        {
          "name": "count",
          "type": "uint256"
        }
      ],
      "payable": false,
      "stateMutability": "view",
      "type": "function"
    },
    {
      "constant": true,
      "inputs": [
        {
          "name": "_index",
          "type": "uint256"
        }
      ],
      "name": "getHistoryAtIndex",
      "outputs": [
        {
          "name": "idHistory",
          "type": "address"
        }
      ],
      "payable": false,
      "stateMutability": "view",
      "type": "function"
    }
  ],
  "bytecode": "0x608060405234801561001057600080fd5b50610b1e806100206000396000f3fe608060405260043610610062576000357c0100000000000000000000000000000000000000000000000000000000900463ffffffff16806379cd92f614610067578063803968111461021a57806394b839ec14610383578063a18861a3146103fe575b600080fd5b34801561007357600080fd5b506102046004803603608081101561008a57600080fd5b81019080803573ffffffffffffffffffffffffffffffffffffffff169060200190929190803573ffffffffffffffffffffffffffffffffffffffff169060200190929190803590602001906401000000008111156100e757600080fd5b8201836020820111156100f957600080fd5b8035906020019184600183028401116401000000008311171561011b57600080fd5b91908080601f016020809104026020016040519081016040528093929190818152602001838380828437600081840152601f19601f8201169050808301925050505050505091929192908035906020019064010000000081111561017e57600080fd5b82018360208201111561019057600080fd5b803590602001918460018302840111640100000000831117156101b257600080fd5b91908080601f016020809104026020016040519081016040528093929190818152602001838380828437600081840152601f19601f820116905080830192505050505050509192919290505050610429565b6040518082815260200191505060405180910390f35b34801561022657600080fd5b506102696004803603602081101561023d57600080fd5b81019080803573ffffffffffffffffffffffffffffffffffffffff1690602001909291905050506107cf565b604051808473ffffffffffffffffffffffffffffffffffffffff1673ffffffffffffffffffffffffffffffffffffffff1681526020018060200180602001838103835285818151815260200191508051906020019080838360005b838110156102df5780820151818401526020810190506102c4565b50505050905090810190601f16801561030c5780820380516001836020036101000a031916815260200191505b50838103825284818151815260200191508051906020019080838360005b8381101561034557808201518184015260208101905061032a565b50505050905090810190601f1680156103725780820380516001836020036101000a031916815260200191505b509550505050505060405180910390f35b34801561038f57600080fd5b506103bc600480360360208110156103a657600080fd5b81019080803590602001909291905050506109fd565b604051808273ffffffffffffffffffffffffffffffffffffffff1673ffffffffffffffffffffffffffffffffffffffff16815260200191505060405180910390f35b34801561040a57600080fd5b50610413610a40565b6040518082815260200191505060405180910390f35b6000836000808773ffffffffffffffffffffffffffffffffffffffff1673ffffffffffffffffffffffffffffffffffffffff16815260200190815260200160002060000160006101000a81548173ffffffffffffffffffffffffffffffffffffffff021916908373ffffffffffffffffffffffffffffffffffffffff160217905550826000808773ffffffffffffffffffffffffffffffffffffffff1673ffffffffffffffffffffffffffffffffffffffff1681526020019081526020016000206001019080519060200190610500929190610a4d565b50816000808773ffffffffffffffffffffffffffffffffffffffff1673ffffffffffffffffffffffffffffffffffffffff1681526020019081526020016000206002019080519060200190610556929190610a4d565b506001808690806001815401808255809150509060018203906000526020600020016000909192909190916101000a81548173ffffffffffffffffffffffffffffffffffffffff021916908373ffffffffffffffffffffffffffffffffffffffff160217905550036000808773ffffffffffffffffffffffffffffffffffffffff1673ffffffffffffffffffffffffffffffffffffffff168152602001908152602001600020600301819055507f0ff5f9d54d8f0d8eb28a1342d019ecf32522604c5fdfc200132cc16ece2336fa858585856000808b73ffffffffffffffffffffffffffffffffffffffff1673ffffffffffffffffffffffffffffffffffffffff16815260200190815260200160002060030154604051808673ffffffffffffffffffffffffffffffffffffffff1673ffffffffffffffffffffffffffffffffffffffff1681526020018573ffffffffffffffffffffffffffffffffffffffff1673ffffffffffffffffffffffffffffffffffffffff1681526020018060200180602001848152602001838103835286818151815260200191508051906020019080838360005b838110156107185780820151818401526020810190506106fd565b50505050905090810190601f1680156107455780820380516001836020036101000a031916815260200191505b50838103825285818151815260200191508051906020019080838360005b8381101561077e578082015181840152602081019050610763565b50505050905090810190601f1680156107ab5780820380516001836020036101000a031916815260200191505b5097505050505050505060405180910390a160018080549050039050949350505050565b60006060806000808573ffffffffffffffffffffffffffffffffffffffff1673ffffffffffffffffffffffffffffffffffffffff16815260200190815260200160002060000160009054906101000a900473ffffffffffffffffffffffffffffffffffffffff166000808673ffffffffffffffffffffffffffffffffffffffff1673ffffffffffffffffffffffffffffffffffffffff1681526020019081526020016000206001016000808773ffffffffffffffffffffffffffffffffffffffff1673ffffffffffffffffffffffffffffffffffffffff168152602001908152602001600020600201818054600181600116156101000203166002900480601f01602080910402602001604051908101604052809291908181526020018280546001816001161561010002031660029004801561094d5780601f106109225761010080835404028352916020019161094d565b820191906000526020600020905b81548152906001019060200180831161093057829003601f168201915b50505050509150808054600181600116156101000203166002900480601f0160208091040260200160405190810160405280929190818152602001828054600181600116156101000203166002900480156109e95780601f106109be576101008083540402835291602001916109e9565b820191906000526020600020905b8154815290600101906020018083116109cc57829003601f168201915b505050505090509250925092509193909250565b6000600182815481101515610a0e57fe5b9060005260206000200160009054906101000a900473ffffffffffffffffffffffffffffffffffffffff169050919050565b6000600180549050905090565b828054600181600116156101000203166002900490600052602060002090601f016020900481019282601f10610a8e57805160ff1916838001178555610abc565b82800160010185558215610abc579182015b82811115610abb578251825591602001919060010190610aa0565b5b509050610ac99190610acd565b5090565b610aef91905b80821115610aeb576000816000905550600101610ad3565b5090565b9056fea165627a7a72305820a2509c789439d5be16c76a28db6f620a0d73398ef3a52f343ad5587d48d8b46d0029",
  "source": "pragma solidity >=0.4.21 <0.6.0;\r\n\r\ncontract DegreeHistory {\r\n    struct History {\r\n        address taiKhoan;\r\n        string thaoTac;\r\n        string ngay;\r\n        uint256 index;\r\n    }\r\n\r\n    mapping(address => History) HistoryMapping;\r\n    address[] historyIndex;\r\n\r\n    event SetHistoryEvent(\r\n        address _idHistory,\r\n        address _taiKhoan,\r\n        string _thaoTac,\r\n        string _ngay,\r\n        uint256 index\r\n    );\r\n\r\n    function InsertHistory(\r\n        address _idHistory,\r\n        address _taiKhoan,\r\n        string memory _thaoTac,\r\n        string memory _ngay\r\n    ) public returns(uint256 index){\r\n        HistoryMapping[_idHistory].taiKhoan = _taiKhoan;\r\n        HistoryMapping[_idHistory].thaoTac = _thaoTac;\r\n        HistoryMapping[_idHistory].ngay = _ngay;\r\n        HistoryMapping[_idHistory].index = historyIndex.push(_idHistory)-1;\r\n        emit SetHistoryEvent(\r\n            _idHistory,\r\n            _taiKhoan,\r\n            _thaoTac,\r\n            _ngay,\r\n            HistoryMapping[_idHistory].index);\r\n        return historyIndex.length-1;\r\n    }\r\n\r\n    function getHistory(\r\n        address _idHistory\r\n    ) public view returns(\r\n        address taiKhoan,\r\n        string memory thaoTac,\r\n        string memory ngay\r\n    ) { return (\r\n        HistoryMapping[_idHistory].taiKhoan,\r\n        HistoryMapping[_idHistory].thaoTac,\r\n        HistoryMapping[_idHistory].ngay);\r\n    }\r\n\r\n    function getHistoryCount() public view returns(uint256 count){\r\n        return historyIndex.length;\r\n      }\r\n\r\n    function getHistoryAtIndex(uint256 _index) public view returns(address idHistory) {\r\n        return historyIndex[_index];\r\n    }\r\n}",
  "sourcePath": "C:/xampp/htdocs/blockchaindemo/TG_UNIVERSITY_CERTIFICATE_VERIFICATION_SERVER/contracts/History.sol",
  "compiler": {
    "name": "solc",
    "version": "0.5.0+commit.1d4f565a.Emscripten.clang"
  },
  "schemaVersion": "3.0.9",
  "updatedAt": "2019-06-26T14:51:03.767Z",
  "devdoc": {
    "methods": {}
  },
  "userdoc": {
    "methods": {}
  }
}