{
  "contractName": "DegreeNameStorage",
  "abi": [
    {
      "constant": false,
      "inputs": [
        {
          "name": "_degreeKindId",
          "type": "uint256"
        },
        {
          "name": "_degreeNameId",
          "type": "uint256"
        },
        {
          "name": "_degreeName",
          "type": "string"
        }
      ],
      "name": "setDegreeName",
      "outputs": [],
      "payable": false,
      "stateMutability": "nonpayable",
      "type": "function"
    },
    {
      "constant": true,
      "inputs": [
        {
          "name": "_degreeNameId",
          "type": "uint256"
        }
      ],
      "name": "getDegreeName",
      "outputs": [
        {
          "name": "degreeKindId",
          "type": "uint256"
        },
        {
          "name": "degreeNameId",
          "type": "uint256"
        },
        {
          "name": "degreeName",
          "type": "string"
        }
      ],
      "payable": false,
      "stateMutability": "view",
      "type": "function"
    },
    {
      "constant": true,
      "inputs": [],
      "name": "getDegreeNameIndex",
      "outputs": [
        {
          "name": "",
          "type": "uint256"
        }
      ],
      "payable": false,
      "stateMutability": "view",
      "type": "function"
    }
  ],
  "bytecode": "0x608060405234801561001057600080fd5b50610468806100206000396000f3fe608060405260043610610057576000357c0100000000000000000000000000000000000000000000000000000000900463ffffffff168063587bb4ab1461005c578063baecc59f14610138578063d20dfbc514610163575b600080fd5b34801561006857600080fd5b506101366004803603606081101561007f57600080fd5b810190808035906020019092919080359060200190929190803590602001906401000000008111156100b057600080fd5b8201836020820111156100c257600080fd5b803590602001918460018302840111640100000000831117156100e457600080fd5b91908080601f016020809104026020016040519081016040528093929190818152602001838380828437600081840152601f19601f820116905080830192505050505050509192919290505050610225565b005b34801561014457600080fd5b5061014d61029c565b6040518082815260200191505060405180910390f35b34801561016f57600080fd5b5061019c6004803603602081101561018657600080fd5b81019080803590602001909291905050506102a5565b6040518084815260200183815260200180602001828103825283818151815260200191508051906020019080838360005b838110156101e85780820151818401526020810190506101cd565b50505050905090810190601f1680156102155780820380516001836020036101000a031916815260200191505b5094505050505060405180910390f35b82600160008481526020019081526020016000206000018190555081600160008481526020019081526020016000206001018190555080600160008481526020019081526020016000206002019080519060200190610285929190610397565b506000808154809291906001019190505550505050565b60008054905090565b60008060606001600085815260200190815260200160002060000154600160008681526020019081526020016000206001015460016000878152602001908152602001600020600201808054600181600116156101000203166002900480601f0160208091040260200160405190810160405280929190818152602001828054600181600116156101000203166002900480156103835780601f1061035857610100808354040283529160200191610383565b820191906000526020600020905b81548152906001019060200180831161036657829003601f168201915b505050505090509250925092509193909250565b828054600181600116156101000203166002900490600052602060002090601f016020900481019282601f106103d857805160ff1916838001178555610406565b82800160010185558215610406579182015b828111156104055782518255916020019190600101906103ea565b5b5090506104139190610417565b5090565b61043991905b8082111561043557600081600090555060010161041d565b5090565b9056fea165627a7a7230582083731282c99bbe27b7bde12b69bb867ecb9681512d8ffcfe6c8081b2bc8799cf0029",
  "source": "pragma solidity >=0.4.21 <0.6.0;\n\ncontract DegreeNameStorage {\n\n    // event setDegreeNameEvent(uint256 degreeKindId, uint256 _degreeNameId, string degreeName);\n\n    uint256 index;\n\n    struct DegreeName {\n        uint256 degreeKindId;\n        uint256 degreeNameId;\n        string degreeName;\n    }\n\n    mapping (uint256 => DegreeName) DegreeNameMapping;\n\n     //DegreeName degreeNames;\n\n    function setDegreeName(uint256 _degreeKindId, uint256 _degreeNameId, string memory _degreeName) public {\n        DegreeNameMapping[_degreeNameId].degreeKindId = _degreeKindId;\n        DegreeNameMapping[_degreeNameId].degreeNameId = _degreeNameId;\n        DegreeNameMapping[_degreeNameId].degreeName = _degreeName;\n\n        // DegreeNameMapping[_degreeNameId] = degreeNames;\n        index++;\n        // emit setDegreeNameEvent(_degreeKindId, _degreeNameId, _degreeName);\n\n        // return true;\n    }\n\n    function getDegreeName(uint256 _degreeNameId) public view returns(uint256 degreeKindId, uint256 degreeNameId, string memory degreeName) {\n        // DegreeName memory tmpData = DegreeNameMapping[_degreeNameId];\n        return (DegreeNameMapping[_degreeNameId].degreeKindId,\n        DegreeNameMapping[_degreeNameId].degreeNameId,\n        DegreeNameMapping[_degreeNameId].degreeName);\n    }\n\n    function getDegreeNameIndex() public view returns(uint256) {\n        return index;\n    }\n}",
  "sourcePath": "/opt/lampp/htdocs/thuctap/blockchaindemo/TG_UNIVERSITY_CERTIFICATE_VERIFICATION_SERVER/contracts/DegreeName.sol",
  "compiler": {
    "name": "solc",
    "version": "0.5.0+commit.1d4f565a.Emscripten.clang"
  },
  "schemaVersion": "3.0.9",
  "updatedAt": "2019-06-14T03:04:44.279Z",
  "devdoc": {
    "methods": {}
  },
  "userdoc": {
    "methods": {}
  }
}