{
  "contractName": "DegreeKindStorage",
  "abi": [
    {
      "constant": false,
      "inputs": [
        {
          "name": "degreeKindId",
          "type": "uint8",
          "indexed": false
        },
        {
          "name": "degreeKindName",
          "type": "string",
          "indexed": false
        }
      ],
      "name": "LeaderUpdated",
      "outputs": [
        {
          "name": "",
          "type": "bool"
        }
      ],
      "payable": false,
      "stateMutability": "nonpayable",
      "type": "event",
      "anonymous": false
    },
    {
      "constant": true,
      "inputs": [
        {
          "name": "degreeKindId",
          "type": "uint8",
          "indexed": false
        }
      ],
      "name": "CountryDelete",
      "outputs": [
        {
          "name": "degreeKindId",
          "type": "uint8"
        },
        {
          "name": "degreeKindName",
          "type": "string"
        }
      ],
      "payable": false,
      "stateMutability": "view",
      "type": "event",
      "anonymous": false
    },
    {
      "constant": false,
      "inputs": [
        {
          "name": "_degreeKindId",
          "type": "uint8"
        },
        {
          "name": "_degreeKindName",
          "type": "string"
        }
      ],
      "name": "setDegreeKind",
      "outputs": [
        {
          "name": "",
          "type": "bool"
        }
      ],
      "payable": false,
      "stateMutability": "nonpayable",
      "type": "function"
    },
    {
      "constant": true,
      "inputs": [
        {
          "name": "_degreeKindId",
          "type": "uint8"
        }
      ],
      "name": "getDegreeKind",
      "outputs": [
        {
          "name": "degreeKindId",
          "type": "uint8"
        },
        {
          "name": "degreeKindName",
          "type": "string"
        }
      ],
      "payable": false,
      "stateMutability": "view",
      "type": "function"
    },
    {
      "constant": true,
      "inputs": [],
      "name": "getDegreeKindIndex",
      "outputs": [
        {
          "name": "",
          "type": "uint256"
        }
      ],
      "payable": false,
      "stateMutability": "view",
      "type": "function"
    }
  ],
  "bytecode": "0x608060405234801561001057600080fd5b50610587806100206000396000f3fe608060405260043610610057576000357c0100000000000000000000000000000000000000000000000000000000900463ffffffff168063402c41661461005c57806365ee7adc1461008757806372d4f7731461014b575b600080fd5b34801561006857600080fd5b50610071610238565b6040518082815260200191505060405180910390f35b34801561009357600080fd5b506100c3600480360360208110156100aa57600080fd5b81019080803560ff169060200190929190505050610241565b604051808360ff1660ff16815260200180602001828103825283818151815260200191508051906020019080838360005b8381101561010f5780820151818401526020810190506100f4565b50505050905090810190601f16801561013c5780820380516001836020036101000a031916815260200191505b50935050505060405180910390f35b34801561015757600080fd5b5061021e6004803603604081101561016e57600080fd5b81019080803560ff1690602001909291908035906020019064010000000081111561019857600080fd5b8201836020820111156101aa57600080fd5b803590602001918460018302840111640100000000831117156101cc57600080fd5b91908080601f016020809104026020016040519081016040528093929190818152602001838380828437600081840152601f19601f820116905080830192505050505050509192919290505050610349565b604051808215151515815260200191505060405180910390f35b60008054905090565b6000606061024d610412565b600160008560ff1660ff1681526020019081526020016000206040805190810160405290816000820160009054906101000a900460ff1660ff1660ff168152602001600182018054600181600116156101000203166002900480601f0160208091040260200160405190810160405280929190818152602001828054600181600116156101000203166002900480156103275780601f106102fc57610100808354040283529160200191610327565b820191906000526020600020905b81548152906001019060200180831161030a57829003601f168201915b5050505050815250509050806000015181602001518090509250925050915091565b600082600260000160006101000a81548160ff021916908360ff160217905550816002600101908051906020019061038292919061042f565b506002600160008560ff1660ff1681526020019081526020016000206000820160009054906101000a900460ff168160000160006101000a81548160ff021916908360ff160217905550600182018160010190805460018160011615610100020316600290046103f39291906104af565b5090505060008081548092919060010191905055506001905092915050565b6040805190810160405280600060ff168152602001606081525090565b828054600181600116156101000203166002900490600052602060002090601f016020900481019282601f1061047057805160ff191683800117855561049e565b8280016001018555821561049e579182015b8281111561049d578251825591602001919060010190610482565b5b5090506104ab9190610536565b5090565b828054600181600116156101000203166002900490600052602060002090601f016020900481019282601f106104e85780548555610525565b8280016001018555821561052557600052602060002091601f016020900482015b82811115610524578254825591600101919060010190610509565b5b5090506105329190610536565b5090565b61055891905b8082111561055457600081600090555060010161053c565b5090565b9056fea165627a7a72305820ae86c3218fa5935204bde0d0d2ec004d9da2150b07a754f05b65f8de6994563b0029",
  "source": "pragma solidity >=0.4.21 <0.6.0;\r\n\r\ncontract DegreeKindStorage {\r\n\r\n    // event setDegreeKindEvent(uint degreeKindId, string degreeKindName);\r\n    uint256 index;\r\n\r\n    struct DegreeKind {\r\n        uint8 degreeKindId;\r\n        string degreeKindName;\r\n    }\r\n\r\n    mapping (uint8 => DegreeKind) DegreeKindMapping;\r\n\r\n\r\n    event LeaderUpdated(uint8 degreeKindId , string degreeKindName);\r\n    event CountryDelete(uint8 degreeKindId);\r\n\r\n    DegreeKind degreeKind;\r\n\r\n    function setDegreeKind(uint8 _degreeKindId, string memory _degreeKindName) public returns(bool) {\r\n        degreeKind.degreeKindId = _degreeKindId;\r\n        degreeKind.degreeKindName = _degreeKindName;\r\n\r\n        DegreeKindMapping[_degreeKindId] = degreeKind;\r\n        // emit setDegreeKindEvent(_degreeKindId, _degreeKindName);\r\n        index++;\r\n\r\n        return true;\r\n    }\r\n\r\n    function getDegreeKind(uint8 _degreeKindId) public view returns(uint8 degreeKindId, string memory degreeKindName) {\r\n        DegreeKind memory tmpData = DegreeKindMapping[_degreeKindId];\r\n        return (tmpData.degreeKindId, tmpData.degreeKindName);\r\n    }\r\n\r\n    function getDegreeKindIndex() public view returns(uint256) {\r\n        return index;\r\n    }\r\n}",
  "sourcePath": "C:/Users/DELL/Documents/Downloads/Microsoft.SkypeApp_kzf8qxf38zg5c!App/All/TG_UNIVERSITY_CERTIFICATE_VERIFICATION_SERVER/contracts/DegreeKind.sol",
  "compiler": {
    "name": "solc",
    "version": "0.5.0+commit.1d4f565a.Emscripten.clang"
  },
  "schemaVersion": "3.0.9",
  "updatedAt": "2019-06-11T07:33:32.517Z",
  "devdoc": {
    "methods": {}
  },
  "userdoc": {
    "methods": {}
  }
}