{
  "contractName": "DegreeKindStorage",
  "abi": [
    {
      "constant": false,
      "inputs": [
        {
          "name": "degreeKindId",
          "type": "address",
          "indexed": true
        },
        {
          "name": "degreeKindName",
          "type": "string",
          "indexed": false
        },
        {
          "indexed": false,
          "name": "index",
          "type": "uint256"
        }
      ],
      "name": "setDegreeKindEvent",
      "outputs": [
        {
          "name": "",
          "type": "bool"
        }
      ],
      "payable": false,
      "stateMutability": "nonpayable",
      "type": "event",
      "anonymous": false
    },
    {
      "constant": true,
      "inputs": [
        {
          "name": "degreeKindId",
          "type": "address",
          "indexed": true
        },
        {
          "indexed": false,
          "name": "degreeKindName",
          "type": "string"
        },
        {
          "indexed": false,
          "name": "index",
          "type": "uint256"
        }
      ],
      "name": "updateDegreeKindNameEvent",
      "outputs": [
        {
          "name": "degreeKindId",
          "type": "uint8"
        },
        {
          "name": "degreeKindName",
          "type": "string"
        }
      ],
      "payable": false,
      "stateMutability": "view",
      "type": "event",
      "anonymous": false
    },
    {
      "constant": false,
      "inputs": [
        {
          "name": "degreeNameId",
          "type": "address",
          "indexed": true
        },
        {
          "name": "idDegreeKind",
          "type": "address",
          "indexed": false
        },
        {
          "indexed": false,
          "name": "degreeName",
          "type": "string"
        },
        {
          "indexed": false,
          "name": "index",
          "type": "uint256"
        }
      ],
      "name": "setDegreeNameEvent",
      "outputs": [
        {
          "name": "",
          "type": "bool"
        }
      ],
      "payable": false,
      "stateMutability": "nonpayable",
      "type": "event",
      "anonymous": false
    },
    {
      "constant": true,
      "inputs": [
        {
          "name": "degreeNameId",
          "type": "address",
          "indexed": true
        },
        {
          "indexed": false,
          "name": "idDegreeKind",
          "type": "address"
        },
        {
          "indexed": false,
          "name": "degreeName",
          "type": "string"
        },
        {
          "indexed": false,
          "name": "index",
          "type": "uint256"
        }
      ],
      "name": "updateDegreeNameEvent",
      "outputs": [
        {
          "name": "degreeKindId",
          "type": "uint8"
        },
        {
          "name": "degreeKindName",
          "type": "string"
        }
      ],
      "payable": false,
      "stateMutability": "view",
      "type": "event",
      "anonymous": false
    },
    {
      "constant": false,
      "inputs": [
        {
          "name": "degreeKindId",
          "type": "address"
        },
        {
          "name": "degreeKindName",
          "type": "string"
        }
      ],
      "name": "setDegreeKind",
      "outputs": [
        {
          "name": "_index",
          "type": "uint256"
        }
      ],
      "payable": false,
      "stateMutability": "nonpayable",
      "type": "function"
    },
    {
      "constant": true,
      "inputs": [
        {
          "name": "_degreeKindId",
          "type": "address"
        }
      ],
      "name": "getDegreeKind",
      "outputs": [
        {
          "name": "degreeKindId",
          "type": "address"
        },
        {
          "name": "degreeKindName",
          "type": "string"
        },
        {
          "name": "index",
          "type": "uint256"
        }
      ],
      "payable": false,
      "stateMutability": "view",
      "type": "function"
    },
    {
      "constant": false,
      "inputs": [
        {
          "name": "_degreeKindId",
          "type": "address"
        },
        {
          "name": "degreeKindName",
          "type": "string"
        }
      ],
      "name": "updateDegreeKindName",
      "outputs": [
        {
          "name": "success",
          "type": "bool"
        }
      ],
      "payable": false,
      "stateMutability": "nonpayable",
      "type": "function"
    },
    {
      "constant": false,
      "inputs": [
        {
          "name": "degreeNameId",
          "type": "address"
        },
        {
          "name": "idDegreeKind",
          "type": "address"
        },
        {
          "name": "degreeName",
          "type": "string"
        }
      ],
      "name": "setDegreeName",
      "outputs": [
        {
          "name": "_index",
          "type": "uint256"
        }
      ],
      "payable": false,
      "stateMutability": "nonpayable",
      "type": "function"
    },
    {
      "constant": true,
      "inputs": [
        {
          "name": "_degreeNameId",
          "type": "address"
        }
      ],
      "name": "getDegreeName",
      "outputs": [
        {
          "name": "degreeNameId",
          "type": "address"
        },
        {
          "name": "idDegreeKind",
          "type": "address"
        },
        {
          "name": "degreeName",
          "type": "string"
        },
        {
          "name": "index",
          "type": "uint256"
        }
      ],
      "payable": false,
      "stateMutability": "view",
      "type": "function"
    },
    {
      "constant": false,
      "inputs": [
        {
          "name": "_degreeNameId",
          "type": "address"
        },
        {
          "name": "idDegreeKind",
          "type": "address"
        },
        {
          "name": "degreeName",
          "type": "string"
        }
      ],
      "name": "updateDegreeName",
      "outputs": [
        {
          "name": "success",
          "type": "bool"
        }
      ],
      "payable": false,
      "stateMutability": "nonpayable",
      "type": "function"
    },
    {
      "constant": true,
      "inputs": [
        {
          "name": "id",
          "type": "address"
        }
      ],
      "name": "isDegreeKind",
      "outputs": [
        {
          "name": "isIndeed",
          "type": "bool"
        }
      ],
      "payable": false,
      "stateMutability": "view",
      "type": "function"
    },
    {
      "constant": true,
      "inputs": [
        {
          "name": "_index",
          "type": "uint256"
        }
      ],
      "name": "getDegreeKindIndex",
      "outputs": [
        {
          "name": "_id",
          "type": "address"
        }
      ],
      "payable": false,
      "stateMutability": "view",
      "type": "function"
    },
    {
      "constant": true,
      "inputs": [],
      "name": "getDegreeKindCount",
      "outputs": [
        {
          "name": "count",
          "type": "uint256"
        }
      ],
      "payable": false,
      "stateMutability": "view",
      "type": "function"
    },
    {
      "constant": true,
      "inputs": [
        {
          "name": "id",
          "type": "address"
        }
      ],
      "name": "isDegreeName",
      "outputs": [
        {
          "name": "isIndeed",
          "type": "bool"
        }
      ],
      "payable": false,
      "stateMutability": "view",
      "type": "function"
    },
    {
      "constant": true,
      "inputs": [
        {
          "name": "_index",
          "type": "uint256"
        }
      ],
      "name": "getDegreeNameIndex",
      "outputs": [
        {
          "name": "_id",
          "type": "address"
        }
      ],
      "payable": false,
      "stateMutability": "view",
      "type": "function"
    },
    {
      "constant": true,
      "inputs": [],
      "name": "getDegreeNameCount",
      "outputs": [
        {
          "name": "count",
          "type": "uint256"
        }
      ],
      "payable": false,
      "stateMutability": "view",
      "type": "function"
    }
  ],
  "bytecode": "0x608060405234801561001057600080fd5b50611771806100206000396000f3fe6080604052600436106100ba576000357c0100000000000000000000000000000000000000000000000000000000900463ffffffff1680630f3cb505146100bf5780631db7d3fc1461013a5780632d7329b614610271578063597c9e14146102da5780637178deb61461035557806381d054be14610451578063bb64984f14610551578063beacef76146105ba578063dfa7a224146106d6578063e1d0f05714610701578063e85887ef14610821578063e8ebf8c314610925575b600080fd5b3480156100cb57600080fd5b506100f8600480360360208110156100e257600080fd5b8101908080359060200190929190505050610950565b604051808273ffffffffffffffffffffffffffffffffffffffff1673ffffffffffffffffffffffffffffffffffffffff16815260200191505060405180910390f35b34801561014657600080fd5b506101896004803603602081101561015d57600080fd5b81019080803573ffffffffffffffffffffffffffffffffffffffff169060200190929190505050610993565b604051808573ffffffffffffffffffffffffffffffffffffffff1673ffffffffffffffffffffffffffffffffffffffff1681526020018473ffffffffffffffffffffffffffffffffffffffff1673ffffffffffffffffffffffffffffffffffffffff16815260200180602001838152602001828103825284818151815260200191508051906020019080838360005b83811015610233578082015181840152602081019050610218565b50505050905090810190601f1680156102605780820380516001836020036101000a031916815260200191505b509550505050505060405180910390f35b34801561027d57600080fd5b506102c06004803603602081101561029457600080fd5b81019080803573ffffffffffffffffffffffffffffffffffffffff169060200190929190505050610b2e565b604051808215151515815260200191505060405180910390f35b3480156102e657600080fd5b50610313600480360360208110156102fd57600080fd5b8101908080359060200190929190505050610bf7565b604051808273ffffffffffffffffffffffffffffffffffffffff1673ffffffffffffffffffffffffffffffffffffffff16815260200191505060405180910390f35b34801561036157600080fd5b5061043b6004803603604081101561037857600080fd5b81019080803573ffffffffffffffffffffffffffffffffffffffff169060200190929190803590602001906401000000008111156103b557600080fd5b8201836020820111156103c757600080fd5b803590602001918460018302840111640100000000831117156103e957600080fd5b91908080601f016020809104026020016040519081016040528093929190818152602001838380828437600081840152601f19601f820116905080830192505050505050509192919290505050610c3a565b6040518082815260200191505060405180910390f35b34801561045d57600080fd5b506105376004803603604081101561047457600080fd5b81019080803573ffffffffffffffffffffffffffffffffffffffff169060200190929190803590602001906401000000008111156104b157600080fd5b8201836020820111156104c357600080fd5b803590602001918460018302840111640100000000831117156104e557600080fd5b91908080601f016020809104026020016040519081016040528093929190818152602001838380828437600081840152601f19601f820116905080830192505050505050509192919290505050610e4a565b604051808215151515815260200191505060405180910390f35b34801561055d57600080fd5b506105a06004803603602081101561057457600080fd5b81019080803573ffffffffffffffffffffffffffffffffffffffff169060200190929190505050610fa8565b604051808215151515815260200191505060405180910390f35b3480156105c657600080fd5b506106c0600480360360608110156105dd57600080fd5b81019080803573ffffffffffffffffffffffffffffffffffffffff169060200190929190803573ffffffffffffffffffffffffffffffffffffffff1690602001909291908035906020019064010000000081111561063a57600080fd5b82018360208201111561064c57600080fd5b8035906020019184600183028401116401000000008311171561066e57600080fd5b91908080601f016020809104026020016040519081016040528093929190818152602001838380828437600081840152601f19601f820116905080830192505050505050509192919290505050611072565b6040518082815260200191505060405180910390f35b3480156106e257600080fd5b506106eb61133d565b6040518082815260200191505060405180910390f35b34801561070d57600080fd5b506108076004803603606081101561072457600080fd5b81019080803573ffffffffffffffffffffffffffffffffffffffff169060200190929190803573ffffffffffffffffffffffffffffffffffffffff1690602001909291908035906020019064010000000081111561078157600080fd5b82018360208201111561079357600080fd5b803590602001918460018302840111640100000000831117156107b557600080fd5b91908080601f016020809104026020016040519081016040528093929190818152602001838380828437600081840152601f19601f82011690508083019250505050505050919291929050505061134a565b604051808215151515815260200191505060405180910390f35b34801561082d57600080fd5b506108706004803603602081101561084457600080fd5b81019080803573ffffffffffffffffffffffffffffffffffffffff169060200190929190505050611560565b604051808473ffffffffffffffffffffffffffffffffffffffff1673ffffffffffffffffffffffffffffffffffffffff16815260200180602001838152602001828103825284818151815260200191508051906020019080838360005b838110156108e85780820151818401526020810190506108cd565b50505050905090810190601f1680156109155780820380516001836020036101000a031916815260200191505b5094505050505060405180910390f35b34801561093157600080fd5b5061093a611693565b6040518082815260200191505060405180910390f35b600060018281548110151561096157fe5b9060005260206000200160009054906101000a900473ffffffffffffffffffffffffffffffffffffffff169050919050565b6000806060600084600260008773ffffffffffffffffffffffffffffffffffffffff1673ffffffffffffffffffffffffffffffffffffffff16815260200190815260200160002060000160009054906101000a900473ffffffffffffffffffffffffffffffffffffffff16600260008873ffffffffffffffffffffffffffffffffffffffff1673ffffffffffffffffffffffffffffffffffffffff168152602001908152602001600020600101600260008973ffffffffffffffffffffffffffffffffffffffff1673ffffffffffffffffffffffffffffffffffffffff16815260200190815260200160002060020154818054600181600116156101000203166002900480601f016020809104026020016040519081016040528092919081815260200182805460018160011615610100020316600290048015610b185780601f10610aed57610100808354040283529160200191610b18565b820191906000526020600020905b815481529060010190602001808311610afb57829003601f168201915b5050505050915093509350935093509193509193565b6000806001805490501415610b465760009050610bf2565b8173ffffffffffffffffffffffffffffffffffffffff1660016000808573ffffffffffffffffffffffffffffffffffffffff1673ffffffffffffffffffffffffffffffffffffffff16815260200190815260200160002060010154815481101515610bad57fe5b9060005260206000200160009054906101000a900473ffffffffffffffffffffffffffffffffffffffff1673ffffffffffffffffffffffffffffffffffffffff161490505b919050565b6000600382815481101515610c0857fe5b9060005260206000200160009054906101000a900473ffffffffffffffffffffffffffffffffffffffff169050919050565b6000816000808573ffffffffffffffffffffffffffffffffffffffff1673ffffffffffffffffffffffffffffffffffffffff1681526020019081526020016000206000019080519060200190610c919291906116a0565b506001808490806001815401808255809150509060018203906000526020600020016000909192909190916101000a81548173ffffffffffffffffffffffffffffffffffffffff021916908373ffffffffffffffffffffffffffffffffffffffff160217905550036000808573ffffffffffffffffffffffffffffffffffffffff1673ffffffffffffffffffffffffffffffffffffffff168152602001908152602001600020600101819055508273ffffffffffffffffffffffffffffffffffffffff167f9bbd27f9e46ae47adc373c9b40a6a6ca8b47ea8c7f77e8596acaa165eb947336836000808773ffffffffffffffffffffffffffffffffffffffff1673ffffffffffffffffffffffffffffffffffffffff168152602001908152602001600020600101546040518080602001838152602001828103825284818151815260200191508051906020019080838360005b83811015610dff578082015181840152602081019050610de4565b50505050905090810190601f168015610e2c5780820380516001836020036101000a031916815260200191505b50935050505060405180910390a26001808054905003905092915050565b6000816000808573ffffffffffffffffffffffffffffffffffffffff1673ffffffffffffffffffffffffffffffffffffffff1681526020019081526020016000206000019080519060200190610ea19291906116a0565b508273ffffffffffffffffffffffffffffffffffffffff167f9c719fe8d36b8898b299b00d808969441392b0964d731686e3a6f67404e4ec99836000808773ffffffffffffffffffffffffffffffffffffffff1673ffffffffffffffffffffffffffffffffffffffff168152602001908152602001600020600101546040518080602001838152602001828103825284818151815260200191508051906020019080838360005b83811015610f63578082015181840152602081019050610f48565b50505050905090810190601f168015610f905780820380516001836020036101000a031916815260200191505b50935050505060405180910390a26001905092915050565b6000806003805490501415610fc0576000905061106d565b8173ffffffffffffffffffffffffffffffffffffffff166003600260008573ffffffffffffffffffffffffffffffffffffffff1673ffffffffffffffffffffffffffffffffffffffff1681526020019081526020016000206002015481548110151561102857fe5b9060005260206000200160009054906101000a900473ffffffffffffffffffffffffffffffffffffffff1673ffffffffffffffffffffffffffffffffffffffff161490505b919050565b600082600260008673ffffffffffffffffffffffffffffffffffffffff1673ffffffffffffffffffffffffffffffffffffffff16815260200190815260200160002060000160006101000a81548173ffffffffffffffffffffffffffffffffffffffff021916908373ffffffffffffffffffffffffffffffffffffffff16021790555081600260008673ffffffffffffffffffffffffffffffffffffffff1673ffffffffffffffffffffffffffffffffffffffff168152602001908152602001600020600101908051906020019061114b9291906116a0565b50600160038590806001815401808255809150509060018203906000526020600020016000909192909190916101000a81548173ffffffffffffffffffffffffffffffffffffffff021916908373ffffffffffffffffffffffffffffffffffffffff16021790555003600260008673ffffffffffffffffffffffffffffffffffffffff1673ffffffffffffffffffffffffffffffffffffffff168152602001908152602001600020600201819055508373ffffffffffffffffffffffffffffffffffffffff167fc3c32ec7d6b78ef10dd136c320dbfaf82350a3b65c6ac669eadb001789c2b9898484600260008973ffffffffffffffffffffffffffffffffffffffff1673ffffffffffffffffffffffffffffffffffffffff16815260200190815260200160002060020154604051808473ffffffffffffffffffffffffffffffffffffffff1673ffffffffffffffffffffffffffffffffffffffff16815260200180602001838152602001828103825284818151815260200191508051906020019080838360005b838110156112ef5780820151818401526020810190506112d4565b50505050905090810190601f16801561131c5780820380516001836020036101000a031916815260200191505b5094505050505060405180910390a260016003805490500390509392505050565b6000600380549050905090565b600082600260008673ffffffffffffffffffffffffffffffffffffffff1673ffffffffffffffffffffffffffffffffffffffff16815260200190815260200160002060000160006101000a81548173ffffffffffffffffffffffffffffffffffffffff021916908373ffffffffffffffffffffffffffffffffffffffff16021790555081600260008673ffffffffffffffffffffffffffffffffffffffff1673ffffffffffffffffffffffffffffffffffffffff16815260200190815260200160002060010190805190602001906114239291906116a0565b508373ffffffffffffffffffffffffffffffffffffffff167f202544688f14b02c2f894d64f92eec1758f8f05a1be240da7a182ffa05e3fd198484600260008973ffffffffffffffffffffffffffffffffffffffff1673ffffffffffffffffffffffffffffffffffffffff16815260200190815260200160002060020154604051808473ffffffffffffffffffffffffffffffffffffffff1673ffffffffffffffffffffffffffffffffffffffff16815260200180602001838152602001828103825284818151815260200191508051906020019080838360005b838110156115195780820151818401526020810190506114fe565b50505050905090810190601f1680156115465780820380516001836020036101000a031916815260200191505b5094505050505060405180910390a2600190509392505050565b600060606000836000808673ffffffffffffffffffffffffffffffffffffffff1673ffffffffffffffffffffffffffffffffffffffff1681526020019081526020016000206000016000808773ffffffffffffffffffffffffffffffffffffffff1673ffffffffffffffffffffffffffffffffffffffff16815260200190815260200160002060010154818054600181600116156101000203166002900480601f01602080910402602001604051908101604052809291908181526020018280546001816001161561010002031660029004801561167f5780601f106116545761010080835404028352916020019161167f565b820191906000526020600020905b81548152906001019060200180831161166257829003601f168201915b505050505091509250925092509193909250565b6000600180549050905090565b828054600181600116156101000203166002900490600052602060002090601f016020900481019282601f106116e157805160ff191683800117855561170f565b8280016001018555821561170f579182015b8281111561170e5782518255916020019190600101906116f3565b5b50905061171c9190611720565b5090565b61174291905b8082111561173e576000816000905550600101611726565b5090565b9056fea165627a7a72305820dccb0e6f3522d45ebfa75a1d08c5db3b5d37e3a8de9e3e171fba1f6561a1d2780029",
  "source": "pragma solidity >=0.4.21 <0.6.0;\n\ncontract DegreeKindStorage {\n    struct DegreeKind{\n        string degreeKindName;\n        uint index;\n    }\n\n    struct DegreeName{\n        address idDegreeKind;\n        string degreeName;\n        uint index;\n    }\n\n    mapping (address => DegreeKind) DegreeKindMapping;\n    address[] private DegreeKindIndex;\n\n    mapping (address => DegreeName) DegreeNameMapping;\n    address[] private DegreeNameIndex;\n\n\n    event setDegreeKindEvent(address indexed degreeKindId , string degreeKindName, uint index);\n    event updateDegreeKindNameEvent(address indexed degreeKindId, string degreeKindName, uint index);\n\n    event setDegreeNameEvent(address indexed degreeNameId , address idDegreeKind, string degreeName, uint index);\n    event updateDegreeNameEvent(address indexed degreeNameId, address idDegreeKind, string degreeName, uint index);\n\n\n    function setDegreeKind(address degreeKindId, string memory degreeKindName) public returns(uint _index) {\n        DegreeKindMapping[degreeKindId].degreeKindName = degreeKindName;\n        DegreeKindMapping[degreeKindId].index = DegreeKindIndex.push(degreeKindId)-1;\n        emit setDegreeKindEvent(degreeKindId, degreeKindName, DegreeKindMapping[degreeKindId].index);\n        return DegreeKindIndex.length-1;\n    }\n\n    function getDegreeKind(address _degreeKindId) public view returns(address degreeKindId, string memory degreeKindName, uint index){\n        return(_degreeKindId,\n            DegreeKindMapping[_degreeKindId].degreeKindName,\n            DegreeKindMapping[_degreeKindId].index\n            );\n    }\n\n    function updateDegreeKindName(address _degreeKindId, string memory degreeKindName) public returns(bool success){\n            DegreeKindMapping[_degreeKindId].degreeKindName = degreeKindName;\n            emit updateDegreeKindNameEvent(_degreeKindId, degreeKindName, DegreeKindMapping[_degreeKindId].index);\n            return true;\n    }\n\n    //DegreeName\n    function setDegreeName(address degreeNameId, address idDegreeKind, string memory degreeName) public returns(uint _index) {\n        DegreeNameMapping[degreeNameId].idDegreeKind = idDegreeKind;\n        DegreeNameMapping[degreeNameId].degreeName = degreeName;\n        DegreeNameMapping[degreeNameId].index = DegreeNameIndex.push(degreeNameId)-1;\n        emit setDegreeNameEvent(degreeNameId, idDegreeKind, degreeName, DegreeNameMapping[degreeNameId].index);\n        return DegreeNameIndex.length-1;\n    }\n\n    function getDegreeName(address _degreeNameId) public\n    view returns(address degreeNameId,address idDegreeKind, string memory degreeName, uint index){\n        return(_degreeNameId,\n            DegreeNameMapping[_degreeNameId].idDegreeKind,\n            DegreeNameMapping[_degreeNameId].degreeName,\n            DegreeNameMapping[_degreeNameId].index\n            );\n    }\n\n    function updateDegreeName(address _degreeNameId,address idDegreeKind, string memory degreeName) public returns(bool success){\n            DegreeNameMapping[_degreeNameId].idDegreeKind = idDegreeKind;\n            DegreeNameMapping[_degreeNameId].degreeName = degreeName;\n            emit updateDegreeNameEvent(_degreeNameId, idDegreeKind, degreeName, DegreeNameMapping[_degreeNameId].index);\n            return true;\n    }\n\n    //Ham check 2 struct\n    function isDegreeKind(address id) public view returns(bool isIndeed)\n    {\n        if(DegreeKindIndex.length == 0) return false;\n        return (DegreeKindIndex[DegreeKindMapping[id].index] == id);\n    }\n\n    function getDegreeKindIndex(uint _index) public view returns(address _id) {\n        return DegreeKindIndex[_index];\n    }\n\n    function getDegreeKindCount() public view returns(uint count){\n        return DegreeKindIndex.length;\n    }\n\n    //degreeName\n    function isDegreeName(address id) public view returns(bool isIndeed)\n    {\n        if(DegreeNameIndex.length == 0) return false;\n        return (DegreeNameIndex[DegreeNameMapping[id].index] == id);\n    }\n\n    function getDegreeNameIndex(uint _index) public view returns(address _id) {\n        return DegreeNameIndex[_index];\n    }\n\n    function getDegreeNameCount() public view returns(uint count){\n        return DegreeNameIndex.length;\n    }\n\n}",
  "sourcePath": "/opt/lampp/htdocs/thuctap/blockchaindemo/TG_UNIVERSITY_CERTIFICATE_VERIFICATION_SERVER/contracts/DegreeKind.sol",
  "compiler": {
    "name": "solc",
    "version": "0.5.0+commit.1d4f565a.Emscripten.clang"
  },
  "schemaVersion": "3.0.9",
  "updatedAt": "2019-06-26T01:36:47.721Z",
  "devdoc": {
    "methods": {}
  },
  "userdoc": {
    "methods": {}
  }
}