{
  "contractName": "DegreeKindStorage",
  "abi": [
    {
      "anonymous": false,
      "inputs": [
        {
          "indexed": false,
          "name": "_degreeKindId",
          "type": "address"
        },
        {
          "indexed": false,
          "name": "_degreeKindName",
          "type": "string"
        },
        {
          "indexed": false,
          "name": "index",
          "type": "uint256"
        }
      ],
      "name": "LeaderUpdatedEvent",
      "type": "event"
    },
    {
      "anonymous": false,
      "inputs": [
        {
          "indexed": false,
          "name": "_degreeKindId",
          "type": "address"
        },
        {
          "indexed": false,
          "name": "index",
          "type": "uint256"
        }
      ],
      "name": "CountryDeleteEvent",
      "type": "event"
    },
    {
      "anonymous": false,
      "inputs": [
        {
          "indexed": false,
          "name": "_degreeKindId",
          "type": "address"
        },
        {
          "indexed": false,
          "name": "_degreeKindName",
          "type": "string"
        },
        {
          "indexed": false,
          "name": "_index",
          "type": "uint256"
        }
      ],
      "name": "SetDegreeKindEvent",
      "type": "event"
    },
    {
      "constant": false,
      "inputs": [
        {
          "name": "_degreeKindId",
          "type": "address",
          "indexed": false
        },
        {
          "name": "index",
          "type": "uint256",
          "indexed": false
        }
      ],
      "name": "SetDeleteDegreeKind",
      "outputs": [
        {
          "name": "index",
          "type": "uint256"
        }
      ],
      "payable": false,
      "stateMutability": "nonpayable",
      "type": "event",
      "anonymous": false
    },
    {
      "constant": true,
      "inputs": [
        {
          "name": "_degreeKindId",
          "type": "address"
        },
        {
          "name": "_degreeKindName",
          "type": "string"
        }
      ],
      "name": "isUser",
      "outputs": [
        {
          "name": "isIndeed",
          "type": "bool"
        }
      ],
      "payable": false,
      "stateMutability": "view",
      "type": "function"
    },
    {
      "constant": false,
      "inputs": [
        {
          "name": "_degreeKindId",
          "type": "address"
        },
        {
          "name": "_degreeKindName",
          "type": "string"
        }
      ],
      "name": "InsertDegreeKind",
      "outputs": [
        {
          "name": "index",
          "type": "uint256"
        },
        {
          "name": "degreeKindName",
          "type": "string"
        }
      ],
      "payable": false,
      "stateMutability": "nonpayable",
      "type": "function"
    },
    {
      "constant": false,
      "inputs": [
        {
          "name": "_degreeKindId",
          "type": "address"
        },
        {
          "name": "degreeKindName",
          "type": "string"
        }
      ],
      "name": "deleteDegreeKind",
      "outputs": [
        {
          "name": "index",
          "type": "uint256"
        },
        {
          "name": "degreeKindName",
          "type": "string"
        }
      ],
      "payable": false,
      "stateMutability": "nonpayable",
      "type": "function"
    },
    {
      "constant": true,
      "inputs": [
        {
          "name": "_degreeKindId",
          "type": "address"
        },
        {
          "name": "_degreeKindName",
          "type": "string"
        }
      ],
      "name": "getDegreeKind",
      "outputs": [
        {
          "name": "degreeKindId",
          "type": "address"
        },
        {
          "name": "degreeKindName",
          "type": "string"
        }
      ],
      "payable": false,
      "stateMutability": "view",
      "type": "function"
    },
    {
      "constant": false,
      "inputs": [
        {
          "name": "_degreeKindId",
          "type": "address"
        },
        {
          "name": "_degreeKindName",
          "type": "string"
        }
      ],
      "name": "updateDegreeKindName",
      "outputs": [
        {
          "name": "success",
          "type": "bool"
        }
      ],
      "payable": false,
      "stateMutability": "nonpayable",
      "type": "function"
    },
    {
      "constant": true,
      "inputs": [
        {
          "name": "_index",
          "type": "uint256"
        }
      ],
      "name": "getDegreeKindCount",
      "outputs": [
        {
          "name": "count",
          "type": "uint256"
        }
      ],
      "payable": false,
      "stateMutability": "view",
      "type": "function"
    },
    {
      "constant": true,
      "inputs": [
        {
          "name": "_index",
          "type": "uint256"
        }
      ],
      "name": "getDegreeKindAtIndex",
      "outputs": [
        {
          "name": "userAddress",
          "type": "address"
        }
      ],
      "payable": false,
      "stateMutability": "view",
      "type": "function"
    }
  ],
  "bytecode": "0x608060405234801561001057600080fd5b50610d6e806100206000396000f3fe608060405260043610610083576000357c0100000000000000000000000000000000000000000000000000000000900463ffffffff1680634209fff1146100885780635bcb7443146100f157806381d054be14610156578063d0083f3614610256578063e4491c75146102d1578063e85887ef146103cd578063e8ebf8c3146104ca575b600080fd5b34801561009457600080fd5b506100d7600480360360208110156100ab57600080fd5b81019080803573ffffffffffffffffffffffffffffffffffffffff1690602001909291905050506104f5565b604051808215151515815260200191505060405180910390f35b3480156100fd57600080fd5b506101406004803603602081101561011457600080fd5b81019080803573ffffffffffffffffffffffffffffffffffffffff1690602001909291905050506105be565b6040518082815260200191505060405180910390f35b34801561016257600080fd5b5061023c6004803603604081101561017957600080fd5b81019080803573ffffffffffffffffffffffffffffffffffffffff169060200190929190803590602001906401000000008111156101b657600080fd5b8201836020820111156101c857600080fd5b803590602001918460018302840111640100000000831117156101ea57600080fd5b91908080601f016020809104026020016040519081016040528093929190818152602001838380828437600081840152601f19601f8201169050808301925050505050505091929192905050506108a7565b604051808215151515815260200191505060405180910390f35b34801561026257600080fd5b5061028f6004803603602081101561027957600080fd5b8101908080359060200190929190505050610909565b604051808273ffffffffffffffffffffffffffffffffffffffff1673ffffffffffffffffffffffffffffffffffffffff16815260200191505060405180910390f35b3480156102dd57600080fd5b506103b7600480360360408110156102f457600080fd5b81019080803573ffffffffffffffffffffffffffffffffffffffff1690602001909291908035906020019064010000000081111561033157600080fd5b82018360208201111561034357600080fd5b8035906020019184600183028401116401000000008311171561036557600080fd5b91908080601f016020809104026020016040519081016040528093929190818152602001838380828437600081840152601f19601f82011690508083019250505050505050919291929050505061094c565b6040518082815260200191505060405180910390f35b3480156103d957600080fd5b5061041c600480360360208110156103f057600080fd5b81019080803573ffffffffffffffffffffffffffffffffffffffff169060200190929190505050610b79565b604051808373ffffffffffffffffffffffffffffffffffffffff1673ffffffffffffffffffffffffffffffffffffffff16815260200180602001828103825283818151815260200191508051906020019080838360005b8381101561048e578082015181840152602081019050610473565b50505050905090810190601f1680156104bb5780820380516001836020036101000a031916815260200191505b50935050505060405180910390f35b3480156104d657600080fd5b506104df610c64565b6040518082815260200191505060405180910390f35b600080600180549050141561050d57600090506105b9565b8173ffffffffffffffffffffffffffffffffffffffff1660016000808573ffffffffffffffffffffffffffffffffffffffff1673ffffffffffffffffffffffffffffffffffffffff1681526020019081526020016000206001015481548110151561057457fe5b9060005260206000200160009054906101000a900473ffffffffffffffffffffffffffffffffffffffff1673ffffffffffffffffffffffffffffffffffffffff161490505b919050565b6000806000808473ffffffffffffffffffffffffffffffffffffffff1673ffffffffffffffffffffffffffffffffffffffff168152602001908152602001600020600101549050600060018080805490500381548110151561061c57fe5b9060005260206000200160009054906101000a900473ffffffffffffffffffffffffffffffffffffffff1690508060018381548110151561065957fe5b9060005260206000200160006101000a81548173ffffffffffffffffffffffffffffffffffffffff021916908373ffffffffffffffffffffffffffffffffffffffff160217905550816000808373ffffffffffffffffffffffffffffffffffffffff1673ffffffffffffffffffffffffffffffffffffffff1681526020019081526020016000206001018190555060018054809190600190036106fc9190610c71565b507f50018602e01d9c389204da90ee29a17c6fa5908218719df216db23db812d59188483604051808373ffffffffffffffffffffffffffffffffffffffff1673ffffffffffffffffffffffffffffffffffffffff1681526020018281526020019250505060405180910390a17fd82133b9155817da6c415f40660c4ba32119649d90bfe1876231291cac527654816000808473ffffffffffffffffffffffffffffffffffffffff1673ffffffffffffffffffffffffffffffffffffffff16815260200190815260200160002060000184604051808473ffffffffffffffffffffffffffffffffffffffff1673ffffffffffffffffffffffffffffffffffffffff1681526020018060200183815260200182810382528481815460018160011615610100020316600290048152602001915080546001816001161561010002031660029004801561088d5780601f106108625761010080835404028352916020019161088d565b820191906000526020600020905b81548152906001019060200180831161087057829003601f168201915b505094505050505060405180910390a18192505050919050565b6000816000808573ffffffffffffffffffffffffffffffffffffffff1673ffffffffffffffffffffffffffffffffffffffff16815260200190815260200160002060000190805190602001906108fe929190610c9d565b506001905092915050565b600060018281548110151561091a57fe5b9060005260206000200160009054906101000a900473ffffffffffffffffffffffffffffffffffffffff169050919050565b6000816000808573ffffffffffffffffffffffffffffffffffffffff1673ffffffffffffffffffffffffffffffffffffffff16815260200190815260200160002060000190805190602001906109a3929190610c9d565b506001808490806001815401808255809150509060018203906000526020600020016000909192909190916101000a81548173ffffffffffffffffffffffffffffffffffffffff021916908373ffffffffffffffffffffffffffffffffffffffff160217905550036000808573ffffffffffffffffffffffffffffffffffffffff1673ffffffffffffffffffffffffffffffffffffffff168152602001908152602001600020600101819055507fd82133b9155817da6c415f40660c4ba32119649d90bfe1876231291cac52765483836000808773ffffffffffffffffffffffffffffffffffffffff1673ffffffffffffffffffffffffffffffffffffffff16815260200190815260200160002060010154604051808473ffffffffffffffffffffffffffffffffffffffff1673ffffffffffffffffffffffffffffffffffffffff16815260200180602001838152602001828103825284818151815260200191508051906020019080838360005b83811015610b2d578082015181840152602081019050610b12565b50505050905090810190601f168015610b5a5780820380516001836020036101000a031916815260200191505b5094505050505060405180910390a16001808054905003905092915050565b60006060826000808573ffffffffffffffffffffffffffffffffffffffff1673ffffffffffffffffffffffffffffffffffffffff168152602001908152602001600020600001808054600181600116156101000203166002900480601f016020809104026020016040519081016040528092919081815260200182805460018160011615610100020316600290048015610c545780601f10610c2957610100808354040283529160200191610c54565b820191906000526020600020905b815481529060010190602001808311610c3757829003601f168201915b5050505050905091509150915091565b6000600180549050905090565b815481835581811115610c9857818360005260206000209182019101610c979190610d1d565b5b505050565b828054600181600116156101000203166002900490600052602060002090601f016020900481019282601f10610cde57805160ff1916838001178555610d0c565b82800160010185558215610d0c579182015b82811115610d0b578251825591602001919060010190610cf0565b5b509050610d199190610d1d565b5090565b610d3f91905b80821115610d3b576000816000905550600101610d23565b5090565b9056fea165627a7a72305820753bc88cac31c1daf9120c286db40078e612e4edc19469714b5399151f30ed670029",
  "source": "pragma solidity >=0.4.21 <0.6.0;\r\n\r\ncontract DegreeKindStorage {\r\n    struct DegreeKind {\r\n        string degreeKindName;\r\n        uint256 index;\r\n    }\r\n\r\n    mapping (address => DegreeKind) DegreeKindMapping;\r\n    address[] degreeKindIndex;\r\n\r\n    event LeaderUpdatedEvent(\r\n        address _degreeKindId,\r\n        string _degreeKindName\r\n    );\r\n\r\n    event CountryDeleteEvent(\r\n        address _degreeKindId\r\n    );\r\n\r\n    event SetDegreeKindEvent(\r\n        address _degreeKindId,\r\n        string _degreeKindName,\r\n        uint256 _index\r\n    );\r\n\r\n    event SetDeleteDegreeKind(\r\n        address _degreeKindId,\r\n        uint256 index\r\n    );\r\n\r\n    function isUser(address _degreeKindId) public view returns(bool isIndeed) {\r\n      if(degreeKindIndex.length == 0) return false;\r\n      return (degreeKindIndex[DegreeKindMapping[_degreeKindId].index] == _degreeKindId);\r\n   }\r\n\r\n    function InsertDegreeKind(\r\n        address _degreeKindId,\r\n        string memory _degreeKindName\r\n    ) public returns(uint256 index) {\r\n        DegreeKindMapping[_degreeKindId].degreeKindName = _degreeKindName;\r\n        DegreeKindMapping[_degreeKindId].index = degreeKindIndex.push(_degreeKindId)-1;\r\n        emit SetDegreeKindEvent(\r\n            _degreeKindId,\r\n            _degreeKindName,\r\n            DegreeKindMapping[_degreeKindId].index);\r\n        return degreeKindIndex.length-1;\r\n    }\r\n\r\n    function deleteDegreeKind(address _degreeKindId) public returns(uint256 index){\r\n        uint256 rowToDelete = DegreeKindMapping[_degreeKindId].index;\r\n        address keyToMove = degreeKindIndex[degreeKindIndex.length-1];\r\n        degreeKindIndex[rowToDelete] = keyToMove;\r\n        DegreeKindMapping[keyToMove].index = rowToDelete;\r\n\r\n        degreeKindIndex.length--;\r\n        emit SetDeleteDegreeKind(\r\n            _degreeKindId,\r\n            rowToDelete);\r\n        emit SetDegreeKindEvent(\r\n            keyToMove,\r\n            DegreeKindMapping[keyToMove].degreeKindName,\r\n            rowToDelete);\r\n        return rowToDelete;\r\n    }\r\n\r\n    function getDegreeKind(\r\n        address _degreeKindId\r\n    ) public view returns(\r\n        address degreeKindId,\r\n        string memory degreeKindName\r\n    ) {\r\n        return (\r\n            _degreeKindId,\r\n            DegreeKindMapping[_degreeKindId].degreeKindName\r\n        );\r\n    }\r\n\r\n    function updateDegreeKindName(\r\n        address _degreeKindId,\r\n        string  memory  _degreeKindName\r\n    ) public returns(bool success) {\r\n        DegreeKindMapping[_degreeKindId].degreeKindName = _degreeKindName;\r\n        return true;\r\n    }\r\n\r\n    function getDegreeKindCount() public view returns(uint256 count){\r\n        return degreeKindIndex.length;\r\n      }\r\n\r\n    function getDegreeKindAtIndex(uint256 _index) public view returns(address userAddress) {\r\n        return degreeKindIndex[_index];\r\n    }\r\n}",
  "sourcePath": "C:/xampp/htdocs/blockchaindemo/TG_UNIVERSITY_CERTIFICATE_VERIFICATION_SERVER/contracts/DegreeKind.sol",
  "compiler": {
    "name": "solc",
    "version": "0.5.0+commit.1d4f565a.Emscripten.clang"
  },
  "schemaVersion": "3.0.9",
  "updatedAt": "2019-06-26T14:51:03.737Z",
  "devdoc": {
    "methods": {}
  },
  "userdoc": {
    "methods": {}
  }
}