{
  "contractName": "HistoryUserManagementStorage",
  "abi": [
    {
      "anonymous": false,
      "inputs": [
        {
          "indexed": false,
          "name": "_userAddress",
          "type": "address"
        },
        {
          "indexed": false,
          "name": "_userId",
          "type": "string"
        },
        {
          "indexed": false,
          "name": "_fullName",
          "type": "string"
        },
        {
          "indexed": false,
          "name": "_email",
          "type": "string"
        },
        {
          "indexed": false,
          "name": "_password",
          "type": "string"
        },
        {
          "indexed": false,
          "name": "_gender",
          "type": "string"
        },
        {
          "indexed": false,
          "name": "_dateOfBirth",
          "type": "string"
        }
      ],
      "name": "AddHistoryUserManagementEvent",
      "type": "event"
    },
    {
      "anonymous": false,
      "inputs": [
        {
          "indexed": false,
          "name": "_userAddress",
          "type": "address"
        },
        {
          "indexed": false,
          "name": "_isLocked",
          "type": "string"
        },
        {
          "indexed": false,
          "name": "_createdTime",
          "type": "string"
        },
        {
          "indexed": false,
          "name": "_modifiedTime",
          "type": "string"
        },
        {
          "indexed": false,
          "name": "_idCardNo",
          "type": "string"
        },
        {
          "indexed": false,
          "name": "_idCardIssuePlace",
          "type": "string"
        }
      ],
      "name": "AddHistoryUserManagementAdditionEvent",
      "type": "event"
    },
    {
      "anonymous": false,
      "inputs": [
        {
          "indexed": false,
          "name": "_userAddress",
          "type": "address"
        },
        {
          "indexed": false,
          "name": "_phoneNumber",
          "type": "string"
        },
        {
          "indexed": false,
          "name": "_job",
          "type": "string"
        },
        {
          "indexed": false,
          "name": "_userAddr",
          "type": "string"
        },
        {
          "indexed": false,
          "name": "_index",
          "type": "uint256"
        }
      ],
      "name": "AddHistoryUserManagementAdditionFlusEvent",
      "type": "event"
    },
    {
      "anonymous": false,
      "inputs": [
        {
          "indexed": false,
          "name": "_userAddress",
          "type": "address"
        },
        {
          "indexed": false,
          "name": "_userId",
          "type": "string"
        },
        {
          "indexed": false,
          "name": "_fullName",
          "type": "string"
        },
        {
          "indexed": false,
          "name": "_email",
          "type": "string"
        },
        {
          "indexed": false,
          "name": "_password",
          "type": "string"
        },
        {
          "indexed": false,
          "name": "_gender",
          "type": "string"
        },
        {
          "indexed": false,
          "name": "_dateOfBirth",
          "type": "string"
        }
      ],
      "name": "AddUpdateHistoryUserManagementEven",
      "type": "event"
    },
    {
      "anonymous": false,
      "inputs": [
        {
          "indexed": false,
          "name": "_userAddress",
          "type": "address"
        },
        {
          "indexed": false,
          "name": "_isLocked",
          "type": "string"
        },
        {
          "indexed": false,
          "name": "_modifiedTime",
          "type": "string"
        },
        {
          "indexed": false,
          "name": "_createdTime",
          "type": "string"
        },
        {
          "indexed": false,
          "name": "_idCardNo",
          "type": "string"
        },
        {
          "indexed": false,
          "name": "_idCardIssuePlace",
          "type": "string"
        }
      ],
      "name": "AddUpdateHistoryUserManagementAdditionEven",
      "type": "event"
    },
    {
      "anonymous": false,
      "inputs": [
        {
          "indexed": false,
          "name": "_userAddress",
          "type": "address"
        },
        {
          "indexed": false,
          "name": "_phoneNumber",
          "type": "string"
        },
        {
          "indexed": false,
          "name": "_job",
          "type": "string"
        },
        {
          "indexed": false,
          "name": "_userAddr",
          "type": "string"
        },
        {
          "indexed": false,
          "name": "_index",
          "type": "uint256"
        }
      ],
      "name": "AddUpdateHistoryUserManagementAdditionFlusEven",
      "type": "event"
    },
    {
      "anonymous": false,
      "inputs": [
        {
          "indexed": false,
          "name": "_userAddress",
          "type": "address"
        },
        {
          "indexed": false,
          "name": "index",
          "type": "uint256"
        }
      ],
      "name": "AddDeleteHistoryUserManagement",
      "type": "event"
    },
    {
      "constant": true,
      "inputs": [
        {
          "name": "_userAddress",
          "type": "address"
        }
      ],
      "name": "isUser",
      "outputs": [
        {
          "name": "isIndeed",
          "type": "bool"
        }
      ],
      "payable": false,
      "stateMutability": "view",
      "type": "function"
    },
    {
      "constant": false,
      "inputs": [
        {
          "name": "_userAddress",
          "type": "address"
        },
        {
          "name": "_userId",
          "type": "string"
        },
        {
          "name": "_fullName",
          "type": "string"
        },
        {
          "name": "_email",
          "type": "string"
        },
        {
          "name": "_password",
          "type": "string"
        },
        {
          "name": "_gender",
          "type": "string"
        },
        {
          "name": "_dateOfBirth",
          "type": "string"
        }
      ],
      "name": "addInsertUserHistory",
      "outputs": [
        {
          "name": "index",
          "type": "uint256"
        }
      ],
      "payable": false,
      "stateMutability": "nonpayable",
      "type": "function"
    },
    {
      "constant": false,
      "inputs": [
        {
          "name": "_userAddress",
          "type": "address"
        },
        {
          "name": "_isLocked",
          "type": "string"
        },
        {
          "name": "_createdTime",
          "type": "string"
        },
        {
          "name": "_modifiedTime",
          "type": "string"
        },
        {
          "name": "_idCardNo",
          "type": "string"
        },
        {
          "name": "_idCardIssuePlace",
          "type": "string"
        }
      ],
      "name": "addInsertUserHistoryDetail",
      "outputs": [
        {
          "name": "index",
          "type": "uint256"
        }
      ],
      "payable": false,
      "stateMutability": "nonpayable",
      "type": "function"
    },
    {
      "constant": false,
      "inputs": [
        {
          "name": "_userAddress",
          "type": "address"
        },
        {
          "name": "_phoneNumber",
          "type": "string"
        },
        {
          "name": "_job",
          "type": "string"
        },
        {
          "name": "_userAddr",
          "type": "string"
        }
      ],
      "name": "insertUserHistoryDetailFlus",
      "outputs": [
        {
          "name": "index",
          "type": "uint256"
        }
      ],
      "payable": false,
      "stateMutability": "nonpayable",
      "type": "function"
    },
    {
      "constant": false,
      "inputs": [
        {
          "name": "_userAddress",
          "type": "address"
        }
      ],
      "name": "addDeleteUser",
      "outputs": [
        {
          "name": "index",
          "type": "uint256"
        }
      ],
      "payable": false,
      "stateMutability": "nonpayable",
      "type": "function"
    },
    {
      "constant": true,
      "inputs": [
        {
          "name": "_userAddress",
          "type": "address"
        }
      ],
      "name": "addGetUserHistory",
      "outputs": [
        {
          "name": "userAddress",
          "type": "address"
        },
        {
          "name": "_userId",
          "type": "string"
        },
        {
          "name": "_fullName",
          "type": "string"
        },
        {
          "name": "_email",
          "type": "string"
        },
        {
          "name": "_password",
          "type": "string"
        },
        {
          "name": "_gender",
          "type": "string"
        },
        {
          "name": "_dateOfBirth",
          "type": "string"
        }
      ],
      "payable": false,
      "stateMutability": "view",
      "type": "function"
    },
    {
      "constant": true,
      "inputs": [
        {
          "name": "_userAddress",
          "type": "address"
        }
      ],
      "name": "addGetUserHistoryDetailMore",
      "outputs": [
        {
          "name": "_isLocked",
          "type": "string"
        },
        {
          "name": "_createdTime",
          "type": "string"
        },
        {
          "name": "_modifiedTime",
          "type": "string"
        },
        {
          "name": "_idCardNo",
          "type": "string"
        },
        {
          "name": "_idCardIssuePlace",
          "type": "string"
        }
      ],
      "payable": false,
      "stateMutability": "view",
      "type": "function"
    },
    {
      "constant": true,
      "inputs": [
        {
          "name": "_userAddress",
          "type": "address"
        }
      ],
      "name": "addGetUserHistoryDetailMoreMore",
      "outputs": [
        {
          "name": "_phoneNumber",
          "type": "string"
        },
        {
          "name": "_job",
          "type": "string"
        },
        {
          "name": "_userAddr",
          "type": "string"
        },
        {
          "name": "index",
          "type": "uint256"
        }
      ],
      "payable": false,
      "stateMutability": "view",
      "type": "function"
    },
    {
      "constant": false,
      "inputs": [
        {
          "name": "_userAddress",
          "type": "address"
        },
        {
          "name": "_fullName",
          "type": "string"
        },
        {
          "name": "_modifiedTime",
          "type": "string"
        }
      ],
      "name": "addHistoryUpdateFullName",
      "outputs": [
        {
          "name": "success",
          "type": "bool"
        }
      ],
      "payable": false,
      "stateMutability": "nonpayable",
      "type": "function"
    },
    {
      "constant": false,
      "inputs": [
        {
          "name": "_userAddress",
          "type": "address"
        },
        {
          "name": "_email",
          "type": "string"
        },
        {
          "name": "_modifiedTime",
          "type": "string"
        }
      ],
      "name": "addHistoryUpdateEmail",
      "outputs": [
        {
          "name": "success",
          "type": "bool"
        }
      ],
      "payable": false,
      "stateMutability": "nonpayable",
      "type": "function"
    },
    {
      "constant": false,
      "inputs": [
        {
          "name": "_userAddress",
          "type": "address"
        },
        {
          "name": "_password",
          "type": "string"
        },
        {
          "name": "_modifiedTime",
          "type": "string"
        }
      ],
      "name": "addHistoryUpdatePassword",
      "outputs": [
        {
          "name": "success",
          "type": "bool"
        }
      ],
      "payable": false,
      "stateMutability": "nonpayable",
      "type": "function"
    },
    {
      "constant": false,
      "inputs": [
        {
          "name": "_userAddress",
          "type": "address"
        },
        {
          "name": "_gender",
          "type": "string"
        },
        {
          "name": "_modifiedTime",
          "type": "string"
        }
      ],
      "name": "addHistoryUpdateGender",
      "outputs": [
        {
          "name": "success",
          "type": "bool"
        }
      ],
      "payable": false,
      "stateMutability": "nonpayable",
      "type": "function"
    },
    {
      "constant": false,
      "inputs": [
        {
          "name": "_userAddress",
          "type": "address"
        },
        {
          "name": "_dateOfBirth",
          "type": "string"
        },
        {
          "name": "_modifiedTime",
          "type": "string"
        }
      ],
      "name": "addHistoryUpdateDateOfBirth",
      "outputs": [
        {
          "name": "success",
          "type": "bool"
        }
      ],
      "payable": false,
      "stateMutability": "nonpayable",
      "type": "function"
    },
    {
      "constant": false,
      "inputs": [
        {
          "name": "_userAddress",
          "type": "address"
        },
        {
          "name": "_isLocked",
          "type": "string"
        },
        {
          "name": "_modifiedTime",
          "type": "string"
        }
      ],
      "name": "addHistoryUpdateIsLocked",
      "outputs": [
        {
          "name": "success",
          "type": "bool"
        }
      ],
      "payable": false,
      "stateMutability": "nonpayable",
      "type": "function"
    },
    {
      "constant": false,
      "inputs": [
        {
          "name": "_userAddress",
          "type": "address"
        },
        {
          "name": "_idCardNo",
          "type": "string"
        },
        {
          "name": "_modifiedTime",
          "type": "string"
        }
      ],
      "name": "addHistoryUpdateIdCardNo",
      "outputs": [
        {
          "name": "success",
          "type": "bool"
        }
      ],
      "payable": false,
      "stateMutability": "nonpayable",
      "type": "function"
    },
    {
      "constant": false,
      "inputs": [
        {
          "name": "_userAddress",
          "type": "address"
        },
        {
          "name": "_idCardIssuePlace",
          "type": "string"
        },
        {
          "name": "_modifiedTime",
          "type": "string"
        }
      ],
      "name": "addHistoryUpdateIdCardIssuePlace",
      "outputs": [
        {
          "name": "success",
          "type": "bool"
        }
      ],
      "payable": false,
      "stateMutability": "nonpayable",
      "type": "function"
    },
    {
      "constant": false,
      "inputs": [
        {
          "name": "_userAddress",
          "type": "address"
        },
        {
          "name": "_phoneNumber",
          "type": "string"
        },
        {
          "name": "_modifiedTime",
          "type": "string"
        }
      ],
      "name": "addHistoryUpdatePhoneNumber",
      "outputs": [
        {
          "name": "success",
          "type": "bool"
        }
      ],
      "payable": false,
      "stateMutability": "nonpayable",
      "type": "function"
    },
    {
      "constant": false,
      "inputs": [
        {
          "name": "_userAddress",
          "type": "address"
        },
        {
          "name": "_job",
          "type": "string"
        },
        {
          "name": "_modifiedTime",
          "type": "string"
        }
      ],
      "name": "addHistoryUpdateJob",
      "outputs": [
        {
          "name": "success",
          "type": "bool"
        }
      ],
      "payable": false,
      "stateMutability": "nonpayable",
      "type": "function"
    },
    {
      "constant": false,
      "inputs": [
        {
          "name": "_userAddress",
          "type": "address"
        },
        {
          "name": "_userAddr",
          "type": "string"
        },
        {
          "name": "_modifiedTime",
          "type": "string"
        }
      ],
      "name": "addHistoryUpdateUserAddr",
      "outputs": [
        {
          "name": "success",
          "type": "bool"
        }
      ],
      "payable": false,
      "stateMutability": "nonpayable",
      "type": "function"
    },
    {
      "constant": true,
      "inputs": [],
      "name": "getUserCount",
      "outputs": [
        {
          "name": "count",
          "type": "uint256"
        }
      ],
      "payable": false,
      "stateMutability": "view",
      "type": "function"
    },
    {
      "constant": true,
      "inputs": [
        {
          "name": "_index",
          "type": "uint256"
        }
      ],
      "name": "getUserAtIndex",
      "outputs": [
        {
          "name": "userAddress",
          "type": "address"
        }
      ],
      "payable": false,
      "stateMutability": "view",
      "type": "function"
    }
  ],
  "bytecode": "0x608060405234801561001057600080fd5b50615b3380620000216000396000f3fe60806040526004361061011d576000357c0100000000000000000000000000000000000000000000000000000000900463ffffffff168063143208f41461012257806329e9ef44146102b95780633c06952e1461045057806340ecdcb6146105e75780634209fff11461077e5780636293a858146107e7578063646115591461097e5780637b5f432514610b155780637bbcbb5e14610cac5780637da05c1614610f265780638eb9e87e146110bd578063906966731461141557806392f341eb1461172e578063b5cb15f714611b1d578063cfeb9c6514611b48578063d5901e4b14611cdf578063d6f6032614611e76578063d83f9f011461200d578063dac62b55146121b6578063f9334f0f1461221b578063ffcc7bbf14612445575b600080fd5b34801561012e57600080fd5b5061029f6004803603606081101561014557600080fd5b81019080803573ffffffffffffffffffffffffffffffffffffffff1690602001909291908035906020019064010000000081111561018257600080fd5b82018360208201111561019457600080fd5b803590602001918460018302840111640100000000831117156101b657600080fd5b91908080601f016020809104026020016040519081016040528093929190818152602001838380828437600081840152601f19601f8201169050808301925050505050505091929192908035906020019064010000000081111561021957600080fd5b82018360208201111561022b57600080fd5b8035906020019184600183028401116401000000008311171561024d57600080fd5b91908080601f016020809104026020016040519081016040528093929190818152602001838380828437600081840152601f19601f8201169050808301925050505050505091929192905050506124c0565b604051808215151515815260200191505060405180910390f35b3480156102c557600080fd5b50610436600480360360608110156102dc57600080fd5b81019080803573ffffffffffffffffffffffffffffffffffffffff1690602001909291908035906020019064010000000081111561031957600080fd5b82018360208201111561032b57600080fd5b8035906020019184600183028401116401000000008311171561034d57600080fd5b91908080601f016020809104026020016040519081016040528093929190818152602001838380828437600081840152601f19601f820116905080830192505050505050509192919290803590602001906401000000008111156103b057600080fd5b8201836020820111156103c257600080fd5b803590602001918460018302840111640100000000831117156103e457600080fd5b91908080601f016020809104026020016040519081016040528093929190818152602001838380828437600081840152601f19601f820116905080830192505050505050509192919290505050612579565b604051808215151515815260200191505060405180910390f35b34801561045c57600080fd5b506105cd6004803603606081101561047357600080fd5b81019080803573ffffffffffffffffffffffffffffffffffffffff169060200190929190803590602001906401000000008111156104b057600080fd5b8201836020820111156104c257600080fd5b803590602001918460018302840111640100000000831117156104e457600080fd5b91908080601f016020809104026020016040519081016040528093929190818152602001838380828437600081840152601f19601f8201169050808301925050505050505091929192908035906020019064010000000081111561054757600080fd5b82018360208201111561055957600080fd5b8035906020019184600183028401116401000000008311171561057b57600080fd5b91908080601f016020809104026020016040519081016040528093929190818152602001838380828437600081840152601f19601f820116905080830192505050505050509192919290505050612af4565b604051808215151515815260200191505060405180910390f35b3480156105f357600080fd5b506107646004803603606081101561060a57600080fd5b81019080803573ffffffffffffffffffffffffffffffffffffffff1690602001909291908035906020019064010000000081111561064757600080fd5b82018360208201111561065957600080fd5b8035906020019184600183028401116401000000008311171561067b57600080fd5b91908080601f016020809104026020016040519081016040528093929190818152602001838380828437600081840152601f19601f820116905080830192505050505050509192919290803590602001906401000000008111156106de57600080fd5b8201836020820111156106f057600080fd5b8035906020019184600183028401116401000000008311171561071257600080fd5b91908080601f016020809104026020016040519081016040528093929190818152602001838380828437600081840152601f19601f820116905080830192505050505050509192919290505050612bad565b604051808215151515815260200191505060405180910390f35b34801561078a57600080fd5b506107cd600480360360208110156107a157600080fd5b81019080803573ffffffffffffffffffffffffffffffffffffffff169060200190929190505050612c66565b604051808215151515815260200191505060405180910390f35b3480156107f357600080fd5b506109646004803603606081101561080a57600080fd5b81019080803573ffffffffffffffffffffffffffffffffffffffff1690602001909291908035906020019064010000000081111561084757600080fd5b82018360208201111561085957600080fd5b8035906020019184600183028401116401000000008311171561087b57600080fd5b91908080601f016020809104026020016040519081016040528093929190818152602001838380828437600081840152601f19601f820116905080830192505050505050509192919290803590602001906401000000008111156108de57600080fd5b8201836020820111156108f057600080fd5b8035906020019184600183028401116401000000008311171561091257600080fd5b91908080601f016020809104026020016040519081016040528093929190818152602001838380828437600081840152601f19601f820116905080830192505050505050509192919290505050612d2f565b604051808215151515815260200191505060405180910390f35b34801561098a57600080fd5b50610afb600480360360608110156109a157600080fd5b81019080803573ffffffffffffffffffffffffffffffffffffffff169060200190929190803590602001906401000000008111156109de57600080fd5b8201836020820111156109f057600080fd5b80359060200191846001830284011164010000000083111715610a1257600080fd5b91908080601f016020809104026020016040519081016040528093929190818152602001838380828437600081840152601f19601f82011690508083019250505050505050919291929080359060200190640100000000811115610a7557600080fd5b820183602082011115610a8757600080fd5b80359060200191846001830284011164010000000083111715610aa957600080fd5b91908080601f016020809104026020016040519081016040528093929190818152602001838380828437600081840152601f19601f820116905080830192505050505050509192919290505050612de8565b604051808215151515815260200191505060405180910390f35b348015610b2157600080fd5b50610c9260048036036060811015610b3857600080fd5b81019080803573ffffffffffffffffffffffffffffffffffffffff16906020019092919080359060200190640100000000811115610b7557600080fd5b820183602082011115610b8757600080fd5b80359060200191846001830284011164010000000083111715610ba957600080fd5b91908080601f016020809104026020016040519081016040528093929190818152602001838380828437600081840152601f19601f82011690508083019250505050505050919291929080359060200190640100000000811115610c0c57600080fd5b820183602082011115610c1e57600080fd5b80359060200191846001830284011164010000000083111715610c4057600080fd5b91908080601f016020809104026020016040519081016040528093929190818152602001838380828437600081840152601f19601f820116905080830192505050505050509192919290505050612ea1565b604051808215151515815260200191505060405180910390f35b348015610cb857600080fd5b50610cfb60048036036020811015610ccf57600080fd5b81019080803573ffffffffffffffffffffffffffffffffffffffff169060200190929190505050612f5a565b60405180806020018060200180602001806020018060200186810386528b818151815260200191508051906020019080838360005b83811015610d4b578082015181840152602081019050610d30565b50505050905090810190601f168015610d785780820380516001836020036101000a031916815260200191505b5086810385528a818151815260200191508051906020019080838360005b83811015610db1578082015181840152602081019050610d96565b50505050905090810190601f168015610dde5780820380516001836020036101000a031916815260200191505b50868103845289818151815260200191508051906020019080838360005b83811015610e17578082015181840152602081019050610dfc565b50505050905090810190601f168015610e445780820380516001836020036101000a031916815260200191505b50868103835288818151815260200191508051906020019080838360005b83811015610e7d578082015181840152602081019050610e62565b50505050905090810190601f168015610eaa5780820380516001836020036101000a031916815260200191505b50868103825287818151815260200191508051906020019080838360005b83811015610ee3578082015181840152602081019050610ec8565b50505050905090810190601f168015610f105780820380516001836020036101000a031916815260200191505b509a505050505050505050505060405180910390f35b348015610f3257600080fd5b506110a360048036036060811015610f4957600080fd5b81019080803573ffffffffffffffffffffffffffffffffffffffff16906020019092919080359060200190640100000000811115610f8657600080fd5b820183602082011115610f9857600080fd5b80359060200191846001830284011164010000000083111715610fba57600080fd5b91908080601f016020809104026020016040519081016040528093929190818152602001838380828437600081840152601f19601f8201169050808301925050505050505091929192908035906020019064010000000081111561101d57600080fd5b82018360208201111561102f57600080fd5b8035906020019184600183028401116401000000008311171561105157600080fd5b91908080601f016020809104026020016040519081016040528093929190818152602001838380828437600081840152601f19601f8201169050808301925050505050505091929192905050506133c6565b604051808215151515815260200191505060405180910390f35b3480156110c957600080fd5b506113ff600480360360c08110156110e057600080fd5b81019080803573ffffffffffffffffffffffffffffffffffffffff1690602001909291908035906020019064010000000081111561111d57600080fd5b82018360208201111561112f57600080fd5b8035906020019184600183028401116401000000008311171561115157600080fd5b91908080601f016020809104026020016040519081016040528093929190818152602001838380828437600081840152601f19601f820116905080830192505050505050509192919290803590602001906401000000008111156111b457600080fd5b8201836020820111156111c657600080fd5b803590602001918460018302840111640100000000831117156111e857600080fd5b91908080601f016020809104026020016040519081016040528093929190818152602001838380828437600081840152601f19601f8201169050808301925050505050505091929192908035906020019064010000000081111561124b57600080fd5b82018360208201111561125d57600080fd5b8035906020019184600183028401116401000000008311171561127f57600080fd5b91908080601f016020809104026020016040519081016040528093929190818152602001838380828437600081840152601f19601f820116905080830192505050505050509192919290803590602001906401000000008111156112e257600080fd5b8201836020820111156112f457600080fd5b8035906020019184600183028401116401000000008311171561131657600080fd5b91908080601f016020809104026020016040519081016040528093929190818152602001838380828437600081840152601f19601f8201169050808301925050505050505091929192908035906020019064010000000081111561137957600080fd5b82018360208201111561138b57600080fd5b803590602001918460018302840111640100000000831117156113ad57600080fd5b91908080601f016020809104026020016040519081016040528093929190818152602001838380828437600081840152601f19601f82011690508083019250505050505050919291929050505061347f565b6040518082815260200191505060405180910390f35b34801561142157600080fd5b506114646004803603602081101561143857600080fd5b81019080803573ffffffffffffffffffffffffffffffffffffffff1690602001909291905050506138c7565b604051808873ffffffffffffffffffffffffffffffffffffffff1673ffffffffffffffffffffffffffffffffffffffff16815260200180602001806020018060200180602001806020018060200187810387528d818151815260200191508051906020019080838360005b838110156114ea5780820151818401526020810190506114cf565b50505050905090810190601f1680156115175780820380516001836020036101000a031916815260200191505b5087810386528c818151815260200191508051906020019080838360005b83811015611550578082015181840152602081019050611535565b50505050905090810190601f16801561157d5780820380516001836020036101000a031916815260200191505b5087810385528b818151815260200191508051906020019080838360005b838110156115b657808201518184015260208101905061159b565b50505050905090810190601f1680156115e35780820380516001836020036101000a031916815260200191505b5087810384528a818151815260200191508051906020019080838360005b8381101561161c578082015181840152602081019050611601565b50505050905090810190601f1680156116495780820380516001836020036101000a031916815260200191505b50878103835289818151815260200191508051906020019080838360005b83811015611682578082015181840152602081019050611667565b50505050905090810190601f1680156116af5780820380516001836020036101000a031916815260200191505b50878103825288818151815260200191508051906020019080838360005b838110156116e85780820151818401526020810190506116cd565b50505050905090810190601f1680156117155780820380516001836020036101000a031916815260200191505b509d505050505050505050505050505060405180910390f35b34801561173a57600080fd5b50611b07600480360360e081101561175157600080fd5b81019080803573ffffffffffffffffffffffffffffffffffffffff1690602001909291908035906020019064010000000081111561178e57600080fd5b8201836020820111156117a057600080fd5b803590602001918460018302840111640100000000831117156117c257600080fd5b91908080601f016020809104026020016040519081016040528093929190818152602001838380828437600081840152601f19601f8201169050808301925050505050505091929192908035906020019064010000000081111561182557600080fd5b82018360208201111561183757600080fd5b8035906020019184600183028401116401000000008311171561185957600080fd5b91908080601f016020809104026020016040519081016040528093929190818152602001838380828437600081840152601f19601f820116905080830192505050505050509192919290803590602001906401000000008111156118bc57600080fd5b8201836020820111156118ce57600080fd5b803590602001918460018302840111640100000000831117156118f057600080fd5b91908080601f016020809104026020016040519081016040528093929190818152602001838380828437600081840152601f19601f8201169050808301925050505050505091929192908035906020019064010000000081111561195357600080fd5b82018360208201111561196557600080fd5b8035906020019184600183028401116401000000008311171561198757600080fd5b91908080601f016020809104026020016040519081016040528093929190818152602001838380828437600081840152601f19601f820116905080830192505050505050509192919290803590602001906401000000008111156119ea57600080fd5b8201836020820111156119fc57600080fd5b80359060200191846001830284011164010000000083111715611a1e57600080fd5b91908080601f016020809104026020016040519081016040528093929190818152602001838380828437600081840152601f19601f82011690508083019250505050505050919291929080359060200190640100000000811115611a8157600080fd5b820183602082011115611a9357600080fd5b80359060200191846001830284011164010000000083111715611ab557600080fd5b91908080601f016020809104026020016040519081016040528093929190818152602001838380828437600081840152601f19601f820116905080830192505050505050509192919290505050613e1a565b6040518082815260200191505060405180910390f35b348015611b2957600080fd5b50611b32614326565b6040518082815260200191505060405180910390f35b348015611b5457600080fd5b50611cc560048036036060811015611b6b57600080fd5b81019080803573ffffffffffffffffffffffffffffffffffffffff16906020019092919080359060200190640100000000811115611ba857600080fd5b820183602082011115611bba57600080fd5b80359060200191846001830284011164010000000083111715611bdc57600080fd5b91908080601f016020809104026020016040519081016040528093929190818152602001838380828437600081840152601f19601f82011690508083019250505050505050919291929080359060200190640100000000811115611c3f57600080fd5b820183602082011115611c5157600080fd5b80359060200191846001830284011164010000000083111715611c7357600080fd5b91908080601f016020809104026020016040519081016040528093929190818152602001838380828437600081840152601f19601f820116905080830192505050505050509192919290505050614333565b604051808215151515815260200191505060405180910390f35b348015611ceb57600080fd5b50611e5c60048036036060811015611d0257600080fd5b81019080803573ffffffffffffffffffffffffffffffffffffffff16906020019092919080359060200190640100000000811115611d3f57600080fd5b820183602082011115611d5157600080fd5b80359060200191846001830284011164010000000083111715611d7357600080fd5b91908080601f016020809104026020016040519081016040528093929190818152602001838380828437600081840152601f19601f82011690508083019250505050505050919291929080359060200190640100000000811115611dd657600080fd5b820183602082011115611de857600080fd5b80359060200191846001830284011164010000000083111715611e0a57600080fd5b91908080601f016020809104026020016040519081016040528093929190818152602001838380828437600081840152601f19601f8201169050808301925050505050505091929192905050506143ec565b604051808215151515815260200191505060405180910390f35b348015611e8257600080fd5b50611ff360048036036060811015611e9957600080fd5b81019080803573ffffffffffffffffffffffffffffffffffffffff16906020019092919080359060200190640100000000811115611ed657600080fd5b820183602082011115611ee857600080fd5b80359060200191846001830284011164010000000083111715611f0a57600080fd5b91908080601f016020809104026020016040519081016040528093929190818152602001838380828437600081840152601f19601f82011690508083019250505050505050919291929080359060200190640100000000811115611f6d57600080fd5b820183602082011115611f7f57600080fd5b80359060200191846001830284011164010000000083111715611fa157600080fd5b91908080601f016020809104026020016040519081016040528093929190818152602001838380828437600081840152601f19601f8201169050808301925050505050505091929192905050506144a5565b604051808215151515815260200191505060405180910390f35b34801561201957600080fd5b5061205c6004803603602081101561203057600080fd5b81019080803573ffffffffffffffffffffffffffffffffffffffff16906020019092919050505061455e565b60405180806020018060200180602001858152602001848103845288818151815260200191508051906020019080838360005b838110156120aa57808201518184015260208101905061208f565b50505050905090810190601f1680156120d75780820380516001836020036101000a031916815260200191505b50848103835287818151815260200191508051906020019080838360005b838110156121105780820151818401526020810190506120f5565b50505050905090810190601f16801561213d5780820380516001836020036101000a031916815260200191505b50848103825286818151815260200191508051906020019080838360005b8381101561217657808201518184015260208101905061215b565b50505050905090810190601f1680156121a35780820380516001836020036101000a031916815260200191505b5097505050505050505060405180910390f35b3480156121c257600080fd5b50612205600480360360208110156121d957600080fd5b81019080803573ffffffffffffffffffffffffffffffffffffffff16906020019092919050505061484d565b6040518082815260200191505060405180910390f35b34801561222757600080fd5b5061242f6004803603608081101561223e57600080fd5b81019080803573ffffffffffffffffffffffffffffffffffffffff1690602001909291908035906020019064010000000081111561227b57600080fd5b82018360208201111561228d57600080fd5b803590602001918460018302840111640100000000831117156122af57600080fd5b91908080601f016020809104026020016040519081016040528093929190818152602001838380828437600081840152601f19601f8201169050808301925050505050505091929192908035906020019064010000000081111561231257600080fd5b82018360208201111561232457600080fd5b8035906020019184600183028401116401000000008311171561234657600080fd5b91908080601f016020809104026020016040519081016040528093929190818152602001838380828437600081840152601f19601f820116905080830192505050505050509192919290803590602001906401000000008111156123a957600080fd5b8201836020820111156123bb57600080fd5b803590602001918460018302840111640100000000831117156123dd57600080fd5b91908080601f016020809104026020016040519081016040528093929190818152602001838380828437600081840152601f19601f82011690508083019250505050505050919291929050505061563e565b6040518082815260200191505060405180910390f35b34801561245157600080fd5b5061247e6004803603602081101561246857600080fd5b81019080803590602001909291905050506159f3565b604051808273ffffffffffffffffffffffffffffffffffffffff1673ffffffffffffffffffffffffffffffffffffffff16815260200191505060405180910390f35b6000826000808673ffffffffffffffffffffffffffffffffffffffff1673ffffffffffffffffffffffffffffffffffffffff1681526020019081526020016000206005019080519060200190612517929190615a36565b50816000808673ffffffffffffffffffffffffffffffffffffffff1673ffffffffffffffffffffffffffffffffffffffff168152602001908152602001600020600901908051906020019061256d929190615a36565b50600190509392505050565b6000826000808673ffffffffffffffffffffffffffffffffffffffff1673ffffffffffffffffffffffffffffffffffffffff16815260200190815260200160002060020190805190602001906125d0929190615a36565b50816000808673ffffffffffffffffffffffffffffffffffffffff1673ffffffffffffffffffffffffffffffffffffffff1681526020019081526020016000206009019080519060200190612626929190615a36565b507f5c3e5656e372eaa87ac4896dc8b1186d4d6143275eae2c14b6c7d86cc21174d3846000808773ffffffffffffffffffffffffffffffffffffffff1673ffffffffffffffffffffffffffffffffffffffff168152602001908152602001600020600101856000808973ffffffffffffffffffffffffffffffffffffffff1673ffffffffffffffffffffffffffffffffffffffff1681526020019081526020016000206003016000808a73ffffffffffffffffffffffffffffffffffffffff1673ffffffffffffffffffffffffffffffffffffffff1681526020019081526020016000206004016000808b73ffffffffffffffffffffffffffffffffffffffff1673ffffffffffffffffffffffffffffffffffffffff1681526020019081526020016000206005016000808c73ffffffffffffffffffffffffffffffffffffffff1673ffffffffffffffffffffffffffffffffffffffff168152602001908152602001600020600601604051808873ffffffffffffffffffffffffffffffffffffffff1673ffffffffffffffffffffffffffffffffffffffff16815260200180602001806020018060200180602001806020018060200187810387528d81815460018160011615610100020316600290048152602001915080546001816001161561010002031660029004801561285e5780601f106128335761010080835404028352916020019161285e565b820191906000526020600020905b81548152906001019060200180831161284157829003601f168201915b505087810386528c818151815260200191508051906020019080838360005b8381101561289857808201518184015260208101905061287d565b50505050905090810190601f1680156128c55780820380516001836020036101000a031916815260200191505b5087810385528b8181546001816001161561010002031660029004815260200191508054600181600116156101000203166002900480156129475780601f1061291c57610100808354040283529160200191612947565b820191906000526020600020905b81548152906001019060200180831161292a57829003601f168201915b505087810384528a8181546001816001161561010002031660029004815260200191508054600181600116156101000203166002900480156129ca5780601f1061299f576101008083540402835291602001916129ca565b820191906000526020600020905b8154815290600101906020018083116129ad57829003601f168201915b5050878103835289818154600181600116156101000203166002900481526020019150805460018160011615610100020316600290048015612a4d5780601f10612a2257610100808354040283529160200191612a4d565b820191906000526020600020905b815481529060010190602001808311612a3057829003601f168201915b5050878103825288818154600181600116156101000203166002900481526020019150805460018160011615610100020316600290048015612ad05780601f10612aa557610100808354040283529160200191612ad0565b820191906000526020600020905b815481529060010190602001808311612ab357829003601f168201915b50509d505050505050505050505050505060405180910390a1600190509392505050565b6000826000808673ffffffffffffffffffffffffffffffffffffffff1673ffffffffffffffffffffffffffffffffffffffff1681526020019081526020016000206003019080519060200190612b4b929190615a36565b50816000808673ffffffffffffffffffffffffffffffffffffffff1673ffffffffffffffffffffffffffffffffffffffff1681526020019081526020016000206009019080519060200190612ba1929190615a36565b50600190509392505050565b6000826000808673ffffffffffffffffffffffffffffffffffffffff1673ffffffffffffffffffffffffffffffffffffffff168152602001908152602001600020600d019080519060200190612c04929190615a36565b50816000808673ffffffffffffffffffffffffffffffffffffffff1673ffffffffffffffffffffffffffffffffffffffff1681526020019081526020016000206009019080519060200190612c5a929190615a36565b50600190509392505050565b6000806001805490501415612c7e5760009050612d2a565b8173ffffffffffffffffffffffffffffffffffffffff1660016000808573ffffffffffffffffffffffffffffffffffffffff1673ffffffffffffffffffffffffffffffffffffffff168152602001908152602001600020600f0154815481101515612ce557fe5b9060005260206000200160009054906101000a900473ffffffffffffffffffffffffffffffffffffffff1673ffffffffffffffffffffffffffffffffffffffff161490505b919050565b6000826000808673ffffffffffffffffffffffffffffffffffffffff1673ffffffffffffffffffffffffffffffffffffffff1681526020019081526020016000206006019080519060200190612d86929190615a36565b50816000808673ffffffffffffffffffffffffffffffffffffffff1673ffffffffffffffffffffffffffffffffffffffff1681526020019081526020016000206009019080519060200190612ddc929190615a36565b50600190509392505050565b6000826000808673ffffffffffffffffffffffffffffffffffffffff1673ffffffffffffffffffffffffffffffffffffffff1681526020019081526020016000206007019080519060200190612e3f929190615a36565b50816000808673ffffffffffffffffffffffffffffffffffffffff1673ffffffffffffffffffffffffffffffffffffffff1681526020019081526020016000206009019080519060200190612e95929190615a36565b50600190509392505050565b6000826000808673ffffffffffffffffffffffffffffffffffffffff1673ffffffffffffffffffffffffffffffffffffffff1681526020019081526020016000206004019080519060200190612ef8929190615a36565b50816000808673ffffffffffffffffffffffffffffffffffffffff1673ffffffffffffffffffffffffffffffffffffffff1681526020019081526020016000206009019080519060200190612f4e929190615a36565b50600190509392505050565b60608060608060606000808773ffffffffffffffffffffffffffffffffffffffff1673ffffffffffffffffffffffffffffffffffffffff168152602001908152602001600020600e016000808873ffffffffffffffffffffffffffffffffffffffff1673ffffffffffffffffffffffffffffffffffffffff1681526020019081526020016000206008016000808973ffffffffffffffffffffffffffffffffffffffff1673ffffffffffffffffffffffffffffffffffffffff1681526020019081526020016000206009016000808a73ffffffffffffffffffffffffffffffffffffffff1673ffffffffffffffffffffffffffffffffffffffff168152602001908152602001600020600a016000808b73ffffffffffffffffffffffffffffffffffffffff1673ffffffffffffffffffffffffffffffffffffffff168152602001908152602001600020600b01848054600181600116156101000203166002900480601f01602080910402602001604051908101604052809291908181526020018280546001816001161561010002031660029004801561313c5780601f106131115761010080835404028352916020019161313c565b820191906000526020600020905b81548152906001019060200180831161311f57829003601f168201915b50505050509450838054600181600116156101000203166002900480601f0160208091040260200160405190810160405280929190818152602001828054600181600116156101000203166002900480156131d85780601f106131ad576101008083540402835291602001916131d8565b820191906000526020600020905b8154815290600101906020018083116131bb57829003601f168201915b50505050509350828054600181600116156101000203166002900480601f0160208091040260200160405190810160405280929190818152602001828054600181600116156101000203166002900480156132745780601f1061324957610100808354040283529160200191613274565b820191906000526020600020905b81548152906001019060200180831161325757829003601f168201915b50505050509250818054600181600116156101000203166002900480601f0160208091040260200160405190810160405280929190818152602001828054600181600116156101000203166002900480156133105780601f106132e557610100808354040283529160200191613310565b820191906000526020600020905b8154815290600101906020018083116132f357829003601f168201915b50505050509150808054600181600116156101000203166002900480601f0160208091040260200160405190810160405280929190818152602001828054600181600116156101000203166002900480156133ac5780601f10613381576101008083540402835291602001916133ac565b820191906000526020600020905b81548152906001019060200180831161338f57829003601f168201915b505050505090509450945094509450945091939590929450565b6000826000808673ffffffffffffffffffffffffffffffffffffffff1673ffffffffffffffffffffffffffffffffffffffff168152602001908152602001600020600c01908051906020019061341d929190615a36565b50816000808673ffffffffffffffffffffffffffffffffffffffff1673ffffffffffffffffffffffffffffffffffffffff1681526020019081526020016000206009019080519060200190613473929190615a36565b50600190509392505050565b6000856000808973ffffffffffffffffffffffffffffffffffffffff1673ffffffffffffffffffffffffffffffffffffffff168152602001908152602001600020600e0190805190602001906134d6929190615a36565b50846000808973ffffffffffffffffffffffffffffffffffffffff1673ffffffffffffffffffffffffffffffffffffffff168152602001908152602001600020600801908051906020019061352c929190615a36565b50836000808973ffffffffffffffffffffffffffffffffffffffff1673ffffffffffffffffffffffffffffffffffffffff1681526020019081526020016000206009019080519060200190613582929190615a36565b50826000808973ffffffffffffffffffffffffffffffffffffffff1673ffffffffffffffffffffffffffffffffffffffff168152602001908152602001600020600a0190805190602001906135d8929190615a36565b50816000808973ffffffffffffffffffffffffffffffffffffffff1673ffffffffffffffffffffffffffffffffffffffff168152602001908152602001600020600b01908051906020019061362e929190615a36565b507f8b5d07d4be806585b9892f4c32660c073af2d7ef2b5075c187cae78f8bbcd731878787878787604051808773ffffffffffffffffffffffffffffffffffffffff1673ffffffffffffffffffffffffffffffffffffffff168152602001806020018060200180602001806020018060200186810386528b818151815260200191508051906020019080838360005b838110156136d85780820151818401526020810190506136bd565b50505050905090810190601f1680156137055780820380516001836020036101000a031916815260200191505b5086810385528a818151815260200191508051906020019080838360005b8381101561373e578082015181840152602081019050613723565b50505050905090810190601f16801561376b5780820380516001836020036101000a031916815260200191505b50868103845289818151815260200191508051906020019080838360005b838110156137a4578082015181840152602081019050613789565b50505050905090810190601f1680156137d15780820380516001836020036101000a031916815260200191505b50868103835288818151815260200191508051906020019080838360005b8381101561380a5780820151818401526020810190506137ef565b50505050905090810190601f1680156138375780820380516001836020036101000a031916815260200191505b50868103825287818151815260200191508051906020019080838360005b83811015613870578082015181840152602081019050613855565b50505050905090810190601f16801561389d5780820380516001836020036101000a031916815260200191505b509b50505050505050505050505060405180910390a1600180805490500390509695505050505050565b6000606080606080606080876000808a73ffffffffffffffffffffffffffffffffffffffff1673ffffffffffffffffffffffffffffffffffffffff1681526020019081526020016000206001016000808b73ffffffffffffffffffffffffffffffffffffffff1673ffffffffffffffffffffffffffffffffffffffff1681526020019081526020016000206002016000808c73ffffffffffffffffffffffffffffffffffffffff1673ffffffffffffffffffffffffffffffffffffffff1681526020019081526020016000206003016000808d73ffffffffffffffffffffffffffffffffffffffff1673ffffffffffffffffffffffffffffffffffffffff1681526020019081526020016000206004016000808e73ffffffffffffffffffffffffffffffffffffffff1673ffffffffffffffffffffffffffffffffffffffff1681526020019081526020016000206005016000808f73ffffffffffffffffffffffffffffffffffffffff1673ffffffffffffffffffffffffffffffffffffffff168152602001908152602001600020600601858054600181600116156101000203166002900480601f016020809104026020016040519081016040528092919081815260200182805460018160011615610100020316600290048015613aee5780601f10613ac357610100808354040283529160200191613aee565b820191906000526020600020905b815481529060010190602001808311613ad157829003601f168201915b50505050509550848054600181600116156101000203166002900480601f016020809104026020016040519081016040528092919081815260200182805460018160011615610100020316600290048015613b8a5780601f10613b5f57610100808354040283529160200191613b8a565b820191906000526020600020905b815481529060010190602001808311613b6d57829003601f168201915b50505050509450838054600181600116156101000203166002900480601f016020809104026020016040519081016040528092919081815260200182805460018160011615610100020316600290048015613c265780601f10613bfb57610100808354040283529160200191613c26565b820191906000526020600020905b815481529060010190602001808311613c0957829003601f168201915b50505050509350828054600181600116156101000203166002900480601f016020809104026020016040519081016040528092919081815260200182805460018160011615610100020316600290048015613cc25780601f10613c9757610100808354040283529160200191613cc2565b820191906000526020600020905b815481529060010190602001808311613ca557829003601f168201915b50505050509250818054600181600116156101000203166002900480601f016020809104026020016040519081016040528092919081815260200182805460018160011615610100020316600290048015613d5e5780601f10613d3357610100808354040283529160200191613d5e565b820191906000526020600020905b815481529060010190602001808311613d4157829003601f168201915b50505050509150808054600181600116156101000203166002900480601f016020809104026020016040519081016040528092919081815260200182805460018160011615610100020316600290048015613dfa5780601f10613dcf57610100808354040283529160200191613dfa565b820191906000526020600020905b815481529060010190602001808311613ddd57829003601f168201915b505050505090509650965096509650965096509650919395979092949650565b6000866000808a73ffffffffffffffffffffffffffffffffffffffff1673ffffffffffffffffffffffffffffffffffffffff1681526020019081526020016000206001019080519060200190613e71929190615a36565b50856000808a73ffffffffffffffffffffffffffffffffffffffff1673ffffffffffffffffffffffffffffffffffffffff1681526020019081526020016000206002019080519060200190613ec7929190615a36565b50846000808a73ffffffffffffffffffffffffffffffffffffffff1673ffffffffffffffffffffffffffffffffffffffff1681526020019081526020016000206003019080519060200190613f1d929190615a36565b50836000808a73ffffffffffffffffffffffffffffffffffffffff1673ffffffffffffffffffffffffffffffffffffffff1681526020019081526020016000206004019080519060200190613f73929190615a36565b50826000808a73ffffffffffffffffffffffffffffffffffffffff1673ffffffffffffffffffffffffffffffffffffffff1681526020019081526020016000206005019080519060200190613fc9929190615a36565b50816000808a73ffffffffffffffffffffffffffffffffffffffff1673ffffffffffffffffffffffffffffffffffffffff168152602001908152602001600020600601908051906020019061401f929190615a36565b507f9fcc40cfc9dc6f8a35a7ebf77ad3e5bdf87f1a8b5eb8123f96e5d5c31a87ef3088888888888888604051808873ffffffffffffffffffffffffffffffffffffffff1673ffffffffffffffffffffffffffffffffffffffff16815260200180602001806020018060200180602001806020018060200187810387528d818151815260200191508051906020019080838360005b838110156140ce5780820151818401526020810190506140b3565b50505050905090810190601f1680156140fb5780820380516001836020036101000a031916815260200191505b5087810386528c818151815260200191508051906020019080838360005b83811015614134578082015181840152602081019050614119565b50505050905090810190601f1680156141615780820380516001836020036101000a031916815260200191505b5087810385528b818151815260200191508051906020019080838360005b8381101561419a57808201518184015260208101905061417f565b50505050905090810190601f1680156141c75780820380516001836020036101000a031916815260200191505b5087810384528a818151815260200191508051906020019080838360005b838110156142005780820151818401526020810190506141e5565b50505050905090810190601f16801561422d5780820380516001836020036101000a031916815260200191505b50878103835289818151815260200191508051906020019080838360005b8381101561426657808201518184015260208101905061424b565b50505050905090810190601f1680156142935780820380516001836020036101000a031916815260200191505b50878103825288818151815260200191508051906020019080838360005b838110156142cc5780820151818401526020810190506142b1565b50505050905090810190601f1680156142f95780820380516001836020036101000a031916815260200191505b509d505050505050505050505050505060405180910390a160018080549050039050979650505050505050565b6000600180549050905090565b6000826000808673ffffffffffffffffffffffffffffffffffffffff1673ffffffffffffffffffffffffffffffffffffffff168152602001908152602001600020600b01908051906020019061438a929190615a36565b50816000808673ffffffffffffffffffffffffffffffffffffffff1673ffffffffffffffffffffffffffffffffffffffff16815260200190815260200160002060090190805190602001906143e0929190615a36565b50600190509392505050565b6000826000808673ffffffffffffffffffffffffffffffffffffffff1673ffffffffffffffffffffffffffffffffffffffff168152602001908152602001600020600a019080519060200190614443929190615a36565b50816000808673ffffffffffffffffffffffffffffffffffffffff1673ffffffffffffffffffffffffffffffffffffffff1681526020019081526020016000206009019080519060200190614499929190615a36565b50600190509392505050565b6000826000808673ffffffffffffffffffffffffffffffffffffffff1673ffffffffffffffffffffffffffffffffffffffff168152602001908152602001600020600e0190805190602001906144fc929190615a36565b50816000808673ffffffffffffffffffffffffffffffffffffffff1673ffffffffffffffffffffffffffffffffffffffff1681526020019081526020016000206009019080519060200190614552929190615a36565b50600190509392505050565b606080606060008060008673ffffffffffffffffffffffffffffffffffffffff1673ffffffffffffffffffffffffffffffffffffffff168152602001908152602001600020600c016000808773ffffffffffffffffffffffffffffffffffffffff1673ffffffffffffffffffffffffffffffffffffffff168152602001908152602001600020600d016000808873ffffffffffffffffffffffffffffffffffffffff1673ffffffffffffffffffffffffffffffffffffffff1681526020019081526020016000206007016000808973ffffffffffffffffffffffffffffffffffffffff1673ffffffffffffffffffffffffffffffffffffffff168152602001908152602001600020600f0154838054600181600116156101000203166002900480601f0160208091040260200160405190810160405280929190818152602001828054600181600116156101000203166002900480156146ff5780601f106146d4576101008083540402835291602001916146ff565b820191906000526020600020905b8154815290600101906020018083116146e257829003601f168201915b50505050509350828054600181600116156101000203166002900480601f01602080910402602001604051908101604052809291908181526020018280546001816001161561010002031660029004801561479b5780601f106147705761010080835404028352916020019161479b565b820191906000526020600020905b81548152906001019060200180831161477e57829003601f168201915b50505050509250818054600181600116156101000203166002900480601f0160208091040260200160405190810160405280929190818152602001828054600181600116156101000203166002900480156148375780601f1061480c57610100808354040283529160200191614837565b820191906000526020600020905b81548152906001019060200180831161481a57829003601f168201915b5050505050915093509350935093509193509193565b6000806000808473ffffffffffffffffffffffffffffffffffffffff1673ffffffffffffffffffffffffffffffffffffffff168152602001908152602001600020600f0154905060006001808080549050038154811015156148ab57fe5b9060005260206000200160009054906101000a900473ffffffffffffffffffffffffffffffffffffffff169050806001838154811015156148e857fe5b9060005260206000200160006101000a81548173ffffffffffffffffffffffffffffffffffffffff021916908373ffffffffffffffffffffffffffffffffffffffff160217905550816000808373ffffffffffffffffffffffffffffffffffffffff1673ffffffffffffffffffffffffffffffffffffffff168152602001908152602001600020600f0181905550600180548091906001900361498b9190615ab6565b507f5dbdf31ca0c3d2ee3d30144ba80a2123e789c285b4b7437fbb6ee566584446fa8483604051808373ffffffffffffffffffffffffffffffffffffffff1673ffffffffffffffffffffffffffffffffffffffff1681526020018281526020019250505060405180910390a17f5c3e5656e372eaa87ac4896dc8b1186d4d6143275eae2c14b6c7d86cc21174d3816000808473ffffffffffffffffffffffffffffffffffffffff1673ffffffffffffffffffffffffffffffffffffffff1681526020019081526020016000206001016000808573ffffffffffffffffffffffffffffffffffffffff1673ffffffffffffffffffffffffffffffffffffffff1681526020019081526020016000206002016000808673ffffffffffffffffffffffffffffffffffffffff1673ffffffffffffffffffffffffffffffffffffffff1681526020019081526020016000206003016000808773ffffffffffffffffffffffffffffffffffffffff1673ffffffffffffffffffffffffffffffffffffffff1681526020019081526020016000206004016000808873ffffffffffffffffffffffffffffffffffffffff1673ffffffffffffffffffffffffffffffffffffffff1681526020019081526020016000206005016000808973ffffffffffffffffffffffffffffffffffffffff1673ffffffffffffffffffffffffffffffffffffffff168152602001908152602001600020600601604051808873ffffffffffffffffffffffffffffffffffffffff1673ffffffffffffffffffffffffffffffffffffffff16815260200180602001806020018060200180602001806020018060200187810387528d818154600181600116156101000203166002900481526020019150805460018160011615610100020316600290048015614c6e5780601f10614c4357610100808354040283529160200191614c6e565b820191906000526020600020905b815481529060010190602001808311614c5157829003601f168201915b505087810386528c818154600181600116156101000203166002900481526020019150805460018160011615610100020316600290048015614cf15780601f10614cc657610100808354040283529160200191614cf1565b820191906000526020600020905b815481529060010190602001808311614cd457829003601f168201915b505087810385528b818154600181600116156101000203166002900481526020019150805460018160011615610100020316600290048015614d745780601f10614d4957610100808354040283529160200191614d74565b820191906000526020600020905b815481529060010190602001808311614d5757829003601f168201915b505087810384528a818154600181600116156101000203166002900481526020019150805460018160011615610100020316600290048015614df75780601f10614dcc57610100808354040283529160200191614df7565b820191906000526020600020905b815481529060010190602001808311614dda57829003601f168201915b5050878103835289818154600181600116156101000203166002900481526020019150805460018160011615610100020316600290048015614e7a5780601f10614e4f57610100808354040283529160200191614e7a565b820191906000526020600020905b815481529060010190602001808311614e5d57829003601f168201915b5050878103825288818154600181600116156101000203166002900481526020019150805460018160011615610100020316600290048015614efd5780601f10614ed257610100808354040283529160200191614efd565b820191906000526020600020905b815481529060010190602001808311614ee057829003601f168201915b50509d505050505050505050505050505060405180910390a17f9db5ae32ddba7105e7e6986d9e828d6c4b577a7bebd3df4c8b4abd1d85963e0a816000808473ffffffffffffffffffffffffffffffffffffffff1673ffffffffffffffffffffffffffffffffffffffff168152602001908152602001600020600e016000808573ffffffffffffffffffffffffffffffffffffffff1673ffffffffffffffffffffffffffffffffffffffff1681526020019081526020016000206008016000808673ffffffffffffffffffffffffffffffffffffffff1673ffffffffffffffffffffffffffffffffffffffff1681526020019081526020016000206009016000808773ffffffffffffffffffffffffffffffffffffffff1673ffffffffffffffffffffffffffffffffffffffff168152602001908152602001600020600a016000808873ffffffffffffffffffffffffffffffffffffffff1673ffffffffffffffffffffffffffffffffffffffff168152602001908152602001600020600b01604051808773ffffffffffffffffffffffffffffffffffffffff1673ffffffffffffffffffffffffffffffffffffffff168152602001806020018060200180602001806020018060200186810386528b8181546001816001161561010002031660029004815260200191508054600181600116156101000203166002900480156151485780601f1061511d57610100808354040283529160200191615148565b820191906000526020600020905b81548152906001019060200180831161512b57829003601f168201915b505086810385528a8181546001816001161561010002031660029004815260200191508054600181600116156101000203166002900480156151cb5780601f106151a0576101008083540402835291602001916151cb565b820191906000526020600020905b8154815290600101906020018083116151ae57829003601f168201915b505086810384528981815460018160011615610100020316600290048152602001915080546001816001161561010002031660029004801561524e5780601f106152235761010080835404028352916020019161524e565b820191906000526020600020905b81548152906001019060200180831161523157829003601f168201915b50508681038352888181546001816001161561010002031660029004815260200191508054600181600116156101000203166002900480156152d15780601f106152a6576101008083540402835291602001916152d1565b820191906000526020600020905b8154815290600101906020018083116152b457829003601f168201915b50508681038252878181546001816001161561010002031660029004815260200191508054600181600116156101000203166002900480156153545780601f1061532957610100808354040283529160200191615354565b820191906000526020600020905b81548152906001019060200180831161533757829003601f168201915b50509b50505050505050505050505060405180910390a17f8ad9ed0b91f1df0b934de0a5ab94412fce18fd7934a04bda7568721dcf8cb415816000808473ffffffffffffffffffffffffffffffffffffffff1673ffffffffffffffffffffffffffffffffffffffff168152602001908152602001600020600c016000808573ffffffffffffffffffffffffffffffffffffffff1673ffffffffffffffffffffffffffffffffffffffff168152602001908152602001600020600d016000808673ffffffffffffffffffffffffffffffffffffffff1673ffffffffffffffffffffffffffffffffffffffff16815260200190815260200160002060070186604051808673ffffffffffffffffffffffffffffffffffffffff1673ffffffffffffffffffffffffffffffffffffffff16815260200180602001806020018060200185815260200184810384528881815460018160011615610100020316600290048152602001915080546001816001161561010002031660029004801561551a5780601f106154ef5761010080835404028352916020019161551a565b820191906000526020600020905b8154815290600101906020018083116154fd57829003601f168201915b505084810383528781815460018160011615610100020316600290048152602001915080546001816001161561010002031660029004801561559d5780601f106155725761010080835404028352916020019161559d565b820191906000526020600020905b81548152906001019060200180831161558057829003601f168201915b50508481038252868181546001816001161561010002031660029004815260200191508054600181600116156101000203166002900480156156205780601f106155f557610100808354040283529160200191615620565b820191906000526020600020905b81548152906001019060200180831161560357829003601f168201915b50509850505050505050505060405180910390a18192505050919050565b6000836000808773ffffffffffffffffffffffffffffffffffffffff1673ffffffffffffffffffffffffffffffffffffffff168152602001908152602001600020600c019080519060200190615695929190615a36565b50826000808773ffffffffffffffffffffffffffffffffffffffff1673ffffffffffffffffffffffffffffffffffffffff168152602001908152602001600020600d0190805190602001906156eb929190615a36565b50816000808773ffffffffffffffffffffffffffffffffffffffff1673ffffffffffffffffffffffffffffffffffffffff1681526020019081526020016000206007019080519060200190615741929190615a36565b506001808690806001815401808255809150509060018203906000526020600020016000909192909190916101000a81548173ffffffffffffffffffffffffffffffffffffffff021916908373ffffffffffffffffffffffffffffffffffffffff160217905550036000808773ffffffffffffffffffffffffffffffffffffffff1673ffffffffffffffffffffffffffffffffffffffff168152602001908152602001600020600f01819055507fed162f339667544811d16e765825fd2d52cae7397e526f561709529e613354c0858585856000808b73ffffffffffffffffffffffffffffffffffffffff1673ffffffffffffffffffffffffffffffffffffffff168152602001908152602001600020600f0154604051808673ffffffffffffffffffffffffffffffffffffffff1673ffffffffffffffffffffffffffffffffffffffff168152602001806020018060200180602001858152602001848103845288818151815260200191508051906020019080838360005b838110156158d55780820151818401526020810190506158ba565b50505050905090810190601f1680156159025780820380516001836020036101000a031916815260200191505b50848103835287818151815260200191508051906020019080838360005b8381101561593b578082015181840152602081019050615920565b50505050905090810190601f1680156159685780820380516001836020036101000a031916815260200191505b50848103825286818151815260200191508051906020019080838360005b838110156159a1578082015181840152602081019050615986565b50505050905090810190601f1680156159ce5780820380516001836020036101000a031916815260200191505b509850505050505050505060405180910390a160018080549050039050949350505050565b6000600182815481101515615a0457fe5b9060005260206000200160009054906101000a900473ffffffffffffffffffffffffffffffffffffffff169050919050565b828054600181600116156101000203166002900490600052602060002090601f016020900481019282601f10615a7757805160ff1916838001178555615aa5565b82800160010185558215615aa5579182015b82811115615aa4578251825591602001919060010190615a89565b5b509050615ab29190615ae2565b5090565b815481835581811115615add57818360005260206000209182019101615adc9190615ae2565b5b505050565b615b0491905b80821115615b00576000816000905550600101615ae8565b5090565b9056fea165627a7a72305820653c0173d24c5f3fada98b954b4071949cde845bdb17c0e586480f37c85c6f960029",
  "source": "pragma solidity >=0.4.21 <0.6.0;\r\n\r\ncontract HistoryUserManagementStorage {\r\n    struct HistoryUserManagement {\r\n        address userAddress;\r\n        string userId;\r\n        string fullName;\r\n        string email;\r\n        string password;\r\n        string gender;\r\n        string dateOfBirth;\r\n        string userAddr;\r\n\r\n        string createdTime;\r\n        string modifiedTime;\r\n        string idCardNo;\r\n        string idCardIssuePlace;\r\n\r\n        string phoneNumber;\r\n        string job;\r\n        string isLocked;\r\n        uint256 index;\r\n    }\r\n\r\n    mapping(address => HistoryUserManagement) historyUserManagementStructs;\r\n\r\n    address[] userIndex;\r\n\r\n    //eventInsert\r\n    event AddHistoryUserManagementEvent(\r\n        address _userAddress, string _userId, string _fullName, string _email,\r\n        string _password, string _gender, string _dateOfBirth);\r\n\r\n    event AddHistoryUserManagementAdditionEvent(\r\n        address _userAddress, string _isLocked, string _createdTime,\r\n        string _modifiedTime, string _idCardNo, string _idCardIssuePlace);\r\n\r\n    event AddHistoryUserManagementAdditionFlusEvent(\r\n        address _userAddress, string _phoneNumber, string _job, string _userAddr, uint256 _index);\r\n\r\n    //eventUpdate\r\n    event AddUpdateHistoryUserManagementEven(\r\n        address _userAddress, string _userId, string _fullName, string _email,\r\n        string _password, string _gender, string _dateOfBirth);\r\n    event AddUpdateHistoryUserManagementAdditionEven(\r\n        address _userAddress, string _isLocked, string _modifiedTime,\r\n        string _createdTime, string _idCardNo, string _idCardIssuePlace);\r\n    event AddUpdateHistoryUserManagementAdditionFlusEven(\r\n        address _userAddress, string _phoneNumber, string _job, string _userAddr, uint256 _index);\r\n\r\n    //eventDelete\r\n    event AddDeleteHistoryUserManagement(\r\n        address _userAddress,\r\n        uint256 index);\r\n\r\n    function isUser(address _userAddress) public view returns(bool isIndeed) {\r\n      if(userIndex.length == 0) return false;\r\n      return (userIndex[historyUserManagementStructs[_userAddress].index] == _userAddress);\r\n    }\r\n\r\n    function addInsertUserHistory(\r\n      address _userAddress,\r\n      string memory _userId,\r\n      string memory _fullName,\r\n      string memory _email,\r\n      string memory _password,\r\n      string memory _gender,\r\n      string memory _dateOfBirth\r\n      )\r\n      public returns(uint256 index){\r\n      //if(isUser(_userAddress)) revert('throw');\r\n      historyUserManagementStructs[_userAddress].userId = _userId;\r\n      historyUserManagementStructs[_userAddress].fullName = _fullName;\r\n      historyUserManagementStructs[_userAddress].email = _email;\r\n      historyUserManagementStructs[_userAddress].password = _password;\r\n      historyUserManagementStructs[_userAddress].gender = _gender;\r\n      historyUserManagementStructs[_userAddress].dateOfBirth = _dateOfBirth;\r\n      emit AddHistoryUserManagementEvent(_userAddress, _userId, _fullName, _email, _password, _gender, _dateOfBirth);\r\n\r\n      return userIndex.length-1;\r\n    }\r\n\r\n    function addInsertUserHistoryDetail(\r\n        address _userAddress,\r\n        string memory _isLocked,\r\n        string memory _createdTime,\r\n        string memory _modifiedTime,\r\n        string  memory _idCardNo,\r\n        string  memory _idCardIssuePlace\r\n        )\r\n        public returns(uint256 index){\r\n        historyUserManagementStructs[_userAddress].isLocked = _isLocked;\r\n        historyUserManagementStructs[_userAddress].createdTime = _createdTime;\r\n        historyUserManagementStructs[_userAddress].modifiedTime = _modifiedTime;\r\n        historyUserManagementStructs[_userAddress].idCardNo = _idCardNo;\r\n        historyUserManagementStructs[_userAddress].idCardIssuePlace = _idCardIssuePlace;\r\n\r\n        emit AddHistoryUserManagementAdditionEvent(_userAddress, _isLocked, _createdTime, _modifiedTime, _idCardNo, _idCardIssuePlace);\r\n        return userIndex.length-1;\r\n    }\r\n\r\n    function insertUserHistoryDetailFlus(\r\n        address _userAddress,\r\n        string memory _phoneNumber,\r\n        string  memory _job,\r\n        string  memory _userAddr\r\n        )\r\n        public returns(uint256 index){\r\n        // if(isUser(_userAddress)) revert('throw');\r\n        historyUserManagementStructs[_userAddress].phoneNumber = _phoneNumber;\r\n        historyUserManagementStructs[_userAddress].job = _job;\r\n        historyUserManagementStructs[_userAddress].userAddr = _userAddr;\r\n        historyUserManagementStructs[_userAddress].index = userIndex.push(_userAddress)-1;\r\n        emit AddHistoryUserManagementAdditionFlusEvent(\r\n            _userAddress,\r\n            _phoneNumber,\r\n            _job,\r\n            _userAddr,\r\n            historyUserManagementStructs[_userAddress].index);\r\n        return userIndex.length-1;\r\n    }\r\n\r\n    function addDeleteUser(address _userAddress) public returns(uint256 index){\r\n        // if(!isUser(_userAddress)) revert('throw');\r\n        uint256 rowToDelete = historyUserManagementStructs[_userAddress].index;\r\n        address keyToMove = userIndex[userIndex.length-1];\r\n        userIndex[rowToDelete] = keyToMove; //vi tri can delete = vi tri cuoi ds\r\n        historyUserManagementStructs[keyToMove].index = rowToDelete;\r\n\r\n        userIndex.length--;\r\n        emit AddDeleteHistoryUserManagement(\r\n            _userAddress,\r\n            rowToDelete);\r\n\r\n        emit AddUpdateHistoryUserManagementEven(\r\n            keyToMove,\r\n            historyUserManagementStructs[keyToMove].userId,\r\n            historyUserManagementStructs[keyToMove].fullName,\r\n            historyUserManagementStructs[keyToMove].email,\r\n            historyUserManagementStructs[keyToMove].password,\r\n            historyUserManagementStructs[keyToMove].gender,\r\n            historyUserManagementStructs[keyToMove].dateOfBirth\r\n            );\r\n        emit AddUpdateHistoryUserManagementAdditionEven(\r\n            keyToMove,\r\n            historyUserManagementStructs[keyToMove].isLocked,\r\n            historyUserManagementStructs[keyToMove].createdTime,\r\n            historyUserManagementStructs[keyToMove].modifiedTime,\r\n            historyUserManagementStructs[keyToMove].idCardNo,\r\n            historyUserManagementStructs[keyToMove].idCardIssuePlace\r\n            );\r\n        emit AddUpdateHistoryUserManagementAdditionFlusEven(\r\n            keyToMove,\r\n            historyUserManagementStructs[keyToMove].phoneNumber,\r\n            historyUserManagementStructs[keyToMove].job,\r\n            historyUserManagementStructs[keyToMove].userAddr,\r\n            rowToDelete);\r\n        return rowToDelete;\r\n    }\r\n\r\n    function addGetUserHistory(address _userAddress) public view returns(\r\n        address userAddress,\r\n        string memory _userId,\r\n        string memory _fullName,\r\n        string memory _email,\r\n        string memory _password,\r\n        string memory _gender,\r\n        string memory _dateOfBirth\r\n        ){\r\n        // if(!isUser(_userAddress)) revert('throw');\r\n        return(\r\n            _userAddress,\r\n            historyUserManagementStructs[_userAddress].userId,\r\n            historyUserManagementStructs[_userAddress].fullName,\r\n            historyUserManagementStructs[_userAddress].email,\r\n            historyUserManagementStructs[_userAddress].password,\r\n            historyUserManagementStructs[_userAddress].gender,\r\n            historyUserManagementStructs[_userAddress].dateOfBirth);\r\n    }\r\n\r\n    function addGetUserHistoryDetailMore(address _userAddress) public view returns(\r\n        string memory _isLocked,\r\n        string memory _createdTime,\r\n        string memory _modifiedTime,\r\n        string memory _idCardNo,\r\n        string memory _idCardIssuePlace){\r\n      // if(!isUser(_userAddress)) revert('throw');\r\n        return(\r\n            historyUserManagementStructs[_userAddress].isLocked,\r\n            historyUserManagementStructs[_userAddress].createdTime,\r\n            historyUserManagementStructs[_userAddress].modifiedTime,\r\n            historyUserManagementStructs[_userAddress].idCardNo,\r\n            historyUserManagementStructs[_userAddress].idCardIssuePlace);\r\n    }\r\n\r\n    function addGetUserHistoryDetailMoreMore(address _userAddress) public view returns(\r\n        string memory _phoneNumber,\r\n        string  memory  _job,\r\n        string  memory  _userAddr,\r\n        uint256 index){\r\n        // if(!isUser(_userAddress)) revert('throw');\r\n        return(\r\n            historyUserManagementStructs[_userAddress].phoneNumber,\r\n            historyUserManagementStructs[_userAddress].job,\r\n            historyUserManagementStructs[_userAddress].userAddr,\r\n            historyUserManagementStructs[_userAddress].index);\r\n    }\r\n// UPDATE\r\n    function addHistoryUpdateFullName(address _userAddress, string  memory  _fullName, string memory _modifiedTime)\r\n    public returns(bool success) {\r\n        // if(!isUser(_userAddress))  revert('throw');\r\n        historyUserManagementStructs[_userAddress].fullName = _fullName;\r\n        historyUserManagementStructs[_userAddress].modifiedTime = _modifiedTime;\r\n        emit AddUpdateHistoryUserManagementEven(\r\n            _userAddress,\r\n            historyUserManagementStructs[_userAddress].userId,\r\n            _fullName,\r\n            historyUserManagementStructs[_userAddress].email,\r\n            historyUserManagementStructs[_userAddress].password,\r\n            historyUserManagementStructs[_userAddress].gender,\r\n            historyUserManagementStructs[_userAddress].dateOfBirth\r\n            );\r\n        return true;\r\n    }\r\n\r\n    function addHistoryUpdateEmail(address _userAddress, string  memory  _email, string memory _modifiedTime)\r\n        public returns(bool success) {\r\n            // if(!isUser(_userAddress))  revert('throw');\r\n            historyUserManagementStructs[_userAddress].email = _email;\r\n            historyUserManagementStructs[_userAddress].modifiedTime = _modifiedTime;\r\n            // emit SetLogUpdateUserManagementEven(\r\n            //    _userAddress,\r\n            //    userManagementStructs[_userAddress].userId,\r\n            //    userManagementStructs[_userAddress].fullName,\r\n            //    _email,\r\n            //    userManagementStructs[_userAddress].password,\r\n            //    userManagementStructs[_userAddress].gender,\r\n            //    userManagementStructs[_userAddress].dateOfBirth\r\n            //    );\r\n            return true;\r\n    }\r\n\r\n   function addHistoryUpdatePassword(address _userAddress, string  memory  _password, string memory _modifiedTime)\r\n        public returns(bool success) {\r\n            // if(!isUser(_userAddress))  revert('throw');\r\n            historyUserManagementStructs[_userAddress].password = _password;\r\n            historyUserManagementStructs[_userAddress].modifiedTime = _modifiedTime;\r\n            // emit SetLogUpdateUserManagementEven(\r\n            //    _userAddress,\r\n            //    userManagementStructs[_userAddress].userId,\r\n            //    userManagementStructs[_userAddress].fullName,\r\n            //    userManagementStructs[_userAddress].email,\r\n            //    _password,\r\n            //    userManagementStructs[_userAddress].gender,\r\n            //    userManagementStructs[_userAddress].dateOfBirth\r\n            //    );\r\n            return true;\r\n    }\r\n\r\n   function addHistoryUpdateGender(address _userAddress, string  memory  _gender, string memory _modifiedTime)\r\n        public returns(bool success) {\r\n            // if(!isUser(_userAddress))  revert('throw');\r\n            historyUserManagementStructs[_userAddress].gender = _gender;\r\n            historyUserManagementStructs[_userAddress].modifiedTime = _modifiedTime;\r\n            // emit SetLogUpdateUserManagementEven(\r\n            //    _userAddress,\r\n            //    userManagementStructs[_userAddress].userId,\r\n            //    userManagementStructs[_userAddress].fullName,\r\n            //    userManagementStructs[_userAddress].email,\r\n            //    userManagementStructs[_userAddress].password,\r\n            //    _gender,\r\n            //    userManagementStructs[_userAddress].dateOfBirth\r\n            //    );\r\n            return true;\r\n    }\r\n\r\n   function addHistoryUpdateDateOfBirth(address _userAddress, string memory  _dateOfBirth, string memory _modifiedTime)\r\n        public returns(bool success) {\r\n            // if(!isUser(_userAddress))  revert('throw');\r\n            historyUserManagementStructs[_userAddress].dateOfBirth = _dateOfBirth;\r\n            historyUserManagementStructs[_userAddress].modifiedTime = _modifiedTime;\r\n            // emit SetLogUpdateUserManagementEven(\r\n            //    _userAddress,\r\n            //    userManagementStructs[_userAddress].userId,\r\n            //    userManagementStructs[_userAddress].fullName,\r\n            //    userManagementStructs[_userAddress].email,\r\n            //    userManagementStructs[_userAddress].password,\r\n            //    userManagementStructs[_userAddress].gender,\r\n            //    _dateOfBirth\r\n            //    );\r\n        return true;\r\n    }\r\n\r\n    function addHistoryUpdateIsLocked(address _userAddress, string  memory  _isLocked, string memory _modifiedTime)\r\n        public returns(bool success) {\r\n            // if(!isUser(_userAddress))  revert('throw');\r\n            historyUserManagementStructs[_userAddress].isLocked = _isLocked;\r\n            historyUserManagementStructs[_userAddress].modifiedTime = _modifiedTime;\r\n            // emit SetLogUpdateUserManagementAdditionEven(\r\n            //    _userAddress,\r\n            //    _isLocked,\r\n            //    userManagementStructs[_userAddress].createdTime,\r\n            //    userManagementStructs[_userAddress].modifiedTime,\r\n            //    userManagementStructs[_userAddress].idCardNo,\r\n            //    userManagementStructs[_userAddress].idCardIssuePlace\r\n            //    );\r\n        return true;\r\n    }\r\n\r\n    function addHistoryUpdateIdCardNo(address _userAddress, string memory _idCardNo, string memory _modifiedTime)\r\n        public returns(bool success) {\r\n        // if(!isUser(_userAddress))  revert('throw');\r\n        historyUserManagementStructs[_userAddress].idCardNo = _idCardNo;\r\n        historyUserManagementStructs[_userAddress].modifiedTime = _modifiedTime;\r\n        // emit SetLogUpdateUserManagementAdditionEven(\r\n        //    _userAddress,\r\n        //    userManagementStructs[_userAddress].isLocked,\r\n        //    userManagementStructs[_userAddress].createdTime,\r\n        //    userManagementStructs[_userAddress].modifiedTime,\r\n        //    _idCardNo,\r\n        //    userManagementStructs[_userAddress].idCardIssuePlace\r\n        //    );\r\n        return true;\r\n    }\r\n\r\n    function addHistoryUpdateIdCardIssuePlace(address _userAddress,\r\n        string memory _idCardIssuePlace, string memory _modifiedTime)\r\n        public returns(bool success) {\r\n            // if(!isUser(_userAddress))  revert('throw');\r\n            historyUserManagementStructs[_userAddress].idCardIssuePlace = _idCardIssuePlace;\r\n            historyUserManagementStructs[_userAddress].modifiedTime = _modifiedTime;\r\n            // emit SetLogUpdateUserManagementAdditionEven(\r\n            //    _userAddress,\r\n            //    userManagementStructs[_userAddress].isLocked,\r\n            //    userManagementStructs[_userAddress].createdTime,\r\n            //    userManagementStructs[_userAddress].modifiedTime,\r\n            //    userManagementStructs[_userAddress].idCardNo,\r\n            //    _idCardIssuePlace);\r\n            return true;\r\n   }\r\n\r\n    function addHistoryUpdatePhoneNumber(address _userAddress, string memory _phoneNumber, string memory _modifiedTime)\r\n        public returns(bool success) {\r\n            // if(!isUser(_userAddress))  revert('throw');\r\n            historyUserManagementStructs[_userAddress].phoneNumber = _phoneNumber;\r\n            historyUserManagementStructs[_userAddress].modifiedTime = _modifiedTime;\r\n            // emit SetLogUpdateUserManagementAdditionFlusEven(\r\n            //    _userAddress,\r\n            //    _phoneNumber,\r\n            //    userManagementStructs[_userAddress].job,\r\n            //    userManagementStructs[_userAddress].userAddr,\r\n            //    userManagementStructs[_userAddress].index);\r\n            return true;\r\n    }\r\n\r\n    function addHistoryUpdateJob(address _userAddress, string memory   _job, string memory _modifiedTime)\r\n    public returns(bool success) {\r\n        // if(!isUser(_userAddress))  revert('throw');\r\n        historyUserManagementStructs[_userAddress].job = _job;\r\n        historyUserManagementStructs[_userAddress].modifiedTime = _modifiedTime;\r\n        // userManagementStructs[_userAddress].userAddr = _userAddr;\r\n        // emit SetLogUpdateUserManagementAdditionFlusEven(\r\n        //    _userAddress,\r\n        //    userManagementStructs[_userAddress].phoneNumber,\r\n        //    _job,\r\n        //    userManagementStructs[_userAddress].userAddr,\r\n        //    userManagementStructs[_userAddress].index);\r\n        return true;\r\n    }\r\n\r\n    function addHistoryUpdateUserAddr(address _userAddress, string memory   _userAddr, string memory _modifiedTime)\r\n        public returns(bool success) {\r\n            // if(!isUser(_userAddress))  revert('throw');\r\n            historyUserManagementStructs[_userAddress].userAddr = _userAddr;\r\n            historyUserManagementStructs[_userAddress].modifiedTime = _modifiedTime;\r\n            // emit SetLogUpdateUserManagementAdditionFlusEven(\r\n            //    _userAddress,\r\n            //    userManagementStructs[_userAddress].phoneNumber,\r\n            //    userManagementStructs[_userAddress].job,\r\n            //    _userAddr,\r\n            //    userManagementStructs[_userAddress].index);\r\n            return true;\r\n    }\r\n\r\n    function getUserCount() public view returns(uint256 count){\r\n        return userIndex.length;\r\n    }\r\n\r\n    function getUserAtIndex(uint256 _index) public view returns(address userAddress){\r\n      return userIndex[_index];\r\n    }\r\n}",
  "sourcePath": "C:/xampp/htdocs/projectBlockchain/blockchaindemo/TG_UNIVERSITY_CERTIFICATE_VERIFICATION_SERVER/contracts/History.sol",
  "compiler": {
    "name": "solc",
    "version": "0.5.0+commit.1d4f565a.Emscripten.clang"
  },
  "schemaVersion": "3.0.9",
  "updatedAt": "2019-06-13T08:32:43.323Z",
  "devdoc": {
    "methods": {}
  },
  "userdoc": {
    "methods": {}
  }
}