{
  "contractName": "SchoolStorage",
  "abi": [
    {
      "anonymous": false,
      "inputs": [
        {
          "indexed": false,
          "name": "_schoolAddress",
          "type": "address"
        },
        {
          "indexed": false,
          "name": "_name",
          "type": "string"
        },
        {
          "indexed": false,
          "name": "_addr",
          "type": "string"
        },
        {
          "indexed": false,
          "name": "_email",
          "type": "string"
        },
        {
          "indexed": false,
          "name": "_fax",
          "type": "string"
        },
        {
          "indexed": false,
          "name": "_phone",
          "type": "string"
        }
      ],
      "name": "SetSchoolEvent",
      "type": "event"
    },
    {
      "anonymous": false,
      "inputs": [
        {
          "indexed": false,
          "name": "_schoolAddress",
          "type": "address"
        },
        {
          "indexed": false,
          "name": "_createdTime",
          "type": "string"
        },
        {
          "indexed": false,
          "name": "_modifiedTime",
          "type": "string"
        },
        {
          "indexed": false,
          "name": "_isLocked",
          "type": "string"
        },
        {
          "indexed": false,
          "name": "_index",
          "type": "uint256"
        }
      ],
      "name": "SetSchoolAdditionEvent",
      "type": "event"
    },
    {
      "anonymous": false,
      "inputs": [
        {
          "indexed": false,
          "name": "_schoolAddress",
          "type": "address"
        },
        {
          "indexed": false,
          "name": "_name",
          "type": "string"
        },
        {
          "indexed": false,
          "name": "_addr",
          "type": "string"
        },
        {
          "indexed": false,
          "name": "_email",
          "type": "string"
        },
        {
          "indexed": false,
          "name": "_fax",
          "type": "string"
        },
        {
          "indexed": false,
          "name": "_phone",
          "type": "string"
        }
      ],
      "name": "SetLogUpdateSchoolEvent",
      "type": "event"
    },
    {
      "anonymous": false,
      "inputs": [
        {
          "indexed": false,
          "name": "_schoolAddress",
          "type": "address"
        },
        {
          "indexed": false,
          "name": "_createdTime",
          "type": "string"
        },
        {
          "indexed": false,
          "name": "_modifiedTime",
          "type": "string"
        },
        {
          "indexed": false,
          "name": "_isLocked",
          "type": "string"
        },
        {
          "indexed": false,
          "name": "_index",
          "type": "uint256"
        }
      ],
      "name": "SetLogUpdateSchoolAdditionEvent",
      "type": "event"
    },
    {
      "anonymous": false,
      "inputs": [
        {
          "indexed": false,
          "name": "_schoolAddress",
          "type": "address"
        },
        {
          "indexed": false,
          "name": "index",
          "type": "uint256"
        }
      ],
      "name": "SetLogDeleteSchool",
      "type": "event"
    },
    {
      "constant": false,
      "inputs": [
        {
          "name": "_schoolAddress",
          "type": "address"
        },
        {
          "name": "_name",
          "type": "string"
        },
        {
          "name": "_addr",
          "type": "string"
        },
        {
          "name": "_email",
          "type": "string"
        },
        {
          "name": "_fax",
          "type": "string"
        },
        {
          "name": "_phone",
          "type": "string"
        }
      ],
      "name": "insertSchool",
      "outputs": [
        {
          "name": "index",
          "type": "uint256"
        }
      ],
      "payable": false,
      "stateMutability": "nonpayable",
      "type": "function"
    },
    {
      "constant": false,
      "inputs": [
        {
          "name": "_schoolAddress",
          "type": "address"
        },
        {
          "name": "_createdTime",
          "type": "string"
        },
        {
          "name": "_modifiedTime",
          "type": "string"
        },
        {
          "name": "_islocked",
          "type": "string"
        }
      ],
      "name": "insertSchoolAddition",
      "outputs": [
        {
          "name": "index",
          "type": "uint256"
        }
      ],
      "payable": false,
      "stateMutability": "nonpayable",
      "type": "function"
    },
    {
      "constant": false,
      "inputs": [
        {
          "name": "_schoolAddress",
          "type": "address"
        }
      ],
      "name": "deleteSchool",
      "outputs": [
        {
          "name": "index",
          "type": "uint256"
        }
      ],
      "payable": false,
      "stateMutability": "nonpayable",
      "type": "function"
    },
    {
      "constant": true,
      "inputs": [
        {
          "name": "_schoolAddress",
          "type": "address"
        }
      ],
      "name": "getSchool",
      "outputs": [
        {
          "name": "SchoolAddress",
          "type": "address"
        },
        {
          "name": "name",
          "type": "string"
        },
        {
          "name": "email",
          "type": "string"
        },
        {
          "name": "addr",
          "type": "string"
        },
        {
          "name": "fax",
          "type": "string"
        },
        {
          "name": "phone",
          "type": "string"
        }
      ],
      "payable": false,
      "stateMutability": "view",
      "type": "function"
    },
    {
      "constant": true,
      "inputs": [
        {
          "name": "_schoolAddress",
          "type": "address"
        }
      ],
      "name": "getSchoolAddition",
      "outputs": [
        {
          "name": "_createdTime",
          "type": "string"
        },
        {
          "name": "_modifiedTime",
          "type": "string"
        },
        {
          "name": "_islocked",
          "type": "string"
        }
      ],
      "payable": false,
      "stateMutability": "view",
      "type": "function"
    },
    {
      "constant": false,
      "inputs": [
        {
          "name": "_schoolAddress",
          "type": "address"
        },
        {
          "name": "_name",
          "type": "string"
        },
        {
          "name": "_modifiedTime",
          "type": "string"
        }
      ],
      "name": "updateFullName",
      "outputs": [
        {
          "name": "success",
          "type": "bool"
        }
      ],
      "payable": false,
      "stateMutability": "nonpayable",
      "type": "function"
    },
    {
      "constant": false,
      "inputs": [
        {
          "name": "_schoolAddress",
          "type": "address"
        },
        {
          "name": "_email",
          "type": "string"
        },
        {
          "name": "_modifiedTime",
          "type": "string"
        }
      ],
      "name": "updateEmail",
      "outputs": [
        {
          "name": "success",
          "type": "bool"
        }
      ],
      "payable": false,
      "stateMutability": "nonpayable",
      "type": "function"
    },
    {
      "constant": false,
      "inputs": [
        {
          "name": "_schoolAddress",
          "type": "address"
        },
        {
          "name": "_addr",
          "type": "string"
        },
        {
          "name": "_modifiedTime",
          "type": "string"
        }
      ],
      "name": "updateAddr",
      "outputs": [
        {
          "name": "success",
          "type": "bool"
        }
      ],
      "payable": false,
      "stateMutability": "nonpayable",
      "type": "function"
    },
    {
      "constant": false,
      "inputs": [
        {
          "name": "_schoolAddress",
          "type": "address"
        },
        {
          "name": "_fax",
          "type": "string"
        },
        {
          "name": "_modifiedTime",
          "type": "string"
        }
      ],
      "name": "updateFax",
      "outputs": [
        {
          "name": "success",
          "type": "bool"
        }
      ],
      "payable": false,
      "stateMutability": "nonpayable",
      "type": "function"
    },
    {
      "constant": false,
      "inputs": [
        {
          "name": "_schoolAddress",
          "type": "address"
        },
        {
          "name": "_phone",
          "type": "string"
        },
        {
          "name": "_modifiedTime",
          "type": "string"
        }
      ],
      "name": "updatePhone",
      "outputs": [
        {
          "name": "success",
          "type": "bool"
        }
      ],
      "payable": false,
      "stateMutability": "nonpayable",
      "type": "function"
    },
    {
      "constant": false,
      "inputs": [
        {
          "name": "_schoolAddress",
          "type": "address"
        },
        {
          "name": "_islocked",
          "type": "string"
        },
        {
          "name": "_modifiedTime",
          "type": "string"
        }
      ],
      "name": "updateIslocked",
      "outputs": [
        {
          "name": "success",
          "type": "bool"
        }
      ],
      "payable": false,
      "stateMutability": "nonpayable",
      "type": "function"
    },
    {
      "constant": true,
      "inputs": [],
      "name": "getSchoolCount",
      "outputs": [
        {
          "name": "count",
          "type": "uint256"
        }
      ],
      "payable": false,
      "stateMutability": "view",
      "type": "function"
    },
    {
      "constant": true,
      "inputs": [
        {
          "name": "_index",
          "type": "uint256"
        }
      ],
      "name": "getSchoolAtIndex",
      "outputs": [
        {
          "name": "SchoolAddress",
          "type": "address"
        }
      ],
      "payable": false,
      "stateMutability": "view",
      "type": "function"
    }
  ],
  "bytecode": "0x608060405234801561001057600080fd5b50613216806100206000396000f3fe608060405234801561001057600080fd5b50600436106100ce5760003560e01c80634d49f74c1161008c5780638cecb2f2116100665780638cecb2f214610e13578063ab5503dc14610f9d578063c80bc5cf146112e8578063cd2ea00414611306576100ce565b80634d49f74c14610aa75780636af18bd814610c3157806379c0f6b314610dbb576100ce565b8062835995146100d3578063059717d61461025d57806323541fbc1461047a578063245620ce1461060f5780632b5749c91461067d57806339194eb414610807575b600080fd5b610243600480360360608110156100e957600080fd5b81019080803573ffffffffffffffffffffffffffffffffffffffff1690602001909291908035906020019064010000000081111561012657600080fd5b82018360208201111561013857600080fd5b8035906020019184600183028401116401000000008311171561015a57600080fd5b91908080601f016020809104026020016040519081016040528093929190818152602001838380828437600081840152601f19601f820116905080830192505050505050509192919290803590602001906401000000008111156101bd57600080fd5b8201836020820111156101cf57600080fd5b803590602001918460018302840111640100000000831117156101f157600080fd5b91908080601f016020809104026020016040519081016040528093929190818152602001838380828437600081840152601f19601f820116905080830192505050505050509192919290505050611490565b604051808215151515815260200191505060405180910390f35b6104646004803603608081101561027357600080fd5b81019080803573ffffffffffffffffffffffffffffffffffffffff169060200190929190803590602001906401000000008111156102b057600080fd5b8201836020820111156102c257600080fd5b803590602001918460018302840111640100000000831117156102e457600080fd5b91908080601f016020809104026020016040519081016040528093929190818152602001838380828437600081840152601f19601f8201169050808301925050505050505091929192908035906020019064010000000081111561034757600080fd5b82018360208201111561035957600080fd5b8035906020019184600183028401116401000000008311171561037b57600080fd5b91908080601f016020809104026020016040519081016040528093929190818152602001838380828437600081840152601f19601f820116905080830192505050505050509192919290803590602001906401000000008111156103de57600080fd5b8201836020820111156103f057600080fd5b8035906020019184600183028401116401000000008311171561041257600080fd5b91908080601f016020809104026020016040519081016040528093929190818152602001838380828437600081840152601f19601f820116905080830192505050505050509192919290505050611549565b6040518082815260200191505060405180910390f35b6104bc6004803603602081101561049057600080fd5b81019080803573ffffffffffffffffffffffffffffffffffffffff1690602001909291905050506118fe565b60405180806020018060200180602001848103845287818151815260200191508051906020019080838360005b838110156105045780820151818401526020810190506104e9565b50505050905090810190601f1680156105315780820380516001836020036101000a031916815260200191505b50848103835286818151815260200191508051906020019080838360005b8381101561056a57808201518184015260208101905061054f565b50505050905090810190601f1680156105975780820380516001836020036101000a031916815260200191505b50848103825285818151815260200191508051906020019080838360005b838110156105d05780820151818401526020810190506105b5565b50505050905090810190601f1680156105fd5780820380516001836020036101000a031916815260200191505b50965050505050505060405180910390f35b61063b6004803603602081101561062557600080fd5b8101908080359060200190929190505050611ba7565b604051808273ffffffffffffffffffffffffffffffffffffffff1673ffffffffffffffffffffffffffffffffffffffff16815260200191505060405180910390f35b6107ed6004803603606081101561069357600080fd5b81019080803573ffffffffffffffffffffffffffffffffffffffff169060200190929190803590602001906401000000008111156106d057600080fd5b8201836020820111156106e257600080fd5b8035906020019184600183028401116401000000008311171561070457600080fd5b91908080601f016020809104026020016040519081016040528093929190818152602001838380828437600081840152601f19601f8201169050808301925050505050505091929192908035906020019064010000000081111561076757600080fd5b82018360208201111561077957600080fd5b8035906020019184600183028401116401000000008311171561079b57600080fd5b91908080601f016020809104026020016040519081016040528093929190818152602001838380828437600081840152601f19601f820116905080830192505050505050509192919290505050611be8565b604051808215151515815260200191505060405180910390f35b6108496004803603602081101561081d57600080fd5b81019080803573ffffffffffffffffffffffffffffffffffffffff169060200190929190505050611ca1565b604051808773ffffffffffffffffffffffffffffffffffffffff1673ffffffffffffffffffffffffffffffffffffffff168152602001806020018060200180602001806020018060200186810386528b818151815260200191508051906020019080838360005b838110156108cb5780820151818401526020810190506108b0565b50505050905090810190601f1680156108f85780820380516001836020036101000a031916815260200191505b5086810385528a818151815260200191508051906020019080838360005b83811015610931578082015181840152602081019050610916565b50505050905090810190601f16801561095e5780820380516001836020036101000a031916815260200191505b50868103845289818151815260200191508051906020019080838360005b8381101561099757808201518184015260208101905061097c565b50505050905090810190601f1680156109c45780820380516001836020036101000a031916815260200191505b50868103835288818151815260200191508051906020019080838360005b838110156109fd5780820151818401526020810190506109e2565b50505050905090810190601f168015610a2a5780820380516001836020036101000a031916815260200191505b50868103825287818151815260200191508051906020019080838360005b83811015610a63578082015181840152602081019050610a48565b50505050905090810190601f168015610a905780820380516001836020036101000a031916815260200191505b509b50505050505050505050505060405180910390f35b610c1760048036036060811015610abd57600080fd5b81019080803573ffffffffffffffffffffffffffffffffffffffff16906020019092919080359060200190640100000000811115610afa57600080fd5b820183602082011115610b0c57600080fd5b80359060200191846001830284011164010000000083111715610b2e57600080fd5b91908080601f016020809104026020016040519081016040528093929190818152602001838380828437600081840152601f19601f82011690508083019250505050505050919291929080359060200190640100000000811115610b9157600080fd5b820183602082011115610ba357600080fd5b80359060200191846001830284011164010000000083111715610bc557600080fd5b91908080601f016020809104026020016040519081016040528093929190818152602001838380828437600081840152601f19601f820116905080830192505050505050509192919290505050612112565b604051808215151515815260200191505060405180910390f35b610da160048036036060811015610c4757600080fd5b81019080803573ffffffffffffffffffffffffffffffffffffffff16906020019092919080359060200190640100000000811115610c8457600080fd5b820183602082011115610c9657600080fd5b80359060200191846001830284011164010000000083111715610cb857600080fd5b91908080601f016020809104026020016040519081016040528093929190818152602001838380828437600081840152601f19601f82011690508083019250505050505050919291929080359060200190640100000000811115610d1b57600080fd5b820183602082011115610d2d57600080fd5b80359060200191846001830284011164010000000083111715610d4f57600080fd5b91908080601f016020809104026020016040519081016040528093929190818152602001838380828437600081840152601f19601f8201169050808301925050505050505091929192905050506121cb565b604051808215151515815260200191505060405180910390f35b610dfd60048036036020811015610dd157600080fd5b81019080803573ffffffffffffffffffffffffffffffffffffffff169060200190929190505050612284565b6040518082815260200191505060405180910390f35b610f8360048036036060811015610e2957600080fd5b81019080803573ffffffffffffffffffffffffffffffffffffffff16906020019092919080359060200190640100000000811115610e6657600080fd5b820183602082011115610e7857600080fd5b80359060200191846001830284011164010000000083111715610e9a57600080fd5b91908080601f016020809104026020016040519081016040528093929190818152602001838380828437600081840152601f19601f82011690508083019250505050505050919291929080359060200190640100000000811115610efd57600080fd5b820183602082011115610f0f57600080fd5b80359060200191846001830284011164010000000083111715610f3157600080fd5b91908080601f016020809104026020016040519081016040528093929190818152602001838380828437600081840152601f19601f820116905080830192505050505050509192919290505050612b52565b604051808215151515815260200191505060405180910390f35b6112d2600480360360c0811015610fb357600080fd5b81019080803573ffffffffffffffffffffffffffffffffffffffff16906020019092919080359060200190640100000000811115610ff057600080fd5b82018360208201111561100257600080fd5b8035906020019184600183028401116401000000008311171561102457600080fd5b91908080601f016020809104026020016040519081016040528093929190818152602001838380828437600081840152601f19601f8201169050808301925050505050505091929192908035906020019064010000000081111561108757600080fd5b82018360208201111561109957600080fd5b803590602001918460018302840111640100000000831117156110bb57600080fd5b91908080601f016020809104026020016040519081016040528093929190818152602001838380828437600081840152601f19601f8201169050808301925050505050505091929192908035906020019064010000000081111561111e57600080fd5b82018360208201111561113057600080fd5b8035906020019184600183028401116401000000008311171561115257600080fd5b91908080601f016020809104026020016040519081016040528093929190818152602001838380828437600081840152601f19601f820116905080830192505050505050509192919290803590602001906401000000008111156111b557600080fd5b8201836020820111156111c757600080fd5b803590602001918460018302840111640100000000831117156111e957600080fd5b91908080601f016020809104026020016040519081016040528093929190818152602001838380828437600081840152601f19601f8201169050808301925050505050505091929192908035906020019064010000000081111561124c57600080fd5b82018360208201111561125e57600080fd5b8035906020019184600183028401116401000000008311171561128057600080fd5b91908080601f016020809104026020016040519081016040528093929190818152602001838380828437600081840152601f19601f820116905080830192505050505050509192919290505050612c0b565b6040518082815260200191505060405180910390f35b6112f0613053565b6040518082815260200191505060405180910390f35b6114766004803603606081101561131c57600080fd5b81019080803573ffffffffffffffffffffffffffffffffffffffff1690602001909291908035906020019064010000000081111561135957600080fd5b82018360208201111561136b57600080fd5b8035906020019184600183028401116401000000008311171561138d57600080fd5b91908080601f016020809104026020016040519081016040528093929190818152602001838380828437600081840152601f19601f820116905080830192505050505050509192919290803590602001906401000000008111156113f057600080fd5b82018360208201111561140257600080fd5b8035906020019184600183028401116401000000008311171561142457600080fd5b91908080601f016020809104026020016040519081016040528093929190818152602001838380828437600081840152601f19601f820116905080830192505050505050509192919290505050613060565b604051808215151515815260200191505060405180910390f35b6000826000808673ffffffffffffffffffffffffffffffffffffffff1673ffffffffffffffffffffffffffffffffffffffff16815260200190815260200160002060080190805190602001906114e7929190613119565b50816000808673ffffffffffffffffffffffffffffffffffffffff1673ffffffffffffffffffffffffffffffffffffffff168152602001908152602001600020600701908051906020019061153d929190613119565b50600190509392505050565b6000836000808773ffffffffffffffffffffffffffffffffffffffff1673ffffffffffffffffffffffffffffffffffffffff16815260200190815260200160002060060190805190602001906115a0929190613119565b50826000808773ffffffffffffffffffffffffffffffffffffffff1673ffffffffffffffffffffffffffffffffffffffff16815260200190815260200160002060070190805190602001906115f6929190613119565b50816000808773ffffffffffffffffffffffffffffffffffffffff1673ffffffffffffffffffffffffffffffffffffffff168152602001908152602001600020600801908051906020019061164c929190613119565b506001808690806001815401808255809150509060018203906000526020600020016000909192909190916101000a81548173ffffffffffffffffffffffffffffffffffffffff021916908373ffffffffffffffffffffffffffffffffffffffff160217905550036000808773ffffffffffffffffffffffffffffffffffffffff1673ffffffffffffffffffffffffffffffffffffffff168152602001908152602001600020600901819055507f468e8b0d121a458de732c099ec24f8967ccbe5d6e91a9010ded2cb13c47143d5858585856000808b73ffffffffffffffffffffffffffffffffffffffff1673ffffffffffffffffffffffffffffffffffffffff16815260200190815260200160002060090154604051808673ffffffffffffffffffffffffffffffffffffffff1673ffffffffffffffffffffffffffffffffffffffff168152602001806020018060200180602001858152602001848103845288818151815260200191508051906020019080838360005b838110156117e05780820151818401526020810190506117c5565b50505050905090810190601f16801561180d5780820380516001836020036101000a031916815260200191505b50848103835287818151815260200191508051906020019080838360005b8381101561184657808201518184015260208101905061182b565b50505050905090810190601f1680156118735780820380516001836020036101000a031916815260200191505b50848103825286818151815260200191508051906020019080838360005b838110156118ac578082015181840152602081019050611891565b50505050905090810190601f1680156118d95780820380516001836020036101000a031916815260200191505b509850505050505050505060405180910390a160018080549050039050949350505050565b60608060606000808573ffffffffffffffffffffffffffffffffffffffff1673ffffffffffffffffffffffffffffffffffffffff1681526020019081526020016000206006016000808673ffffffffffffffffffffffffffffffffffffffff1673ffffffffffffffffffffffffffffffffffffffff1681526020019081526020016000206007016000808773ffffffffffffffffffffffffffffffffffffffff1673ffffffffffffffffffffffffffffffffffffffff168152602001908152602001600020600801828054600181600116156101000203166002900480601f016020809104026020016040519081016040528092919081815260200182805460018160011615610100020316600290048015611a5b5780601f10611a3057610100808354040283529160200191611a5b565b820191906000526020600020905b815481529060010190602001808311611a3e57829003601f168201915b50505050509250818054600181600116156101000203166002900480601f016020809104026020016040519081016040528092919081815260200182805460018160011615610100020316600290048015611af75780601f10611acc57610100808354040283529160200191611af7565b820191906000526020600020905b815481529060010190602001808311611ada57829003601f168201915b50505050509150808054600181600116156101000203166002900480601f016020809104026020016040519081016040528092919081815260200182805460018160011615610100020316600290048015611b935780601f10611b6857610100808354040283529160200191611b93565b820191906000526020600020905b815481529060010190602001808311611b7657829003601f168201915b505050505090509250925092509193909250565b600060018281548110611bb657fe5b9060005260206000200160009054906101000a900473ffffffffffffffffffffffffffffffffffffffff169050919050565b6000826000808673ffffffffffffffffffffffffffffffffffffffff1673ffffffffffffffffffffffffffffffffffffffff1681526020019081526020016000206004019080519060200190611c3f929190613119565b50816000808673ffffffffffffffffffffffffffffffffffffffff1673ffffffffffffffffffffffffffffffffffffffff1681526020019081526020016000206007019080519060200190611c95929190613119565b50600190509392505050565b60006060806060806060866000808973ffffffffffffffffffffffffffffffffffffffff1673ffffffffffffffffffffffffffffffffffffffff1681526020019081526020016000206001016000808a73ffffffffffffffffffffffffffffffffffffffff1673ffffffffffffffffffffffffffffffffffffffff1681526020019081526020016000206003016000808b73ffffffffffffffffffffffffffffffffffffffff1673ffffffffffffffffffffffffffffffffffffffff1681526020019081526020016000206002016000808c73ffffffffffffffffffffffffffffffffffffffff1673ffffffffffffffffffffffffffffffffffffffff1681526020019081526020016000206004016000808d73ffffffffffffffffffffffffffffffffffffffff1673ffffffffffffffffffffffffffffffffffffffff168152602001908152602001600020600501848054600181600116156101000203166002900480601f016020809104026020016040519081016040528092919081815260200182805460018160011615610100020316600290048015611e865780601f10611e5b57610100808354040283529160200191611e86565b820191906000526020600020905b815481529060010190602001808311611e6957829003601f168201915b50505050509450838054600181600116156101000203166002900480601f016020809104026020016040519081016040528092919081815260200182805460018160011615610100020316600290048015611f225780601f10611ef757610100808354040283529160200191611f22565b820191906000526020600020905b815481529060010190602001808311611f0557829003601f168201915b50505050509350828054600181600116156101000203166002900480601f016020809104026020016040519081016040528092919081815260200182805460018160011615610100020316600290048015611fbe5780601f10611f9357610100808354040283529160200191611fbe565b820191906000526020600020905b815481529060010190602001808311611fa157829003601f168201915b50505050509250818054600181600116156101000203166002900480601f01602080910402602001604051908101604052809291908181526020018280546001816001161561010002031660029004801561205a5780601f1061202f5761010080835404028352916020019161205a565b820191906000526020600020905b81548152906001019060200180831161203d57829003601f168201915b50505050509150808054600181600116156101000203166002900480601f0160208091040260200160405190810160405280929190818152602001828054600181600116156101000203166002900480156120f65780601f106120cb576101008083540402835291602001916120f6565b820191906000526020600020905b8154815290600101906020018083116120d957829003601f168201915b5050505050905095509550955095509550955091939550919395565b6000826000808673ffffffffffffffffffffffffffffffffffffffff1673ffffffffffffffffffffffffffffffffffffffff1681526020019081526020016000206005019080519060200190612169929190613119565b50816000808673ffffffffffffffffffffffffffffffffffffffff1673ffffffffffffffffffffffffffffffffffffffff16815260200190815260200160002060070190805190602001906121bf929190613119565b50600190509392505050565b6000826000808673ffffffffffffffffffffffffffffffffffffffff1673ffffffffffffffffffffffffffffffffffffffff1681526020019081526020016000206002019080519060200190612222929190613119565b50816000808673ffffffffffffffffffffffffffffffffffffffff1673ffffffffffffffffffffffffffffffffffffffff1681526020019081526020016000206007019080519060200190612278929190613119565b50600190509392505050565b6000806000808473ffffffffffffffffffffffffffffffffffffffff1673ffffffffffffffffffffffffffffffffffffffff1681526020019081526020016000206009015490506000600180808054905003815481106122e057fe5b9060005260206000200160009054906101000a900473ffffffffffffffffffffffffffffffffffffffff169050806001838154811061231b57fe5b9060005260206000200160006101000a81548173ffffffffffffffffffffffffffffffffffffffff021916908373ffffffffffffffffffffffffffffffffffffffff160217905550816000808373ffffffffffffffffffffffffffffffffffffffff1673ffffffffffffffffffffffffffffffffffffffff1681526020019081526020016000206009018190555060018054809190600190036123be9190613199565b507fc46e1937682a3bcd3f521f67c791662fb55a9364331f1f75967495078197ca348483604051808373ffffffffffffffffffffffffffffffffffffffff1673ffffffffffffffffffffffffffffffffffffffff1681526020018281526020019250505060405180910390a17f88f312ee34af332e69c842a7b1e9b6948c6aa62698189ab4787ce92dc1058aa5816000808473ffffffffffffffffffffffffffffffffffffffff1673ffffffffffffffffffffffffffffffffffffffff1681526020019081526020016000206001016000808573ffffffffffffffffffffffffffffffffffffffff1673ffffffffffffffffffffffffffffffffffffffff1681526020019081526020016000206003016000808673ffffffffffffffffffffffffffffffffffffffff1673ffffffffffffffffffffffffffffffffffffffff1681526020019081526020016000206002016000808773ffffffffffffffffffffffffffffffffffffffff1673ffffffffffffffffffffffffffffffffffffffff1681526020019081526020016000206004016000808873ffffffffffffffffffffffffffffffffffffffff1673ffffffffffffffffffffffffffffffffffffffff168152602001908152602001600020600501604051808773ffffffffffffffffffffffffffffffffffffffff1673ffffffffffffffffffffffffffffffffffffffff168152602001806020018060200180602001806020018060200186810386528b81815460018160011615610100020316600290048152602001915080546001816001161561010002031660029004801561265c5780601f106126315761010080835404028352916020019161265c565b820191906000526020600020905b81548152906001019060200180831161263f57829003601f168201915b505086810385528a8181546001816001161561010002031660029004815260200191508054600181600116156101000203166002900480156126df5780601f106126b4576101008083540402835291602001916126df565b820191906000526020600020905b8154815290600101906020018083116126c257829003601f168201915b50508681038452898181546001816001161561010002031660029004815260200191508054600181600116156101000203166002900480156127625780601f1061273757610100808354040283529160200191612762565b820191906000526020600020905b81548152906001019060200180831161274557829003601f168201915b50508681038352888181546001816001161561010002031660029004815260200191508054600181600116156101000203166002900480156127e55780601f106127ba576101008083540402835291602001916127e5565b820191906000526020600020905b8154815290600101906020018083116127c857829003601f168201915b50508681038252878181546001816001161561010002031660029004815260200191508054600181600116156101000203166002900480156128685780601f1061283d57610100808354040283529160200191612868565b820191906000526020600020905b81548152906001019060200180831161284b57829003601f168201915b50509b50505050505050505050505060405180910390a17f32cdbb489a131fffa830bed5382374e002b5177b4c5845276fc5d9903855c22a816000808473ffffffffffffffffffffffffffffffffffffffff1673ffffffffffffffffffffffffffffffffffffffff1681526020019081526020016000206006016000808573ffffffffffffffffffffffffffffffffffffffff1673ffffffffffffffffffffffffffffffffffffffff1681526020019081526020016000206007016000808673ffffffffffffffffffffffffffffffffffffffff1673ffffffffffffffffffffffffffffffffffffffff16815260200190815260200160002060080186604051808673ffffffffffffffffffffffffffffffffffffffff1673ffffffffffffffffffffffffffffffffffffffff168152602001806020018060200180602001858152602001848103845288818154600181600116156101000203166002900481526020019150805460018160011615610100020316600290048015612a2e5780601f10612a0357610100808354040283529160200191612a2e565b820191906000526020600020905b815481529060010190602001808311612a1157829003601f168201915b5050848103835287818154600181600116156101000203166002900481526020019150805460018160011615610100020316600290048015612ab15780601f10612a8657610100808354040283529160200191612ab1565b820191906000526020600020905b815481529060010190602001808311612a9457829003601f168201915b5050848103825286818154600181600116156101000203166002900481526020019150805460018160011615610100020316600290048015612b345780601f10612b0957610100808354040283529160200191612b34565b820191906000526020600020905b815481529060010190602001808311612b1757829003601f168201915b50509850505050505050505060405180910390a18192505050919050565b6000826000808673ffffffffffffffffffffffffffffffffffffffff1673ffffffffffffffffffffffffffffffffffffffff1681526020019081526020016000206001019080519060200190612ba9929190613119565b50816000808673ffffffffffffffffffffffffffffffffffffffff1673ffffffffffffffffffffffffffffffffffffffff1681526020019081526020016000206007019080519060200190612bff929190613119565b50600190509392505050565b6000856000808973ffffffffffffffffffffffffffffffffffffffff1673ffffffffffffffffffffffffffffffffffffffff1681526020019081526020016000206001019080519060200190612c62929190613119565b50846000808973ffffffffffffffffffffffffffffffffffffffff1673ffffffffffffffffffffffffffffffffffffffff1681526020019081526020016000206002019080519060200190612cb8929190613119565b50836000808973ffffffffffffffffffffffffffffffffffffffff1673ffffffffffffffffffffffffffffffffffffffff1681526020019081526020016000206003019080519060200190612d0e929190613119565b50826000808973ffffffffffffffffffffffffffffffffffffffff1673ffffffffffffffffffffffffffffffffffffffff1681526020019081526020016000206004019080519060200190612d64929190613119565b50816000808973ffffffffffffffffffffffffffffffffffffffff1673ffffffffffffffffffffffffffffffffffffffff1681526020019081526020016000206005019080519060200190612dba929190613119565b507f2485da60ba63125387f0ead9db4c1ae526b7bc04c636b837ceb55dee55c4799d878787878787604051808773ffffffffffffffffffffffffffffffffffffffff1673ffffffffffffffffffffffffffffffffffffffff168152602001806020018060200180602001806020018060200186810386528b818151815260200191508051906020019080838360005b83811015612e64578082015181840152602081019050612e49565b50505050905090810190601f168015612e915780820380516001836020036101000a031916815260200191505b5086810385528a818151815260200191508051906020019080838360005b83811015612eca578082015181840152602081019050612eaf565b50505050905090810190601f168015612ef75780820380516001836020036101000a031916815260200191505b50868103845289818151815260200191508051906020019080838360005b83811015612f30578082015181840152602081019050612f15565b50505050905090810190601f168015612f5d5780820380516001836020036101000a031916815260200191505b50868103835288818151815260200191508051906020019080838360005b83811015612f96578082015181840152602081019050612f7b565b50505050905090810190601f168015612fc35780820380516001836020036101000a031916815260200191505b50868103825287818151815260200191508051906020019080838360005b83811015612ffc578082015181840152602081019050612fe1565b50505050905090810190601f1680156130295780820380516001836020036101000a031916815260200191505b509b50505050505050505050505060405180910390a1600180805490500390509695505050505050565b6000600180549050905090565b6000826000808673ffffffffffffffffffffffffffffffffffffffff1673ffffffffffffffffffffffffffffffffffffffff16815260200190815260200160002060030190805190602001906130b7929190613119565b50816000808673ffffffffffffffffffffffffffffffffffffffff1673ffffffffffffffffffffffffffffffffffffffff168152602001908152602001600020600701908051906020019061310d929190613119565b50600190509392505050565b828054600181600116156101000203166002900490600052602060002090601f016020900481019282601f1061315a57805160ff1916838001178555613188565b82800160010185558215613188579182015b8281111561318757825182559160200191906001019061316c565b5b50905061319591906131c5565b5090565b8154818355818111156131c0578183600052602060002091820191016131bf91906131c5565b5b505050565b6131e791905b808211156131e35760008160009055506001016131cb565b5090565b9056fea165627a7a72305820529cd190bf1e1c61cc27e8308effc049848c8485fc7330d1685c6eaf73935fce0029",
  "source": "pragma solidity >=0.4.21 <0.6.0;\n\ncontract SchoolStorage {\n    //eventInsert\n    struct School {\n        address SchoolAddress;\n        // string id;\n        string name;\n        string addr;\n        string email;\n        string fax;\n        string phone;\n\n        string createdTime;\n        string modifiedTime;\n        string islocked;\n        uint256 index;\n    }\n    event SetSchoolEvent(\n        address _schoolAddress,\n        // string _id,\n        string _name,\n        string _addr,\n        string _email,\n        string _fax,\n        string _phone);\n\n    event SetSchoolAdditionEvent(\n        address _schoolAddress,\n        string _createdTime,\n        string _modifiedTime,\n        string _isLocked,\n        uint256 _index);\n\n    //eventUpdate\n    event SetLogUpdateSchoolEvent(\n        address _schoolAddress,\n        // string _id,\n        string _name,\n        string _addr,\n        string _email,\n        string _fax,\n        string _phone);\n\n    event SetLogUpdateSchoolAdditionEvent(\n        address _schoolAddress,\n        string _createdTime,\n        string _modifiedTime,\n        string _isLocked,\n        uint256 _index);\n\n    //eventDelete\n    event SetLogDeleteSchool(\n        address _schoolAddress,\n        uint256 index);\n\n    mapping(address => School) SchoolStructsMap;\n\n    address[] SchoolIndex;\n\n    // function isSchool(address _schoolAddress) public view returns(bool isIndeed) {\n    //     if(SchoolIndex.length == 0) return false;\n    //     return (SchoolIndex[SchoolStructsMap[_schoolAddress].index] == _schoolAddress);\n    // }\n\n    function insertSchool(\n        address _schoolAddress,\n        // string memory _id,\n        string memory _name,\n        string memory _addr,\n        string memory _email,\n        string memory _fax,\n        string memory _phone\n        )\n        public returns(uint256 index){\n            // SchoolStructsMap[_schoolAddress].id = _id;\n            SchoolStructsMap[_schoolAddress].name = _name;\n            SchoolStructsMap[_schoolAddress].addr = _addr;\n            SchoolStructsMap[_schoolAddress].email = _email;\n            SchoolStructsMap[_schoolAddress].fax = _fax;\n            SchoolStructsMap[_schoolAddress].phone = _phone;\n\n            emit SetSchoolEvent(_schoolAddress, _name, _addr, _email, _fax, _phone);\n        return SchoolIndex.length-1;\n    }\n\n    function insertSchoolAddition(\n        address _schoolAddress,\n        string memory _createdTime,\n        string memory _modifiedTime,\n        string memory _islocked\n        )\n        public returns(uint256 index){\n            SchoolStructsMap[_schoolAddress].createdTime = _createdTime;\n            SchoolStructsMap[_schoolAddress].modifiedTime = _modifiedTime;\n            SchoolStructsMap[_schoolAddress].islocked = _islocked;\n            SchoolStructsMap[_schoolAddress].index = SchoolIndex.push(_schoolAddress)-1;\n\n        emit SetSchoolAdditionEvent(\n            _schoolAddress,\n            _createdTime,\n            _modifiedTime,\n            _islocked,\n            SchoolStructsMap[_schoolAddress].index);\n        return SchoolIndex.length-1;\n    }\n\n    function deleteSchool(address _schoolAddress) public returns(uint256 index){\n        uint256 rowToDelete = SchoolStructsMap[_schoolAddress].index;\n        address keyToMove = SchoolIndex[SchoolIndex.length-1];\n        SchoolIndex[rowToDelete] = keyToMove; //vi tri can delete = vi tri cuoi ds\n        SchoolStructsMap[keyToMove].index = rowToDelete;\n\n        SchoolIndex.length--;\n        emit SetLogDeleteSchool(\n            _schoolAddress,\n            rowToDelete);\n\n        emit SetLogUpdateSchoolEvent(\n            keyToMove,\n            // SchoolStructsMap[keyToMove].id,\n            SchoolStructsMap[keyToMove].name,\n            SchoolStructsMap[keyToMove].email,\n            SchoolStructsMap[keyToMove].addr,\n            SchoolStructsMap[keyToMove].fax,\n            SchoolStructsMap[keyToMove].phone\n            );\n        emit SetLogUpdateSchoolAdditionEvent(\n            keyToMove,\n            SchoolStructsMap[keyToMove].createdTime,\n            SchoolStructsMap[keyToMove].modifiedTime,\n            SchoolStructsMap[keyToMove].islocked,\n            rowToDelete\n            );\n        return rowToDelete;\n    }\n\n    function getSchool(address _schoolAddress) public view returns(\n            address SchoolAddress,\n            // string memory id,\n            string memory name,\n            string memory email,\n            string memory addr,\n            string memory fax,\n            string memory phone\n            ){\n            return(\n                _schoolAddress,\n                // SchoolStructsMap[_schoolAddress].id,\n                SchoolStructsMap[_schoolAddress].name,\n                SchoolStructsMap[_schoolAddress].email,\n                SchoolStructsMap[_schoolAddress].addr,\n                SchoolStructsMap[_schoolAddress].fax,\n                SchoolStructsMap[_schoolAddress].phone);\n    }\n\n    function getSchoolAddition(address _schoolAddress) public view returns(\n        string memory _createdTime,\n        string memory _modifiedTime,\n        string memory _islocked\n        ){\n        return(\n            SchoolStructsMap[_schoolAddress].createdTime,\n            SchoolStructsMap[_schoolAddress].modifiedTime,\n            SchoolStructsMap[_schoolAddress].islocked);\n    }\n\n    // UPDATE\n\n\n    function updateFullName(address _schoolAddress, string  memory  _name, string memory _modifiedTime)\n    public returns(bool success) {\n        SchoolStructsMap[_schoolAddress].name = _name;\n        SchoolStructsMap[_schoolAddress].modifiedTime = _modifiedTime;\n        return true;\n    }\n\n    function updateEmail(address _schoolAddress, string  memory  _email, string memory _modifiedTime)\n    public returns(bool success) {\n        SchoolStructsMap[_schoolAddress].email = _email;\n        SchoolStructsMap[_schoolAddress].modifiedTime = _modifiedTime;\n        return true;\n    }\n\n    function updateAddr(address _schoolAddress, string  memory  _addr, string memory _modifiedTime)\n        public returns(bool success) {\n        SchoolStructsMap[_schoolAddress].addr = _addr;\n        SchoolStructsMap[_schoolAddress].modifiedTime = _modifiedTime;\n        return true;\n    }\n\n    function updateFax(address _schoolAddress, string memory _fax, string memory _modifiedTime)\n        public returns(bool success) {\n        SchoolStructsMap[_schoolAddress].fax = _fax;\n        SchoolStructsMap[_schoolAddress].modifiedTime = _modifiedTime;\n        return true;\n    }\n\n    function updatePhone(address _schoolAddress, string memory  _phone, string memory _modifiedTime)\n        public returns(bool success) {\n        SchoolStructsMap[_schoolAddress].phone = _phone;\n        SchoolStructsMap[_schoolAddress].modifiedTime = _modifiedTime;\n        return true;\n    }\n\n    function updateIslocked(address _schoolAddress, string  memory  _islocked, string memory _modifiedTime)\n    public returns(bool success) {\n        SchoolStructsMap[_schoolAddress].islocked = _islocked;\n        SchoolStructsMap[_schoolAddress].modifiedTime = _modifiedTime;\n        return true;\n    }\n\n    function getSchoolCount() public view returns(uint256 count){\n            return SchoolIndex.length;\n        }\n\n    function getSchoolAtIndex(uint256 _index) public view returns(address SchoolAddress) {\n        return SchoolIndex[_index];\n    }\n\n}",
  "sourcePath": "C:/xampp/htdocs/B/blockchaindemo/TG_UNIVERSITY_CERTIFICATE_VERIFICATION_SERVER/contracts/School.sol",
  "compiler": {
    "name": "solc",
    "version": "0.5.8+commit.23d335f2.Emscripten.clang"
  },
  "schemaVersion": "3.0.11",
  "updatedAt": "2019-07-03T10:06:35.293Z",
  "devdoc": {
    "methods": {}
  },
  "userdoc": {
    "methods": {}
  }
}