{
  "contractName": "SchoolStorage",
  "abi": [
    {
      "anonymous": false,
      "inputs": [
        {
          "indexed": false,
          "name": "_schoolAddress",
          "type": "address"
        },
        {
          "indexed": false,
          "name": "_id",
          "type": "string"
        },
        {
          "indexed": false,
          "name": "_name",
          "type": "string"
        },
        {
          "indexed": false,
          "name": "_addr",
          "type": "string"
        },
        {
          "indexed": false,
          "name": "_email",
          "type": "string"
        },
        {
          "indexed": false,
          "name": "_fax",
          "type": "uint256"
        },
        {
          "indexed": false,
          "name": "_phone",
          "type": "uint256"
        }
      ],
      "name": "SetSchoolEvent",
      "type": "event"
    },
    {
      "anonymous": false,
      "inputs": [
        {
          "indexed": false,
          "name": "_schoolAddress",
          "type": "address"
        },
        {
          "indexed": false,
          "name": "_createdTime",
          "type": "string"
        },
        {
          "indexed": false,
          "name": "_modifiedTime",
          "type": "string"
        },
        {
          "indexed": false,
          "name": "_isLocked",
          "type": "string"
        },
        {
          "indexed": false,
          "name": "_index",
          "type": "uint256"
        }
      ],
      "name": "SetSchoolAdditionEvent",
      "type": "event"
    },
    {
      "anonymous": false,
      "inputs": [
        {
          "indexed": false,
          "name": "_schoolAddress",
          "type": "address"
        },
        {
          "indexed": false,
          "name": "_id",
          "type": "string"
        },
        {
          "indexed": false,
          "name": "_name",
          "type": "string"
        },
        {
          "indexed": false,
          "name": "_addr",
          "type": "string"
        },
        {
          "indexed": false,
          "name": "_email",
          "type": "string"
        },
        {
          "indexed": false,
          "name": "_fax",
          "type": "uint256"
        },
        {
          "indexed": false,
          "name": "_phone",
          "type": "uint256"
        }
      ],
      "name": "SetLogUpdateSchoolEvent",
      "type": "event"
    },
    {
      "anonymous": false,
      "inputs": [
        {
          "indexed": false,
          "name": "_schoolAddress",
          "type": "address"
        },
        {
          "indexed": false,
          "name": "_createdTime",
          "type": "string"
        },
        {
          "indexed": false,
          "name": "_modifiedTime",
          "type": "string"
        },
        {
          "indexed": false,
          "name": "_isLocked",
          "type": "string"
        },
        {
          "indexed": false,
          "name": "_index",
          "type": "uint256"
        }
      ],
      "name": "SetLogUpdateSchoolAdditionEvent",
      "type": "event"
    },
    {
      "anonymous": false,
      "inputs": [
        {
          "indexed": false,
          "name": "_schoolAddress",
          "type": "address"
        },
        {
          "indexed": false,
          "name": "index",
          "type": "uint256"
        }
      ],
      "name": "SetLogDeleteSchool",
      "type": "event"
    },
    {
      "constant": false,
      "inputs": [
        {
          "name": "_schoolAddress",
          "type": "address"
        },
        {
          "name": "_id",
          "type": "string"
        },
        {
          "name": "_name",
          "type": "string"
        },
        {
          "name": "_addr",
          "type": "string"
        },
        {
          "name": "_email",
          "type": "string"
        },
        {
          "name": "_fax",
          "type": "uint256"
        },
        {
          "name": "_phone",
          "type": "uint256"
        }
      ],
      "name": "insertSchool",
      "outputs": [
        {
          "name": "index",
          "type": "uint256"
        }
      ],
      "payable": false,
      "stateMutability": "nonpayable",
      "type": "function"
    },
    {
      "constant": false,
      "inputs": [
        {
          "name": "_schoolAddress",
          "type": "address"
        },
        {
          "name": "_createdTime",
          "type": "string"
        },
        {
          "name": "_modifiedTime",
          "type": "string"
        },
        {
          "name": "_islocked",
          "type": "string"
        }
      ],
      "name": "insertSchoolAddition",
      "outputs": [
        {
          "name": "index",
          "type": "uint256"
        }
      ],
      "payable": false,
      "stateMutability": "nonpayable",
      "type": "function"
    },
    {
      "constant": false,
      "inputs": [
        {
          "name": "_schoolAddress",
          "type": "address"
        }
      ],
      "name": "deleteSchool",
      "outputs": [
        {
          "name": "index",
          "type": "uint256"
        }
      ],
      "payable": false,
      "stateMutability": "nonpayable",
      "type": "function"
    },
    {
      "constant": true,
      "inputs": [
        {
          "name": "_schoolAddress",
          "type": "address"
        }
      ],
      "name": "getSchool",
      "outputs": [
        {
          "name": "SchoolAddress",
          "type": "address"
        },
        {
          "name": "id",
          "type": "string"
        },
        {
          "name": "name",
          "type": "string"
        },
        {
          "name": "email",
          "type": "string"
        },
        {
          "name": "addr",
          "type": "string"
        },
        {
          "name": "fax",
          "type": "uint256"
        },
        {
          "name": "phone",
          "type": "uint256"
        }
      ],
      "payable": false,
      "stateMutability": "view",
      "type": "function"
    },
    {
      "constant": true,
      "inputs": [
        {
          "name": "_schoolAddress",
          "type": "address"
        }
      ],
      "name": "getSchoolAddition",
      "outputs": [
        {
          "name": "_createdTime",
          "type": "string"
        },
        {
          "name": "_modifiedTime",
          "type": "string"
        },
        {
          "name": "_islocked",
          "type": "string"
        }
      ],
      "payable": false,
      "stateMutability": "view",
      "type": "function"
    },
    {
      "constant": false,
      "inputs": [
        {
          "name": "_schoolAddress",
          "type": "address"
        },
        {
          "name": "_name",
          "type": "string"
        },
        {
          "name": "_modifiedTime",
          "type": "string"
        }
      ],
      "name": "updateFullName",
      "outputs": [
        {
          "name": "success",
          "type": "bool"
        }
      ],
      "payable": false,
      "stateMutability": "nonpayable",
      "type": "function"
    },
    {
      "constant": false,
      "inputs": [
        {
          "name": "_schoolAddress",
          "type": "address"
        },
        {
          "name": "_email",
          "type": "string"
        },
        {
          "name": "_modifiedTime",
          "type": "string"
        }
      ],
      "name": "updateEmail",
      "outputs": [
        {
          "name": "success",
          "type": "bool"
        }
      ],
      "payable": false,
      "stateMutability": "nonpayable",
      "type": "function"
    },
    {
      "constant": false,
      "inputs": [
        {
          "name": "_schoolAddress",
          "type": "address"
        },
        {
          "name": "_addr",
          "type": "string"
        },
        {
          "name": "_modifiedTime",
          "type": "string"
        }
      ],
      "name": "updateAddr",
      "outputs": [
        {
          "name": "success",
          "type": "bool"
        }
      ],
      "payable": false,
      "stateMutability": "nonpayable",
      "type": "function"
    },
    {
      "constant": false,
      "inputs": [
        {
          "name": "_schoolAddress",
          "type": "address"
        },
        {
          "name": "_fax",
          "type": "uint256"
        },
        {
          "name": "_modifiedTime",
          "type": "string"
        }
      ],
      "name": "updateFax",
      "outputs": [
        {
          "name": "success",
          "type": "bool"
        }
      ],
      "payable": false,
      "stateMutability": "nonpayable",
      "type": "function"
    },
    {
      "constant": false,
      "inputs": [
        {
          "name": "_schoolAddress",
          "type": "address"
        },
        {
          "name": "_phone",
          "type": "uint256"
        },
        {
          "name": "_modifiedTime",
          "type": "string"
        }
      ],
      "name": "updatePhone",
      "outputs": [
        {
          "name": "success",
          "type": "bool"
        }
      ],
      "payable": false,
      "stateMutability": "nonpayable",
      "type": "function"
    },
    {
      "constant": false,
      "inputs": [
        {
          "name": "_schoolAddress",
          "type": "address"
        },
        {
          "name": "_islocked",
          "type": "string"
        },
        {
          "name": "_modifiedTime",
          "type": "string"
        }
      ],
      "name": "updateIslocked",
      "outputs": [
        {
          "name": "success",
          "type": "bool"
        }
      ],
      "payable": false,
      "stateMutability": "nonpayable",
      "type": "function"
    },
    {
      "constant": true,
      "inputs": [],
      "name": "getSchoolCount",
      "outputs": [
        {
          "name": "count",
          "type": "uint256"
        }
      ],
      "payable": false,
      "stateMutability": "view",
      "type": "function"
    },
    {
      "constant": true,
      "inputs": [
        {
          "name": "_index",
          "type": "uint256"
        }
      ],
      "name": "getSchoolAtIndex",
      "outputs": [
        {
          "name": "SchoolAddress",
          "type": "address"
        }
      ],
      "payable": false,
      "stateMutability": "view",
      "type": "function"
    }
  ],
  "bytecode": "0x608060405234801561001057600080fd5b50612fee806100206000396000f3fe6080604052600436106100c4576000357c0100000000000000000000000000000000000000000000000000000000900463ffffffff168062835995146100c9578063059717d61461026057806323541fbc1461048a578063245620ce1461062c5780633532a018146106a757806339194eb4146107b15780634661c2a414610a005780636af18bd814610cd557806379c0f6b314610e6c5780638cecb2f214610ed1578063adc879d114611068578063c80bc5cf14611172578063cd2ea0041461119d575b600080fd5b3480156100d557600080fd5b50610246600480360360608110156100ec57600080fd5b81019080803573ffffffffffffffffffffffffffffffffffffffff1690602001909291908035906020019064010000000081111561012957600080fd5b82018360208201111561013b57600080fd5b8035906020019184600183028401116401000000008311171561015d57600080fd5b91908080601f016020809104026020016040519081016040528093929190818152602001838380828437600081840152601f19601f820116905080830192505050505050509192919290803590602001906401000000008111156101c057600080fd5b8201836020820111156101d257600080fd5b803590602001918460018302840111640100000000831117156101f457600080fd5b91908080601f016020809104026020016040519081016040528093929190818152602001838380828437600081840152601f19601f820116905080830192505050505050509192919290505050611334565b604051808215151515815260200191505060405180910390f35b34801561026c57600080fd5b506104746004803603608081101561028357600080fd5b81019080803573ffffffffffffffffffffffffffffffffffffffff169060200190929190803590602001906401000000008111156102c057600080fd5b8201836020820111156102d257600080fd5b803590602001918460018302840111640100000000831117156102f457600080fd5b91908080601f016020809104026020016040519081016040528093929190818152602001838380828437600081840152601f19601f8201169050808301925050505050505091929192908035906020019064010000000081111561035757600080fd5b82018360208201111561036957600080fd5b8035906020019184600183028401116401000000008311171561038b57600080fd5b91908080601f016020809104026020016040519081016040528093929190818152602001838380828437600081840152601f19601f820116905080830192505050505050509192919290803590602001906401000000008111156103ee57600080fd5b82018360208201111561040057600080fd5b8035906020019184600183028401116401000000008311171561042257600080fd5b91908080601f016020809104026020016040519081016040528093929190818152602001838380828437600081840152601f19601f8201169050808301925050505050505091929192905050506113ed565b6040518082815260200191505060405180910390f35b34801561049657600080fd5b506104d9600480360360208110156104ad57600080fd5b81019080803573ffffffffffffffffffffffffffffffffffffffff1690602001909291905050506117a2565b60405180806020018060200180602001848103845287818151815260200191508051906020019080838360005b83811015610521578082015181840152602081019050610506565b50505050905090810190601f16801561054e5780820380516001836020036101000a031916815260200191505b50848103835286818151815260200191508051906020019080838360005b8381101561058757808201518184015260208101905061056c565b50505050905090810190601f1680156105b45780820380516001836020036101000a031916815260200191505b50848103825285818151815260200191508051906020019080838360005b838110156105ed5780820151818401526020810190506105d2565b50505050905090810190601f16801561061a5780820380516001836020036101000a031916815260200191505b50965050505050505060405180910390f35b34801561063857600080fd5b506106656004803603602081101561064f57600080fd5b8101908080359060200190929190505050611a4b565b604051808273ffffffffffffffffffffffffffffffffffffffff1673ffffffffffffffffffffffffffffffffffffffff16815260200191505060405180910390f35b3480156106b357600080fd5b50610797600480360360608110156106ca57600080fd5b81019080803573ffffffffffffffffffffffffffffffffffffffff169060200190929190803590602001909291908035906020019064010000000081111561071157600080fd5b82018360208201111561072357600080fd5b8035906020019184600183028401116401000000008311171561074557600080fd5b91908080601f016020809104026020016040519081016040528093929190818152602001838380828437600081840152601f19601f820116905080830192505050505050509192919290505050611a8e565b604051808215151515815260200191505060405180910390f35b3480156107bd57600080fd5b50610800600480360360208110156107d457600080fd5b81019080803573ffffffffffffffffffffffffffffffffffffffff169060200190929190505050611b37565b604051808873ffffffffffffffffffffffffffffffffffffffff1673ffffffffffffffffffffffffffffffffffffffff1681526020018060200180602001806020018060200187815260200186815260200185810385528b818151815260200191508051906020019080838360005b8381101561088a57808201518184015260208101905061086f565b50505050905090810190601f1680156108b75780820380516001836020036101000a031916815260200191505b5085810384528a818151815260200191508051906020019080838360005b838110156108f05780820151818401526020810190506108d5565b50505050905090810190601f16801561091d5780820380516001836020036101000a031916815260200191505b50858103835289818151815260200191508051906020019080838360005b8381101561095657808201518184015260208101905061093b565b50505050905090810190601f1680156109835780820380516001836020036101000a031916815260200191505b50858103825288818151815260200191508051906020019080838360005b838110156109bc5780820151818401526020810190506109a1565b50505050905090810190601f1680156109e95780820380516001836020036101000a031916815260200191505b509b50505050505050505050505060405180910390f35b348015610a0c57600080fd5b50610cbf600480360360e0811015610a2357600080fd5b81019080803573ffffffffffffffffffffffffffffffffffffffff16906020019092919080359060200190640100000000811115610a6057600080fd5b820183602082011115610a7257600080fd5b80359060200191846001830284011164010000000083111715610a9457600080fd5b91908080601f016020809104026020016040519081016040528093929190818152602001838380828437600081840152601f19601f82011690508083019250505050505050919291929080359060200190640100000000811115610af757600080fd5b820183602082011115610b0957600080fd5b80359060200191846001830284011164010000000083111715610b2b57600080fd5b91908080601f016020809104026020016040519081016040528093929190818152602001838380828437600081840152601f19601f82011690508083019250505050505050919291929080359060200190640100000000811115610b8e57600080fd5b820183602082011115610ba057600080fd5b80359060200191846001830284011164010000000083111715610bc257600080fd5b91908080601f016020809104026020016040519081016040528093929190818152602001838380828437600081840152601f19601f82011690508083019250505050505050919291929080359060200190640100000000811115610c2557600080fd5b820183602082011115610c3757600080fd5b80359060200191846001830284011164010000000083111715610c5957600080fd5b91908080601f016020809104026020016040519081016040528093929190818152602001838380828437600081840152601f19601f8201169050808301925050505050505091929192908035906020019092919080359060200190929190505050611f54565b6040518082815260200191505060405180910390f35b348015610ce157600080fd5b50610e5260048036036060811015610cf857600080fd5b81019080803573ffffffffffffffffffffffffffffffffffffffff16906020019092919080359060200190640100000000811115610d3557600080fd5b820183602082011115610d4757600080fd5b80359060200191846001830284011164010000000083111715610d6957600080fd5b91908080601f016020809104026020016040519081016040528093929190818152602001838380828437600081840152601f19601f82011690508083019250505050505050919291929080359060200190640100000000811115610dcc57600080fd5b820183602082011115610dde57600080fd5b80359060200191846001830284011164010000000083111715610e0057600080fd5b91908080601f016020809104026020016040519081016040528093929190818152602001838380828437600081840152601f19601f820116905080830192505050505050509192919290505050612376565b604051808215151515815260200191505060405180910390f35b348015610e7857600080fd5b50610ebb60048036036020811015610e8f57600080fd5b81019080803573ffffffffffffffffffffffffffffffffffffffff16906020019092919050505061242f565b6040518082815260200191505060405180910390f35b348015610edd57600080fd5b5061104e60048036036060811015610ef457600080fd5b81019080803573ffffffffffffffffffffffffffffffffffffffff16906020019092919080359060200190640100000000811115610f3157600080fd5b820183602082011115610f4357600080fd5b80359060200191846001830284011164010000000083111715610f6557600080fd5b91908080601f016020809104026020016040519081016040528093929190818152602001838380828437600081840152601f19601f82011690508083019250505050505050919291929080359060200190640100000000811115610fc857600080fd5b820183602082011115610fda57600080fd5b80359060200191846001830284011164010000000083111715610ffc57600080fd5b91908080601f016020809104026020016040519081016040528093929190818152602001838380828437600081840152601f19601f820116905080830192505050505050509192919290505050612cc9565b604051808215151515815260200191505060405180910390f35b34801561107457600080fd5b506111586004803603606081101561108b57600080fd5b81019080803573ffffffffffffffffffffffffffffffffffffffff16906020019092919080359060200190929190803590602001906401000000008111156110d257600080fd5b8201836020820111156110e457600080fd5b8035906020019184600183028401116401000000008311171561110657600080fd5b91908080601f016020809104026020016040519081016040528093929190818152602001838380828437600081840152601f19601f820116905080830192505050505050509192919290505050612d82565b604051808215151515815260200191505060405180910390f35b34801561117e57600080fd5b50611187612e2b565b6040518082815260200191505060405180910390f35b3480156111a957600080fd5b5061131a600480360360608110156111c057600080fd5b81019080803573ffffffffffffffffffffffffffffffffffffffff169060200190929190803590602001906401000000008111156111fd57600080fd5b82018360208201111561120f57600080fd5b8035906020019184600183028401116401000000008311171561123157600080fd5b91908080601f016020809104026020016040519081016040528093929190818152602001838380828437600081840152601f19601f8201169050808301925050505050505091929192908035906020019064010000000081111561129457600080fd5b8201836020820111156112a657600080fd5b803590602001918460018302840111640100000000831117156112c857600080fd5b91908080601f016020809104026020016040519081016040528093929190818152602001838380828437600081840152601f19601f820116905080830192505050505050509192919290505050612e38565b604051808215151515815260200191505060405180910390f35b6000826000808673ffffffffffffffffffffffffffffffffffffffff1673ffffffffffffffffffffffffffffffffffffffff168152602001908152602001600020600901908051906020019061138b929190612ef1565b50816000808673ffffffffffffffffffffffffffffffffffffffff1673ffffffffffffffffffffffffffffffffffffffff16815260200190815260200160002060080190805190602001906113e1929190612ef1565b50600190509392505050565b6000836000808773ffffffffffffffffffffffffffffffffffffffff1673ffffffffffffffffffffffffffffffffffffffff1681526020019081526020016000206007019080519060200190611444929190612ef1565b50826000808773ffffffffffffffffffffffffffffffffffffffff1673ffffffffffffffffffffffffffffffffffffffff168152602001908152602001600020600801908051906020019061149a929190612ef1565b50816000808773ffffffffffffffffffffffffffffffffffffffff1673ffffffffffffffffffffffffffffffffffffffff16815260200190815260200160002060090190805190602001906114f0929190612ef1565b506001808690806001815401808255809150509060018203906000526020600020016000909192909190916101000a81548173ffffffffffffffffffffffffffffffffffffffff021916908373ffffffffffffffffffffffffffffffffffffffff160217905550036000808773ffffffffffffffffffffffffffffffffffffffff1673ffffffffffffffffffffffffffffffffffffffff168152602001908152602001600020600a01819055507f468e8b0d121a458de732c099ec24f8967ccbe5d6e91a9010ded2cb13c47143d5858585856000808b73ffffffffffffffffffffffffffffffffffffffff1673ffffffffffffffffffffffffffffffffffffffff168152602001908152602001600020600a0154604051808673ffffffffffffffffffffffffffffffffffffffff1673ffffffffffffffffffffffffffffffffffffffff168152602001806020018060200180602001858152602001848103845288818151815260200191508051906020019080838360005b83811015611684578082015181840152602081019050611669565b50505050905090810190601f1680156116b15780820380516001836020036101000a031916815260200191505b50848103835287818151815260200191508051906020019080838360005b838110156116ea5780820151818401526020810190506116cf565b50505050905090810190601f1680156117175780820380516001836020036101000a031916815260200191505b50848103825286818151815260200191508051906020019080838360005b83811015611750578082015181840152602081019050611735565b50505050905090810190601f16801561177d5780820380516001836020036101000a031916815260200191505b509850505050505050505060405180910390a160018080549050039050949350505050565b60608060606000808573ffffffffffffffffffffffffffffffffffffffff1673ffffffffffffffffffffffffffffffffffffffff1681526020019081526020016000206007016000808673ffffffffffffffffffffffffffffffffffffffff1673ffffffffffffffffffffffffffffffffffffffff1681526020019081526020016000206008016000808773ffffffffffffffffffffffffffffffffffffffff1673ffffffffffffffffffffffffffffffffffffffff168152602001908152602001600020600901828054600181600116156101000203166002900480601f0160208091040260200160405190810160405280929190818152602001828054600181600116156101000203166002900480156118ff5780601f106118d4576101008083540402835291602001916118ff565b820191906000526020600020905b8154815290600101906020018083116118e257829003601f168201915b50505050509250818054600181600116156101000203166002900480601f01602080910402602001604051908101604052809291908181526020018280546001816001161561010002031660029004801561199b5780601f106119705761010080835404028352916020019161199b565b820191906000526020600020905b81548152906001019060200180831161197e57829003601f168201915b50505050509150808054600181600116156101000203166002900480601f016020809104026020016040519081016040528092919081815260200182805460018160011615610100020316600290048015611a375780601f10611a0c57610100808354040283529160200191611a37565b820191906000526020600020905b815481529060010190602001808311611a1a57829003601f168201915b505050505090509250925092509193909250565b6000600182815481101515611a5c57fe5b9060005260206000200160009054906101000a900473ffffffffffffffffffffffffffffffffffffffff169050919050565b6000826000808673ffffffffffffffffffffffffffffffffffffffff1673ffffffffffffffffffffffffffffffffffffffff16815260200190815260200160002060060181905550816000808673ffffffffffffffffffffffffffffffffffffffff1673ffffffffffffffffffffffffffffffffffffffff1681526020019081526020016000206008019080519060200190611b2b929190612ef1565b50600190509392505050565b6000606080606080600080876000808a73ffffffffffffffffffffffffffffffffffffffff1673ffffffffffffffffffffffffffffffffffffffff1681526020019081526020016000206001016000808b73ffffffffffffffffffffffffffffffffffffffff1673ffffffffffffffffffffffffffffffffffffffff1681526020019081526020016000206002016000808c73ffffffffffffffffffffffffffffffffffffffff1673ffffffffffffffffffffffffffffffffffffffff1681526020019081526020016000206004016000808d73ffffffffffffffffffffffffffffffffffffffff1673ffffffffffffffffffffffffffffffffffffffff1681526020019081526020016000206003016000808e73ffffffffffffffffffffffffffffffffffffffff1673ffffffffffffffffffffffffffffffffffffffff168152602001908152602001600020600501546000808f73ffffffffffffffffffffffffffffffffffffffff1673ffffffffffffffffffffffffffffffffffffffff16815260200190815260200160002060060154858054600181600116156101000203166002900480601f016020809104026020016040519081016040528092919081815260200182805460018160011615610100020316600290048015611d605780601f10611d3557610100808354040283529160200191611d60565b820191906000526020600020905b815481529060010190602001808311611d4357829003601f168201915b50505050509550848054600181600116156101000203166002900480601f016020809104026020016040519081016040528092919081815260200182805460018160011615610100020316600290048015611dfc5780601f10611dd157610100808354040283529160200191611dfc565b820191906000526020600020905b815481529060010190602001808311611ddf57829003601f168201915b50505050509450838054600181600116156101000203166002900480601f016020809104026020016040519081016040528092919081815260200182805460018160011615610100020316600290048015611e985780601f10611e6d57610100808354040283529160200191611e98565b820191906000526020600020905b815481529060010190602001808311611e7b57829003601f168201915b50505050509350828054600181600116156101000203166002900480601f016020809104026020016040519081016040528092919081815260200182805460018160011615610100020316600290048015611f345780601f10611f0957610100808354040283529160200191611f34565b820191906000526020600020905b815481529060010190602001808311611f1757829003601f168201915b505050505092509650965096509650965096509650919395979092949650565b6000866000808a73ffffffffffffffffffffffffffffffffffffffff1673ffffffffffffffffffffffffffffffffffffffff1681526020019081526020016000206001019080519060200190611fab929190612ef1565b50856000808a73ffffffffffffffffffffffffffffffffffffffff1673ffffffffffffffffffffffffffffffffffffffff1681526020019081526020016000206002019080519060200190612001929190612ef1565b50846000808a73ffffffffffffffffffffffffffffffffffffffff1673ffffffffffffffffffffffffffffffffffffffff1681526020019081526020016000206003019080519060200190612057929190612ef1565b50836000808a73ffffffffffffffffffffffffffffffffffffffff1673ffffffffffffffffffffffffffffffffffffffff16815260200190815260200160002060040190805190602001906120ad929190612ef1565b50826000808a73ffffffffffffffffffffffffffffffffffffffff1673ffffffffffffffffffffffffffffffffffffffff16815260200190815260200160002060050181905550816000808a73ffffffffffffffffffffffffffffffffffffffff1673ffffffffffffffffffffffffffffffffffffffff168152602001908152602001600020600601819055507f563bdb38f0237449c9241cc08ca9fc83763de1b14ec6647e08f049f2e64c5d5288888888888888604051808873ffffffffffffffffffffffffffffffffffffffff1673ffffffffffffffffffffffffffffffffffffffff1681526020018060200180602001806020018060200187815260200186815260200185810385528b818151815260200191508051906020019080838360005b838110156121ec5780820151818401526020810190506121d1565b50505050905090810190601f1680156122195780820380516001836020036101000a031916815260200191505b5085810384528a818151815260200191508051906020019080838360005b83811015612252578082015181840152602081019050612237565b50505050905090810190601f16801561227f5780820380516001836020036101000a031916815260200191505b50858103835289818151815260200191508051906020019080838360005b838110156122b857808201518184015260208101905061229d565b50505050905090810190601f1680156122e55780820380516001836020036101000a031916815260200191505b50858103825288818151815260200191508051906020019080838360005b8381101561231e578082015181840152602081019050612303565b50505050905090810190601f16801561234b5780820380516001836020036101000a031916815260200191505b509b50505050505050505050505060405180910390a160018080549050039050979650505050505050565b6000826000808673ffffffffffffffffffffffffffffffffffffffff1673ffffffffffffffffffffffffffffffffffffffff16815260200190815260200160002060030190805190602001906123cd929190612ef1565b50816000808673ffffffffffffffffffffffffffffffffffffffff1673ffffffffffffffffffffffffffffffffffffffff1681526020019081526020016000206008019080519060200190612423929190612ef1565b50600190509392505050565b6000806000808473ffffffffffffffffffffffffffffffffffffffff1673ffffffffffffffffffffffffffffffffffffffff168152602001908152602001600020600a01549050600060018080805490500381548110151561248d57fe5b9060005260206000200160009054906101000a900473ffffffffffffffffffffffffffffffffffffffff169050806001838154811015156124ca57fe5b9060005260206000200160006101000a81548173ffffffffffffffffffffffffffffffffffffffff021916908373ffffffffffffffffffffffffffffffffffffffff160217905550816000808373ffffffffffffffffffffffffffffffffffffffff1673ffffffffffffffffffffffffffffffffffffffff168152602001908152602001600020600a0181905550600180548091906001900361256d9190612f71565b507fc46e1937682a3bcd3f521f67c791662fb55a9364331f1f75967495078197ca348483604051808373ffffffffffffffffffffffffffffffffffffffff1673ffffffffffffffffffffffffffffffffffffffff1681526020018281526020019250505060405180910390a17fe4f6c0b587edc9ff30762077a0db1a88e6dd251e1ec42d70002dcb5f91ab3028816000808473ffffffffffffffffffffffffffffffffffffffff1673ffffffffffffffffffffffffffffffffffffffff1681526020019081526020016000206001016000808573ffffffffffffffffffffffffffffffffffffffff1673ffffffffffffffffffffffffffffffffffffffff1681526020019081526020016000206002016000808673ffffffffffffffffffffffffffffffffffffffff1673ffffffffffffffffffffffffffffffffffffffff1681526020019081526020016000206004016000808773ffffffffffffffffffffffffffffffffffffffff1673ffffffffffffffffffffffffffffffffffffffff1681526020019081526020016000206003016000808873ffffffffffffffffffffffffffffffffffffffff1673ffffffffffffffffffffffffffffffffffffffff168152602001908152602001600020600501546000808973ffffffffffffffffffffffffffffffffffffffff1673ffffffffffffffffffffffffffffffffffffffff16815260200190815260200160002060060154604051808873ffffffffffffffffffffffffffffffffffffffff1673ffffffffffffffffffffffffffffffffffffffff1681526020018060200180602001806020018060200187815260200186815260200185810385528b8181546001816001161561010002031660029004815260200191508054600181600116156101000203166002900480156128565780601f1061282b57610100808354040283529160200191612856565b820191906000526020600020905b81548152906001019060200180831161283957829003601f168201915b505085810384528a8181546001816001161561010002031660029004815260200191508054600181600116156101000203166002900480156128d95780601f106128ae576101008083540402835291602001916128d9565b820191906000526020600020905b8154815290600101906020018083116128bc57829003601f168201915b505085810383528981815460018160011615610100020316600290048152602001915080546001816001161561010002031660029004801561295c5780601f106129315761010080835404028352916020019161295c565b820191906000526020600020905b81548152906001019060200180831161293f57829003601f168201915b50508581038252888181546001816001161561010002031660029004815260200191508054600181600116156101000203166002900480156129df5780601f106129b4576101008083540402835291602001916129df565b820191906000526020600020905b8154815290600101906020018083116129c257829003601f168201915b50509b50505050505050505050505060405180910390a17f32cdbb489a131fffa830bed5382374e002b5177b4c5845276fc5d9903855c22a816000808473ffffffffffffffffffffffffffffffffffffffff1673ffffffffffffffffffffffffffffffffffffffff1681526020019081526020016000206007016000808573ffffffffffffffffffffffffffffffffffffffff1673ffffffffffffffffffffffffffffffffffffffff1681526020019081526020016000206008016000808673ffffffffffffffffffffffffffffffffffffffff1673ffffffffffffffffffffffffffffffffffffffff16815260200190815260200160002060090186604051808673ffffffffffffffffffffffffffffffffffffffff1673ffffffffffffffffffffffffffffffffffffffff168152602001806020018060200180602001858152602001848103845288818154600181600116156101000203166002900481526020019150805460018160011615610100020316600290048015612ba55780601f10612b7a57610100808354040283529160200191612ba5565b820191906000526020600020905b815481529060010190602001808311612b8857829003601f168201915b5050848103835287818154600181600116156101000203166002900481526020019150805460018160011615610100020316600290048015612c285780601f10612bfd57610100808354040283529160200191612c28565b820191906000526020600020905b815481529060010190602001808311612c0b57829003601f168201915b5050848103825286818154600181600116156101000203166002900481526020019150805460018160011615610100020316600290048015612cab5780601f10612c8057610100808354040283529160200191612cab565b820191906000526020600020905b815481529060010190602001808311612c8e57829003601f168201915b50509850505050505050505060405180910390a18192505050919050565b6000826000808673ffffffffffffffffffffffffffffffffffffffff1673ffffffffffffffffffffffffffffffffffffffff1681526020019081526020016000206002019080519060200190612d20929190612ef1565b50816000808673ffffffffffffffffffffffffffffffffffffffff1673ffffffffffffffffffffffffffffffffffffffff1681526020019081526020016000206008019080519060200190612d76929190612ef1565b50600190509392505050565b6000826000808673ffffffffffffffffffffffffffffffffffffffff1673ffffffffffffffffffffffffffffffffffffffff16815260200190815260200160002060050181905550816000808673ffffffffffffffffffffffffffffffffffffffff1673ffffffffffffffffffffffffffffffffffffffff1681526020019081526020016000206008019080519060200190612e1f929190612ef1565b50600190509392505050565b6000600180549050905090565b6000826000808673ffffffffffffffffffffffffffffffffffffffff1673ffffffffffffffffffffffffffffffffffffffff1681526020019081526020016000206004019080519060200190612e8f929190612ef1565b50816000808673ffffffffffffffffffffffffffffffffffffffff1673ffffffffffffffffffffffffffffffffffffffff1681526020019081526020016000206008019080519060200190612ee5929190612ef1565b50600190509392505050565b828054600181600116156101000203166002900490600052602060002090601f016020900481019282601f10612f3257805160ff1916838001178555612f60565b82800160010185558215612f60579182015b82811115612f5f578251825591602001919060010190612f44565b5b509050612f6d9190612f9d565b5090565b815481835581811115612f9857818360005260206000209182019101612f979190612f9d565b5b505050565b612fbf91905b80821115612fbb576000816000905550600101612fa3565b5090565b9056fea165627a7a7230582070eb9472a2cfc607f620114e6bb6f9bc19181f42f33011475450e63c0ce330b90029",
  "source": "pragma solidity >=0.4.21 <0.6.0;\r\n\r\ncontract SchoolStorage {\r\n    //eventInsert\r\n    struct School {\r\n        address SchoolAddress;\r\n        string id;\r\n        string name;\r\n        string addr;\r\n        string email;\r\n        uint256 fax;\r\n        uint256 phone;\r\n\r\n        string createdTime;\r\n        string modifiedTime;\r\n        string islocked;\r\n        uint256 index;\r\n    }\r\n    event SetSchoolEvent(\r\n        address _schoolAddress,\r\n        string _id,\r\n        string _name,\r\n        string _addr,\r\n        string _email,\r\n        uint256 _fax,\r\n        uint256 _phone);\r\n\r\n    event SetSchoolAdditionEvent(\r\n        address _schoolAddress,\r\n        string _createdTime,\r\n        string _modifiedTime,\r\n        string _isLocked,\r\n        uint256 _index);\r\n\r\n    //eventUpdate\r\n    event SetLogUpdateSchoolEvent(\r\n        address _schoolAddress,\r\n        string _id,\r\n        string _name,\r\n        string _addr,\r\n        string _email,\r\n        uint256 _fax,\r\n        uint256 _phone);\r\n\r\n    event SetLogUpdateSchoolAdditionEvent(\r\n        address _schoolAddress,\r\n        string _createdTime,\r\n        string _modifiedTime,\r\n        string _isLocked,\r\n        uint256 _index);\r\n\r\n    //eventDelete\r\n    event SetLogDeleteSchool(\r\n        address _schoolAddress,\r\n        uint256 index);\r\n\r\n    mapping(address => School) SchoolStructsMap;\r\n\r\n    address[] SchoolIndex;\r\n\r\n    // function isSchool(address _schoolAddress) public view returns(bool isIndeed) {\r\n    //     if(SchoolIndex.length == 0) return false;\r\n    //     return (SchoolIndex[SchoolStructsMap[_schoolAddress].index] == _schoolAddress);\r\n    // }\r\n\r\n    function insertSchool(\r\n        address _schoolAddress,\r\n        string memory _id,\r\n        string memory _name,\r\n        string memory _addr,\r\n        string memory _email,\r\n        uint256 _fax,\r\n        uint256 _phone\r\n        )\r\n        public returns(uint256 index){\r\n            SchoolStructsMap[_schoolAddress].id = _id;\r\n            SchoolStructsMap[_schoolAddress].name = _name;\r\n            SchoolStructsMap[_schoolAddress].addr = _addr;\r\n            SchoolStructsMap[_schoolAddress].email = _email;\r\n            SchoolStructsMap[_schoolAddress].fax = _fax;\r\n            SchoolStructsMap[_schoolAddress].phone = _phone;\r\n\r\n            emit SetSchoolEvent(_schoolAddress, _id, _name, _addr, _email, _fax, _phone);\r\n        return SchoolIndex.length-1;\r\n    }\r\n\r\n    function insertSchoolAddition(\r\n        address _schoolAddress,\r\n        string memory _createdTime,\r\n        string memory _modifiedTime,\r\n        string memory _islocked\r\n        )\r\n        public returns(uint256 index){\r\n            SchoolStructsMap[_schoolAddress].createdTime = _createdTime;\r\n            SchoolStructsMap[_schoolAddress].modifiedTime = _modifiedTime;\r\n            SchoolStructsMap[_schoolAddress].islocked = _islocked;\r\n            SchoolStructsMap[_schoolAddress].index = SchoolIndex.push(_schoolAddress)-1;\r\n\r\n        emit SetSchoolAdditionEvent(\r\n            _schoolAddress,\r\n            _createdTime,\r\n            _modifiedTime,\r\n            _islocked,\r\n            SchoolStructsMap[_schoolAddress].index);\r\n        return SchoolIndex.length-1;\r\n    }\r\n\r\n    function deleteSchool(address _schoolAddress) public returns(uint256 index){\r\n        uint256 rowToDelete = SchoolStructsMap[_schoolAddress].index;\r\n        address keyToMove = SchoolIndex[SchoolIndex.length-1];\r\n        SchoolIndex[rowToDelete] = keyToMove; //vi tri can delete = vi tri cuoi ds\r\n        SchoolStructsMap[keyToMove].index = rowToDelete;\r\n\r\n        SchoolIndex.length--;\r\n        emit SetLogDeleteSchool(\r\n            _schoolAddress,\r\n            rowToDelete);\r\n\r\n        emit SetLogUpdateSchoolEvent(\r\n            keyToMove,\r\n            SchoolStructsMap[keyToMove].id,\r\n            SchoolStructsMap[keyToMove].name,\r\n            SchoolStructsMap[keyToMove].email,\r\n            SchoolStructsMap[keyToMove].addr,\r\n            SchoolStructsMap[keyToMove].fax,\r\n            SchoolStructsMap[keyToMove].phone\r\n            );\r\n        emit SetLogUpdateSchoolAdditionEvent(\r\n            keyToMove,\r\n            SchoolStructsMap[keyToMove].createdTime,\r\n            SchoolStructsMap[keyToMove].modifiedTime,\r\n            SchoolStructsMap[keyToMove].islocked,\r\n            rowToDelete\r\n            );\r\n        return rowToDelete;\r\n    }\r\n\r\n    function getSchool(address _schoolAddress) public view returns(\r\n            address SchoolAddress,\r\n            string memory id,\r\n            string memory name,\r\n            string memory email,\r\n            string memory addr,\r\n            uint256 fax,\r\n            uint256 phone\r\n            ){\r\n            return(\r\n                _schoolAddress,\r\n                SchoolStructsMap[_schoolAddress].id,\r\n                SchoolStructsMap[_schoolAddress].name,\r\n                SchoolStructsMap[_schoolAddress].email,\r\n                SchoolStructsMap[_schoolAddress].addr,\r\n                SchoolStructsMap[_schoolAddress].fax,\r\n                SchoolStructsMap[_schoolAddress].phone);\r\n    }\r\n\r\n    function getSchoolAddition(address _schoolAddress) public view returns(\r\n        string memory _createdTime,\r\n        string memory _modifiedTime,\r\n        string memory _islocked\r\n        ){\r\n        return(\r\n            SchoolStructsMap[_schoolAddress].createdTime,\r\n            SchoolStructsMap[_schoolAddress].modifiedTime,\r\n            SchoolStructsMap[_schoolAddress].islocked);\r\n    }\r\n\r\n    // UPDATE\r\n\r\n\r\n    function updateFullName(address _schoolAddress, string  memory  _name, string memory _modifiedTime)\r\n    public returns(bool success) {\r\n        SchoolStructsMap[_schoolAddress].name = _name;\r\n        SchoolStructsMap[_schoolAddress].modifiedTime = _modifiedTime;\r\n        return true;\r\n    }\r\n\r\n    function updateEmail(address _schoolAddress, string  memory  _email, string memory _modifiedTime)\r\n    public returns(bool success) {\r\n        SchoolStructsMap[_schoolAddress].email = _email;\r\n        SchoolStructsMap[_schoolAddress].modifiedTime = _modifiedTime;\r\n        return true;\r\n    }\r\n\r\n    function updateAddr(address _schoolAddress, string  memory  _addr, string memory _modifiedTime)\r\n        public returns(bool success) {\r\n        SchoolStructsMap[_schoolAddress].addr = _addr;\r\n        SchoolStructsMap[_schoolAddress].modifiedTime = _modifiedTime;\r\n        return true;\r\n    }\r\n\r\n    function updateFax(address _schoolAddress, uint256 _fax, string memory _modifiedTime)\r\n        public returns(bool success) {\r\n        SchoolStructsMap[_schoolAddress].fax = _fax;\r\n        SchoolStructsMap[_schoolAddress].modifiedTime = _modifiedTime;\r\n        return true;\r\n    }\r\n\r\n    function updatePhone(address _schoolAddress, uint256  _phone, string memory _modifiedTime)\r\n        public returns(bool success) {\r\n        SchoolStructsMap[_schoolAddress].phone = _phone;\r\n        SchoolStructsMap[_schoolAddress].modifiedTime = _modifiedTime;\r\n        return true;\r\n    }\r\n\r\n    function updateIslocked(address _schoolAddress, string  memory  _islocked, string memory _modifiedTime)\r\n    public returns(bool success) {\r\n        SchoolStructsMap[_schoolAddress].islocked = _islocked;\r\n        SchoolStructsMap[_schoolAddress].modifiedTime = _modifiedTime;\r\n        return true;\r\n    }\r\n\r\n    function getSchoolCount() public view returns(uint256 count){\r\n            return SchoolIndex.length;\r\n        }\r\n\r\n    function getSchoolAtIndex(uint256 _index) public view returns(address SchoolAddress) {\r\n        return SchoolIndex[_index];\r\n    }\r\n\r\n}",
  "sourcePath": "C:/xampp/htdocs/Blockchain/blockchaindemo/TG_UNIVERSITY_CERTIFICATE_VERIFICATION_SERVER/contracts/School.sol",
  "compiler": {
    "name": "solc",
    "version": "0.5.0+commit.1d4f565a.Emscripten.clang"
  },
  "schemaVersion": "3.0.9",
  "updatedAt": "2019-06-13T02:40:31.842Z",
  "devdoc": {
    "methods": {}
  },
  "userdoc": {
    "methods": {}
  }
}