{
  "contractName": "SchoolStorage",
  "abi": [
    {
      "anonymous": false,
      "inputs": [
        {
          "indexed": false,
          "name": "_schoolAddress",
          "type": "address"
        },
        {
          "indexed": false,
          "name": "_name",
          "type": "string"
        },
        {
          "indexed": false,
          "name": "_addr",
          "type": "string"
        },
        {
          "indexed": false,
          "name": "_email",
          "type": "string"
        },
        {
          "indexed": false,
          "name": "_fax",
          "type": "string"
        },
        {
          "indexed": false,
          "name": "_phone",
          "type": "string"
        },
        {
          "indexed": false,
          "name": "_phone",
          "type": "string"
        }
      ],
      "name": "SetSchoolEvent",
      "type": "event"
    },
    {
      "anonymous": false,
      "inputs": [
        {
          "indexed": false,
          "name": "_schoolAddress",
          "type": "address"
        },
        {
          "indexed": false,
          "name": "_createdTime",
          "type": "string"
        },
        {
          "indexed": false,
          "name": "_modifiedTime",
          "type": "string"
        },
        {
          "indexed": false,
          "name": "_isLocked",
          "type": "string"
        },
        {
          "indexed": false,
          "name": "_index",
          "type": "uint256"
        }
      ],
      "name": "SetSchoolAdditionEvent",
      "type": "event"
    },
    {
      "anonymous": false,
      "inputs": [
        {
          "indexed": false,
          "name": "_schoolAddress",
          "type": "address"
        },
        {
          "indexed": false,
          "name": "_name",
          "type": "string"
        },
        {
          "indexed": false,
          "name": "_addr",
          "type": "string"
        },
        {
          "indexed": false,
          "name": "_email",
          "type": "string"
        },
        {
          "indexed": false,
          "name": "_fax",
          "type": "string"
        },
        {
          "indexed": false,
          "name": "_phone",
          "type": "string"
        },
        {
          "indexed": false,
          "name": "_phone",
          "type": "string"
        }
      ],
      "name": "SetLogUpdateSchoolEvent",
      "type": "event"
    },
    {
      "anonymous": false,
      "inputs": [
        {
          "indexed": false,
          "name": "_schoolAddress",
          "type": "address"
        },
        {
          "indexed": false,
          "name": "_createdTime",
          "type": "string"
        },
        {
          "indexed": false,
          "name": "_modifiedTime",
          "type": "string"
        },
        {
          "indexed": false,
          "name": "_isLocked",
          "type": "string"
        },
        {
          "indexed": false,
          "name": "_index",
          "type": "uint256"
        }
      ],
      "name": "SetLogUpdateSchoolAdditionEvent",
      "type": "event"
    },
    {
      "anonymous": false,
      "inputs": [
        {
          "indexed": false,
          "name": "_schoolAddress",
          "type": "address"
        },
        {
          "indexed": false,
          "name": "index",
          "type": "uint256"
        }
      ],
      "name": "SetLogDeleteSchool",
      "type": "event"
    },
    {
      "constant": false,
      "inputs": [
        {
          "name": "_schoolAddress",
          "type": "address"
        },
        {
          "name": "_name",
          "type": "string"
        },
        {
          "name": "_addr",
          "type": "string"
        },
        {
          "name": "_email",
          "type": "string"
        },
        {
          "name": "_fax",
          "type": "string"
        },
        {
          "name": "_phone",
          "type": "string"
        },
        {
          "name": "_phone",
          "type": "string"
        }
      ],
      "name": "insertSchool",
      "outputs": [
        {
          "name": "index",
          "type": "uint256"
        }
      ],
      "payable": false,
      "stateMutability": "nonpayable",
      "type": "function"
    },
    {
      "constant": false,
      "inputs": [
        {
          "name": "_schoolAddress",
          "type": "address"
        },
        {
          "name": "_createdTime",
          "type": "string"
        },
        {
          "name": "_modifiedTime",
          "type": "string"
        },
        {
          "name": "_islocked",
          "type": "string"
        }
      ],
      "name": "insertSchoolAddition",
      "outputs": [
        {
          "name": "index",
          "type": "uint256"
        }
      ],
      "payable": false,
      "stateMutability": "nonpayable",
      "type": "function"
    },
    {
      "constant": false,
      "inputs": [
        {
          "name": "_schoolAddress",
          "type": "address"
        }
      ],
      "name": "deleteSchool",
      "outputs": [
        {
          "name": "index",
          "type": "uint256"
        }
      ],
      "payable": false,
      "stateMutability": "nonpayable",
      "type": "function"
    },
    {
      "constant": true,
      "inputs": [
        {
          "name": "_schoolAddress",
          "type": "address"
        }
      ],
      "name": "getSchool",
      "outputs": [
        {
          "name": "SchoolAddress",
          "type": "address"
        },
        {
          "name": "name",
          "type": "string"
        },
        {
          "name": "email",
          "type": "string"
        },
        {
          "name": "addr",
          "type": "string"
        },
        {
          "name": "fax",
          "type": "string"
        },
        {
          "name": "phone",
          "type": "string"
        },
        {
          "name": "phone",
          "type": "string"
        }
      ],
      "payable": false,
      "stateMutability": "view",
      "type": "function"
    },
    {
      "constant": true,
      "inputs": [
        {
          "name": "_schoolAddress",
          "type": "address"
        }
      ],
      "name": "getSchoolAddition",
      "outputs": [
        {
          "name": "_createdTime",
          "type": "string"
        },
        {
          "name": "_modifiedTime",
          "type": "string"
        },
        {
          "name": "_islocked",
          "type": "string"
        }
      ],
      "payable": false,
      "stateMutability": "view",
      "type": "function"
    },
    {
      "constant": false,
      "inputs": [
        {
          "name": "_schoolAddress",
          "type": "address"
        },
        {
          "name": "_name",
          "type": "string"
        },
        {
          "name": "_modifiedTime",
          "type": "string"
        }
      ],
      "name": "updateFullName",
      "outputs": [
        {
          "name": "success",
          "type": "bool"
        }
      ],
      "payable": false,
      "stateMutability": "nonpayable",
      "type": "function"
    },
    {
      "constant": false,
      "inputs": [
        {
          "name": "_schoolAddress",
          "type": "address"
        },
        {
          "name": "_email",
          "type": "string"
        },
        {
          "name": "_modifiedTime",
          "type": "string"
        }
      ],
      "name": "updateEmail",
      "outputs": [
        {
          "name": "success",
          "type": "bool"
        }
      ],
      "payable": false,
      "stateMutability": "nonpayable",
      "type": "function"
    },
    {
      "constant": false,
      "inputs": [
        {
          "name": "_schoolAddress",
          "type": "address"
        },
        {
          "name": "_addr",
          "type": "string"
        },
        {
          "name": "_modifiedTime",
          "type": "string"
        }
      ],
      "name": "updateAddr",
      "outputs": [
        {
          "name": "success",
          "type": "bool"
        }
      ],
      "payable": false,
      "stateMutability": "nonpayable",
      "type": "function"
    },
    {
      "constant": false,
      "inputs": [
        {
          "name": "_schoolAddress",
          "type": "address"
        },
        {
          "name": "_fax",
          "type": "string"
        },
        {
          "name": "_modifiedTime",
          "type": "string"
        }
      ],
      "name": "updateFax",
      "outputs": [
        {
          "name": "success",
          "type": "bool"
        }
      ],
      "payable": false,
      "stateMutability": "nonpayable",
      "type": "function"
    },
    {
      "constant": false,
      "inputs": [
        {
          "name": "_schoolAddress",
          "type": "address"
        },
        {
          "name": "_phone",
          "type": "string"
        },
        {
          "name": "_modifiedTime",
          "type": "string"
        }
      ],
      "name": "updatePhone",
      "outputs": [
        {
          "name": "success",
          "type": "bool"
        }
      ],
      "payable": false,
      "stateMutability": "nonpayable",
      "type": "function"
    },
    {
      "constant": false,
      "inputs": [
        {
          "name": "_schoolAddress",
          "type": "address"
        },
        {
          "name": "_islocked",
          "type": "string"
        },
        {
          "name": "_modifiedTime",
          "type": "string"
        }
      ],
      "name": "updateIslocked",
      "outputs": [
        {
          "name": "success",
          "type": "bool"
        }
      ],
      "payable": false,
      "stateMutability": "nonpayable",
      "type": "function"
    },
    {
      "constant": true,
      "inputs": [],
      "name": "getSchoolCount",
      "outputs": [
        {
          "name": "count",
          "type": "uint256"
        }
      ],
      "payable": false,
      "stateMutability": "view",
      "type": "function"
    },
    {
      "constant": true,
      "inputs": [
        {
          "name": "_index",
          "type": "uint256"
        }
      ],
      "name": "getSchoolAtIndex",
      "outputs": [
        {
          "name": "SchoolAddress",
          "type": "address"
        }
      ],
      "payable": false,
      "stateMutability": "view",
      "type": "function"
    }
  ],
  "bytecode": "0x608060405234801561001057600080fd5b506132bb806100206000396000f3fe6080604052600436106100c4576000357c0100000000000000000000000000000000000000000000000000000000900463ffffffff168062835995146100c9578063059717d61461026057806323541fbc1461048a578063245620ce1461062c5780632b5749c9146106a757806339194eb41461083e5780634d49f74c14610aeb5780636af18bd814610c8257806379c0f6b314610e195780638cecb2f214610e7e578063ab5503dc14611015578063c80bc5cf1461136d578063cd2ea00414611398575b600080fd5b3480156100d557600080fd5b50610246600480360360608110156100ec57600080fd5b81019080803573ffffffffffffffffffffffffffffffffffffffff1690602001909291908035906020019064010000000081111561012957600080fd5b82018360208201111561013b57600080fd5b8035906020019184600183028401116401000000008311171561015d57600080fd5b91908080601f016020809104026020016040519081016040528093929190818152602001838380828437600081840152601f19601f820116905080830192505050505050509192919290803590602001906401000000008111156101c057600080fd5b8201836020820111156101d257600080fd5b803590602001918460018302840111640100000000831117156101f457600080fd5b91908080601f016020809104026020016040519081016040528093929190818152602001838380828437600081840152601f19601f82011690508083019250505050505050919291929050505061152f565b604051808215151515815260200191505060405180910390f35b34801561026c57600080fd5b506104746004803603608081101561028357600080fd5b81019080803573ffffffffffffffffffffffffffffffffffffffff169060200190929190803590602001906401000000008111156102c057600080fd5b8201836020820111156102d257600080fd5b803590602001918460018302840111640100000000831117156102f457600080fd5b91908080601f016020809104026020016040519081016040528093929190818152602001838380828437600081840152601f19601f8201169050808301925050505050505091929192908035906020019064010000000081111561035757600080fd5b82018360208201111561036957600080fd5b8035906020019184600183028401116401000000008311171561038b57600080fd5b91908080601f016020809104026020016040519081016040528093929190818152602001838380828437600081840152601f19601f820116905080830192505050505050509192919290803590602001906401000000008111156103ee57600080fd5b82018360208201111561040057600080fd5b8035906020019184600183028401116401000000008311171561042257600080fd5b91908080601f016020809104026020016040519081016040528093929190818152602001838380828437600081840152601f19601f8201169050808301925050505050505091929192905050506115e8565b6040518082815260200191505060405180910390f35b34801561049657600080fd5b506104d9600480360360208110156104ad57600080fd5b81019080803573ffffffffffffffffffffffffffffffffffffffff16906020019092919050505061199d565b60405180806020018060200180602001848103845287818151815260200191508051906020019080838360005b83811015610521578082015181840152602081019050610506565b50505050905090810190601f16801561054e5780820380516001836020036101000a031916815260200191505b50848103835286818151815260200191508051906020019080838360005b8381101561058757808201518184015260208101905061056c565b50505050905090810190601f1680156105b45780820380516001836020036101000a031916815260200191505b50848103825285818151815260200191508051906020019080838360005b838110156105ed5780820151818401526020810190506105d2565b50505050905090810190601f16801561061a5780820380516001836020036101000a031916815260200191505b50965050505050505060405180910390f35b34801561063857600080fd5b506106656004803603602081101561064f57600080fd5b8101908080359060200190929190505050611c46565b604051808273ffffffffffffffffffffffffffffffffffffffff1673ffffffffffffffffffffffffffffffffffffffff16815260200191505060405180910390f35b3480156106b357600080fd5b50610824600480360360608110156106ca57600080fd5b81019080803573ffffffffffffffffffffffffffffffffffffffff1690602001909291908035906020019064010000000081111561070757600080fd5b82018360208201111561071957600080fd5b8035906020019184600183028401116401000000008311171561073b57600080fd5b91908080601f016020809104026020016040519081016040528093929190818152602001838380828437600081840152601f19601f8201169050808301925050505050505091929192908035906020019064010000000081111561079e57600080fd5b8201836020820111156107b057600080fd5b803590602001918460018302840111640100000000831117156107d257600080fd5b91908080601f016020809104026020016040519081016040528093929190818152602001838380828437600081840152601f19601f820116905080830192505050505050509192919290505050611c89565b604051808215151515815260200191505060405180910390f35b34801561084a57600080fd5b5061088d6004803603602081101561086157600080fd5b81019080803573ffffffffffffffffffffffffffffffffffffffff169060200190929190505050611d42565b604051808773ffffffffffffffffffffffffffffffffffffffff1673ffffffffffffffffffffffffffffffffffffffff168152602001806020018060200180602001806020018060200186810386528b818151815260200191508051906020019080838360005b8381101561090f5780820151818401526020810190506108f4565b50505050905090810190601f16801561093c5780820380516001836020036101000a031916815260200191505b5086810385528a818151815260200191508051906020019080838360005b8381101561097557808201518184015260208101905061095a565b50505050905090810190601f1680156109a25780820380516001836020036101000a031916815260200191505b50868103845289818151815260200191508051906020019080838360005b838110156109db5780820151818401526020810190506109c0565b50505050905090810190601f168015610a085780820380516001836020036101000a031916815260200191505b50868103835288818151815260200191508051906020019080838360005b83811015610a41578082015181840152602081019050610a26565b50505050905090810190601f168015610a6e5780820380516001836020036101000a031916815260200191505b50868103825287818151815260200191508051906020019080838360005b83811015610aa7578082015181840152602081019050610a8c565b50505050905090810190601f168015610ad45780820380516001836020036101000a031916815260200191505b509b50505050505050505050505060405180910390f35b348015610af757600080fd5b50610c6860048036036060811015610b0e57600080fd5b81019080803573ffffffffffffffffffffffffffffffffffffffff16906020019092919080359060200190640100000000811115610b4b57600080fd5b820183602082011115610b5d57600080fd5b80359060200191846001830284011164010000000083111715610b7f57600080fd5b91908080601f016020809104026020016040519081016040528093929190818152602001838380828437600081840152601f19601f82011690508083019250505050505050919291929080359060200190640100000000811115610be257600080fd5b820183602082011115610bf457600080fd5b80359060200191846001830284011164010000000083111715610c1657600080fd5b91908080601f016020809104026020016040519081016040528093929190818152602001838380828437600081840152601f19601f8201169050808301925050505050505091929192905050506121b3565b604051808215151515815260200191505060405180910390f35b348015610c8e57600080fd5b50610dff60048036036060811015610ca557600080fd5b81019080803573ffffffffffffffffffffffffffffffffffffffff16906020019092919080359060200190640100000000811115610ce257600080fd5b820183602082011115610cf457600080fd5b80359060200191846001830284011164010000000083111715610d1657600080fd5b91908080601f016020809104026020016040519081016040528093929190818152602001838380828437600081840152601f19601f82011690508083019250505050505050919291929080359060200190640100000000811115610d7957600080fd5b820183602082011115610d8b57600080fd5b80359060200191846001830284011164010000000083111715610dad57600080fd5b91908080601f016020809104026020016040519081016040528093929190818152602001838380828437600081840152601f19601f82011690508083019250505050505050919291929050505061226c565b604051808215151515815260200191505060405180910390f35b348015610e2557600080fd5b50610e6860048036036020811015610e3c57600080fd5b81019080803573ffffffffffffffffffffffffffffffffffffffff169060200190929190505050612325565b6040518082815260200191505060405180910390f35b348015610e8a57600080fd5b50610ffb60048036036060811015610ea157600080fd5b81019080803573ffffffffffffffffffffffffffffffffffffffff16906020019092919080359060200190640100000000811115610ede57600080fd5b820183602082011115610ef057600080fd5b80359060200191846001830284011164010000000083111715610f1257600080fd5b91908080601f016020809104026020016040519081016040528093929190818152602001838380828437600081840152601f19601f82011690508083019250505050505050919291929080359060200190640100000000811115610f7557600080fd5b820183602082011115610f8757600080fd5b80359060200191846001830284011164010000000083111715610fa957600080fd5b91908080601f016020809104026020016040519081016040528093929190818152602001838380828437600081840152601f19601f820116905080830192505050505050509192919290505050612bf7565b604051808215151515815260200191505060405180910390f35b34801561102157600080fd5b50611357600480360360c081101561103857600080fd5b81019080803573ffffffffffffffffffffffffffffffffffffffff1690602001909291908035906020019064010000000081111561107557600080fd5b82018360208201111561108757600080fd5b803590602001918460018302840111640100000000831117156110a957600080fd5b91908080601f016020809104026020016040519081016040528093929190818152602001838380828437600081840152601f19601f8201169050808301925050505050505091929192908035906020019064010000000081111561110c57600080fd5b82018360208201111561111e57600080fd5b8035906020019184600183028401116401000000008311171561114057600080fd5b91908080601f016020809104026020016040519081016040528093929190818152602001838380828437600081840152601f19601f820116905080830192505050505050509192919290803590602001906401000000008111156111a357600080fd5b8201836020820111156111b557600080fd5b803590602001918460018302840111640100000000831117156111d757600080fd5b91908080601f016020809104026020016040519081016040528093929190818152602001838380828437600081840152601f19601f8201169050808301925050505050505091929192908035906020019064010000000081111561123a57600080fd5b82018360208201111561124c57600080fd5b8035906020019184600183028401116401000000008311171561126e57600080fd5b91908080601f016020809104026020016040519081016040528093929190818152602001838380828437600081840152601f19601f820116905080830192505050505050509192919290803590602001906401000000008111156112d157600080fd5b8201836020820111156112e357600080fd5b8035906020019184600183028401116401000000008311171561130557600080fd5b91908080601f016020809104026020016040519081016040528093929190818152602001838380828437600081840152601f19601f820116905080830192505050505050509192919290505050612cb0565b6040518082815260200191505060405180910390f35b34801561137957600080fd5b506113826130f8565b6040518082815260200191505060405180910390f35b3480156113a457600080fd5b50611515600480360360608110156113bb57600080fd5b81019080803573ffffffffffffffffffffffffffffffffffffffff169060200190929190803590602001906401000000008111156113f857600080fd5b82018360208201111561140a57600080fd5b8035906020019184600183028401116401000000008311171561142c57600080fd5b91908080601f016020809104026020016040519081016040528093929190818152602001838380828437600081840152601f19601f8201169050808301925050505050505091929192908035906020019064010000000081111561148f57600080fd5b8201836020820111156114a157600080fd5b803590602001918460018302840111640100000000831117156114c357600080fd5b91908080601f016020809104026020016040519081016040528093929190818152602001838380828437600081840152601f19601f820116905080830192505050505050509192919290505050613105565b604051808215151515815260200191505060405180910390f35b6000826000808673ffffffffffffffffffffffffffffffffffffffff1673ffffffffffffffffffffffffffffffffffffffff16815260200190815260200160002060080190805190602001906115869291906131be565b50816000808673ffffffffffffffffffffffffffffffffffffffff1673ffffffffffffffffffffffffffffffffffffffff16815260200190815260200160002060070190805190602001906115dc9291906131be565b50600190509392505050565b6000836000808773ffffffffffffffffffffffffffffffffffffffff1673ffffffffffffffffffffffffffffffffffffffff168152602001908152602001600020600601908051906020019061163f9291906131be565b50826000808773ffffffffffffffffffffffffffffffffffffffff1673ffffffffffffffffffffffffffffffffffffffff16815260200190815260200160002060070190805190602001906116959291906131be565b50816000808773ffffffffffffffffffffffffffffffffffffffff1673ffffffffffffffffffffffffffffffffffffffff16815260200190815260200160002060080190805190602001906116eb9291906131be565b506001808690806001815401808255809150509060018203906000526020600020016000909192909190916101000a81548173ffffffffffffffffffffffffffffffffffffffff021916908373ffffffffffffffffffffffffffffffffffffffff160217905550036000808773ffffffffffffffffffffffffffffffffffffffff1673ffffffffffffffffffffffffffffffffffffffff168152602001908152602001600020600901819055507f468e8b0d121a458de732c099ec24f8967ccbe5d6e91a9010ded2cb13c47143d5858585856000808b73ffffffffffffffffffffffffffffffffffffffff1673ffffffffffffffffffffffffffffffffffffffff16815260200190815260200160002060090154604051808673ffffffffffffffffffffffffffffffffffffffff1673ffffffffffffffffffffffffffffffffffffffff168152602001806020018060200180602001858152602001848103845288818151815260200191508051906020019080838360005b8381101561187f578082015181840152602081019050611864565b50505050905090810190601f1680156118ac5780820380516001836020036101000a031916815260200191505b50848103835287818151815260200191508051906020019080838360005b838110156118e55780820151818401526020810190506118ca565b50505050905090810190601f1680156119125780820380516001836020036101000a031916815260200191505b50848103825286818151815260200191508051906020019080838360005b8381101561194b578082015181840152602081019050611930565b50505050905090810190601f1680156119785780820380516001836020036101000a031916815260200191505b509850505050505050505060405180910390a160018080549050039050949350505050565b60608060606000808573ffffffffffffffffffffffffffffffffffffffff1673ffffffffffffffffffffffffffffffffffffffff1681526020019081526020016000206006016000808673ffffffffffffffffffffffffffffffffffffffff1673ffffffffffffffffffffffffffffffffffffffff1681526020019081526020016000206007016000808773ffffffffffffffffffffffffffffffffffffffff1673ffffffffffffffffffffffffffffffffffffffff168152602001908152602001600020600801828054600181600116156101000203166002900480601f016020809104026020016040519081016040528092919081815260200182805460018160011615610100020316600290048015611afa5780601f10611acf57610100808354040283529160200191611afa565b820191906000526020600020905b815481529060010190602001808311611add57829003601f168201915b50505050509250818054600181600116156101000203166002900480601f016020809104026020016040519081016040528092919081815260200182805460018160011615610100020316600290048015611b965780601f10611b6b57610100808354040283529160200191611b96565b820191906000526020600020905b815481529060010190602001808311611b7957829003601f168201915b50505050509150808054600181600116156101000203166002900480601f016020809104026020016040519081016040528092919081815260200182805460018160011615610100020316600290048015611c325780601f10611c0757610100808354040283529160200191611c32565b820191906000526020600020905b815481529060010190602001808311611c1557829003601f168201915b505050505090509250925092509193909250565b6000600182815481101515611c5757fe5b9060005260206000200160009054906101000a900473ffffffffffffffffffffffffffffffffffffffff169050919050565b6000826000808673ffffffffffffffffffffffffffffffffffffffff1673ffffffffffffffffffffffffffffffffffffffff1681526020019081526020016000206004019080519060200190611ce09291906131be565b50816000808673ffffffffffffffffffffffffffffffffffffffff1673ffffffffffffffffffffffffffffffffffffffff1681526020019081526020016000206007019080519060200190611d369291906131be565b50600190509392505050565b60006060806060806060866000808973ffffffffffffffffffffffffffffffffffffffff1673ffffffffffffffffffffffffffffffffffffffff1681526020019081526020016000206001016000808a73ffffffffffffffffffffffffffffffffffffffff1673ffffffffffffffffffffffffffffffffffffffff1681526020019081526020016000206003016000808b73ffffffffffffffffffffffffffffffffffffffff1673ffffffffffffffffffffffffffffffffffffffff1681526020019081526020016000206002016000808c73ffffffffffffffffffffffffffffffffffffffff1673ffffffffffffffffffffffffffffffffffffffff1681526020019081526020016000206004016000808d73ffffffffffffffffffffffffffffffffffffffff1673ffffffffffffffffffffffffffffffffffffffff168152602001908152602001600020600501848054600181600116156101000203166002900480601f016020809104026020016040519081016040528092919081815260200182805460018160011615610100020316600290048015611f275780601f10611efc57610100808354040283529160200191611f27565b820191906000526020600020905b815481529060010190602001808311611f0a57829003601f168201915b50505050509450838054600181600116156101000203166002900480601f016020809104026020016040519081016040528092919081815260200182805460018160011615610100020316600290048015611fc35780601f10611f9857610100808354040283529160200191611fc3565b820191906000526020600020905b815481529060010190602001808311611fa657829003601f168201915b50505050509350828054600181600116156101000203166002900480601f01602080910402602001604051908101604052809291908181526020018280546001816001161561010002031660029004801561205f5780601f106120345761010080835404028352916020019161205f565b820191906000526020600020905b81548152906001019060200180831161204257829003601f168201915b50505050509250818054600181600116156101000203166002900480601f0160208091040260200160405190810160405280929190818152602001828054600181600116156101000203166002900480156120fb5780601f106120d0576101008083540402835291602001916120fb565b820191906000526020600020905b8154815290600101906020018083116120de57829003601f168201915b50505050509150808054600181600116156101000203166002900480601f0160208091040260200160405190810160405280929190818152602001828054600181600116156101000203166002900480156121975780601f1061216c57610100808354040283529160200191612197565b820191906000526020600020905b81548152906001019060200180831161217a57829003601f168201915b5050505050905095509550955095509550955091939550919395565b6000826000808673ffffffffffffffffffffffffffffffffffffffff1673ffffffffffffffffffffffffffffffffffffffff168152602001908152602001600020600501908051906020019061220a9291906131be565b50816000808673ffffffffffffffffffffffffffffffffffffffff1673ffffffffffffffffffffffffffffffffffffffff16815260200190815260200160002060070190805190602001906122609291906131be565b50600190509392505050565b6000826000808673ffffffffffffffffffffffffffffffffffffffff1673ffffffffffffffffffffffffffffffffffffffff16815260200190815260200160002060020190805190602001906122c39291906131be565b50816000808673ffffffffffffffffffffffffffffffffffffffff1673ffffffffffffffffffffffffffffffffffffffff16815260200190815260200160002060070190805190602001906123199291906131be565b50600190509392505050565b6000806000808473ffffffffffffffffffffffffffffffffffffffff1673ffffffffffffffffffffffffffffffffffffffff168152602001908152602001600020600901549050600060018080805490500381548110151561238357fe5b9060005260206000200160009054906101000a900473ffffffffffffffffffffffffffffffffffffffff169050806001838154811015156123c057fe5b9060005260206000200160006101000a81548173ffffffffffffffffffffffffffffffffffffffff021916908373ffffffffffffffffffffffffffffffffffffffff160217905550816000808373ffffffffffffffffffffffffffffffffffffffff1673ffffffffffffffffffffffffffffffffffffffff168152602001908152602001600020600901819055506001805480919060019003612463919061323e565b507fc46e1937682a3bcd3f521f67c791662fb55a9364331f1f75967495078197ca348483604051808373ffffffffffffffffffffffffffffffffffffffff1673ffffffffffffffffffffffffffffffffffffffff1681526020018281526020019250505060405180910390a17f88f312ee34af332e69c842a7b1e9b6948c6aa62698189ab4787ce92dc1058aa5816000808473ffffffffffffffffffffffffffffffffffffffff1673ffffffffffffffffffffffffffffffffffffffff1681526020019081526020016000206001016000808573ffffffffffffffffffffffffffffffffffffffff1673ffffffffffffffffffffffffffffffffffffffff1681526020019081526020016000206003016000808673ffffffffffffffffffffffffffffffffffffffff1673ffffffffffffffffffffffffffffffffffffffff1681526020019081526020016000206002016000808773ffffffffffffffffffffffffffffffffffffffff1673ffffffffffffffffffffffffffffffffffffffff1681526020019081526020016000206004016000808873ffffffffffffffffffffffffffffffffffffffff1673ffffffffffffffffffffffffffffffffffffffff168152602001908152602001600020600501604051808773ffffffffffffffffffffffffffffffffffffffff1673ffffffffffffffffffffffffffffffffffffffff168152602001806020018060200180602001806020018060200186810386528b8181546001816001161561010002031660029004815260200191508054600181600116156101000203166002900480156127015780601f106126d657610100808354040283529160200191612701565b820191906000526020600020905b8154815290600101906020018083116126e457829003601f168201915b505086810385528a8181546001816001161561010002031660029004815260200191508054600181600116156101000203166002900480156127845780601f1061275957610100808354040283529160200191612784565b820191906000526020600020905b81548152906001019060200180831161276757829003601f168201915b50508681038452898181546001816001161561010002031660029004815260200191508054600181600116156101000203166002900480156128075780601f106127dc57610100808354040283529160200191612807565b820191906000526020600020905b8154815290600101906020018083116127ea57829003601f168201915b505086810383528881815460018160011615610100020316600290048152602001915080546001816001161561010002031660029004801561288a5780601f1061285f5761010080835404028352916020019161288a565b820191906000526020600020905b81548152906001019060200180831161286d57829003601f168201915b505086810382528781815460018160011615610100020316600290048152602001915080546001816001161561010002031660029004801561290d5780601f106128e25761010080835404028352916020019161290d565b820191906000526020600020905b8154815290600101906020018083116128f057829003601f168201915b50509b50505050505050505050505060405180910390a17f32cdbb489a131fffa830bed5382374e002b5177b4c5845276fc5d9903855c22a816000808473ffffffffffffffffffffffffffffffffffffffff1673ffffffffffffffffffffffffffffffffffffffff1681526020019081526020016000206006016000808573ffffffffffffffffffffffffffffffffffffffff1673ffffffffffffffffffffffffffffffffffffffff1681526020019081526020016000206007016000808673ffffffffffffffffffffffffffffffffffffffff1673ffffffffffffffffffffffffffffffffffffffff16815260200190815260200160002060080186604051808673ffffffffffffffffffffffffffffffffffffffff1673ffffffffffffffffffffffffffffffffffffffff168152602001806020018060200180602001858152602001848103845288818154600181600116156101000203166002900481526020019150805460018160011615610100020316600290048015612ad35780601f10612aa857610100808354040283529160200191612ad3565b820191906000526020600020905b815481529060010190602001808311612ab657829003601f168201915b5050848103835287818154600181600116156101000203166002900481526020019150805460018160011615610100020316600290048015612b565780601f10612b2b57610100808354040283529160200191612b56565b820191906000526020600020905b815481529060010190602001808311612b3957829003601f168201915b5050848103825286818154600181600116156101000203166002900481526020019150805460018160011615610100020316600290048015612bd95780601f10612bae57610100808354040283529160200191612bd9565b820191906000526020600020905b815481529060010190602001808311612bbc57829003601f168201915b50509850505050505050505060405180910390a18192505050919050565b6000826000808673ffffffffffffffffffffffffffffffffffffffff1673ffffffffffffffffffffffffffffffffffffffff1681526020019081526020016000206001019080519060200190612c4e9291906131be565b50816000808673ffffffffffffffffffffffffffffffffffffffff1673ffffffffffffffffffffffffffffffffffffffff1681526020019081526020016000206007019080519060200190612ca49291906131be565b50600190509392505050565b6000856000808973ffffffffffffffffffffffffffffffffffffffff1673ffffffffffffffffffffffffffffffffffffffff1681526020019081526020016000206001019080519060200190612d079291906131be565b50846000808973ffffffffffffffffffffffffffffffffffffffff1673ffffffffffffffffffffffffffffffffffffffff1681526020019081526020016000206002019080519060200190612d5d9291906131be565b50836000808973ffffffffffffffffffffffffffffffffffffffff1673ffffffffffffffffffffffffffffffffffffffff1681526020019081526020016000206003019080519060200190612db39291906131be565b50826000808973ffffffffffffffffffffffffffffffffffffffff1673ffffffffffffffffffffffffffffffffffffffff1681526020019081526020016000206004019080519060200190612e099291906131be565b50816000808973ffffffffffffffffffffffffffffffffffffffff1673ffffffffffffffffffffffffffffffffffffffff1681526020019081526020016000206005019080519060200190612e5f9291906131be565b507f2485da60ba63125387f0ead9db4c1ae526b7bc04c636b837ceb55dee55c4799d878787878787604051808773ffffffffffffffffffffffffffffffffffffffff1673ffffffffffffffffffffffffffffffffffffffff168152602001806020018060200180602001806020018060200186810386528b818151815260200191508051906020019080838360005b83811015612f09578082015181840152602081019050612eee565b50505050905090810190601f168015612f365780820380516001836020036101000a031916815260200191505b5086810385528a818151815260200191508051906020019080838360005b83811015612f6f578082015181840152602081019050612f54565b50505050905090810190601f168015612f9c5780820380516001836020036101000a031916815260200191505b50868103845289818151815260200191508051906020019080838360005b83811015612fd5578082015181840152602081019050612fba565b50505050905090810190601f1680156130025780820380516001836020036101000a031916815260200191505b50868103835288818151815260200191508051906020019080838360005b8381101561303b578082015181840152602081019050613020565b50505050905090810190601f1680156130685780820380516001836020036101000a031916815260200191505b50868103825287818151815260200191508051906020019080838360005b838110156130a1578082015181840152602081019050613086565b50505050905090810190601f1680156130ce5780820380516001836020036101000a031916815260200191505b509b50505050505050505050505060405180910390a1600180805490500390509695505050505050565b6000600180549050905090565b6000826000808673ffffffffffffffffffffffffffffffffffffffff1673ffffffffffffffffffffffffffffffffffffffff168152602001908152602001600020600301908051906020019061315c9291906131be565b50816000808673ffffffffffffffffffffffffffffffffffffffff1673ffffffffffffffffffffffffffffffffffffffff16815260200190815260200160002060070190805190602001906131b29291906131be565b50600190509392505050565b828054600181600116156101000203166002900490600052602060002090601f016020900481019282601f106131ff57805160ff191683800117855561322d565b8280016001018555821561322d579182015b8281111561322c578251825591602001919060010190613211565b5b50905061323a919061326a565b5090565b81548183558181111561326557818360005260206000209182019101613264919061326a565b5b505050565b61328c91905b80821115613288576000816000905550600101613270565b5090565b9056fea165627a7a72305820ec8df569a1183f57d3a50a3a54744a864aeba242bce3ea4afc778f0cec5933a60029",
  "source": "pragma solidity >=0.4.21 <0.6.0;\r\n\r\ncontract SchoolStorage {\r\n    //eventInsert\r\n    struct School {\r\n        address SchoolAddress;\r\n        // string id;\r\n        string name;\r\n        string addr;\r\n        string email;\r\n        string fax;\r\n        string phone;\r\n\r\n        string createdTime;\r\n        string modifiedTime;\r\n        string islocked;\r\n        uint256 index;\r\n    }\r\n    event SetSchoolEvent(\r\n        address _schoolAddress,\r\n        // string _id,\r\n        string _name,\r\n        string _addr,\r\n        string _email,\r\n        string _fax,\r\n        string _phone);\r\n\r\n    event SetSchoolAdditionEvent(\r\n        address _schoolAddress,\r\n        string _createdTime,\r\n        string _modifiedTime,\r\n        string _isLocked,\r\n        uint256 _index);\r\n\r\n    //eventUpdate\r\n    event SetLogUpdateSchoolEvent(\r\n        address _schoolAddress,\r\n        // string _id,\r\n        string _name,\r\n        string _addr,\r\n        string _email,\r\n        string _fax,\r\n        string _phone);\r\n\r\n    event SetLogUpdateSchoolAdditionEvent(\r\n        address _schoolAddress,\r\n        string _createdTime,\r\n        string _modifiedTime,\r\n        string _isLocked,\r\n        uint256 _index);\r\n\r\n    //eventDelete\r\n    event SetLogDeleteSchool(\r\n        address _schoolAddress,\r\n        uint256 index);\r\n\r\n    mapping(address => School) SchoolStructsMap;\r\n\r\n    address[] SchoolIndex;\r\n\r\n    // function isSchool(address _schoolAddress) public view returns(bool isIndeed) {\r\n    //     if(SchoolIndex.length == 0) return false;\r\n    //     return (SchoolIndex[SchoolStructsMap[_schoolAddress].index] == _schoolAddress);\r\n    // }\r\n\r\n    function insertSchool(\r\n        address _schoolAddress,\r\n        // string memory _id,\r\n        string memory _name,\r\n        string memory _addr,\r\n        string memory _email,\r\n        string memory _fax,\r\n        string memory _phone\r\n        )\r\n        public returns(uint256 index){\r\n            // SchoolStructsMap[_schoolAddress].id = _id;\r\n            SchoolStructsMap[_schoolAddress].name = _name;\r\n            SchoolStructsMap[_schoolAddress].addr = _addr;\r\n            SchoolStructsMap[_schoolAddress].email = _email;\r\n            SchoolStructsMap[_schoolAddress].fax = _fax;\r\n            SchoolStructsMap[_schoolAddress].phone = _phone;\r\n\r\n            emit SetSchoolEvent(_schoolAddress, _name, _addr, _email, _fax, _phone);\r\n        return SchoolIndex.length-1;\r\n    }\r\n\r\n    function insertSchoolAddition(\r\n        address _schoolAddress,\r\n        string memory _createdTime,\r\n        string memory _modifiedTime,\r\n        string memory _islocked\r\n        )\r\n        public returns(uint256 index){\r\n            SchoolStructsMap[_schoolAddress].createdTime = _createdTime;\r\n            SchoolStructsMap[_schoolAddress].modifiedTime = _modifiedTime;\r\n            SchoolStructsMap[_schoolAddress].islocked = _islocked;\r\n            SchoolStructsMap[_schoolAddress].index = SchoolIndex.push(_schoolAddress)-1;\r\n\r\n        emit SetSchoolAdditionEvent(\r\n            _schoolAddress,\r\n            _createdTime,\r\n            _modifiedTime,\r\n            _islocked,\r\n            SchoolStructsMap[_schoolAddress].index);\r\n        return SchoolIndex.length-1;\r\n    }\r\n\r\n    function deleteSchool(address _schoolAddress) public returns(uint256 index){\r\n        uint256 rowToDelete = SchoolStructsMap[_schoolAddress].index;\r\n        address keyToMove = SchoolIndex[SchoolIndex.length-1];\r\n        SchoolIndex[rowToDelete] = keyToMove; //vi tri can delete = vi tri cuoi ds\r\n        SchoolStructsMap[keyToMove].index = rowToDelete;\r\n\r\n        SchoolIndex.length--;\r\n        emit SetLogDeleteSchool(\r\n            _schoolAddress,\r\n            rowToDelete);\r\n\r\n        emit SetLogUpdateSchoolEvent(\r\n            keyToMove,\r\n            // SchoolStructsMap[keyToMove].id,\r\n            SchoolStructsMap[keyToMove].name,\r\n            SchoolStructsMap[keyToMove].email,\r\n            SchoolStructsMap[keyToMove].addr,\r\n            SchoolStructsMap[keyToMove].fax,\r\n            SchoolStructsMap[keyToMove].phone\r\n            );\r\n        emit SetLogUpdateSchoolAdditionEvent(\r\n            keyToMove,\r\n            SchoolStructsMap[keyToMove].createdTime,\r\n            SchoolStructsMap[keyToMove].modifiedTime,\r\n            SchoolStructsMap[keyToMove].islocked,\r\n            rowToDelete\r\n            );\r\n        return rowToDelete;\r\n    }\r\n\r\n    function getSchool(address _schoolAddress) public view returns(\r\n            address SchoolAddress,\r\n            // string memory id,\r\n            string memory name,\r\n            string memory email,\r\n            string memory addr,\r\n            string memory fax,\r\n            string memory phone\r\n            ){\r\n            return(\r\n                _schoolAddress,\r\n                // SchoolStructsMap[_schoolAddress].id,\r\n                SchoolStructsMap[_schoolAddress].name,\r\n                SchoolStructsMap[_schoolAddress].email,\r\n                SchoolStructsMap[_schoolAddress].addr,\r\n                SchoolStructsMap[_schoolAddress].fax,\r\n                SchoolStructsMap[_schoolAddress].phone);\r\n    }\r\n\r\n    function getSchoolAddition(address _schoolAddress) public view returns(\r\n        string memory _createdTime,\r\n        string memory _modifiedTime,\r\n        string memory _islocked\r\n        ){\r\n        return(\r\n            SchoolStructsMap[_schoolAddress].createdTime,\r\n            SchoolStructsMap[_schoolAddress].modifiedTime,\r\n            SchoolStructsMap[_schoolAddress].islocked);\r\n    }\r\n\r\n    // UPDATE\r\n\r\n\r\n    function updateFullName(address _schoolAddress, string  memory  _name, string memory _modifiedTime)\r\n    public returns(bool success) {\r\n        SchoolStructsMap[_schoolAddress].name = _name;\r\n        SchoolStructsMap[_schoolAddress].modifiedTime = _modifiedTime;\r\n        return true;\r\n    }\r\n\r\n    function updateEmail(address _schoolAddress, string  memory  _email, string memory _modifiedTime)\r\n    public returns(bool success) {\r\n        SchoolStructsMap[_schoolAddress].email = _email;\r\n        SchoolStructsMap[_schoolAddress].modifiedTime = _modifiedTime;\r\n        return true;\r\n    }\r\n\r\n    function updateAddr(address _schoolAddress, string  memory  _addr, string memory _modifiedTime)\r\n        public returns(bool success) {\r\n        SchoolStructsMap[_schoolAddress].addr = _addr;\r\n        SchoolStructsMap[_schoolAddress].modifiedTime = _modifiedTime;\r\n        return true;\r\n    }\r\n\r\n    function updateFax(address _schoolAddress, string memory _fax, string memory _modifiedTime)\r\n        public returns(bool success) {\r\n        SchoolStructsMap[_schoolAddress].fax = _fax;\r\n        SchoolStructsMap[_schoolAddress].modifiedTime = _modifiedTime;\r\n        return true;\r\n    }\r\n\r\n    function updatePhone(address _schoolAddress, string memory  _phone, string memory _modifiedTime)\r\n        public returns(bool success) {\r\n        SchoolStructsMap[_schoolAddress].phone = _phone;\r\n        SchoolStructsMap[_schoolAddress].modifiedTime = _modifiedTime;\r\n        return true;\r\n    }\r\n\r\n    function updateIslocked(address _schoolAddress, string  memory  _islocked, string memory _modifiedTime)\r\n    public returns(bool success) {\r\n        SchoolStructsMap[_schoolAddress].islocked = _islocked;\r\n        SchoolStructsMap[_schoolAddress].modifiedTime = _modifiedTime;\r\n        return true;\r\n    }\r\n\r\n    function getSchoolCount() public view returns(uint256 count){\r\n            return SchoolIndex.length;\r\n        }\r\n\r\n    function getSchoolAtIndex(uint256 _index) public view returns(address SchoolAddress) {\r\n        return SchoolIndex[_index];\r\n    }\r\n\r\n}",
  "sourcePath": "C:/xampp/htdocs/Blockchain/blockchaindemo/TG_UNIVERSITY_CERTIFICATE_VERIFICATION_SERVER/contracts/School.sol",
  "compiler": {
    "name": "solc",
    "version": "0.5.0+commit.1d4f565a.Emscripten.clang"
  },
  "schemaVersion": "3.0.9",
  "updatedAt": "2019-06-30T12:40:50.036Z",
  "devdoc": {
    "methods": {}
  },
  "userdoc": {
    "methods": {}
  }
}