{
  "contractName": "SchoolStorage",
  "abi": [
    {
      "anonymous": false,
      "inputs": [
        {
          "indexed": false,
          "name": "_schoolAddress",
          "type": "address"
        },
        {
          "indexed": false,
          "name": "_id",
          "type": "string"
        },
        {
          "indexed": false,
          "name": "_name",
          "type": "string"
        },
        {
          "indexed": false,
          "name": "_addr",
          "type": "string"
        },
        {
          "indexed": false,
          "name": "_email",
          "type": "string"
        },
        {
          "indexed": false,
          "name": "_fax",
          "type": "string"
        },
        {
          "indexed": false,
          "name": "_phone",
          "type": "string"
        }
      ],
      "name": "SetSchoolEvent",
      "type": "event"
    },
    {
      "anonymous": false,
      "inputs": [
        {
          "indexed": false,
          "name": "_schoolAddress",
          "type": "address"
        },
        {
          "indexed": false,
          "name": "_createdTime",
          "type": "string"
        },
        {
          "indexed": false,
          "name": "_modifiedTime",
          "type": "string"
        },
        {
          "indexed": false,
          "name": "_isLocked",
          "type": "string"
        },
        {
          "indexed": false,
          "name": "_index",
          "type": "uint256"
        }
      ],
      "name": "SetSchoolAdditionEvent",
      "type": "event"
    },
    {
      "anonymous": false,
      "inputs": [
        {
          "indexed": false,
          "name": "_schoolAddress",
          "type": "address"
        },
        {
          "indexed": false,
          "name": "_id",
          "type": "string"
        },
        {
          "indexed": false,
          "name": "_name",
          "type": "string"
        },
        {
          "indexed": false,
          "name": "_addr",
          "type": "string"
        },
        {
          "indexed": false,
          "name": "_email",
          "type": "string"
        },
        {
          "indexed": false,
          "name": "_fax",
          "type": "string"
        },
        {
          "indexed": false,
          "name": "_phone",
          "type": "string"
        }
      ],
      "name": "SetLogUpdateSchoolEvent",
      "type": "event"
    },
    {
      "anonymous": false,
      "inputs": [
        {
          "indexed": false,
          "name": "_schoolAddress",
          "type": "address"
        },
        {
          "indexed": false,
          "name": "_createdTime",
          "type": "string"
        },
        {
          "indexed": false,
          "name": "_modifiedTime",
          "type": "string"
        },
        {
          "indexed": false,
          "name": "_isLocked",
          "type": "string"
        },
        {
          "indexed": false,
          "name": "_index",
          "type": "uint256"
        }
      ],
      "name": "SetLogUpdateSchoolAdditionEvent",
      "type": "event"
    },
    {
      "anonymous": false,
      "inputs": [
        {
          "indexed": false,
          "name": "_schoolAddress",
          "type": "address"
        },
        {
          "indexed": false,
          "name": "index",
          "type": "uint256"
        }
      ],
      "name": "SetLogDeleteSchool",
      "type": "event"
    },
    {
      "constant": false,
      "inputs": [
        {
          "name": "_schoolAddress",
          "type": "address"
        },
        {
          "name": "_id",
          "type": "string"
        },
        {
          "name": "_name",
          "type": "string"
        },
        {
          "name": "_addr",
          "type": "string"
        },
        {
          "name": "_email",
          "type": "string"
        },
        {
          "name": "_fax",
          "type": "string"
        },
        {
          "name": "_phone",
          "type": "string"
        }
      ],
      "name": "insertSchool",
      "outputs": [
        {
          "name": "index",
          "type": "uint256"
        }
      ],
      "payable": false,
      "stateMutability": "nonpayable",
      "type": "function"
    },
    {
      "constant": false,
      "inputs": [
        {
          "name": "_schoolAddress",
          "type": "address"
        },
        {
          "name": "_createdTime",
          "type": "string"
        },
        {
          "name": "_modifiedTime",
          "type": "string"
        },
        {
          "name": "_islocked",
          "type": "string"
        }
      ],
      "name": "insertSchoolAddition",
      "outputs": [
        {
          "name": "index",
          "type": "uint256"
        }
      ],
      "payable": false,
      "stateMutability": "nonpayable",
      "type": "function"
    },
    {
      "constant": false,
      "inputs": [
        {
          "name": "_schoolAddress",
          "type": "address"
        }
      ],
      "name": "deleteSchool",
      "outputs": [
        {
          "name": "index",
          "type": "uint256"
        }
      ],
      "payable": false,
      "stateMutability": "nonpayable",
      "type": "function"
    },
    {
      "constant": true,
      "inputs": [
        {
          "name": "_schoolAddress",
          "type": "address"
        }
      ],
      "name": "getSchool",
      "outputs": [
        {
          "name": "SchoolAddress",
          "type": "address"
        },
        {
          "name": "id",
          "type": "string"
        },
        {
          "name": "name",
          "type": "string"
        },
        {
          "name": "email",
          "type": "string"
        },
        {
          "name": "addr",
          "type": "string"
        },
        {
          "name": "fax",
          "type": "string"
        },
        {
          "name": "phone",
          "type": "string"
        }
      ],
      "payable": false,
      "stateMutability": "view",
      "type": "function"
    },
    {
      "constant": true,
      "inputs": [
        {
          "name": "_schoolAddress",
          "type": "address"
        }
      ],
      "name": "getSchoolAddition",
      "outputs": [
        {
          "name": "_createdTime",
          "type": "string"
        },
        {
          "name": "_modifiedTime",
          "type": "string"
        },
        {
          "name": "_islocked",
          "type": "string"
        }
      ],
      "payable": false,
      "stateMutability": "view",
      "type": "function"
    },
    {
      "constant": false,
      "inputs": [
        {
          "name": "_schoolAddress",
          "type": "address"
        },
        {
          "name": "_name",
          "type": "string"
        },
        {
          "name": "_modifiedTime",
          "type": "string"
        }
      ],
      "name": "updateFullName",
      "outputs": [
        {
          "name": "success",
          "type": "bool"
        }
      ],
      "payable": false,
      "stateMutability": "nonpayable",
      "type": "function"
    },
    {
      "constant": false,
      "inputs": [
        {
          "name": "_schoolAddress",
          "type": "address"
        },
        {
          "name": "_email",
          "type": "string"
        },
        {
          "name": "_modifiedTime",
          "type": "string"
        }
      ],
      "name": "updateEmail",
      "outputs": [
        {
          "name": "success",
          "type": "bool"
        }
      ],
      "payable": false,
      "stateMutability": "nonpayable",
      "type": "function"
    },
    {
      "constant": false,
      "inputs": [
        {
          "name": "_schoolAddress",
          "type": "address"
        },
        {
          "name": "_addr",
          "type": "string"
        },
        {
          "name": "_modifiedTime",
          "type": "string"
        }
      ],
      "name": "updateAddr",
      "outputs": [
        {
          "name": "success",
          "type": "bool"
        }
      ],
      "payable": false,
      "stateMutability": "nonpayable",
      "type": "function"
    },
    {
      "constant": false,
      "inputs": [
        {
          "name": "_schoolAddress",
          "type": "address"
        },
        {
          "name": "_fax",
          "type": "string"
        },
        {
          "name": "_modifiedTime",
          "type": "string"
        }
      ],
      "name": "updateFax",
      "outputs": [
        {
          "name": "success",
          "type": "bool"
        }
      ],
      "payable": false,
      "stateMutability": "nonpayable",
      "type": "function"
    },
    {
      "constant": false,
      "inputs": [
        {
          "name": "_schoolAddress",
          "type": "address"
        },
        {
          "name": "_phone",
          "type": "string"
        },
        {
          "name": "_modifiedTime",
          "type": "string"
        }
      ],
      "name": "updatePhone",
      "outputs": [
        {
          "name": "success",
          "type": "bool"
        }
      ],
      "payable": false,
      "stateMutability": "nonpayable",
      "type": "function"
    },
    {
      "constant": false,
      "inputs": [
        {
          "name": "_schoolAddress",
          "type": "address"
        },
        {
          "name": "_islocked",
          "type": "string"
        },
        {
          "name": "_modifiedTime",
          "type": "string"
        }
      ],
      "name": "updateIslocked",
      "outputs": [
        {
          "name": "success",
          "type": "bool"
        }
      ],
      "payable": false,
      "stateMutability": "nonpayable",
      "type": "function"
    },
    {
      "constant": true,
      "inputs": [],
      "name": "getSchoolCount",
      "outputs": [
        {
          "name": "count",
          "type": "uint256"
        }
      ],
      "payable": false,
      "stateMutability": "view",
      "type": "function"
    },
    {
      "constant": true,
      "inputs": [
        {
          "name": "_index",
          "type": "uint256"
        }
      ],
      "name": "getSchoolAtIndex",
      "outputs": [
        {
          "name": "SchoolAddress",
          "type": "address"
        }
      ],
      "payable": false,
      "stateMutability": "view",
      "type": "function"
    }
  ],
  "bytecode": "0x608060405234801561001057600080fd5b5061362e806100206000396000f3fe6080604052600436106100c4576000357c0100000000000000000000000000000000000000000000000000000000900463ffffffff168062835995146100c9578063059717d6146102605780630e87b09a1461048a57806323541fbc14610879578063245620ce14610a1b5780632b5749c914610a9657806339194eb414610c2d5780634d49f74c14610f465780636af18bd8146110dd57806379c0f6b3146112745780638cecb2f2146112d9578063c80bc5cf14611470578063cd2ea0041461149b575b600080fd5b3480156100d557600080fd5b50610246600480360360608110156100ec57600080fd5b81019080803573ffffffffffffffffffffffffffffffffffffffff1690602001909291908035906020019064010000000081111561012957600080fd5b82018360208201111561013b57600080fd5b8035906020019184600183028401116401000000008311171561015d57600080fd5b91908080601f016020809104026020016040519081016040528093929190818152602001838380828437600081840152601f19601f820116905080830192505050505050509192919290803590602001906401000000008111156101c057600080fd5b8201836020820111156101d257600080fd5b803590602001918460018302840111640100000000831117156101f457600080fd5b91908080601f016020809104026020016040519081016040528093929190818152602001838380828437600081840152601f19601f820116905080830192505050505050509192919290505050611632565b604051808215151515815260200191505060405180910390f35b34801561026c57600080fd5b506104746004803603608081101561028357600080fd5b81019080803573ffffffffffffffffffffffffffffffffffffffff169060200190929190803590602001906401000000008111156102c057600080fd5b8201836020820111156102d257600080fd5b803590602001918460018302840111640100000000831117156102f457600080fd5b91908080601f016020809104026020016040519081016040528093929190818152602001838380828437600081840152601f19601f8201169050808301925050505050505091929192908035906020019064010000000081111561035757600080fd5b82018360208201111561036957600080fd5b8035906020019184600183028401116401000000008311171561038b57600080fd5b91908080601f016020809104026020016040519081016040528093929190818152602001838380828437600081840152601f19601f820116905080830192505050505050509192919290803590602001906401000000008111156103ee57600080fd5b82018360208201111561040057600080fd5b8035906020019184600183028401116401000000008311171561042257600080fd5b91908080601f016020809104026020016040519081016040528093929190818152602001838380828437600081840152601f19601f8201169050808301925050505050505091929192905050506116eb565b6040518082815260200191505060405180910390f35b34801561049657600080fd5b50610863600480360360e08110156104ad57600080fd5b81019080803573ffffffffffffffffffffffffffffffffffffffff169060200190929190803590602001906401000000008111156104ea57600080fd5b8201836020820111156104fc57600080fd5b8035906020019184600183028401116401000000008311171561051e57600080fd5b91908080601f016020809104026020016040519081016040528093929190818152602001838380828437600081840152601f19601f8201169050808301925050505050505091929192908035906020019064010000000081111561058157600080fd5b82018360208201111561059357600080fd5b803590602001918460018302840111640100000000831117156105b557600080fd5b91908080601f016020809104026020016040519081016040528093929190818152602001838380828437600081840152601f19601f8201169050808301925050505050505091929192908035906020019064010000000081111561061857600080fd5b82018360208201111561062a57600080fd5b8035906020019184600183028401116401000000008311171561064c57600080fd5b91908080601f016020809104026020016040519081016040528093929190818152602001838380828437600081840152601f19601f820116905080830192505050505050509192919290803590602001906401000000008111156106af57600080fd5b8201836020820111156106c157600080fd5b803590602001918460018302840111640100000000831117156106e357600080fd5b91908080601f016020809104026020016040519081016040528093929190818152602001838380828437600081840152601f19601f8201169050808301925050505050505091929192908035906020019064010000000081111561074657600080fd5b82018360208201111561075857600080fd5b8035906020019184600183028401116401000000008311171561077a57600080fd5b91908080601f016020809104026020016040519081016040528093929190818152602001838380828437600081840152601f19601f820116905080830192505050505050509192919290803590602001906401000000008111156107dd57600080fd5b8201836020820111156107ef57600080fd5b8035906020019184600183028401116401000000008311171561081157600080fd5b91908080601f016020809104026020016040519081016040528093929190818152602001838380828437600081840152601f19601f820116905080830192505050505050509192919290505050611aa0565b6040518082815260200191505060405180910390f35b34801561088557600080fd5b506108c86004803603602081101561089c57600080fd5b81019080803573ffffffffffffffffffffffffffffffffffffffff169060200190929190505050611fac565b60405180806020018060200180602001848103845287818151815260200191508051906020019080838360005b838110156109105780820151818401526020810190506108f5565b50505050905090810190601f16801561093d5780820380516001836020036101000a031916815260200191505b50848103835286818151815260200191508051906020019080838360005b8381101561097657808201518184015260208101905061095b565b50505050905090810190601f1680156109a35780820380516001836020036101000a031916815260200191505b50848103825285818151815260200191508051906020019080838360005b838110156109dc5780820151818401526020810190506109c1565b50505050905090810190601f168015610a095780820380516001836020036101000a031916815260200191505b50965050505050505060405180910390f35b348015610a2757600080fd5b50610a5460048036036020811015610a3e57600080fd5b8101908080359060200190929190505050612255565b604051808273ffffffffffffffffffffffffffffffffffffffff1673ffffffffffffffffffffffffffffffffffffffff16815260200191505060405180910390f35b348015610aa257600080fd5b50610c1360048036036060811015610ab957600080fd5b81019080803573ffffffffffffffffffffffffffffffffffffffff16906020019092919080359060200190640100000000811115610af657600080fd5b820183602082011115610b0857600080fd5b80359060200191846001830284011164010000000083111715610b2a57600080fd5b91908080601f016020809104026020016040519081016040528093929190818152602001838380828437600081840152601f19601f82011690508083019250505050505050919291929080359060200190640100000000811115610b8d57600080fd5b820183602082011115610b9f57600080fd5b80359060200191846001830284011164010000000083111715610bc157600080fd5b91908080601f016020809104026020016040519081016040528093929190818152602001838380828437600081840152601f19601f820116905080830192505050505050509192919290505050612298565b604051808215151515815260200191505060405180910390f35b348015610c3957600080fd5b50610c7c60048036036020811015610c5057600080fd5b81019080803573ffffffffffffffffffffffffffffffffffffffff169060200190929190505050612351565b604051808873ffffffffffffffffffffffffffffffffffffffff1673ffffffffffffffffffffffffffffffffffffffff16815260200180602001806020018060200180602001806020018060200187810387528d818151815260200191508051906020019080838360005b83811015610d02578082015181840152602081019050610ce7565b50505050905090810190601f168015610d2f5780820380516001836020036101000a031916815260200191505b5087810386528c818151815260200191508051906020019080838360005b83811015610d68578082015181840152602081019050610d4d565b50505050905090810190601f168015610d955780820380516001836020036101000a031916815260200191505b5087810385528b818151815260200191508051906020019080838360005b83811015610dce578082015181840152602081019050610db3565b50505050905090810190601f168015610dfb5780820380516001836020036101000a031916815260200191505b5087810384528a818151815260200191508051906020019080838360005b83811015610e34578082015181840152602081019050610e19565b50505050905090810190601f168015610e615780820380516001836020036101000a031916815260200191505b50878103835289818151815260200191508051906020019080838360005b83811015610e9a578082015181840152602081019050610e7f565b50505050905090810190601f168015610ec75780820380516001836020036101000a031916815260200191505b50878103825288818151815260200191508051906020019080838360005b83811015610f00578082015181840152602081019050610ee5565b50505050905090810190601f168015610f2d5780820380516001836020036101000a031916815260200191505b509d505050505050505050505050505060405180910390f35b348015610f5257600080fd5b506110c360048036036060811015610f6957600080fd5b81019080803573ffffffffffffffffffffffffffffffffffffffff16906020019092919080359060200190640100000000811115610fa657600080fd5b820183602082011115610fb857600080fd5b80359060200191846001830284011164010000000083111715610fda57600080fd5b91908080601f016020809104026020016040519081016040528093929190818152602001838380828437600081840152601f19601f8201169050808301925050505050505091929192908035906020019064010000000081111561103d57600080fd5b82018360208201111561104f57600080fd5b8035906020019184600183028401116401000000008311171561107157600080fd5b91908080601f016020809104026020016040519081016040528093929190818152602001838380828437600081840152601f19601f8201169050808301925050505050505091929192905050506128a4565b604051808215151515815260200191505060405180910390f35b3480156110e957600080fd5b5061125a6004803603606081101561110057600080fd5b81019080803573ffffffffffffffffffffffffffffffffffffffff1690602001909291908035906020019064010000000081111561113d57600080fd5b82018360208201111561114f57600080fd5b8035906020019184600183028401116401000000008311171561117157600080fd5b91908080601f016020809104026020016040519081016040528093929190818152602001838380828437600081840152601f19601f820116905080830192505050505050509192919290803590602001906401000000008111156111d457600080fd5b8201836020820111156111e657600080fd5b8035906020019184600183028401116401000000008311171561120857600080fd5b91908080601f016020809104026020016040519081016040528093929190818152602001838380828437600081840152601f19601f82011690508083019250505050505050919291929050505061295d565b604051808215151515815260200191505060405180910390f35b34801561128057600080fd5b506112c36004803603602081101561129757600080fd5b81019080803573ffffffffffffffffffffffffffffffffffffffff169060200190929190505050612a16565b6040518082815260200191505060405180910390f35b3480156112e557600080fd5b50611456600480360360608110156112fc57600080fd5b81019080803573ffffffffffffffffffffffffffffffffffffffff1690602001909291908035906020019064010000000081111561133957600080fd5b82018360208201111561134b57600080fd5b8035906020019184600183028401116401000000008311171561136d57600080fd5b91908080601f016020809104026020016040519081016040528093929190818152602001838380828437600081840152601f19601f820116905080830192505050505050509192919290803590602001906401000000008111156113d057600080fd5b8201836020820111156113e257600080fd5b8035906020019184600183028401116401000000008311171561140457600080fd5b91908080601f016020809104026020016040519081016040528093929190818152602001838380828437600081840152601f19601f8201169050808301925050505050505091929192905050506133b2565b604051808215151515815260200191505060405180910390f35b34801561147c57600080fd5b5061148561346b565b6040518082815260200191505060405180910390f35b3480156114a757600080fd5b50611618600480360360608110156114be57600080fd5b81019080803573ffffffffffffffffffffffffffffffffffffffff169060200190929190803590602001906401000000008111156114fb57600080fd5b82018360208201111561150d57600080fd5b8035906020019184600183028401116401000000008311171561152f57600080fd5b91908080601f016020809104026020016040519081016040528093929190818152602001838380828437600081840152601f19601f8201169050808301925050505050505091929192908035906020019064010000000081111561159257600080fd5b8201836020820111156115a457600080fd5b803590602001918460018302840111640100000000831117156115c657600080fd5b91908080601f016020809104026020016040519081016040528093929190818152602001838380828437600081840152601f19601f820116905080830192505050505050509192919290505050613478565b604051808215151515815260200191505060405180910390f35b6000826000808673ffffffffffffffffffffffffffffffffffffffff1673ffffffffffffffffffffffffffffffffffffffff1681526020019081526020016000206009019080519060200190611689929190613531565b50816000808673ffffffffffffffffffffffffffffffffffffffff1673ffffffffffffffffffffffffffffffffffffffff16815260200190815260200160002060080190805190602001906116df929190613531565b50600190509392505050565b6000836000808773ffffffffffffffffffffffffffffffffffffffff1673ffffffffffffffffffffffffffffffffffffffff1681526020019081526020016000206007019080519060200190611742929190613531565b50826000808773ffffffffffffffffffffffffffffffffffffffff1673ffffffffffffffffffffffffffffffffffffffff1681526020019081526020016000206008019080519060200190611798929190613531565b50816000808773ffffffffffffffffffffffffffffffffffffffff1673ffffffffffffffffffffffffffffffffffffffff16815260200190815260200160002060090190805190602001906117ee929190613531565b506001808690806001815401808255809150509060018203906000526020600020016000909192909190916101000a81548173ffffffffffffffffffffffffffffffffffffffff021916908373ffffffffffffffffffffffffffffffffffffffff160217905550036000808773ffffffffffffffffffffffffffffffffffffffff1673ffffffffffffffffffffffffffffffffffffffff168152602001908152602001600020600a01819055507f468e8b0d121a458de732c099ec24f8967ccbe5d6e91a9010ded2cb13c47143d5858585856000808b73ffffffffffffffffffffffffffffffffffffffff1673ffffffffffffffffffffffffffffffffffffffff168152602001908152602001600020600a0154604051808673ffffffffffffffffffffffffffffffffffffffff1673ffffffffffffffffffffffffffffffffffffffff168152602001806020018060200180602001858152602001848103845288818151815260200191508051906020019080838360005b83811015611982578082015181840152602081019050611967565b50505050905090810190601f1680156119af5780820380516001836020036101000a031916815260200191505b50848103835287818151815260200191508051906020019080838360005b838110156119e85780820151818401526020810190506119cd565b50505050905090810190601f168015611a155780820380516001836020036101000a031916815260200191505b50848103825286818151815260200191508051906020019080838360005b83811015611a4e578082015181840152602081019050611a33565b50505050905090810190601f168015611a7b5780820380516001836020036101000a031916815260200191505b509850505050505050505060405180910390a160018080549050039050949350505050565b6000866000808a73ffffffffffffffffffffffffffffffffffffffff1673ffffffffffffffffffffffffffffffffffffffff1681526020019081526020016000206001019080519060200190611af7929190613531565b50856000808a73ffffffffffffffffffffffffffffffffffffffff1673ffffffffffffffffffffffffffffffffffffffff1681526020019081526020016000206002019080519060200190611b4d929190613531565b50846000808a73ffffffffffffffffffffffffffffffffffffffff1673ffffffffffffffffffffffffffffffffffffffff1681526020019081526020016000206003019080519060200190611ba3929190613531565b50836000808a73ffffffffffffffffffffffffffffffffffffffff1673ffffffffffffffffffffffffffffffffffffffff1681526020019081526020016000206004019080519060200190611bf9929190613531565b50826000808a73ffffffffffffffffffffffffffffffffffffffff1673ffffffffffffffffffffffffffffffffffffffff1681526020019081526020016000206005019080519060200190611c4f929190613531565b50816000808a73ffffffffffffffffffffffffffffffffffffffff1673ffffffffffffffffffffffffffffffffffffffff1681526020019081526020016000206006019080519060200190611ca5929190613531565b507fd20b23cdd17dcf96d3269be0d0c310d387d5e856ca9f534173169fbdee875c1988888888888888604051808873ffffffffffffffffffffffffffffffffffffffff1673ffffffffffffffffffffffffffffffffffffffff16815260200180602001806020018060200180602001806020018060200187810387528d818151815260200191508051906020019080838360005b83811015611d54578082015181840152602081019050611d39565b50505050905090810190601f168015611d815780820380516001836020036101000a031916815260200191505b5087810386528c818151815260200191508051906020019080838360005b83811015611dba578082015181840152602081019050611d9f565b50505050905090810190601f168015611de75780820380516001836020036101000a031916815260200191505b5087810385528b818151815260200191508051906020019080838360005b83811015611e20578082015181840152602081019050611e05565b50505050905090810190601f168015611e4d5780820380516001836020036101000a031916815260200191505b5087810384528a818151815260200191508051906020019080838360005b83811015611e86578082015181840152602081019050611e6b565b50505050905090810190601f168015611eb35780820380516001836020036101000a031916815260200191505b50878103835289818151815260200191508051906020019080838360005b83811015611eec578082015181840152602081019050611ed1565b50505050905090810190601f168015611f195780820380516001836020036101000a031916815260200191505b50878103825288818151815260200191508051906020019080838360005b83811015611f52578082015181840152602081019050611f37565b50505050905090810190601f168015611f7f5780820380516001836020036101000a031916815260200191505b509d505050505050505050505050505060405180910390a160018080549050039050979650505050505050565b60608060606000808573ffffffffffffffffffffffffffffffffffffffff1673ffffffffffffffffffffffffffffffffffffffff1681526020019081526020016000206007016000808673ffffffffffffffffffffffffffffffffffffffff1673ffffffffffffffffffffffffffffffffffffffff1681526020019081526020016000206008016000808773ffffffffffffffffffffffffffffffffffffffff1673ffffffffffffffffffffffffffffffffffffffff168152602001908152602001600020600901828054600181600116156101000203166002900480601f0160208091040260200160405190810160405280929190818152602001828054600181600116156101000203166002900480156121095780601f106120de57610100808354040283529160200191612109565b820191906000526020600020905b8154815290600101906020018083116120ec57829003601f168201915b50505050509250818054600181600116156101000203166002900480601f0160208091040260200160405190810160405280929190818152602001828054600181600116156101000203166002900480156121a55780601f1061217a576101008083540402835291602001916121a5565b820191906000526020600020905b81548152906001019060200180831161218857829003601f168201915b50505050509150808054600181600116156101000203166002900480601f0160208091040260200160405190810160405280929190818152602001828054600181600116156101000203166002900480156122415780601f1061221657610100808354040283529160200191612241565b820191906000526020600020905b81548152906001019060200180831161222457829003601f168201915b505050505090509250925092509193909250565b600060018281548110151561226657fe5b9060005260206000200160009054906101000a900473ffffffffffffffffffffffffffffffffffffffff169050919050565b6000826000808673ffffffffffffffffffffffffffffffffffffffff1673ffffffffffffffffffffffffffffffffffffffff16815260200190815260200160002060050190805190602001906122ef929190613531565b50816000808673ffffffffffffffffffffffffffffffffffffffff1673ffffffffffffffffffffffffffffffffffffffff1681526020019081526020016000206008019080519060200190612345929190613531565b50600190509392505050565b6000606080606080606080876000808a73ffffffffffffffffffffffffffffffffffffffff1673ffffffffffffffffffffffffffffffffffffffff1681526020019081526020016000206001016000808b73ffffffffffffffffffffffffffffffffffffffff1673ffffffffffffffffffffffffffffffffffffffff1681526020019081526020016000206002016000808c73ffffffffffffffffffffffffffffffffffffffff1673ffffffffffffffffffffffffffffffffffffffff1681526020019081526020016000206004016000808d73ffffffffffffffffffffffffffffffffffffffff1673ffffffffffffffffffffffffffffffffffffffff1681526020019081526020016000206003016000808e73ffffffffffffffffffffffffffffffffffffffff1673ffffffffffffffffffffffffffffffffffffffff1681526020019081526020016000206005016000808f73ffffffffffffffffffffffffffffffffffffffff1673ffffffffffffffffffffffffffffffffffffffff168152602001908152602001600020600601858054600181600116156101000203166002900480601f0160208091040260200160405190810160405280929190818152602001828054600181600116156101000203166002900480156125785780601f1061254d57610100808354040283529160200191612578565b820191906000526020600020905b81548152906001019060200180831161255b57829003601f168201915b50505050509550848054600181600116156101000203166002900480601f0160208091040260200160405190810160405280929190818152602001828054600181600116156101000203166002900480156126145780601f106125e957610100808354040283529160200191612614565b820191906000526020600020905b8154815290600101906020018083116125f757829003601f168201915b50505050509450838054600181600116156101000203166002900480601f0160208091040260200160405190810160405280929190818152602001828054600181600116156101000203166002900480156126b05780601f10612685576101008083540402835291602001916126b0565b820191906000526020600020905b81548152906001019060200180831161269357829003601f168201915b50505050509350828054600181600116156101000203166002900480601f01602080910402602001604051908101604052809291908181526020018280546001816001161561010002031660029004801561274c5780601f106127215761010080835404028352916020019161274c565b820191906000526020600020905b81548152906001019060200180831161272f57829003601f168201915b50505050509250818054600181600116156101000203166002900480601f0160208091040260200160405190810160405280929190818152602001828054600181600116156101000203166002900480156127e85780601f106127bd576101008083540402835291602001916127e8565b820191906000526020600020905b8154815290600101906020018083116127cb57829003601f168201915b50505050509150808054600181600116156101000203166002900480601f0160208091040260200160405190810160405280929190818152602001828054600181600116156101000203166002900480156128845780601f1061285957610100808354040283529160200191612884565b820191906000526020600020905b81548152906001019060200180831161286757829003601f168201915b505050505090509650965096509650965096509650919395979092949650565b6000826000808673ffffffffffffffffffffffffffffffffffffffff1673ffffffffffffffffffffffffffffffffffffffff16815260200190815260200160002060060190805190602001906128fb929190613531565b50816000808673ffffffffffffffffffffffffffffffffffffffff1673ffffffffffffffffffffffffffffffffffffffff1681526020019081526020016000206008019080519060200190612951929190613531565b50600190509392505050565b6000826000808673ffffffffffffffffffffffffffffffffffffffff1673ffffffffffffffffffffffffffffffffffffffff16815260200190815260200160002060030190805190602001906129b4929190613531565b50816000808673ffffffffffffffffffffffffffffffffffffffff1673ffffffffffffffffffffffffffffffffffffffff1681526020019081526020016000206008019080519060200190612a0a929190613531565b50600190509392505050565b6000806000808473ffffffffffffffffffffffffffffffffffffffff1673ffffffffffffffffffffffffffffffffffffffff168152602001908152602001600020600a015490506000600180808054905003815481101515612a7457fe5b9060005260206000200160009054906101000a900473ffffffffffffffffffffffffffffffffffffffff16905080600183815481101515612ab157fe5b9060005260206000200160006101000a81548173ffffffffffffffffffffffffffffffffffffffff021916908373ffffffffffffffffffffffffffffffffffffffff160217905550816000808373ffffffffffffffffffffffffffffffffffffffff1673ffffffffffffffffffffffffffffffffffffffff168152602001908152602001600020600a01819055506001805480919060019003612b5491906135b1565b507fc46e1937682a3bcd3f521f67c791662fb55a9364331f1f75967495078197ca348483604051808373ffffffffffffffffffffffffffffffffffffffff1673ffffffffffffffffffffffffffffffffffffffff1681526020018281526020019250505060405180910390a17f5e76df905c118c09b1494ae2720e80c348fabe4f5acf429d8690200ae0b49979816000808473ffffffffffffffffffffffffffffffffffffffff1673ffffffffffffffffffffffffffffffffffffffff1681526020019081526020016000206001016000808573ffffffffffffffffffffffffffffffffffffffff1673ffffffffffffffffffffffffffffffffffffffff1681526020019081526020016000206002016000808673ffffffffffffffffffffffffffffffffffffffff1673ffffffffffffffffffffffffffffffffffffffff1681526020019081526020016000206004016000808773ffffffffffffffffffffffffffffffffffffffff1673ffffffffffffffffffffffffffffffffffffffff1681526020019081526020016000206003016000808873ffffffffffffffffffffffffffffffffffffffff1673ffffffffffffffffffffffffffffffffffffffff1681526020019081526020016000206005016000808973ffffffffffffffffffffffffffffffffffffffff1673ffffffffffffffffffffffffffffffffffffffff168152602001908152602001600020600601604051808873ffffffffffffffffffffffffffffffffffffffff1673ffffffffffffffffffffffffffffffffffffffff16815260200180602001806020018060200180602001806020018060200187810387528d818154600181600116156101000203166002900481526020019150805460018160011615610100020316600290048015612e375780601f10612e0c57610100808354040283529160200191612e37565b820191906000526020600020905b815481529060010190602001808311612e1a57829003601f168201915b505087810386528c818154600181600116156101000203166002900481526020019150805460018160011615610100020316600290048015612eba5780601f10612e8f57610100808354040283529160200191612eba565b820191906000526020600020905b815481529060010190602001808311612e9d57829003601f168201915b505087810385528b818154600181600116156101000203166002900481526020019150805460018160011615610100020316600290048015612f3d5780601f10612f1257610100808354040283529160200191612f3d565b820191906000526020600020905b815481529060010190602001808311612f2057829003601f168201915b505087810384528a818154600181600116156101000203166002900481526020019150805460018160011615610100020316600290048015612fc05780601f10612f9557610100808354040283529160200191612fc0565b820191906000526020600020905b815481529060010190602001808311612fa357829003601f168201915b50508781038352898181546001816001161561010002031660029004815260200191508054600181600116156101000203166002900480156130435780601f1061301857610100808354040283529160200191613043565b820191906000526020600020905b81548152906001019060200180831161302657829003601f168201915b50508781038252888181546001816001161561010002031660029004815260200191508054600181600116156101000203166002900480156130c65780601f1061309b576101008083540402835291602001916130c6565b820191906000526020600020905b8154815290600101906020018083116130a957829003601f168201915b50509d505050505050505050505050505060405180910390a17f32cdbb489a131fffa830bed5382374e002b5177b4c5845276fc5d9903855c22a816000808473ffffffffffffffffffffffffffffffffffffffff1673ffffffffffffffffffffffffffffffffffffffff1681526020019081526020016000206007016000808573ffffffffffffffffffffffffffffffffffffffff1673ffffffffffffffffffffffffffffffffffffffff1681526020019081526020016000206008016000808673ffffffffffffffffffffffffffffffffffffffff1673ffffffffffffffffffffffffffffffffffffffff16815260200190815260200160002060090186604051808673ffffffffffffffffffffffffffffffffffffffff1673ffffffffffffffffffffffffffffffffffffffff16815260200180602001806020018060200185815260200184810384528881815460018160011615610100020316600290048152602001915080546001816001161561010002031660029004801561328e5780601f106132635761010080835404028352916020019161328e565b820191906000526020600020905b81548152906001019060200180831161327157829003601f168201915b50508481038352878181546001816001161561010002031660029004815260200191508054600181600116156101000203166002900480156133115780601f106132e657610100808354040283529160200191613311565b820191906000526020600020905b8154815290600101906020018083116132f457829003601f168201915b50508481038252868181546001816001161561010002031660029004815260200191508054600181600116156101000203166002900480156133945780601f1061336957610100808354040283529160200191613394565b820191906000526020600020905b81548152906001019060200180831161337757829003601f168201915b50509850505050505050505060405180910390a18192505050919050565b6000826000808673ffffffffffffffffffffffffffffffffffffffff1673ffffffffffffffffffffffffffffffffffffffff1681526020019081526020016000206002019080519060200190613409929190613531565b50816000808673ffffffffffffffffffffffffffffffffffffffff1673ffffffffffffffffffffffffffffffffffffffff168152602001908152602001600020600801908051906020019061345f929190613531565b50600190509392505050565b6000600180549050905090565b6000826000808673ffffffffffffffffffffffffffffffffffffffff1673ffffffffffffffffffffffffffffffffffffffff16815260200190815260200160002060040190805190602001906134cf929190613531565b50816000808673ffffffffffffffffffffffffffffffffffffffff1673ffffffffffffffffffffffffffffffffffffffff1681526020019081526020016000206008019080519060200190613525929190613531565b50600190509392505050565b828054600181600116156101000203166002900490600052602060002090601f016020900481019282601f1061357257805160ff19168380011785556135a0565b828001600101855582156135a0579182015b8281111561359f578251825591602001919060010190613584565b5b5090506135ad91906135dd565b5090565b8154818355818111156135d8578183600052602060002091820191016135d791906135dd565b5b505050565b6135ff91905b808211156135fb5760008160009055506001016135e3565b5090565b9056fea165627a7a72305820b369fc4977fffcc7abb583f5599c5e3264b7f2662b47eddeae0fdebec5ff4a0d0029",
  "source": "pragma solidity >=0.4.21 <0.6.0;\r\n\r\ncontract SchoolStorage {\r\n    //eventInsert\r\n    struct School {\r\n        address SchoolAddress;\r\n        string id;\r\n        string name;\r\n        string addr;\r\n        string email;\r\n        string fax;\r\n        string phone;\r\n\r\n        string createdTime;\r\n        string modifiedTime;\r\n        string islocked;\r\n        uint256 index;\r\n    }\r\n    event SetSchoolEvent(\r\n        address _schoolAddress,\r\n        string _id,\r\n        string _name,\r\n        string _addr,\r\n        string _email,\r\n        string _fax,\r\n        string _phone);\r\n\r\n    event SetSchoolAdditionEvent(\r\n        address _schoolAddress,\r\n        string _createdTime,\r\n        string _modifiedTime,\r\n        string _isLocked,\r\n        uint256 _index);\r\n\r\n    //eventUpdate\r\n    event SetLogUpdateSchoolEvent(\r\n        address _schoolAddress,\r\n        string _id,\r\n        string _name,\r\n        string _addr,\r\n        string _email,\r\n        string _fax,\r\n        string _phone);\r\n\r\n    event SetLogUpdateSchoolAdditionEvent(\r\n        address _schoolAddress,\r\n        string _createdTime,\r\n        string _modifiedTime,\r\n        string _isLocked,\r\n        uint256 _index);\r\n\r\n    //eventDelete\r\n    event SetLogDeleteSchool(\r\n        address _schoolAddress,\r\n        uint256 index);\r\n\r\n    mapping(address => School) SchoolStructsMap;\r\n\r\n    address[] SchoolIndex;\r\n\r\n    // function isSchool(address _schoolAddress) public view returns(bool isIndeed) {\r\n    //     if(SchoolIndex.length == 0) return false;\r\n    //     return (SchoolIndex[SchoolStructsMap[_schoolAddress].index] == _schoolAddress);\r\n    // }\r\n\r\n    function insertSchool(\r\n        address _schoolAddress,\r\n        string memory _id,\r\n        string memory _name,\r\n        string memory _addr,\r\n        string memory _email,\r\n        string memory _fax,\r\n        string memory _phone\r\n        )\r\n        public returns(uint256 index){\r\n            SchoolStructsMap[_schoolAddress].id = _id;\r\n            SchoolStructsMap[_schoolAddress].name = _name;\r\n            SchoolStructsMap[_schoolAddress].addr = _addr;\r\n            SchoolStructsMap[_schoolAddress].email = _email;\r\n            SchoolStructsMap[_schoolAddress].fax = _fax;\r\n            SchoolStructsMap[_schoolAddress].phone = _phone;\r\n\r\n            emit SetSchoolEvent(_schoolAddress, _id, _name, _addr, _email, _fax, _phone);\r\n        return SchoolIndex.length-1;\r\n    }\r\n\r\n    function insertSchoolAddition(\r\n        address _schoolAddress,\r\n        string memory _createdTime,\r\n        string memory _modifiedTime,\r\n        string memory _islocked\r\n        )\r\n        public returns(uint256 index){\r\n            SchoolStructsMap[_schoolAddress].createdTime = _createdTime;\r\n            SchoolStructsMap[_schoolAddress].modifiedTime = _modifiedTime;\r\n            SchoolStructsMap[_schoolAddress].islocked = _islocked;\r\n            SchoolStructsMap[_schoolAddress].index = SchoolIndex.push(_schoolAddress)-1;\r\n\r\n        emit SetSchoolAdditionEvent(\r\n            _schoolAddress,\r\n            _createdTime,\r\n            _modifiedTime,\r\n            _islocked,\r\n            SchoolStructsMap[_schoolAddress].index);\r\n        return SchoolIndex.length-1;\r\n    }\r\n\r\n    function deleteSchool(address _schoolAddress) public returns(uint256 index){\r\n        uint256 rowToDelete = SchoolStructsMap[_schoolAddress].index;\r\n        address keyToMove = SchoolIndex[SchoolIndex.length-1];\r\n        SchoolIndex[rowToDelete] = keyToMove; //vi tri can delete = vi tri cuoi ds\r\n        SchoolStructsMap[keyToMove].index = rowToDelete;\r\n\r\n        SchoolIndex.length--;\r\n        emit SetLogDeleteSchool(\r\n            _schoolAddress,\r\n            rowToDelete);\r\n\r\n        emit SetLogUpdateSchoolEvent(\r\n            keyToMove,\r\n            SchoolStructsMap[keyToMove].id,\r\n            SchoolStructsMap[keyToMove].name,\r\n            SchoolStructsMap[keyToMove].email,\r\n            SchoolStructsMap[keyToMove].addr,\r\n            SchoolStructsMap[keyToMove].fax,\r\n            SchoolStructsMap[keyToMove].phone\r\n            );\r\n        emit SetLogUpdateSchoolAdditionEvent(\r\n            keyToMove,\r\n            SchoolStructsMap[keyToMove].createdTime,\r\n            SchoolStructsMap[keyToMove].modifiedTime,\r\n            SchoolStructsMap[keyToMove].islocked,\r\n            rowToDelete\r\n            );\r\n        return rowToDelete;\r\n    }\r\n\r\n    function getSchool(address _schoolAddress) public view returns(\r\n            address SchoolAddress,\r\n            string memory id,\r\n            string memory name,\r\n            string memory email,\r\n            string memory addr,\r\n            string memory fax,\r\n            string memory phone\r\n            ){\r\n            return(\r\n                _schoolAddress,\r\n                SchoolStructsMap[_schoolAddress].id,\r\n                SchoolStructsMap[_schoolAddress].name,\r\n                SchoolStructsMap[_schoolAddress].email,\r\n                SchoolStructsMap[_schoolAddress].addr,\r\n                SchoolStructsMap[_schoolAddress].fax,\r\n                SchoolStructsMap[_schoolAddress].phone);\r\n    }\r\n\r\n    function getSchoolAddition(address _schoolAddress) public view returns(\r\n        string memory _createdTime,\r\n        string memory _modifiedTime,\r\n        string memory _islocked\r\n        ){\r\n        return(\r\n            SchoolStructsMap[_schoolAddress].createdTime,\r\n            SchoolStructsMap[_schoolAddress].modifiedTime,\r\n            SchoolStructsMap[_schoolAddress].islocked);\r\n    }\r\n\r\n    // UPDATE\r\n\r\n\r\n    function updateFullName(address _schoolAddress, string  memory  _name, string memory _modifiedTime)\r\n    public returns(bool success) {\r\n        SchoolStructsMap[_schoolAddress].name = _name;\r\n        SchoolStructsMap[_schoolAddress].modifiedTime = _modifiedTime;\r\n        return true;\r\n    }\r\n\r\n    function updateEmail(address _schoolAddress, string  memory  _email, string memory _modifiedTime)\r\n    public returns(bool success) {\r\n        SchoolStructsMap[_schoolAddress].email = _email;\r\n        SchoolStructsMap[_schoolAddress].modifiedTime = _modifiedTime;\r\n        return true;\r\n    }\r\n\r\n    function updateAddr(address _schoolAddress, string  memory  _addr, string memory _modifiedTime)\r\n        public returns(bool success) {\r\n        SchoolStructsMap[_schoolAddress].addr = _addr;\r\n        SchoolStructsMap[_schoolAddress].modifiedTime = _modifiedTime;\r\n        return true;\r\n    }\r\n\r\n    function updateFax(address _schoolAddress, string memory _fax, string memory _modifiedTime)\r\n        public returns(bool success) {\r\n        SchoolStructsMap[_schoolAddress].fax = _fax;\r\n        SchoolStructsMap[_schoolAddress].modifiedTime = _modifiedTime;\r\n        return true;\r\n    }\r\n\r\n    function updatePhone(address _schoolAddress, string memory  _phone, string memory _modifiedTime)\r\n        public returns(bool success) {\r\n        SchoolStructsMap[_schoolAddress].phone = _phone;\r\n        SchoolStructsMap[_schoolAddress].modifiedTime = _modifiedTime;\r\n        return true;\r\n    }\r\n\r\n    function updateIslocked(address _schoolAddress, string  memory  _islocked, string memory _modifiedTime)\r\n    public returns(bool success) {\r\n        SchoolStructsMap[_schoolAddress].islocked = _islocked;\r\n        SchoolStructsMap[_schoolAddress].modifiedTime = _modifiedTime;\r\n        return true;\r\n    }\r\n\r\n    function getSchoolCount() public view returns(uint256 count){\r\n            return SchoolIndex.length;\r\n        }\r\n\r\n    function getSchoolAtIndex(uint256 _index) public view returns(address SchoolAddress) {\r\n        return SchoolIndex[_index];\r\n    }\r\n\r\n}",
  "sourcePath": "C:/xampp/htdocs/Blockchain/blockchaindemo/TG_UNIVERSITY_CERTIFICATE_VERIFICATION_SERVER/contracts/School.sol",
  "compiler": {
    "name": "solc",
    "version": "0.5.0+commit.1d4f565a.Emscripten.clang"
  },
  "schemaVersion": "3.0.9",
  "updatedAt": "2019-06-14T09:10:14.346Z",
  "devdoc": {
    "methods": {}
  },
  "userdoc": {
    "methods": {}
  }
}