{
  "contractName": "Storage",
  "abi": [
    {
      "anonymous": false,
      "inputs": [
        {
          "indexed": false,
          "name": "degreeKindId",
          "type": "uint256"
        },
        {
          "indexed": false,
          "name": "degreeKindName",
          "type": "string"
        }
      ],
      "name": "setDegreeKindEvent",
      "type": "event"
    },
    {
      "constant": false,
      "inputs": [
        {
          "name": "_degreeKindId",
          "type": "uint256"
        },
        {
          "name": "_degreeKindName",
          "type": "string"
        }
      ],
      "name": "setDegreeKind",
      "outputs": [
        {
          "name": "",
          "type": "bool"
        }
      ],
      "payable": false,
      "stateMutability": "nonpayable",
      "type": "function"
    },
    {
      "constant": true,
      "inputs": [
        {
          "name": "_degreeKindId",
          "type": "uint256"
        }
      ],
      "name": "getDegreeKind",
      "outputs": [
        {
          "name": "degreeKindId",
          "type": "uint256"
        },
        {
          "name": "degreeKindName",
          "type": "string"
        }
      ],
      "payable": false,
      "stateMutability": "view",
      "type": "function"
    },
    {
      "constant": true,
      "inputs": [],
      "name": "getIndex",
      "outputs": [
        {
          "name": "",
          "type": "uint256"
        }
      ],
      "payable": false,
      "stateMutability": "view",
      "type": "function"
    }
  ],
  "bytecode": "0x608060405234801561001057600080fd5b506105c5806100206000396000f3fe608060405260043610610057576000357c0100000000000000000000000000000000000000000000000000000000900463ffffffff1680630ad6a3dd1461005c5780636857fe3d1461014657806381045ead14610201575b600080fd5b34801561006857600080fd5b5061012c6004803603604081101561007f57600080fd5b8101908080359060200190929190803590602001906401000000008111156100a657600080fd5b8201836020820111156100b857600080fd5b803590602001918460018302840111640100000000831117156100da57600080fd5b91908080601f016020809104026020016040519081016040528093929190818152602001838380828437600081840152601f19601f82011690508083019250505050505050919291929050505061022c565b604051808215151515815260200191505060405180910390f35b34801561015257600080fd5b5061017f6004803603602081101561016957600080fd5b810190808035906020019092919050505061035b565b6040518083815260200180602001828103825283818151815260200191508051906020019080838360005b838110156101c55780820151818401526020810190506101aa565b50505050905090810190601f1680156101f25780820380516001836020036101000a031916815260200191505b50935050505060405180910390f35b34801561020d57600080fd5b5061021661044a565b6040518082815260200191505060405180910390f35b6000826002600001819055508160026001019080519060200190610251929190610453565b5060026001600085815260200190815260200160002060008201548160000155600182018160010190805460018160011615610100020316600290046102989291906104d3565b5090505060008081548092919060010191905055507f01bc22b01edc3d7aa3fbc64fe1d07e84e62c292a53e21830f0e819fd5add33d083836040518083815260200180602001828103825283818151815260200191508051906020019080838360005b838110156103165780820151818401526020810190506102fb565b50505050905090810190601f1680156103435780820380516001836020036101000a031916815260200191505b50935050505060405180910390a16001905092915050565b6000606061036761055a565b6001600085815260200190815260200160002060408051908101604052908160008201548152602001600182018054600181600116156101000203166002900480601f0160208091040260200160405190810160405280929190818152602001828054600181600116156101000203166002900480156104285780601f106103fd57610100808354040283529160200191610428565b820191906000526020600020905b81548152906001019060200180831161040b57829003601f168201915b5050505050815250509050806000015181602001518090509250925050915091565b60008054905090565b828054600181600116156101000203166002900490600052602060002090601f016020900481019282601f1061049457805160ff19168380011785556104c2565b828001600101855582156104c2579182015b828111156104c15782518255916020019190600101906104a6565b5b5090506104cf9190610574565b5090565b828054600181600116156101000203166002900490600052602060002090601f016020900481019282601f1061050c5780548555610549565b8280016001018555821561054957600052602060002091601f016020900482015b8281111561054857825482559160010191906001019061052d565b5b5090506105569190610574565b5090565b604080519081016040528060008152602001606081525090565b61059691905b8082111561059257600081600090555060010161057a565b5090565b9056fea165627a7a7230582008ec9eb9bc1c268e7c2f3deb7bbe4864e027d205b8386f63440c42fd4f629b760029",
  "source": "pragma solidity >=0.4.21 <0.6.0;\r\n\r\ncontract Storage {\r\n\r\n    event setDegreeKindEvent(uint degreeKindId, string degreeKindName);\r\n    \r\n    uint256 index;\r\n    \r\n    struct DegreeKind {\r\n        uint degreeKindId;\r\n        string degreeKindName;\r\n    }\r\n    \r\n    mapping (uint => DegreeKind) DegreeKindMapping;\r\n\r\n    DegreeKind degreeKind;\r\n\r\n    function setDegreeKind(uint _degreeKindId, string memory _degreeKindName) public returns(bool) {\r\n        degreeKind.degreeKindId = _degreeKindId;\r\n        degreeKind.degreeKindName = _degreeKindName;\r\n\r\n        DegreeKindMapping[_degreeKindId] = degreeKind;\r\n        index++;\r\n        emit setDegreeKindEvent(_degreeKindId, _degreeKindName);\r\n\r\n        return true;\r\n    }\r\n\r\n    function getDegreeKind(uint _degreeKindId) public view returns(uint degreeKindId, string memory degreeKindName) {\r\n        DegreeKind memory tmpData = DegreeKindMapping[_degreeKindId];\r\n        return (tmpData.degreeKindId, tmpData.degreeKindName);\r\n    }\r\n    \r\n    function getIndex() public view returns(uint256) {\r\n        return index;\r\n    }\r\n}",
  "sourcePath": "C:/Users/binhlam/Documents/BLOCKCHAIN/demo/TG_UNIVERSITY_CERTIFICATE_VERIFICATION_SERVER/contracts/DegreeKind.sol",
  "compiler": {
    "name": "solc",
    "version": "0.5.0+commit.1d4f565a.Emscripten.clang"
  },
  "schemaVersion": "3.0.6",
  "updatedAt": "2019-05-08T07:23:31.489Z",
  "devdoc": {
    "methods": {}
  },
  "userdoc": {
    "methods": {}
  }
}