{
  "contractName": "UserManagementStorage",
  "abi": [
    {
      "anonymous": false,
      "inputs": [
        {
          "indexed": false,
          "name": "_userAddress",
          "type": "address"
        },
        {
          "indexed": false,
          "name": "_fullName",
          "type": "string"
        },
        {
          "indexed": false,
          "name": "_email",
          "type": "string"
        },
        {
          "indexed": false,
          "name": "_password",
          "type": "string"
        },
        {
          "indexed": false,
          "name": "_gender",
          "type": "string"
        },
        {
          "indexed": false,
          "name": "_dateOfBirth",
          "type": "string"
        },
        {
          "indexed": false,
          "name": "_dateOfBirth",
          "type": "uint256"
        }
      ],
      "name": "SetUserManagementEvent",
      "type": "event"
    },
    {
      "anonymous": false,
      "inputs": [
        {
          "indexed": false,
          "name": "_userAddress",
          "type": "address"
        },
        {
          "indexed": false,
          "name": "_isLocked",
          "type": "string"
        },
        {
          "indexed": false,
          "name": "_createdTime",
          "type": "uint256"
        },
        {
          "indexed": false,
          "name": "_modifiedTime",
          "type": "uint256"
        },
        {
          "indexed": false,
          "name": "_idCardNo",
          "type": "string"
        },
        {
          "indexed": false,
          "name": "_idCardIssuePlace",
          "type": "string"
        }
      ],
      "name": "SetUserManagementAdditionEvent",
      "type": "event"
    },
    {
      "anonymous": false,
      "inputs": [
        {
          "indexed": false,
          "name": "_userAddress",
          "type": "address"
        },
        {
          "indexed": false,
          "name": "_phoneNumber",
          "type": "string"
        },
        {
          "indexed": false,
          "name": "_job",
          "type": "string"
        },
        {
          "indexed": false,
          "name": "_userAddr",
          "type": "string"
        },
        {
          "indexed": false,
          "name": "_index",
          "type": "uint256"
        }
      ],
      "name": "SetUserManagementAdditionFlusEvent",
      "type": "event"
    },
    {
      "anonymous": false,
      "inputs": [
        {
          "indexed": false,
          "name": "_userAddress",
          "type": "address"
        },
        {
          "indexed": false,
          "name": "_fullName",
          "type": "string"
        },
        {
          "indexed": false,
          "name": "_email",
          "type": "string"
        },
        {
          "indexed": false,
          "name": "_password",
          "type": "string"
        },
        {
          "indexed": false,
          "name": "_gender",
          "type": "string"
        },
        {
          "indexed": false,
          "name": "_dateOfBirth",
          "type": "string"
        },
        {
          "indexed": false,
          "name": "_dateOfBirth",
          "type": "uint256"
        }
      ],
      "name": "SetLogUpdateUserManagementEven",
      "type": "event"
    },
    {
      "anonymous": false,
      "inputs": [
        {
          "indexed": false,
          "name": "_userAddress",
          "type": "address"
        },
        {
          "indexed": false,
          "name": "_isLocked",
          "type": "string"
        },
        {
          "indexed": false,
          "name": "_createdTime",
          "type": "uint256"
        },
        {
          "indexed": false,
          "name": "_modifiedTime",
          "type": "uint256"
        },
        {
          "indexed": false,
          "name": "_idCardNo",
          "type": "string"
        },
        {
          "indexed": false,
          "name": "_idCardIssuePlace",
          "type": "string"
        }
      ],
      "name": "SetLogUpdateUserManagementAdditionEven",
      "type": "event"
    },
    {
      "anonymous": false,
      "inputs": [
        {
          "indexed": false,
          "name": "_userAddress",
          "type": "address"
        },
        {
          "indexed": false,
          "name": "_phoneNumber",
          "type": "string"
        },
        {
          "indexed": false,
          "name": "_job",
          "type": "string"
        },
        {
          "indexed": false,
          "name": "_userAddr",
          "type": "string"
        },
        {
          "indexed": false,
          "name": "_index",
          "type": "uint256"
        }
      ],
      "name": "SetLogUpdateUserManagementAdditionFlusEven",
      "type": "event"
    },
    {
      "anonymous": false,
      "inputs": [
        {
          "indexed": false,
          "name": "_userAddress",
          "type": "address"
        },
        {
          "indexed": false,
          "name": "index",
          "type": "uint256"
        }
      ],
      "name": "SetLogDeleteUserManagement",
      "type": "event"
    },
    {
      "constant": true,
      "inputs": [
        {
          "name": "_userAddress",
          "type": "address"
        }
      ],
      "name": "isUser",
      "outputs": [
        {
          "name": "isIndeed",
          "type": "bool"
        }
      ],
      "payable": false,
      "stateMutability": "view",
      "type": "function"
    },
    {
      "constant": false,
      "inputs": [
        {
          "name": "_userAddress",
          "type": "address"
        },
        {
          "name": "_fullName",
          "type": "string"
        },
        {
          "name": "_email",
          "type": "string"
        },
        {
          "name": "_password",
          "type": "string"
        },
        {
          "name": "_gender",
          "type": "string"
        },
        {
          "name": "_dateOfBirth",
          "type": "string"
        },
        {
          "name": "_dateOfBirth",
          "type": "uint256"
        }
      ],
      "name": "insertUser",
      "outputs": [
        {
          "name": "index",
          "type": "uint256"
        }
      ],
      "payable": false,
      "stateMutability": "nonpayable",
      "type": "function"
    },
    {
      "constant": false,
      "inputs": [
        {
          "name": "_userAddress",
          "type": "address"
        },
        {
          "name": "_isLocked",
          "type": "string"
        },
        {
          "name": "_createdTime",
          "type": "uint256"
        },
        {
          "name": "_modifiedTime",
          "type": "uint256"
        },
        {
          "name": "_idCardNo",
          "type": "string"
        },
        {
          "name": "_idCardIssuePlace",
          "type": "string"
        }
      ],
      "name": "insertUserDetail",
      "outputs": [
        {
          "name": "index",
          "type": "uint256"
        }
      ],
      "payable": false,
      "stateMutability": "nonpayable",
      "type": "function"
    },
    {
      "constant": false,
      "inputs": [
        {
          "name": "_userAddress",
          "type": "address"
        },
        {
          "name": "_phoneNumber",
          "type": "string"
        },
        {
          "name": "_job",
          "type": "string"
        },
        {
          "name": "_userAddr",
          "type": "string"
        }
      ],
      "name": "insertUserDetailFlus",
      "outputs": [
        {
          "name": "index",
          "type": "uint256"
        }
      ],
      "payable": false,
      "stateMutability": "nonpayable",
      "type": "function"
    },
    {
      "constant": false,
      "inputs": [
        {
          "name": "_userAddress",
          "type": "address"
        }
      ],
      "name": "deleteUser",
      "outputs": [
        {
          "name": "index",
          "type": "uint256"
        }
      ],
      "payable": false,
      "stateMutability": "nonpayable",
      "type": "function"
    },
    {
      "constant": true,
      "inputs": [
        {
          "name": "_userAddress",
          "type": "address"
        }
      ],
      "name": "getUser",
      "outputs": [
        {
          "name": "userAddress",
          "type": "address"
        },
        {
          "name": "_fullName",
          "type": "string"
        },
        {
          "name": "_email",
          "type": "string"
        },
        {
          "name": "_password",
          "type": "string"
        },
        {
          "name": "_gender",
          "type": "string"
        },
        {
          "name": "_dateOfBirth",
          "type": "string"
        },
        {
          "name": "_dateOfBirth",
          "type": "uint256"
        }
      ],
      "payable": false,
      "stateMutability": "view",
      "type": "function"
    },
    {
      "constant": true,
      "inputs": [
        {
          "name": "_userAddress",
          "type": "address"
        }
      ],
      "name": "getUserDetailMore",
      "outputs": [
        {
          "name": "_isLocked",
          "type": "string"
        },
        {
          "name": "_createdTime",
          "type": "uint256"
        },
        {
          "name": "_modifiedTime",
          "type": "uint256"
        },
        {
          "name": "_idCardNo",
          "type": "string"
        },
        {
          "name": "_idCardIssuePlace",
          "type": "string"
        }
      ],
      "payable": false,
      "stateMutability": "view",
      "type": "function"
    },
    {
      "constant": true,
      "inputs": [
        {
          "name": "_userAddress",
          "type": "address"
        }
      ],
      "name": "getUserDetailMoreMore",
      "outputs": [
        {
          "name": "_phoneNumber",
          "type": "string"
        },
        {
          "name": "_job",
          "type": "string"
        },
        {
          "name": "_userAddr",
          "type": "string"
        },
        {
          "name": "index",
          "type": "uint256"
        }
      ],
      "payable": false,
      "stateMutability": "view",
      "type": "function"
    },
    {
      "constant": false,
      "inputs": [
        {
          "name": "_userAddress",
          "type": "address"
        },
        {
          "name": "_fullName",
          "type": "string"
        },
        {
          "name": "_modifiedTime",
          "type": "uint256"
        }
      ],
      "name": "updateFullName",
      "outputs": [
        {
          "name": "success",
          "type": "bool"
        }
      ],
      "payable": false,
      "stateMutability": "nonpayable",
      "type": "function"
    },
    {
      "constant": false,
      "inputs": [
        {
          "name": "_userAddress",
          "type": "address"
        },
        {
          "name": "_email",
          "type": "string"
        },
        {
          "name": "_modifiedTime",
          "type": "uint256"
        }
      ],
      "name": "updateEmail",
      "outputs": [
        {
          "name": "success",
          "type": "bool"
        }
      ],
      "payable": false,
      "stateMutability": "nonpayable",
      "type": "function"
    },
    {
      "constant": false,
      "inputs": [
        {
          "name": "_userAddress",
          "type": "address"
        },
        {
          "name": "_password",
          "type": "string"
        },
        {
          "name": "_modifiedTime",
          "type": "uint256"
        }
      ],
      "name": "updatePassword",
      "outputs": [
        {
          "name": "success",
          "type": "bool"
        }
      ],
      "payable": false,
      "stateMutability": "nonpayable",
      "type": "function"
    },
    {
      "constant": false,
      "inputs": [
        {
          "name": "_userAddress",
          "type": "address"
        },
        {
          "name": "_gender",
          "type": "string"
        },
        {
          "name": "_modifiedTime",
          "type": "uint256"
        }
      ],
      "name": "updateGender",
      "outputs": [
        {
          "name": "success",
          "type": "bool"
        }
      ],
      "payable": false,
      "stateMutability": "nonpayable",
      "type": "function"
    },
    {
      "constant": false,
      "inputs": [
        {
          "name": "_userAddress",
          "type": "address"
        },
        {
          "name": "_dateOfBirth",
          "type": "string"
        },
        {
          "name": "_modifiedTime",
          "type": "uint256"
        }
      ],
      "name": "updateDateOfBirth",
      "outputs": [
        {
          "name": "success",
          "type": "bool"
        }
      ],
      "payable": false,
      "stateMutability": "nonpayable",
      "type": "function"
    },
    {
      "constant": false,
      "inputs": [
        {
          "name": "_userAddress",
          "type": "address"
        },
        {
          "name": "_isLocked",
          "type": "string"
        },
        {
          "name": "_modifiedTime",
          "type": "uint256"
        }
      ],
      "name": "updateIsLocked",
      "outputs": [
        {
          "name": "success",
          "type": "bool"
        }
      ],
      "payable": false,
      "stateMutability": "nonpayable",
      "type": "function"
    },
    {
      "constant": false,
      "inputs": [
        {
          "name": "_userAddress",
          "type": "address"
        },
        {
          "name": "_idCardNo",
          "type": "string"
        },
        {
          "name": "_modifiedTime",
          "type": "uint256"
        }
      ],
      "name": "updateIdCardNo",
      "outputs": [
        {
          "name": "success",
          "type": "bool"
        }
      ],
      "payable": false,
      "stateMutability": "nonpayable",
      "type": "function"
    },
    {
      "constant": false,
      "inputs": [
        {
          "name": "_userAddress",
          "type": "address"
        },
        {
          "name": "_idCardIssuePlace",
          "type": "string"
        },
        {
          "name": "_modifiedTime",
          "type": "uint256"
        }
      ],
      "name": "updateIdCardIssuePlace",
      "outputs": [
        {
          "name": "success",
          "type": "bool"
        }
      ],
      "payable": false,
      "stateMutability": "nonpayable",
      "type": "function"
    },
    {
      "constant": false,
      "inputs": [
        {
          "name": "_userAddress",
          "type": "address"
        },
        {
          "name": "_phoneNumber",
          "type": "string"
        },
        {
          "name": "_modifiedTime",
          "type": "uint256"
        }
      ],
      "name": "updatePhoneNumber",
      "outputs": [
        {
          "name": "success",
          "type": "bool"
        }
      ],
      "payable": false,
      "stateMutability": "nonpayable",
      "type": "function"
    },
    {
      "constant": false,
      "inputs": [
        {
          "name": "_userAddress",
          "type": "address"
        },
        {
          "name": "_job",
          "type": "string"
        },
        {
          "name": "_modifiedTime",
          "type": "uint256"
        }
      ],
      "name": "updateJob",
      "outputs": [
        {
          "name": "success",
          "type": "bool"
        }
      ],
      "payable": false,
      "stateMutability": "nonpayable",
      "type": "function"
    },
    {
      "constant": false,
      "inputs": [
        {
          "name": "_userAddress",
          "type": "address"
        },
        {
          "name": "_userAddr",
          "type": "string"
        },
        {
          "name": "_modifiedTime",
          "type": "uint256"
        }
      ],
      "name": "updateUserAddr",
      "outputs": [
        {
          "name": "success",
          "type": "bool"
        }
      ],
      "payable": false,
      "stateMutability": "nonpayable",
      "type": "function"
    },
    {
      "constant": true,
      "inputs": [],
      "name": "getUserCount",
      "outputs": [
        {
          "name": "count",
          "type": "uint256"
        }
      ],
      "payable": false,
      "stateMutability": "view",
      "type": "function"
    },
    {
      "constant": true,
      "inputs": [
        {
          "name": "_index",
          "type": "uint256"
        }
      ],
      "name": "getUserAtIndex",
      "outputs": [
        {
          "name": "userAddress",
          "type": "address"
        }
      ],
      "payable": false,
      "stateMutability": "view",
      "type": "function"
    }
  ],
  "bytecode": "0x608060405234801561001057600080fd5b50614b31806100206000396000f3fe60806040526004361061011d576000357c0100000000000000000000000000000000000000000000000000000000900463ffffffff1680632d57fe43146101225780634209fff11461022c57806342513d571461029557806342d71e5b1461039f578063507577ab146104a957806350c2a067146108015780635c60f22614610a3f5780636219bd9d14610aa457806369680c4814610bae5780636f77926b14610cb857806370c6842414610f65578063758dc2461461110e578063b066a31514611218578063b5cb15f714611322578063c89ba8901461134d578063dadd9b2314611457578063e161bf3714611561578063e45af46e1461166b578063e6d50c9914611775578063ff7b376c14611925578063ffcc7bbf14611b4f575b600080fd5b34801561012e57600080fd5b506102126004803603606081101561014557600080fd5b81019080803573ffffffffffffffffffffffffffffffffffffffff1690602001909291908035906020019064010000000081111561018257600080fd5b82018360208201111561019457600080fd5b803590602001918460018302840111640100000000831117156101b657600080fd5b91908080601f016020809104026020016040519081016040528093929190818152602001838380828437600081840152601f19601f82011690508083019250505050505050919291929080359060200190929190505050611bca565b604051808215151515815260200191505060405180910390f35b34801561023857600080fd5b5061027b6004803603602081101561024f57600080fd5b81019080803573ffffffffffffffffffffffffffffffffffffffff169060200190929190505050611c73565b604051808215151515815260200191505060405180910390f35b3480156102a157600080fd5b50610385600480360360608110156102b857600080fd5b81019080803573ffffffffffffffffffffffffffffffffffffffff169060200190929190803590602001906401000000008111156102f557600080fd5b82018360208201111561030757600080fd5b8035906020019184600183028401116401000000008311171561032957600080fd5b91908080601f016020809104026020016040519081016040528093929190818152602001838380828437600081840152601f19601f82011690508083019250505050505050919291929080359060200190929190505050611d3c565b604051808215151515815260200191505060405180910390f35b3480156103ab57600080fd5b5061048f600480360360608110156103c257600080fd5b81019080803573ffffffffffffffffffffffffffffffffffffffff169060200190929190803590602001906401000000008111156103ff57600080fd5b82018360208201111561041157600080fd5b8035906020019184600183028401116401000000008311171561043357600080fd5b91908080601f016020809104026020016040519081016040528093929190818152602001838380828437600081840152601f19601f82011690508083019250505050505050919291929080359060200190929190505050611de5565b604051808215151515815260200191505060405180910390f35b3480156104b557600080fd5b506107eb600480360360c08110156104cc57600080fd5b81019080803573ffffffffffffffffffffffffffffffffffffffff1690602001909291908035906020019064010000000081111561050957600080fd5b82018360208201111561051b57600080fd5b8035906020019184600183028401116401000000008311171561053d57600080fd5b91908080601f016020809104026020016040519081016040528093929190818152602001838380828437600081840152601f19601f820116905080830192505050505050509192919290803590602001906401000000008111156105a057600080fd5b8201836020820111156105b257600080fd5b803590602001918460018302840111640100000000831117156105d457600080fd5b91908080601f016020809104026020016040519081016040528093929190818152602001838380828437600081840152601f19601f8201169050808301925050505050505091929192908035906020019064010000000081111561063757600080fd5b82018360208201111561064957600080fd5b8035906020019184600183028401116401000000008311171561066b57600080fd5b91908080601f016020809104026020016040519081016040528093929190818152602001838380828437600081840152601f19601f820116905080830192505050505050509192919290803590602001906401000000008111156106ce57600080fd5b8201836020820111156106e057600080fd5b8035906020019184600183028401116401000000008311171561070257600080fd5b91908080601f016020809104026020016040519081016040528093929190818152602001838380828437600081840152601f19601f8201169050808301925050505050505091929192908035906020019064010000000081111561076557600080fd5b82018360208201111561077757600080fd5b8035906020019184600183028401116401000000008311171561079957600080fd5b91908080601f016020809104026020016040519081016040528093929190818152602001838380828437600081840152601f19601f820116905080830192505050505050509192919290505050611e8e565b6040518082815260200191505060405180910390f35b34801561080d57600080fd5b50610a29600480360360c081101561082457600080fd5b81019080803573ffffffffffffffffffffffffffffffffffffffff1690602001909291908035906020019064010000000081111561086157600080fd5b82018360208201111561087357600080fd5b8035906020019184600183028401116401000000008311171561089557600080fd5b91908080601f016020809104026020016040519081016040528093929190818152602001838380828437600081840152601f19601f82011690508083019250505050505050919291929080359060200190929190803590602001909291908035906020019064010000000081111561090c57600080fd5b82018360208201111561091e57600080fd5b8035906020019184600183028401116401000000008311171561094057600080fd5b91908080601f016020809104026020016040519081016040528093929190818152602001838380828437600081840152601f19601f820116905080830192505050505050509192919290803590602001906401000000008111156109a357600080fd5b8201836020820111156109b557600080fd5b803590602001918460018302840111640100000000831117156109d757600080fd5b91908080601f016020809104026020016040519081016040528093929190818152602001838380828437600081840152601f19601f8201169050808301925050505050505091929192905050506122d6565b6040518082815260200191505060405180910390f35b348015610a4b57600080fd5b50610a8e60048036036020811015610a6257600080fd5b81019080803573ffffffffffffffffffffffffffffffffffffffff169060200190929190505050612634565b6040518082815260200191505060405180910390f35b348015610ab057600080fd5b50610b9460048036036060811015610ac757600080fd5b81019080803573ffffffffffffffffffffffffffffffffffffffff16906020019092919080359060200190640100000000811115610b0457600080fd5b820183602082011115610b1657600080fd5b80359060200191846001830284011164010000000083111715610b3857600080fd5b91908080601f016020809104026020016040519081016040528093929190818152602001838380828437600081840152601f19601f82011690508083019250505050505050919291929080359060200190929190505050613259565b604051808215151515815260200191505060405180910390f35b348015610bba57600080fd5b50610c9e60048036036060811015610bd157600080fd5b81019080803573ffffffffffffffffffffffffffffffffffffffff16906020019092919080359060200190640100000000811115610c0e57600080fd5b820183602082011115610c2057600080fd5b80359060200191846001830284011164010000000083111715610c4257600080fd5b91908080601f016020809104026020016040519081016040528093929190818152602001838380828437600081840152601f19601f82011690508083019250505050505050919291929080359060200190929190505050613302565b604051808215151515815260200191505060405180910390f35b348015610cc457600080fd5b50610d0760048036036020811015610cdb57600080fd5b81019080803573ffffffffffffffffffffffffffffffffffffffff1690602001909291905050506133ab565b604051808773ffffffffffffffffffffffffffffffffffffffff1673ffffffffffffffffffffffffffffffffffffffff168152602001806020018060200180602001806020018060200186810386528b818151815260200191508051906020019080838360005b83811015610d89578082015181840152602081019050610d6e565b50505050905090810190601f168015610db65780820380516001836020036101000a031916815260200191505b5086810385528a818151815260200191508051906020019080838360005b83811015610def578082015181840152602081019050610dd4565b50505050905090810190601f168015610e1c5780820380516001836020036101000a031916815260200191505b50868103845289818151815260200191508051906020019080838360005b83811015610e55578082015181840152602081019050610e3a565b50505050905090810190601f168015610e825780820380516001836020036101000a031916815260200191505b50868103835288818151815260200191508051906020019080838360005b83811015610ebb578082015181840152602081019050610ea0565b50505050905090810190601f168015610ee85780820380516001836020036101000a031916815260200191505b50868103825287818151815260200191508051906020019080838360005b83811015610f21578082015181840152602081019050610f06565b50505050905090810190601f168015610f4e5780820380516001836020036101000a031916815260200191505b509b50505050505050505050505060405180910390f35b348015610f7157600080fd5b50610fb460048036036020811015610f8857600080fd5b81019080803573ffffffffffffffffffffffffffffffffffffffff16906020019092919050505061381c565b60405180806020018060200180602001858152602001848103845288818151815260200191508051906020019080838360005b83811015611002578082015181840152602081019050610fe7565b50505050905090810190601f16801561102f5780820380516001836020036101000a031916815260200191505b50848103835287818151815260200191508051906020019080838360005b8381101561106857808201518184015260208101905061104d565b50505050905090810190601f1680156110955780820380516001836020036101000a031916815260200191505b50848103825286818151815260200191508051906020019080838360005b838110156110ce5780820151818401526020810190506110b3565b50505050905090810190601f1680156110fb5780820380516001836020036101000a031916815260200191505b5097505050505050505060405180910390f35b34801561111a57600080fd5b506111fe6004803603606081101561113157600080fd5b81019080803573ffffffffffffffffffffffffffffffffffffffff1690602001909291908035906020019064010000000081111561116e57600080fd5b82018360208201111561118057600080fd5b803590602001918460018302840111640100000000831117156111a257600080fd5b91908080601f016020809104026020016040519081016040528093929190818152602001838380828437600081840152601f19601f82011690508083019250505050505050919291929080359060200190929190505050613b0b565b604051808215151515815260200191505060405180910390f35b34801561122457600080fd5b506113086004803603606081101561123b57600080fd5b81019080803573ffffffffffffffffffffffffffffffffffffffff1690602001909291908035906020019064010000000081111561127857600080fd5b82018360208201111561128a57600080fd5b803590602001918460018302840111640100000000831117156112ac57600080fd5b91908080601f016020809104026020016040519081016040528093929190818152602001838380828437600081840152601f19601f82011690508083019250505050505050919291929080359060200190929190505050613bb4565b604051808215151515815260200191505060405180910390f35b34801561132e57600080fd5b50611337613c5d565b6040518082815260200191505060405180910390f35b34801561135957600080fd5b5061143d6004803603606081101561137057600080fd5b81019080803573ffffffffffffffffffffffffffffffffffffffff169060200190929190803590602001906401000000008111156113ad57600080fd5b8201836020820111156113bf57600080fd5b803590602001918460018302840111640100000000831117156113e157600080fd5b91908080601f016020809104026020016040519081016040528093929190818152602001838380828437600081840152601f19601f82011690508083019250505050505050919291929080359060200190929190505050613c6a565b604051808215151515815260200191505060405180910390f35b34801561146357600080fd5b506115476004803603606081101561147a57600080fd5b81019080803573ffffffffffffffffffffffffffffffffffffffff169060200190929190803590602001906401000000008111156114b757600080fd5b8201836020820111156114c957600080fd5b803590602001918460018302840111640100000000831117156114eb57600080fd5b91908080601f016020809104026020016040519081016040528093929190818152602001838380828437600081840152601f19601f82011690508083019250505050505050919291929080359060200190929190505050613d13565b604051808215151515815260200191505060405180910390f35b34801561156d57600080fd5b506116516004803603606081101561158457600080fd5b81019080803573ffffffffffffffffffffffffffffffffffffffff169060200190929190803590602001906401000000008111156115c157600080fd5b8201836020820111156115d357600080fd5b803590602001918460018302840111640100000000831117156115f557600080fd5b91908080601f016020809104026020016040519081016040528093929190818152602001838380828437600081840152601f19601f82011690508083019250505050505050919291929080359060200190929190505050613dbc565b604051808215151515815260200191505060405180910390f35b34801561167757600080fd5b5061175b6004803603606081101561168e57600080fd5b81019080803573ffffffffffffffffffffffffffffffffffffffff169060200190929190803590602001906401000000008111156116cb57600080fd5b8201836020820111156116dd57600080fd5b803590602001918460018302840111640100000000831117156116ff57600080fd5b91908080601f016020809104026020016040519081016040528093929190818152602001838380828437600081840152601f19601f8201169050808301925050505050505091929192908035906020019092919050505061425d565b604051808215151515815260200191505060405180910390f35b34801561178157600080fd5b506117c46004803603602081101561179857600080fd5b81019080803573ffffffffffffffffffffffffffffffffffffffff169060200190929190505050614306565b60405180806020018681526020018581526020018060200180602001848103845289818151815260200191508051906020019080838360005b838110156118185780820151818401526020810190506117fd565b50505050905090810190601f1680156118455780820380516001836020036101000a031916815260200191505b50848103835286818151815260200191508051906020019080838360005b8381101561187e578082015181840152602081019050611863565b50505050905090810190601f1680156118ab5780820380516001836020036101000a031916815260200191505b50848103825285818151815260200191508051906020019080838360005b838110156118e45780820151818401526020810190506118c9565b50505050905090810190601f1680156119115780820380516001836020036101000a031916815260200191505b509850505050505050505060405180910390f35b34801561193157600080fd5b50611b396004803603608081101561194857600080fd5b81019080803573ffffffffffffffffffffffffffffffffffffffff1690602001909291908035906020019064010000000081111561198557600080fd5b82018360208201111561199757600080fd5b803590602001918460018302840111640100000000831117156119b957600080fd5b91908080601f016020809104026020016040519081016040528093929190818152602001838380828437600081840152601f19601f82011690508083019250505050505050919291929080359060200190640100000000811115611a1c57600080fd5b820183602082011115611a2e57600080fd5b80359060200191846001830284011164010000000083111715611a5057600080fd5b91908080601f016020809104026020016040519081016040528093929190818152602001838380828437600081840152601f19601f82011690508083019250505050505050919291929080359060200190640100000000811115611ab357600080fd5b820183602082011115611ac557600080fd5b80359060200191846001830284011164010000000083111715611ae757600080fd5b91908080601f016020809104026020016040519081016040528093929190818152602001838380828437600081840152601f19601f82011690508083019250505050505050919291929050505061463c565b6040518082815260200191505060405180910390f35b348015611b5b57600080fd5b50611b8860048036036020811015611b7257600080fd5b81019080803590602001909291905050506149f1565b604051808273ffffffffffffffffffffffffffffffffffffffff1673ffffffffffffffffffffffffffffffffffffffff16815260200191505060405180910390f35b6000826000808673ffffffffffffffffffffffffffffffffffffffff1673ffffffffffffffffffffffffffffffffffffffff1681526020019081526020016000206005019080519060200190611c21929190614a34565b50816000808673ffffffffffffffffffffffffffffffffffffffff1673ffffffffffffffffffffffffffffffffffffffff16815260200190815260200160002060080181905550600190509392505050565b6000806001805490501415611c8b5760009050611d37565b8173ffffffffffffffffffffffffffffffffffffffff1660016000808573ffffffffffffffffffffffffffffffffffffffff1673ffffffffffffffffffffffffffffffffffffffff168152602001908152602001600020600e0154815481101515611cf257fe5b9060005260206000200160009054906101000a900473ffffffffffffffffffffffffffffffffffffffff1673ffffffffffffffffffffffffffffffffffffffff161490505b919050565b6000826000808673ffffffffffffffffffffffffffffffffffffffff1673ffffffffffffffffffffffffffffffffffffffff1681526020019081526020016000206009019080519060200190611d93929190614a34565b50816000808673ffffffffffffffffffffffffffffffffffffffff1673ffffffffffffffffffffffffffffffffffffffff16815260200190815260200160002060080181905550600190509392505050565b6000826000808673ffffffffffffffffffffffffffffffffffffffff1673ffffffffffffffffffffffffffffffffffffffff168152602001908152602001600020600b019080519060200190611e3c929190614a34565b50816000808673ffffffffffffffffffffffffffffffffffffffff1673ffffffffffffffffffffffffffffffffffffffff16815260200190815260200160002060080181905550600190509392505050565b6000856000808973ffffffffffffffffffffffffffffffffffffffff1673ffffffffffffffffffffffffffffffffffffffff1681526020019081526020016000206001019080519060200190611ee5929190614a34565b50846000808973ffffffffffffffffffffffffffffffffffffffff1673ffffffffffffffffffffffffffffffffffffffff1681526020019081526020016000206002019080519060200190611f3b929190614a34565b50836000808973ffffffffffffffffffffffffffffffffffffffff1673ffffffffffffffffffffffffffffffffffffffff1681526020019081526020016000206003019080519060200190611f91929190614a34565b50826000808973ffffffffffffffffffffffffffffffffffffffff1673ffffffffffffffffffffffffffffffffffffffff1681526020019081526020016000206004019080519060200190611fe7929190614a34565b50816000808973ffffffffffffffffffffffffffffffffffffffff1673ffffffffffffffffffffffffffffffffffffffff168152602001908152602001600020600501908051906020019061203d929190614a34565b507ff29b313176cc8c2a699c0484925570f221e8a2369917fbbfb357805e1539cf47878787878787604051808773ffffffffffffffffffffffffffffffffffffffff1673ffffffffffffffffffffffffffffffffffffffff168152602001806020018060200180602001806020018060200186810386528b818151815260200191508051906020019080838360005b838110156120e75780820151818401526020810190506120cc565b50505050905090810190601f1680156121145780820380516001836020036101000a031916815260200191505b5086810385528a818151815260200191508051906020019080838360005b8381101561214d578082015181840152602081019050612132565b50505050905090810190601f16801561217a5780820380516001836020036101000a031916815260200191505b50868103845289818151815260200191508051906020019080838360005b838110156121b3578082015181840152602081019050612198565b50505050905090810190601f1680156121e05780820380516001836020036101000a031916815260200191505b50868103835288818151815260200191508051906020019080838360005b838110156122195780820151818401526020810190506121fe565b50505050905090810190601f1680156122465780820380516001836020036101000a031916815260200191505b50868103825287818151815260200191508051906020019080838360005b8381101561227f578082015181840152602081019050612264565b50505050905090810190601f1680156122ac5780820380516001836020036101000a031916815260200191505b509b50505050505050505050505060405180910390a1600180805490500390509695505050505050565b6000856000808973ffffffffffffffffffffffffffffffffffffffff1673ffffffffffffffffffffffffffffffffffffffff168152602001908152602001600020600601908051906020019061232d929190614a34565b50846000808973ffffffffffffffffffffffffffffffffffffffff1673ffffffffffffffffffffffffffffffffffffffff16815260200190815260200160002060070181905550836000808973ffffffffffffffffffffffffffffffffffffffff1673ffffffffffffffffffffffffffffffffffffffff16815260200190815260200160002060080181905550826000808973ffffffffffffffffffffffffffffffffffffffff1673ffffffffffffffffffffffffffffffffffffffff168152602001908152602001600020600901908051906020019061240f929190614a34565b50816000808973ffffffffffffffffffffffffffffffffffffffff1673ffffffffffffffffffffffffffffffffffffffff168152602001908152602001600020600a019080519060200190612465929190614a34565b507f853479132350ce65d30939818e8113c9941b75f364dd04579ae1d5ff21de5d7a878787878787604051808773ffffffffffffffffffffffffffffffffffffffff1673ffffffffffffffffffffffffffffffffffffffff168152602001806020018681526020018581526020018060200180602001848103845289818151815260200191508051906020019080838360005b838110156125135780820151818401526020810190506124f8565b50505050905090810190601f1680156125405780820380516001836020036101000a031916815260200191505b50848103835286818151815260200191508051906020019080838360005b8381101561257957808201518184015260208101905061255e565b50505050905090810190601f1680156125a65780820380516001836020036101000a031916815260200191505b50848103825285818151815260200191508051906020019080838360005b838110156125df5780820151818401526020810190506125c4565b50505050905090810190601f16801561260c5780820380516001836020036101000a031916815260200191505b50995050505050505050505060405180910390a1600180805490500390509695505050505050565b6000806000808473ffffffffffffffffffffffffffffffffffffffff1673ffffffffffffffffffffffffffffffffffffffff168152602001908152602001600020600e01549050600060018080805490500381548110151561269257fe5b9060005260206000200160009054906101000a900473ffffffffffffffffffffffffffffffffffffffff169050806001838154811015156126cf57fe5b9060005260206000200160006101000a81548173ffffffffffffffffffffffffffffffffffffffff021916908373ffffffffffffffffffffffffffffffffffffffff160217905550816000808373ffffffffffffffffffffffffffffffffffffffff1673ffffffffffffffffffffffffffffffffffffffff168152602001908152602001600020600e018190555060018054809190600190036127729190614ab4565b507fe4bcc6498edf10769326df819d9da6da86da61003f14f98bf82e7a872f915cba8483604051808373ffffffffffffffffffffffffffffffffffffffff1673ffffffffffffffffffffffffffffffffffffffff1681526020018281526020019250505060405180910390a17f51f4f408b33ce076534acbf94bfac811f5870aed57d5093e4bfe69265721d0f9816000808473ffffffffffffffffffffffffffffffffffffffff1673ffffffffffffffffffffffffffffffffffffffff1681526020019081526020016000206001016000808573ffffffffffffffffffffffffffffffffffffffff1673ffffffffffffffffffffffffffffffffffffffff1681526020019081526020016000206002016000808673ffffffffffffffffffffffffffffffffffffffff1673ffffffffffffffffffffffffffffffffffffffff1681526020019081526020016000206003016000808773ffffffffffffffffffffffffffffffffffffffff1673ffffffffffffffffffffffffffffffffffffffff1681526020019081526020016000206004016000808873ffffffffffffffffffffffffffffffffffffffff1673ffffffffffffffffffffffffffffffffffffffff168152602001908152602001600020600501604051808773ffffffffffffffffffffffffffffffffffffffff1673ffffffffffffffffffffffffffffffffffffffff168152602001806020018060200180602001806020018060200186810386528b818154600181600116156101000203166002900481526020019150805460018160011615610100020316600290048015612a105780601f106129e557610100808354040283529160200191612a10565b820191906000526020600020905b8154815290600101906020018083116129f357829003601f168201915b505086810385528a818154600181600116156101000203166002900481526020019150805460018160011615610100020316600290048015612a935780601f10612a6857610100808354040283529160200191612a93565b820191906000526020600020905b815481529060010190602001808311612a7657829003601f168201915b5050868103845289818154600181600116156101000203166002900481526020019150805460018160011615610100020316600290048015612b165780601f10612aeb57610100808354040283529160200191612b16565b820191906000526020600020905b815481529060010190602001808311612af957829003601f168201915b5050868103835288818154600181600116156101000203166002900481526020019150805460018160011615610100020316600290048015612b995780601f10612b6e57610100808354040283529160200191612b99565b820191906000526020600020905b815481529060010190602001808311612b7c57829003601f168201915b5050868103825287818154600181600116156101000203166002900481526020019150805460018160011615610100020316600290048015612c1c5780601f10612bf157610100808354040283529160200191612c1c565b820191906000526020600020905b815481529060010190602001808311612bff57829003601f168201915b50509b50505050505050505050505060405180910390a17f9a320617399909ab65e726b0053c85f7976f843324cb54053c34885154944dab816000808473ffffffffffffffffffffffffffffffffffffffff1673ffffffffffffffffffffffffffffffffffffffff1681526020019081526020016000206006016000808573ffffffffffffffffffffffffffffffffffffffff1673ffffffffffffffffffffffffffffffffffffffff168152602001908152602001600020600701546000808673ffffffffffffffffffffffffffffffffffffffff1673ffffffffffffffffffffffffffffffffffffffff168152602001908152602001600020600801546000808773ffffffffffffffffffffffffffffffffffffffff1673ffffffffffffffffffffffffffffffffffffffff1681526020019081526020016000206009016000808873ffffffffffffffffffffffffffffffffffffffff1673ffffffffffffffffffffffffffffffffffffffff168152602001908152602001600020600a01604051808773ffffffffffffffffffffffffffffffffffffffff1673ffffffffffffffffffffffffffffffffffffffff168152602001806020018681526020018581526020018060200180602001848103845289818154600181600116156101000203166002900481526020019150805460018160011615610100020316600290048015612e6b5780601f10612e4057610100808354040283529160200191612e6b565b820191906000526020600020905b815481529060010190602001808311612e4e57829003601f168201915b5050848103835286818154600181600116156101000203166002900481526020019150805460018160011615610100020316600290048015612eee5780601f10612ec357610100808354040283529160200191612eee565b820191906000526020600020905b815481529060010190602001808311612ed157829003601f168201915b5050848103825285818154600181600116156101000203166002900481526020019150805460018160011615610100020316600290048015612f715780601f10612f4657610100808354040283529160200191612f71565b820191906000526020600020905b815481529060010190602001808311612f5457829003601f168201915b5050995050505050505050505060405180910390a17f59ddfe789c5ca95fdcda10a5caa291f7df8c76155a23f8bba0baec1b4539ba0f816000808473ffffffffffffffffffffffffffffffffffffffff1673ffffffffffffffffffffffffffffffffffffffff168152602001908152602001600020600b016000808573ffffffffffffffffffffffffffffffffffffffff1673ffffffffffffffffffffffffffffffffffffffff168152602001908152602001600020600c016000808673ffffffffffffffffffffffffffffffffffffffff1673ffffffffffffffffffffffffffffffffffffffff168152602001908152602001600020600d0186604051808673ffffffffffffffffffffffffffffffffffffffff1673ffffffffffffffffffffffffffffffffffffffff1681526020018060200180602001806020018581526020018481038452888181546001816001161561010002031660029004815260200191508054600181600116156101000203166002900480156131355780601f1061310a57610100808354040283529160200191613135565b820191906000526020600020905b81548152906001019060200180831161311857829003601f168201915b50508481038352878181546001816001161561010002031660029004815260200191508054600181600116156101000203166002900480156131b85780601f1061318d576101008083540402835291602001916131b8565b820191906000526020600020905b81548152906001019060200180831161319b57829003601f168201915b505084810382528681815460018160011615610100020316600290048152602001915080546001816001161561010002031660029004801561323b5780601f106132105761010080835404028352916020019161323b565b820191906000526020600020905b81548152906001019060200180831161321e57829003601f168201915b50509850505050505050505060405180910390a18192505050919050565b6000826000808673ffffffffffffffffffffffffffffffffffffffff1673ffffffffffffffffffffffffffffffffffffffff168152602001908152602001600020600a0190805190602001906132b0929190614a34565b50816000808673ffffffffffffffffffffffffffffffffffffffff1673ffffffffffffffffffffffffffffffffffffffff16815260200190815260200160002060080181905550600190509392505050565b6000826000808673ffffffffffffffffffffffffffffffffffffffff1673ffffffffffffffffffffffffffffffffffffffff1681526020019081526020016000206002019080519060200190613359929190614a34565b50816000808673ffffffffffffffffffffffffffffffffffffffff1673ffffffffffffffffffffffffffffffffffffffff16815260200190815260200160002060080181905550600190509392505050565b60006060806060806060866000808973ffffffffffffffffffffffffffffffffffffffff1673ffffffffffffffffffffffffffffffffffffffff1681526020019081526020016000206001016000808a73ffffffffffffffffffffffffffffffffffffffff1673ffffffffffffffffffffffffffffffffffffffff1681526020019081526020016000206002016000808b73ffffffffffffffffffffffffffffffffffffffff1673ffffffffffffffffffffffffffffffffffffffff1681526020019081526020016000206003016000808c73ffffffffffffffffffffffffffffffffffffffff1673ffffffffffffffffffffffffffffffffffffffff1681526020019081526020016000206004016000808d73ffffffffffffffffffffffffffffffffffffffff1673ffffffffffffffffffffffffffffffffffffffff168152602001908152602001600020600501848054600181600116156101000203166002900480601f0160208091040260200160405190810160405280929190818152602001828054600181600116156101000203166002900480156135905780601f1061356557610100808354040283529160200191613590565b820191906000526020600020905b81548152906001019060200180831161357357829003601f168201915b50505050509450838054600181600116156101000203166002900480601f01602080910402602001604051908101604052809291908181526020018280546001816001161561010002031660029004801561362c5780601f106136015761010080835404028352916020019161362c565b820191906000526020600020905b81548152906001019060200180831161360f57829003601f168201915b50505050509350828054600181600116156101000203166002900480601f0160208091040260200160405190810160405280929190818152602001828054600181600116156101000203166002900480156136c85780601f1061369d576101008083540402835291602001916136c8565b820191906000526020600020905b8154815290600101906020018083116136ab57829003601f168201915b50505050509250818054600181600116156101000203166002900480601f0160208091040260200160405190810160405280929190818152602001828054600181600116156101000203166002900480156137645780601f1061373957610100808354040283529160200191613764565b820191906000526020600020905b81548152906001019060200180831161374757829003601f168201915b50505050509150808054600181600116156101000203166002900480601f0160208091040260200160405190810160405280929190818152602001828054600181600116156101000203166002900480156138005780601f106137d557610100808354040283529160200191613800565b820191906000526020600020905b8154815290600101906020018083116137e357829003601f168201915b5050505050905095509550955095509550955091939550919395565b606080606060008060008673ffffffffffffffffffffffffffffffffffffffff1673ffffffffffffffffffffffffffffffffffffffff168152602001908152602001600020600b016000808773ffffffffffffffffffffffffffffffffffffffff1673ffffffffffffffffffffffffffffffffffffffff168152602001908152602001600020600c016000808873ffffffffffffffffffffffffffffffffffffffff1673ffffffffffffffffffffffffffffffffffffffff168152602001908152602001600020600d016000808973ffffffffffffffffffffffffffffffffffffffff1673ffffffffffffffffffffffffffffffffffffffff168152602001908152602001600020600e0154838054600181600116156101000203166002900480601f0160208091040260200160405190810160405280929190818152602001828054600181600116156101000203166002900480156139bd5780601f10613992576101008083540402835291602001916139bd565b820191906000526020600020905b8154815290600101906020018083116139a057829003601f168201915b50505050509350828054600181600116156101000203166002900480601f016020809104026020016040519081016040528092919081815260200182805460018160011615610100020316600290048015613a595780601f10613a2e57610100808354040283529160200191613a59565b820191906000526020600020905b815481529060010190602001808311613a3c57829003601f168201915b50505050509250818054600181600116156101000203166002900480601f016020809104026020016040519081016040528092919081815260200182805460018160011615610100020316600290048015613af55780601f10613aca57610100808354040283529160200191613af5565b820191906000526020600020905b815481529060010190602001808311613ad857829003601f168201915b5050505050915093509350935093509193509193565b6000826000808673ffffffffffffffffffffffffffffffffffffffff1673ffffffffffffffffffffffffffffffffffffffff1681526020019081526020016000206004019080519060200190613b62929190614a34565b50816000808673ffffffffffffffffffffffffffffffffffffffff1673ffffffffffffffffffffffffffffffffffffffff16815260200190815260200160002060080181905550600190509392505050565b6000826000808673ffffffffffffffffffffffffffffffffffffffff1673ffffffffffffffffffffffffffffffffffffffff168152602001908152602001600020600c019080519060200190613c0b929190614a34565b50816000808673ffffffffffffffffffffffffffffffffffffffff1673ffffffffffffffffffffffffffffffffffffffff16815260200190815260200160002060080181905550600190509392505050565b6000600180549050905090565b6000826000808673ffffffffffffffffffffffffffffffffffffffff1673ffffffffffffffffffffffffffffffffffffffff1681526020019081526020016000206003019080519060200190613cc1929190614a34565b50816000808673ffffffffffffffffffffffffffffffffffffffff1673ffffffffffffffffffffffffffffffffffffffff16815260200190815260200160002060080181905550600190509392505050565b6000826000808673ffffffffffffffffffffffffffffffffffffffff1673ffffffffffffffffffffffffffffffffffffffff1681526020019081526020016000206006019080519060200190613d6a929190614a34565b50816000808673ffffffffffffffffffffffffffffffffffffffff1673ffffffffffffffffffffffffffffffffffffffff16815260200190815260200160002060080181905550600190509392505050565b6000826000808673ffffffffffffffffffffffffffffffffffffffff1673ffffffffffffffffffffffffffffffffffffffff1681526020019081526020016000206001019080519060200190613e13929190614a34565b50816000808673ffffffffffffffffffffffffffffffffffffffff1673ffffffffffffffffffffffffffffffffffffffff168152602001908152602001600020600801819055507f51f4f408b33ce076534acbf94bfac811f5870aed57d5093e4bfe69265721d0f984846000808873ffffffffffffffffffffffffffffffffffffffff1673ffffffffffffffffffffffffffffffffffffffff1681526020019081526020016000206002016000808973ffffffffffffffffffffffffffffffffffffffff1673ffffffffffffffffffffffffffffffffffffffff1681526020019081526020016000206003016000808a73ffffffffffffffffffffffffffffffffffffffff1673ffffffffffffffffffffffffffffffffffffffff1681526020019081526020016000206004016000808b73ffffffffffffffffffffffffffffffffffffffff1673ffffffffffffffffffffffffffffffffffffffff168152602001908152602001600020600501604051808773ffffffffffffffffffffffffffffffffffffffff1673ffffffffffffffffffffffffffffffffffffffff168152602001806020018060200180602001806020018060200186810386528b818151815260200191508051906020019080838360005b83811015614003578082015181840152602081019050613fe8565b50505050905090810190601f1680156140305780820380516001836020036101000a031916815260200191505b5086810385528a8181546001816001161561010002031660029004815260200191508054600181600116156101000203166002900480156140b25780601f10614087576101008083540402835291602001916140b2565b820191906000526020600020905b81548152906001019060200180831161409557829003601f168201915b50508681038452898181546001816001161561010002031660029004815260200191508054600181600116156101000203166002900480156141355780601f1061410a57610100808354040283529160200191614135565b820191906000526020600020905b81548152906001019060200180831161411857829003601f168201915b50508681038352888181546001816001161561010002031660029004815260200191508054600181600116156101000203166002900480156141b85780601f1061418d576101008083540402835291602001916141b8565b820191906000526020600020905b81548152906001019060200180831161419b57829003601f168201915b505086810382528781815460018160011615610100020316600290048152602001915080546001816001161561010002031660029004801561423b5780601f106142105761010080835404028352916020019161423b565b820191906000526020600020905b81548152906001019060200180831161421e57829003601f168201915b50509b50505050505050505050505060405180910390a1600190509392505050565b6000826000808673ffffffffffffffffffffffffffffffffffffffff1673ffffffffffffffffffffffffffffffffffffffff168152602001908152602001600020600d0190805190602001906142b4929190614a34565b50816000808673ffffffffffffffffffffffffffffffffffffffff1673ffffffffffffffffffffffffffffffffffffffff16815260200190815260200160002060080181905550600190509392505050565b60606000806060806000808773ffffffffffffffffffffffffffffffffffffffff1673ffffffffffffffffffffffffffffffffffffffff1681526020019081526020016000206006016000808873ffffffffffffffffffffffffffffffffffffffff1673ffffffffffffffffffffffffffffffffffffffff168152602001908152602001600020600701546000808973ffffffffffffffffffffffffffffffffffffffff1673ffffffffffffffffffffffffffffffffffffffff168152602001908152602001600020600801546000808a73ffffffffffffffffffffffffffffffffffffffff1673ffffffffffffffffffffffffffffffffffffffff1681526020019081526020016000206009016000808b73ffffffffffffffffffffffffffffffffffffffff1673ffffffffffffffffffffffffffffffffffffffff168152602001908152602001600020600a01848054600181600116156101000203166002900480601f0160208091040260200160405190810160405280929190818152602001828054600181600116156101000203166002900480156144ea5780601f106144bf576101008083540402835291602001916144ea565b820191906000526020600020905b8154815290600101906020018083116144cd57829003601f168201915b50505050509450818054600181600116156101000203166002900480601f0160208091040260200160405190810160405280929190818152602001828054600181600116156101000203166002900480156145865780601f1061455b57610100808354040283529160200191614586565b820191906000526020600020905b81548152906001019060200180831161456957829003601f168201915b50505050509150808054600181600116156101000203166002900480601f0160208091040260200160405190810160405280929190818152602001828054600181600116156101000203166002900480156146225780601f106145f757610100808354040283529160200191614622565b820191906000526020600020905b81548152906001019060200180831161460557829003601f168201915b505050505090509450945094509450945091939590929450565b6000836000808773ffffffffffffffffffffffffffffffffffffffff1673ffffffffffffffffffffffffffffffffffffffff168152602001908152602001600020600b019080519060200190614693929190614a34565b50826000808773ffffffffffffffffffffffffffffffffffffffff1673ffffffffffffffffffffffffffffffffffffffff168152602001908152602001600020600c0190805190602001906146e9929190614a34565b50816000808773ffffffffffffffffffffffffffffffffffffffff1673ffffffffffffffffffffffffffffffffffffffff168152602001908152602001600020600d01908051906020019061473f929190614a34565b506001808690806001815401808255809150509060018203906000526020600020016000909192909190916101000a81548173ffffffffffffffffffffffffffffffffffffffff021916908373ffffffffffffffffffffffffffffffffffffffff160217905550036000808773ffffffffffffffffffffffffffffffffffffffff1673ffffffffffffffffffffffffffffffffffffffff168152602001908152602001600020600e01819055507f4ca481b35121b4e26949304a0ae4ec69db3644c8a5594acee7ff5b621e20ac15858585856000808b73ffffffffffffffffffffffffffffffffffffffff1673ffffffffffffffffffffffffffffffffffffffff168152602001908152602001600020600e0154604051808673ffffffffffffffffffffffffffffffffffffffff1673ffffffffffffffffffffffffffffffffffffffff168152602001806020018060200180602001858152602001848103845288818151815260200191508051906020019080838360005b838110156148d35780820151818401526020810190506148b8565b50505050905090810190601f1680156149005780820380516001836020036101000a031916815260200191505b50848103835287818151815260200191508051906020019080838360005b8381101561493957808201518184015260208101905061491e565b50505050905090810190601f1680156149665780820380516001836020036101000a031916815260200191505b50848103825286818151815260200191508051906020019080838360005b8381101561499f578082015181840152602081019050614984565b50505050905090810190601f1680156149cc5780820380516001836020036101000a031916815260200191505b509850505050505050505060405180910390a160018080549050039050949350505050565b6000600182815481101515614a0257fe5b9060005260206000200160009054906101000a900473ffffffffffffffffffffffffffffffffffffffff169050919050565b828054600181600116156101000203166002900490600052602060002090601f016020900481019282601f10614a7557805160ff1916838001178555614aa3565b82800160010185558215614aa3579182015b82811115614aa2578251825591602001919060010190614a87565b5b509050614ab09190614ae0565b5090565b815481835581811115614adb57818360005260206000209182019101614ada9190614ae0565b5b505050565b614b0291905b80821115614afe576000816000905550600101614ae6565b5090565b9056fea165627a7a723058206b7e30a5321c14499e26cc6020d50b2a2e263f7c218d70517ae3afd78e6116940029",
  "source": "pragma solidity >=0.4.21 <0.6.0;\r\n\r\ncontract UserManagementStorage {\r\n   //eventInsert\r\n   event SetUserManagementEvent(\r\n      address _userAddress,\r\n      //address _userId,\r\n      string _fullName,\r\n      string _email,\r\n      string _password,\r\n      string _gender,\r\n      string _dateOfBirth);\r\n\r\n   event SetUserManagementAdditionEvent(\r\n      address _userAddress,\r\n      string _isLocked,\r\n      uint256 _createdTime,\r\n      uint256 _modifiedTime,\r\n      string _idCardNo,\r\n      string _idCardIssuePlace);\r\n\r\n   event SetUserManagementAdditionFlusEvent(\r\n      address _userAddress,\r\n      string _phoneNumber,\r\n      string _job,\r\n      string _userAddr,\r\n      uint256 _index);\r\n\r\n   //eventUpdate\r\n   event SetLogUpdateUserManagementEven(\r\n      address _userAddress,\r\n      //address _userId,\r\n      string _fullName,\r\n      string _email,\r\n      string _password,\r\n      string _gender,\r\n      string _dateOfBirth);\r\n   event SetLogUpdateUserManagementAdditionEven(\r\n      address _userAddress,\r\n      string _isLocked,\r\n      uint256 _createdTime,\r\n      uint256 _modifiedTime,\r\n      string _idCardNo,\r\n      string _idCardIssuePlace);\r\n   event SetLogUpdateUserManagementAdditionFlusEven(\r\n      address _userAddress,\r\n      string _phoneNumber,\r\n      string _job,\r\n      string _userAddr,\r\n      uint256 _index);\r\n\r\n   //eventDelete\r\n   event SetLogDeleteUserManagement(\r\n      address _userAddress,\r\n      uint256 index);\r\n\r\n   struct UserManagement {\r\n      address userAddress;\r\n      //address userId;\r\n      string fullName;\r\n      string email;\r\n      string password;\r\n      string gender;\r\n      string dateOfBirth;\r\n      string isLocked;\r\n\r\n      uint256 createdTime;\r\n      uint256 modifiedTime;\r\n      string idCardNo;\r\n      string idCardIssuePlace;\r\n\r\n      string phoneNumber;\r\n      string job;\r\n      string userAddr;\r\n      uint256 index;\r\n   }\r\n\r\n   mapping(address => UserManagement) userManagementStructs;\r\n\r\n   address[] userIndex;\r\n\r\n   function isUser(address _userAddress) public view returns(bool isIndeed) {\r\n      if(userIndex.length == 0) return false;\r\n      return (userIndex[userManagementStructs[_userAddress].index] == _userAddress);\r\n   }\r\n\r\n   function insertUser(\r\n      address _userAddress,\r\n      //address _userId,\r\n      string memory _fullName,\r\n      string memory _email,\r\n      string memory _password,\r\n      string memory _gender,\r\n      string memory _dateOfBirth\r\n      )\r\n      public returns(uint256 index){\r\n      //if(isUser(_userAddress)) revert('throw');\r\n      //userManagementStructs[_userAddress].userId = _userId;\r\n      userManagementStructs[_userAddress].fullName = _fullName;\r\n      userManagementStructs[_userAddress].email = _email;\r\n      userManagementStructs[_userAddress].password = _password;\r\n      userManagementStructs[_userAddress].gender = _gender;\r\n      userManagementStructs[_userAddress].dateOfBirth = _dateOfBirth;\r\n\r\n      emit SetUserManagementEvent(_userAddress, _fullName, _email, _password, _gender, _dateOfBirth);\r\n      // emit SetUserManagementAdditionEvent(_userAddress, _createdTime, _modifiedTime, _idCardNo, _idCardIssuePlace);\r\n      // emit SetUserManagementAdditionFlusEvent(\r\n      //    _userAddress,\r\n      //    _phoneNumber,\r\n      //    _job,\r\n      //    _userAddr,\r\n      //    userManagementAdditionFlusStructs[_userAddress].index);\r\n      return userIndex.length-1;\r\n   }\r\n\r\n   function insertUserDetail(\r\n      address _userAddress,\r\n      string memory _isLocked,\r\n      uint256 _createdTime,\r\n      uint256 _modifiedTime,\r\n      string  memory _idCardNo,\r\n      string  memory _idCardIssuePlace\r\n      )\r\n      public returns(uint256 index){\r\n      userManagementStructs[_userAddress].isLocked = _isLocked;\r\n      userManagementStructs[_userAddress].createdTime = _createdTime;\r\n      userManagementStructs[_userAddress].modifiedTime = _modifiedTime;\r\n      userManagementStructs[_userAddress].idCardNo = _idCardNo;\r\n      userManagementStructs[_userAddress].idCardIssuePlace = _idCardIssuePlace;\r\n\r\n      emit SetUserManagementAdditionEvent(_userAddress, _isLocked, _createdTime, _modifiedTime, _idCardNo, _idCardIssuePlace);\r\n      return userIndex.length-1;\r\n   }\r\n\r\n   function insertUserDetailFlus(\r\n      address _userAddress,\r\n      string memory _phoneNumber,\r\n      string  memory _job,\r\n      string  memory _userAddr\r\n      )\r\n      public returns(uint256 index){\r\n      // if(isUser(_userAddress)) revert('throw');\r\n      userManagementStructs[_userAddress].phoneNumber = _phoneNumber;\r\n      userManagementStructs[_userAddress].job = _job;\r\n      userManagementStructs[_userAddress].userAddr = _userAddr;\r\n      userManagementStructs[_userAddress].index = userIndex.push(_userAddress)-1;\r\n      emit SetUserManagementAdditionFlusEvent(\r\n         _userAddress,\r\n         _phoneNumber,\r\n         _job,\r\n         _userAddr,\r\n         userManagementStructs[_userAddress].index);\r\n      return userIndex.length-1;\r\n   }\r\n\r\n   function deleteUser(address _userAddress) public returns(uint256 index){\r\n      // if(!isUser(_userAddress)) revert('throw');\r\n      uint256 rowToDelete = userManagementStructs[_userAddress].index;\r\n      address keyToMove = userIndex[userIndex.length-1];\r\n      userIndex[rowToDelete] = keyToMove; //vi tri can delete = vi tri cuoi ds\r\n      userManagementStructs[keyToMove].index = rowToDelete;\r\n\r\n      userIndex.length--;\r\n      emit SetLogDeleteUserManagement(\r\n         _userAddress,\r\n         rowToDelete);\r\n\r\n      emit SetLogUpdateUserManagementEven(\r\n         keyToMove,\r\n         //userManagementStructs[keyToMove].userId,\r\n         userManagementStructs[keyToMove].fullName,\r\n         userManagementStructs[keyToMove].email,\r\n         userManagementStructs[keyToMove].password,\r\n         userManagementStructs[keyToMove].gender,\r\n         userManagementStructs[keyToMove].dateOfBirth\r\n         );\r\n      emit SetLogUpdateUserManagementAdditionEven(\r\n         keyToMove,\r\n         userManagementStructs[keyToMove].isLocked,\r\n         userManagementStructs[keyToMove].createdTime,\r\n         userManagementStructs[keyToMove].modifiedTime,\r\n         userManagementStructs[keyToMove].idCardNo,\r\n         userManagementStructs[keyToMove].idCardIssuePlace\r\n         );\r\n      emit SetLogUpdateUserManagementAdditionFlusEven(\r\n         keyToMove,\r\n         userManagementStructs[keyToMove].phoneNumber,\r\n         userManagementStructs[keyToMove].job,\r\n         userManagementStructs[keyToMove].userAddr,\r\n         rowToDelete);\r\n      return rowToDelete;\r\n   }\r\n\r\n   function getUser(address _userAddress) public view returns(\r\n      address userAddress,\r\n      //address _userId,\r\n      string memory _fullName,\r\n      string memory _email,\r\n      string memory _password,\r\n      string memory _gender,\r\n      string memory _dateOfBirth\r\n      ){\r\n      // if(!isUser(_userAddress)) revert('throw');\r\n      return(\r\n         _userAddress,\r\n         //userManagementStructs[_userAddress].userId,\r\n         userManagementStructs[_userAddress].fullName,\r\n         userManagementStructs[_userAddress].email,\r\n         userManagementStructs[_userAddress].password,\r\n         userManagementStructs[_userAddress].gender,\r\n         userManagementStructs[_userAddress].dateOfBirth);\r\n   }\r\n\r\n   function getUserDetailMore(address _userAddress) public view returns(\r\n      string memory _isLocked,\r\n      uint256 _createdTime,\r\n      uint256 _modifiedTime,\r\n      string memory _idCardNo,\r\n      string memory _idCardIssuePlace\r\n      ){\r\n      // if(!isUser(_userAddress)) revert('throw');\r\n      return(\r\n         userManagementStructs[_userAddress].isLocked,\r\n         userManagementStructs[_userAddress].createdTime,\r\n         userManagementStructs[_userAddress].modifiedTime,\r\n         userManagementStructs[_userAddress].idCardNo,\r\n         userManagementStructs[_userAddress].idCardIssuePlace);\r\n   }\r\n\r\n   function getUserDetailMoreMore(address _userAddress) public view returns(\r\n      string memory _phoneNumber,\r\n      string  memory  _job,\r\n      string  memory  _userAddr,\r\n      uint256 index\r\n      ){\r\n      // if(!isUser(_userAddress)) revert('throw');\r\n      return(\r\n         userManagementStructs[_userAddress].phoneNumber,\r\n         userManagementStructs[_userAddress].job,\r\n         userManagementStructs[_userAddress].userAddr,\r\n         userManagementStructs[_userAddress].index);\r\n   }\r\n\r\n\r\n// UPDATE\r\n\r\n\r\n   function updateFullName(address _userAddress, string  memory  _fullName, uint256 _modifiedTime)\r\n   public returns(bool success) {\r\n      // if(!isUser(_userAddress))  revert('throw');\r\n      userManagementStructs[_userAddress].fullName = _fullName;\r\n      userManagementStructs[_userAddress].modifiedTime = _modifiedTime;\r\n      emit SetLogUpdateUserManagementEven(\r\n         _userAddress,\r\n         //userManagementStructs[_userAddress].userId,\r\n         _fullName,\r\n         userManagementStructs[_userAddress].email,\r\n         userManagementStructs[_userAddress].password,\r\n         userManagementStructs[_userAddress].gender,\r\n         userManagementStructs[_userAddress].dateOfBirth\r\n         );\r\n      return true;\r\n   }\r\n\r\n   function updateEmail(address _userAddress, string  memory  _email, uint256 _modifiedTime)\r\n   public returns(bool success) {\r\n      // if(!isUser(_userAddress))  revert('throw');\r\n      userManagementStructs[_userAddress].email = _email;\r\n      userManagementStructs[_userAddress].modifiedTime = _modifiedTime;\r\n      // emit SetLogUpdateUserManagementEven(\r\n      //    _userAddress,\r\n      //    userManagementStructs[_userAddress].userId,\r\n      //    userManagementStructs[_userAddress].fullName,\r\n      //    _email,\r\n      //    userManagementStructs[_userAddress].password,\r\n      //    userManagementStructs[_userAddress].gender,\r\n      //    userManagementStructs[_userAddress].dateOfBirth\r\n      //    );\r\n      return true;\r\n   }\r\n\r\n   function updatePassword(address _userAddress, string  memory  _password, uint256 _modifiedTime)\r\n      public returns(bool success) {\r\n      // if(!isUser(_userAddress))  revert('throw');\r\n      userManagementStructs[_userAddress].password = _password;\r\n      userManagementStructs[_userAddress].modifiedTime = _modifiedTime;\r\n      // emit SetLogUpdateUserManagementEven(\r\n      //    _userAddress,\r\n      //    userManagementStructs[_userAddress].userId,\r\n      //    userManagementStructs[_userAddress].fullName,\r\n      //    userManagementStructs[_userAddress].email,\r\n      //    _password,\r\n      //    userManagementStructs[_userAddress].gender,\r\n      //    userManagementStructs[_userAddress].dateOfBirth\r\n      //    );\r\n      return true;\r\n   }\r\n\r\n   function updateGender(address _userAddress, string  memory  _gender, uint256 _modifiedTime)\r\n      public returns(bool success) {\r\n      // if(!isUser(_userAddress))  revert('throw');\r\n      userManagementStructs[_userAddress].gender = _gender;\r\n      userManagementStructs[_userAddress].modifiedTime = _modifiedTime;\r\n      // emit SetLogUpdateUserManagementEven(\r\n      //    _userAddress,\r\n      //    userManagementStructs[_userAddress].userId,\r\n      //    userManagementStructs[_userAddress].fullName,\r\n      //    userManagementStructs[_userAddress].email,\r\n      //    userManagementStructs[_userAddress].password,\r\n      //    _gender,\r\n      //    userManagementStructs[_userAddress].dateOfBirth\r\n      //    );\r\n      return true;\r\n   }\r\n\r\n   function updateDateOfBirth(address _userAddress, string memory  _dateOfBirth, uint256 _modifiedTime)\r\n      public returns(bool success) {\r\n      // if(!isUser(_userAddress))  revert('throw');\r\n      userManagementStructs[_userAddress].dateOfBirth = _dateOfBirth;\r\n      userManagementStructs[_userAddress].modifiedTime = _modifiedTime;\r\n      // emit SetLogUpdateUserManagementEven(\r\n      //    _userAddress,\r\n      //    userManagementStructs[_userAddress].userId,\r\n      //    userManagementStructs[_userAddress].fullName,\r\n      //    userManagementStructs[_userAddress].email,\r\n      //    userManagementStructs[_userAddress].password,\r\n      //    userManagementStructs[_userAddress].gender,\r\n      //    _dateOfBirth\r\n      //    );\r\n      return true;\r\n   }\r\n\r\n   function updateIsLocked(address _userAddress, string  memory  _isLocked, uint256 _modifiedTime)\r\n   public returns(bool success) {\r\n      // if(!isUser(_userAddress))  revert('throw');\r\n      userManagementStructs[_userAddress].isLocked = _isLocked;\r\n      userManagementStructs[_userAddress].modifiedTime = _modifiedTime;\r\n      // emit SetLogUpdateUserManagementAdditionEven(\r\n      //    _userAddress,\r\n      //    _isLocked,\r\n      //    userManagementStructs[_userAddress].createdTime,\r\n      //    userManagementStructs[_userAddress].modifiedTime,\r\n      //    userManagementStructs[_userAddress].idCardNo,\r\n      //    userManagementStructs[_userAddress].idCardIssuePlace\r\n      //    );\r\n      return true;\r\n   }\r\n\r\n   function updateIdCardNo(address _userAddress, string memory _idCardNo, uint256 _modifiedTime)\r\n   public returns(bool success) {\r\n      // if(!isUser(_userAddress))  revert('throw');\r\n      userManagementStructs[_userAddress].idCardNo = _idCardNo;\r\n      userManagementStructs[_userAddress].modifiedTime = _modifiedTime;\r\n      // emit SetLogUpdateUserManagementAdditionEven(\r\n      //    _userAddress,\r\n      //    userManagementStructs[_userAddress].isLocked,\r\n      //    userManagementStructs[_userAddress].createdTime,\r\n      //    userManagementStructs[_userAddress].modifiedTime,\r\n      //    _idCardNo,\r\n      //    userManagementStructs[_userAddress].idCardIssuePlace\r\n      //    );\r\n      return true;\r\n   }\r\n\r\n   function updateIdCardIssuePlace(address _userAddress, string memory _idCardIssuePlace, uint256 _modifiedTime)\r\n   public returns(bool success) {\r\n      // if(!isUser(_userAddress))  revert('throw');\r\n      userManagementStructs[_userAddress].idCardIssuePlace = _idCardIssuePlace;\r\n      userManagementStructs[_userAddress].modifiedTime = _modifiedTime;\r\n      // emit SetLogUpdateUserManagementAdditionEven(\r\n      //    _userAddress,\r\n      //    userManagementStructs[_userAddress].isLocked,\r\n      //    userManagementStructs[_userAddress].createdTime,\r\n      //    userManagementStructs[_userAddress].modifiedTime,\r\n      //    userManagementStructs[_userAddress].idCardNo,\r\n      //    _idCardIssuePlace);\r\n      return true;\r\n   }\r\n\r\n   function updatePhoneNumber(address _userAddress, string memory _phoneNumber, uint256 _modifiedTime)\r\n   public returns(bool success) {\r\n      // if(!isUser(_userAddress))  revert('throw');\r\n      userManagementStructs[_userAddress].phoneNumber = _phoneNumber;\r\n      userManagementStructs[_userAddress].modifiedTime = _modifiedTime;\r\n      // emit SetLogUpdateUserManagementAdditionFlusEven(\r\n      //    _userAddress,\r\n      //    _phoneNumber,\r\n      //    userManagementStructs[_userAddress].job,\r\n      //    userManagementStructs[_userAddress].userAddr,\r\n      //    userManagementStructs[_userAddress].index);\r\n      return true;\r\n   }\r\n\r\n   function updateJob(address _userAddress, string memory   _job, uint256 _modifiedTime)\r\n   public returns(bool success) {\r\n      // if(!isUser(_userAddress))  revert('throw');\r\n      userManagementStructs[_userAddress].job = _job;\r\n      userManagementStructs[_userAddress].modifiedTime = _modifiedTime;\r\n      // userManagementStructs[_userAddress].userAddr = _userAddr;\r\n      // emit SetLogUpdateUserManagementAdditionFlusEven(\r\n      //    _userAddress,\r\n      //    userManagementStructs[_userAddress].phoneNumber,\r\n      //    _job,\r\n      //    userManagementStructs[_userAddress].userAddr,\r\n      //    userManagementStructs[_userAddress].index);\r\n      return true;\r\n   }\r\n\r\n   function updateUserAddr(address _userAddress, string memory   _userAddr, uint256 _modifiedTime)\r\n   public returns(bool success) {\r\n      // if(!isUser(_userAddress))  revert('throw');\r\n      userManagementStructs[_userAddress].userAddr = _userAddr;\r\n      userManagementStructs[_userAddress].modifiedTime = _modifiedTime;\r\n      // emit SetLogUpdateUserManagementAdditionFlusEven(\r\n      //    _userAddress,\r\n      //    userManagementStructs[_userAddress].phoneNumber,\r\n      //    userManagementStructs[_userAddress].job,\r\n      //    _userAddr,\r\n      //    userManagementStructs[_userAddress].index);\r\n      return true;\r\n   }\r\n\r\n   function getUserCount() public view returns(uint256 count){\r\n         return userIndex.length;\r\n      }\r\n\r\n   function getUserAtIndex(uint256 _index)\r\n      public\r\n      view\r\n      returns(address userAddress)\r\n   {\r\n      return userIndex[_index];\r\n   }\r\n\r\n}",
  "sourcePath": "C:/xampp/htdocs/blockchaindemo/TG_UNIVERSITY_CERTIFICATE_VERIFICATION_SERVER/contracts/User.sol",
  "compiler": {
    "name": "solc",
    "version": "0.5.0+commit.1d4f565a.Emscripten.clang"
  },
  "schemaVersion": "3.0.9",
  "updatedAt": "2019-06-26T14:51:03.791Z",
  "devdoc": {
    "methods": {}
  },
  "userdoc": {
    "methods": {}
  }
}