{
  "contractName": "UserManagementStorage",
  "abi": [
    {
      "anonymous": false,
      "inputs": [
        {
          "indexed": false,
          "name": "_userAddress",
          "type": "address"
        },
        {
          "indexed": false,
          "name": "_fullName",
          "type": "string"
        },
        {
          "indexed": false,
          "name": "_email",
          "type": "string"
        },
        {
          "indexed": false,
          "name": "_password",
          "type": "string"
        },
        {
          "indexed": false,
          "name": "_gender",
          "type": "string"
        },
        {
          "indexed": false,
          "name": "_dateOfBirth",
          "type": "string"
        }
      ],
      "name": "SetUserManagementEvent",
      "type": "event"
    },
    {
      "anonymous": false,
      "inputs": [
        {
          "indexed": false,
          "name": "_userAddress",
          "type": "address"
        },
        {
          "indexed": false,
          "name": "_isLocked",
          "type": "string"
        },
        {
          "indexed": false,
          "name": "_createdTime",
          "type": "string"
        },
        {
          "indexed": false,
          "name": "_modifiedTime",
          "type": "string"
        },
        {
          "indexed": false,
          "name": "_idCardNo",
          "type": "string"
        },
        {
          "indexed": false,
          "name": "_idCardIssuePlace",
          "type": "string"
        }
      ],
      "name": "SetUserManagementAdditionEvent",
      "type": "event"
    },
    {
      "anonymous": false,
      "inputs": [
        {
          "indexed": false,
          "name": "_userAddress",
          "type": "address"
        },
        {
          "indexed": false,
          "name": "_phoneNumber",
          "type": "string"
        },
        {
          "indexed": false,
          "name": "_job",
          "type": "string"
        },
        {
          "indexed": false,
          "name": "_userAddr",
          "type": "string"
        },
        {
          "indexed": false,
          "name": "_index",
          "type": "uint256"
        }
      ],
      "name": "SetUserManagementAdditionFlusEvent",
      "type": "event"
    },
    {
      "anonymous": false,
      "inputs": [
        {
          "indexed": false,
          "name": "_userAddress",
          "type": "address"
        },
        {
          "indexed": false,
          "name": "_fullName",
          "type": "string"
        },
        {
          "indexed": false,
          "name": "_email",
          "type": "string"
        },
        {
          "indexed": false,
          "name": "_password",
          "type": "string"
        },
        {
          "indexed": false,
          "name": "_gender",
          "type": "string"
        },
        {
          "indexed": false,
          "name": "_dateOfBirth",
          "type": "string"
        }
      ],
      "name": "SetLogUpdateUserManagementEven",
      "type": "event"
    },
    {
      "anonymous": false,
      "inputs": [
        {
          "indexed": false,
          "name": "_userAddress",
          "type": "address"
        },
        {
          "indexed": false,
          "name": "_isLocked",
          "type": "string"
        },
        {
          "indexed": false,
          "name": "_createdTime",
          "type": "string"
        },
        {
          "indexed": false,
          "name": "_modifiedTime",
          "type": "string"
        },
        {
          "indexed": false,
          "name": "_idCardNo",
          "type": "string"
        },
        {
          "indexed": false,
          "name": "_idCardIssuePlace",
          "type": "string"
        }
      ],
      "name": "SetLogUpdateUserManagementAdditionEven",
      "type": "event"
    },
    {
      "anonymous": false,
      "inputs": [
        {
          "indexed": false,
          "name": "_userAddress",
          "type": "address"
        },
        {
          "indexed": false,
          "name": "_phoneNumber",
          "type": "string"
        },
        {
          "indexed": false,
          "name": "_job",
          "type": "string"
        },
        {
          "indexed": false,
          "name": "_userAddr",
          "type": "string"
        },
        {
          "indexed": false,
          "name": "_index",
          "type": "uint256"
        }
      ],
      "name": "SetLogUpdateUserManagementAdditionFlusEven",
      "type": "event"
    },
    {
      "anonymous": false,
      "inputs": [
        {
          "indexed": false,
          "name": "_userAddress",
          "type": "address"
        },
        {
          "indexed": false,
          "name": "index",
          "type": "uint256"
        }
      ],
      "name": "SetLogDeleteUserManagement",
      "type": "event"
    },
    {
      "constant": true,
      "inputs": [
        {
          "name": "_userAddress",
          "type": "address"
        }
      ],
      "name": "isUser",
      "outputs": [
        {
          "name": "isIndeed",
          "type": "bool"
        }
      ],
      "payable": false,
      "stateMutability": "view",
      "type": "function"
    },
    {
      "constant": false,
      "inputs": [
        {
          "name": "_userAddress",
          "type": "address"
        },
        {
          "name": "_fullName",
          "type": "string"
        },
        {
          "name": "_email",
          "type": "string"
        },
        {
          "name": "_password",
          "type": "string"
        },
        {
          "name": "_gender",
          "type": "string"
        },
        {
          "name": "_dateOfBirth",
          "type": "string"
        }
      ],
      "name": "insertUser",
      "outputs": [
        {
          "name": "index",
          "type": "uint256"
        }
      ],
      "payable": false,
      "stateMutability": "nonpayable",
      "type": "function"
    },
    {
      "constant": false,
      "inputs": [
        {
          "name": "_userAddress",
          "type": "address"
        },
        {
          "name": "_isLocked",
          "type": "string"
        },
        {
          "name": "_createdTime",
          "type": "string"
        },
        {
          "name": "_modifiedTime",
          "type": "string"
        },
        {
          "name": "_idCardNo",
          "type": "string"
        },
        {
          "name": "_idCardIssuePlace",
          "type": "string"
        }
      ],
      "name": "insertUserDetail",
      "outputs": [
        {
          "name": "index",
          "type": "uint256"
        }
      ],
      "payable": false,
      "stateMutability": "nonpayable",
      "type": "function"
    },
    {
      "constant": false,
      "inputs": [
        {
          "name": "_userAddress",
          "type": "address"
        },
        {
          "name": "_phoneNumber",
          "type": "string"
        },
        {
          "name": "_job",
          "type": "string"
        },
        {
          "name": "_userAddr",
          "type": "string"
        }
      ],
      "name": "insertUserDetailFlus",
      "outputs": [
        {
          "name": "index",
          "type": "uint256"
        }
      ],
      "payable": false,
      "stateMutability": "nonpayable",
      "type": "function"
    },
    {
      "constant": false,
      "inputs": [
        {
          "name": "_userAddress",
          "type": "address"
        }
      ],
      "name": "deleteUser",
      "outputs": [
        {
          "name": "index",
          "type": "uint256"
        }
      ],
      "payable": false,
      "stateMutability": "nonpayable",
      "type": "function"
    },
    {
      "constant": true,
      "inputs": [
        {
          "name": "_userAddress",
          "type": "address"
        }
      ],
      "name": "getUser",
      "outputs": [
        {
          "name": "userAddress",
          "type": "address"
        },
        {
          "name": "_fullName",
          "type": "string"
        },
        {
          "name": "_email",
          "type": "string"
        },
        {
          "name": "_password",
          "type": "string"
        },
        {
          "name": "_gender",
          "type": "string"
        },
        {
          "name": "_dateOfBirth",
          "type": "string"
        }
      ],
      "payable": false,
      "stateMutability": "view",
      "type": "function"
    },
    {
      "constant": true,
      "inputs": [
        {
          "name": "_userAddress",
          "type": "address"
        }
      ],
      "name": "getUserDetailMore",
      "outputs": [
        {
          "name": "_isLocked",
          "type": "string"
        },
        {
          "name": "_createdTime",
          "type": "string"
        },
        {
          "name": "_modifiedTime",
          "type": "string"
        },
        {
          "name": "_idCardNo",
          "type": "string"
        },
        {
          "name": "_idCardIssuePlace",
          "type": "string"
        }
      ],
      "payable": false,
      "stateMutability": "view",
      "type": "function"
    },
    {
      "constant": true,
      "inputs": [
        {
          "name": "_userAddress",
          "type": "address"
        }
      ],
      "name": "getUserDetailMoreMore",
      "outputs": [
        {
          "name": "_phoneNumber",
          "type": "string"
        },
        {
          "name": "_job",
          "type": "string"
        },
        {
          "name": "_userAddr",
          "type": "string"
        },
        {
          "name": "index",
          "type": "uint256"
        }
      ],
      "payable": false,
      "stateMutability": "view",
      "type": "function"
    },
    {
      "constant": false,
      "inputs": [
        {
          "name": "_userAddress",
          "type": "address"
        },
        {
          "name": "_fullName",
          "type": "string"
        },
        {
          "name": "_modifiedTime",
          "type": "string"
        }
      ],
      "name": "updateFullName",
      "outputs": [
        {
          "name": "success",
          "type": "bool"
        }
      ],
      "payable": false,
      "stateMutability": "nonpayable",
      "type": "function"
    },
    {
      "constant": false,
      "inputs": [
        {
          "name": "_userAddress",
          "type": "address"
        },
        {
          "name": "_email",
          "type": "string"
        },
        {
          "name": "_modifiedTime",
          "type": "string"
        }
      ],
      "name": "updateEmail",
      "outputs": [
        {
          "name": "success",
          "type": "bool"
        }
      ],
      "payable": false,
      "stateMutability": "nonpayable",
      "type": "function"
    },
    {
      "constant": false,
      "inputs": [
        {
          "name": "_userAddress",
          "type": "address"
        },
        {
          "name": "_password",
          "type": "string"
        },
        {
          "name": "_modifiedTime",
          "type": "string"
        }
      ],
      "name": "updatePassword",
      "outputs": [
        {
          "name": "success",
          "type": "bool"
        }
      ],
      "payable": false,
      "stateMutability": "nonpayable",
      "type": "function"
    },
    {
      "constant": false,
      "inputs": [
        {
          "name": "_userAddress",
          "type": "address"
        },
        {
          "name": "_gender",
          "type": "string"
        },
        {
          "name": "_modifiedTime",
          "type": "string"
        }
      ],
      "name": "updateGender",
      "outputs": [
        {
          "name": "success",
          "type": "bool"
        }
      ],
      "payable": false,
      "stateMutability": "nonpayable",
      "type": "function"
    },
    {
      "constant": false,
      "inputs": [
        {
          "name": "_userAddress",
          "type": "address"
        },
        {
          "name": "_dateOfBirth",
          "type": "string"
        },
        {
          "name": "_modifiedTime",
          "type": "string"
        }
      ],
      "name": "updateDateOfBirth",
      "outputs": [
        {
          "name": "success",
          "type": "bool"
        }
      ],
      "payable": false,
      "stateMutability": "nonpayable",
      "type": "function"
    },
    {
      "constant": false,
      "inputs": [
        {
          "name": "_userAddress",
          "type": "address"
        },
        {
          "name": "_isLocked",
          "type": "string"
        },
        {
          "name": "_modifiedTime",
          "type": "string"
        }
      ],
      "name": "updateIsLocked",
      "outputs": [
        {
          "name": "success",
          "type": "bool"
        }
      ],
      "payable": false,
      "stateMutability": "nonpayable",
      "type": "function"
    },
    {
      "constant": false,
      "inputs": [
        {
          "name": "_userAddress",
          "type": "address"
        },
        {
          "name": "_idCardNo",
          "type": "string"
        },
        {
          "name": "_modifiedTime",
          "type": "string"
        }
      ],
      "name": "updateIdCardNo",
      "outputs": [
        {
          "name": "success",
          "type": "bool"
        }
      ],
      "payable": false,
      "stateMutability": "nonpayable",
      "type": "function"
    },
    {
      "constant": false,
      "inputs": [
        {
          "name": "_userAddress",
          "type": "address"
        },
        {
          "name": "_idCardIssuePlace",
          "type": "string"
        },
        {
          "name": "_modifiedTime",
          "type": "string"
        }
      ],
      "name": "updateIdCardIssuePlace",
      "outputs": [
        {
          "name": "success",
          "type": "bool"
        }
      ],
      "payable": false,
      "stateMutability": "nonpayable",
      "type": "function"
    },
    {
      "constant": false,
      "inputs": [
        {
          "name": "_userAddress",
          "type": "address"
        },
        {
          "name": "_phoneNumber",
          "type": "string"
        },
        {
          "name": "_modifiedTime",
          "type": "string"
        }
      ],
      "name": "updatePhoneNumber",
      "outputs": [
        {
          "name": "success",
          "type": "bool"
        }
      ],
      "payable": false,
      "stateMutability": "nonpayable",
      "type": "function"
    },
    {
      "constant": false,
      "inputs": [
        {
          "name": "_userAddress",
          "type": "address"
        },
        {
          "name": "_job",
          "type": "string"
        },
        {
          "name": "_modifiedTime",
          "type": "string"
        }
      ],
      "name": "updateJob",
      "outputs": [
        {
          "name": "success",
          "type": "bool"
        }
      ],
      "payable": false,
      "stateMutability": "nonpayable",
      "type": "function"
    },
    {
      "constant": false,
      "inputs": [
        {
          "name": "_userAddress",
          "type": "address"
        },
        {
          "name": "_userAddr",
          "type": "string"
        },
        {
          "name": "_modifiedTime",
          "type": "string"
        }
      ],
      "name": "updateUserAddr",
      "outputs": [
        {
          "name": "success",
          "type": "bool"
        }
      ],
      "payable": false,
      "stateMutability": "nonpayable",
      "type": "function"
    },
    {
      "constant": true,
      "inputs": [],
      "name": "getUserCount",
      "outputs": [
        {
          "name": "count",
          "type": "uint256"
        }
      ],
      "payable": false,
      "stateMutability": "view",
      "type": "function"
    },
    {
      "constant": true,
      "inputs": [
        {
          "name": "_index",
          "type": "uint256"
        }
      ],
      "name": "getUserAtIndex",
      "outputs": [
        {
          "name": "userAddress",
          "type": "address"
        }
      ],
      "payable": false,
      "stateMutability": "view",
      "type": "function"
    }
  ],
  "bytecode": "0x608060405234801561001057600080fd5b506155f780620000216000396000f3fe608060405234801561001057600080fd5b50600436106101375760003560e01c80638072bf46116100b8578063cac7484d1161007c578063cac7484d1461176f578063cc9519a2146118f9578063cd2ea00414611c44578063e6d50c9914611dce578063ff7b376c1461203b578063ffcc7bbf1461225857610137565b80638072bf46146111295780638cecb2f2146112b3578063919128941461143d578063b4ec6789146115c7578063b5cb15f71461175157610137565b80635c60f226116100ff5780635c60f2261461098157806367d37122146109d95780636f77926b14610b6357806370c6842414610e035780637ca5d08f14610f9f57610137565b8063143edcbd1461013c5780634209fff1146102c65780634969e1c9146103225780634f035c8b146104ac578063507577ab14610636575b600080fd5b6102ac6004803603606081101561015257600080fd5b81019080803573ffffffffffffffffffffffffffffffffffffffff1690602001909291908035906020019064010000000081111561018f57600080fd5b8201836020820111156101a157600080fd5b803590602001918460018302840111640100000000831117156101c357600080fd5b91908080601f016020809104026020016040519081016040528093929190818152602001838380828437600081840152601f19601f8201169050808301925050505050505091929192908035906020019064010000000081111561022657600080fd5b82018360208201111561023857600080fd5b8035906020019184600183028401116401000000008311171561025a57600080fd5b91908080601f016020809104026020016040519081016040528093929190818152602001838380828437600081840152601f19601f8201169050808301925050505050505091929192905050506122c6565b604051808215151515815260200191505060405180910390f35b610308600480360360208110156102dc57600080fd5b81019080803573ffffffffffffffffffffffffffffffffffffffff16906020019092919050505061237f565b604051808215151515815260200191505060405180910390f35b6104926004803603606081101561033857600080fd5b81019080803573ffffffffffffffffffffffffffffffffffffffff1690602001909291908035906020019064010000000081111561037557600080fd5b82018360208201111561038757600080fd5b803590602001918460018302840111640100000000831117156103a957600080fd5b91908080601f016020809104026020016040519081016040528093929190818152602001838380828437600081840152601f19601f8201169050808301925050505050505091929192908035906020019064010000000081111561040c57600080fd5b82018360208201111561041e57600080fd5b8035906020019184600183028401116401000000008311171561044057600080fd5b91908080601f016020809104026020016040519081016040528093929190818152602001838380828437600081840152601f19601f820116905080830192505050505050509192919290505050612446565b604051808215151515815260200191505060405180910390f35b61061c600480360360608110156104c257600080fd5b81019080803573ffffffffffffffffffffffffffffffffffffffff169060200190929190803590602001906401000000008111156104ff57600080fd5b82018360208201111561051157600080fd5b8035906020019184600183028401116401000000008311171561053357600080fd5b91908080601f016020809104026020016040519081016040528093929190818152602001838380828437600081840152601f19601f8201169050808301925050505050505091929192908035906020019064010000000081111561059657600080fd5b8201836020820111156105a857600080fd5b803590602001918460018302840111640100000000831117156105ca57600080fd5b91908080601f016020809104026020016040519081016040528093929190818152602001838380828437600081840152601f19601f8201169050808301925050505050505091929192905050506124ff565b604051808215151515815260200191505060405180910390f35b61096b600480360360c081101561064c57600080fd5b81019080803573ffffffffffffffffffffffffffffffffffffffff1690602001909291908035906020019064010000000081111561068957600080fd5b82018360208201111561069b57600080fd5b803590602001918460018302840111640100000000831117156106bd57600080fd5b91908080601f016020809104026020016040519081016040528093929190818152602001838380828437600081840152601f19601f8201169050808301925050505050505091929192908035906020019064010000000081111561072057600080fd5b82018360208201111561073257600080fd5b8035906020019184600183028401116401000000008311171561075457600080fd5b91908080601f016020809104026020016040519081016040528093929190818152602001838380828437600081840152601f19601f820116905080830192505050505050509192919290803590602001906401000000008111156107b757600080fd5b8201836020820111156107c957600080fd5b803590602001918460018302840111640100000000831117156107eb57600080fd5b91908080601f016020809104026020016040519081016040528093929190818152602001838380828437600081840152601f19601f8201169050808301925050505050505091929192908035906020019064010000000081111561084e57600080fd5b82018360208201111561086057600080fd5b8035906020019184600183028401116401000000008311171561088257600080fd5b91908080601f016020809104026020016040519081016040528093929190818152602001838380828437600081840152601f19601f820116905080830192505050505050509192919290803590602001906401000000008111156108e557600080fd5b8201836020820111156108f757600080fd5b8035906020019184600183028401116401000000008311171561091957600080fd5b91908080601f016020809104026020016040519081016040528093929190818152602001838380828437600081840152601f19601f8201169050808301925050505050505091929192905050506125b8565b6040518082815260200191505060405180910390f35b6109c36004803603602081101561099757600080fd5b81019080803573ffffffffffffffffffffffffffffffffffffffff169060200190929190505050612a00565b6040518082815260200191505060405180910390f35b610b49600480360360608110156109ef57600080fd5b81019080803573ffffffffffffffffffffffffffffffffffffffff16906020019092919080359060200190640100000000811115610a2c57600080fd5b820183602082011115610a3e57600080fd5b80359060200191846001830284011164010000000083111715610a6057600080fd5b91908080601f016020809104026020016040519081016040528093929190818152602001838380828437600081840152601f19601f82011690508083019250505050505050919291929080359060200190640100000000811115610ac357600080fd5b820183602082011115610ad557600080fd5b80359060200191846001830284011164010000000083111715610af757600080fd5b91908080601f016020809104026020016040519081016040528093929190818152602001838380828437600081840152601f19601f820116905080830192505050505050509192919290505050613723565b604051808215151515815260200191505060405180910390f35b610ba560048036036020811015610b7957600080fd5b81019080803573ffffffffffffffffffffffffffffffffffffffff1690602001909291905050506137dc565b604051808773ffffffffffffffffffffffffffffffffffffffff1673ffffffffffffffffffffffffffffffffffffffff168152602001806020018060200180602001806020018060200186810386528b818151815260200191508051906020019080838360005b83811015610c27578082015181840152602081019050610c0c565b50505050905090810190601f168015610c545780820380516001836020036101000a031916815260200191505b5086810385528a818151815260200191508051906020019080838360005b83811015610c8d578082015181840152602081019050610c72565b50505050905090810190601f168015610cba5780820380516001836020036101000a031916815260200191505b50868103845289818151815260200191508051906020019080838360005b83811015610cf3578082015181840152602081019050610cd8565b50505050905090810190601f168015610d205780820380516001836020036101000a031916815260200191505b50868103835288818151815260200191508051906020019080838360005b83811015610d59578082015181840152602081019050610d3e565b50505050905090810190601f168015610d865780820380516001836020036101000a031916815260200191505b50868103825287818151815260200191508051906020019080838360005b83811015610dbf578082015181840152602081019050610da4565b50505050905090810190601f168015610dec5780820380516001836020036101000a031916815260200191505b509b50505050505050505050505060405180910390f35b610e4560048036036020811015610e1957600080fd5b81019080803573ffffffffffffffffffffffffffffffffffffffff169060200190929190505050613c4d565b60405180806020018060200180602001858152602001848103845288818151815260200191508051906020019080838360005b83811015610e93578082015181840152602081019050610e78565b50505050905090810190601f168015610ec05780820380516001836020036101000a031916815260200191505b50848103835287818151815260200191508051906020019080838360005b83811015610ef9578082015181840152602081019050610ede565b50505050905090810190601f168015610f265780820380516001836020036101000a031916815260200191505b50848103825286818151815260200191508051906020019080838360005b83811015610f5f578082015181840152602081019050610f44565b50505050905090810190601f168015610f8c5780820380516001836020036101000a031916815260200191505b5097505050505050505060405180910390f35b61110f60048036036060811015610fb557600080fd5b81019080803573ffffffffffffffffffffffffffffffffffffffff16906020019092919080359060200190640100000000811115610ff257600080fd5b82018360208201111561100457600080fd5b8035906020019184600183028401116401000000008311171561102657600080fd5b91908080601f016020809104026020016040519081016040528093929190818152602001838380828437600081840152601f19601f8201169050808301925050505050505091929192908035906020019064010000000081111561108957600080fd5b82018360208201111561109b57600080fd5b803590602001918460018302840111640100000000831117156110bd57600080fd5b91908080601f016020809104026020016040519081016040528093929190818152602001838380828437600081840152601f19601f820116905080830192505050505050509192919290505050613f3c565b604051808215151515815260200191505060405180910390f35b6112996004803603606081101561113f57600080fd5b81019080803573ffffffffffffffffffffffffffffffffffffffff1690602001909291908035906020019064010000000081111561117c57600080fd5b82018360208201111561118e57600080fd5b803590602001918460018302840111640100000000831117156111b057600080fd5b91908080601f016020809104026020016040519081016040528093929190818152602001838380828437600081840152601f19601f8201169050808301925050505050505091929192908035906020019064010000000081111561121357600080fd5b82018360208201111561122557600080fd5b8035906020019184600183028401116401000000008311171561124757600080fd5b91908080601f016020809104026020016040519081016040528093929190818152602001838380828437600081840152601f19601f820116905080830192505050505050509192919290505050613ff5565b604051808215151515815260200191505060405180910390f35b611423600480360360608110156112c957600080fd5b81019080803573ffffffffffffffffffffffffffffffffffffffff1690602001909291908035906020019064010000000081111561130657600080fd5b82018360208201111561131857600080fd5b8035906020019184600183028401116401000000008311171561133a57600080fd5b91908080601f016020809104026020016040519081016040528093929190818152602001838380828437600081840152601f19601f8201169050808301925050505050505091929192908035906020019064010000000081111561139d57600080fd5b8201836020820111156113af57600080fd5b803590602001918460018302840111640100000000831117156113d157600080fd5b91908080601f016020809104026020016040519081016040528093929190818152602001838380828437600081840152601f19601f8201169050808301925050505050505091929192905050506140ae565b604051808215151515815260200191505060405180910390f35b6115ad6004803603606081101561145357600080fd5b81019080803573ffffffffffffffffffffffffffffffffffffffff1690602001909291908035906020019064010000000081111561149057600080fd5b8201836020820111156114a257600080fd5b803590602001918460018302840111640100000000831117156114c457600080fd5b91908080601f016020809104026020016040519081016040528093929190818152602001838380828437600081840152601f19601f8201169050808301925050505050505091929192908035906020019064010000000081111561152757600080fd5b82018360208201111561153957600080fd5b8035906020019184600183028401116401000000008311171561155b57600080fd5b91908080601f016020809104026020016040519081016040528093929190818152602001838380828437600081840152601f19601f82011690508083019250505050505050919291929050505061455f565b604051808215151515815260200191505060405180910390f35b611737600480360360608110156115dd57600080fd5b81019080803573ffffffffffffffffffffffffffffffffffffffff1690602001909291908035906020019064010000000081111561161a57600080fd5b82018360208201111561162c57600080fd5b8035906020019184600183028401116401000000008311171561164e57600080fd5b91908080601f016020809104026020016040519081016040528093929190818152602001838380828437600081840152601f19601f820116905080830192505050505050509192919290803590602001906401000000008111156116b157600080fd5b8201836020820111156116c357600080fd5b803590602001918460018302840111640100000000831117156116e557600080fd5b91908080601f016020809104026020016040519081016040528093929190818152602001838380828437600081840152601f19601f820116905080830192505050505050509192919290505050614618565b604051808215151515815260200191505060405180910390f35b6117596146d1565b6040518082815260200191505060405180910390f35b6118df6004803603606081101561178557600080fd5b81019080803573ffffffffffffffffffffffffffffffffffffffff169060200190929190803590602001906401000000008111156117c257600080fd5b8201836020820111156117d457600080fd5b803590602001918460018302840111640100000000831117156117f657600080fd5b91908080601f016020809104026020016040519081016040528093929190818152602001838380828437600081840152601f19601f8201169050808301925050505050505091929192908035906020019064010000000081111561185957600080fd5b82018360208201111561186b57600080fd5b8035906020019184600183028401116401000000008311171561188d57600080fd5b91908080601f016020809104026020016040519081016040528093929190818152602001838380828437600081840152601f19601f8201169050808301925050505050505091929192905050506146de565b604051808215151515815260200191505060405180910390f35b611c2e600480360360c081101561190f57600080fd5b81019080803573ffffffffffffffffffffffffffffffffffffffff1690602001909291908035906020019064010000000081111561194c57600080fd5b82018360208201111561195e57600080fd5b8035906020019184600183028401116401000000008311171561198057600080fd5b91908080601f016020809104026020016040519081016040528093929190818152602001838380828437600081840152601f19601f820116905080830192505050505050509192919290803590602001906401000000008111156119e357600080fd5b8201836020820111156119f557600080fd5b80359060200191846001830284011164010000000083111715611a1757600080fd5b91908080601f016020809104026020016040519081016040528093929190818152602001838380828437600081840152601f19601f82011690508083019250505050505050919291929080359060200190640100000000811115611a7a57600080fd5b820183602082011115611a8c57600080fd5b80359060200191846001830284011164010000000083111715611aae57600080fd5b91908080601f016020809104026020016040519081016040528093929190818152602001838380828437600081840152601f19601f82011690508083019250505050505050919291929080359060200190640100000000811115611b1157600080fd5b820183602082011115611b2357600080fd5b80359060200191846001830284011164010000000083111715611b4557600080fd5b91908080601f016020809104026020016040519081016040528093929190818152602001838380828437600081840152601f19601f82011690508083019250505050505050919291929080359060200190640100000000811115611ba857600080fd5b820183602082011115611bba57600080fd5b80359060200191846001830284011164010000000083111715611bdc57600080fd5b91908080601f016020809104026020016040519081016040528093929190818152602001838380828437600081840152601f19601f820116905080830192505050505050509192919290505050614797565b6040518082815260200191505060405180910390f35b611db460048036036060811015611c5a57600080fd5b81019080803573ffffffffffffffffffffffffffffffffffffffff16906020019092919080359060200190640100000000811115611c9757600080fd5b820183602082011115611ca957600080fd5b80359060200191846001830284011164010000000083111715611ccb57600080fd5b91908080601f016020809104026020016040519081016040528093929190818152602001838380828437600081840152601f19601f82011690508083019250505050505050919291929080359060200190640100000000811115611d2e57600080fd5b820183602082011115611d4057600080fd5b80359060200191846001830284011164010000000083111715611d6257600080fd5b91908080601f016020809104026020016040519081016040528093929190818152602001838380828437600081840152601f19601f820116905080830192505050505050509192919290505050614bdf565b604051808215151515815260200191505060405180910390f35b611e1060048036036020811015611de457600080fd5b81019080803573ffffffffffffffffffffffffffffffffffffffff169060200190929190505050614c98565b60405180806020018060200180602001806020018060200186810386528b818151815260200191508051906020019080838360005b83811015611e60578082015181840152602081019050611e45565b50505050905090810190601f168015611e8d5780820380516001836020036101000a031916815260200191505b5086810385528a818151815260200191508051906020019080838360005b83811015611ec6578082015181840152602081019050611eab565b50505050905090810190601f168015611ef35780820380516001836020036101000a031916815260200191505b50868103845289818151815260200191508051906020019080838360005b83811015611f2c578082015181840152602081019050611f11565b50505050905090810190601f168015611f595780820380516001836020036101000a031916815260200191505b50868103835288818151815260200191508051906020019080838360005b83811015611f92578082015181840152602081019050611f77565b50505050905090810190601f168015611fbf5780820380516001836020036101000a031916815260200191505b50868103825287818151815260200191508051906020019080838360005b83811015611ff8578082015181840152602081019050611fdd565b50505050905090810190601f1680156120255780820380516001836020036101000a031916815260200191505b509a505050505050505050505060405180910390f35b6122426004803603608081101561205157600080fd5b81019080803573ffffffffffffffffffffffffffffffffffffffff1690602001909291908035906020019064010000000081111561208e57600080fd5b8201836020820111156120a057600080fd5b803590602001918460018302840111640100000000831117156120c257600080fd5b91908080601f016020809104026020016040519081016040528093929190818152602001838380828437600081840152601f19601f8201169050808301925050505050505091929192908035906020019064010000000081111561212557600080fd5b82018360208201111561213757600080fd5b8035906020019184600183028401116401000000008311171561215957600080fd5b91908080601f016020809104026020016040519081016040528093929190818152602001838380828437600081840152601f19601f820116905080830192505050505050509192919290803590602001906401000000008111156121bc57600080fd5b8201836020820111156121ce57600080fd5b803590602001918460018302840111640100000000831117156121f057600080fd5b91908080601f016020809104026020016040519081016040528093929190818152602001838380828437600081840152601f19601f820116905080830192505050505050509192919290505050615104565b6040518082815260200191505060405180910390f35b6122846004803603602081101561226e57600080fd5b81019080803590602001909291905050506154b9565b604051808273ffffffffffffffffffffffffffffffffffffffff1673ffffffffffffffffffffffffffffffffffffffff16815260200191505060405180910390f35b6000826000808673ffffffffffffffffffffffffffffffffffffffff1673ffffffffffffffffffffffffffffffffffffffff168152602001908152602001600020600401908051906020019061231d9291906154fa565b50816000808673ffffffffffffffffffffffffffffffffffffffff1673ffffffffffffffffffffffffffffffffffffffff16815260200190815260200160002060080190805190602001906123739291906154fa565b50600190509392505050565b60008060018054905014156123975760009050612441565b8173ffffffffffffffffffffffffffffffffffffffff1660016000808573ffffffffffffffffffffffffffffffffffffffff1673ffffffffffffffffffffffffffffffffffffffff168152602001908152602001600020600e0154815481106123fc57fe5b9060005260206000200160009054906101000a900473ffffffffffffffffffffffffffffffffffffffff1673ffffffffffffffffffffffffffffffffffffffff161490505b919050565b6000826000808673ffffffffffffffffffffffffffffffffffffffff1673ffffffffffffffffffffffffffffffffffffffff168152602001908152602001600020600c01908051906020019061249d9291906154fa565b50816000808673ffffffffffffffffffffffffffffffffffffffff1673ffffffffffffffffffffffffffffffffffffffff16815260200190815260200160002060080190805190602001906124f39291906154fa565b50600190509392505050565b6000826000808673ffffffffffffffffffffffffffffffffffffffff1673ffffffffffffffffffffffffffffffffffffffff16815260200190815260200160002060050190805190602001906125569291906154fa565b50816000808673ffffffffffffffffffffffffffffffffffffffff1673ffffffffffffffffffffffffffffffffffffffff16815260200190815260200160002060080190805190602001906125ac9291906154fa565b50600190509392505050565b6000856000808973ffffffffffffffffffffffffffffffffffffffff1673ffffffffffffffffffffffffffffffffffffffff168152602001908152602001600020600101908051906020019061260f9291906154fa565b50846000808973ffffffffffffffffffffffffffffffffffffffff1673ffffffffffffffffffffffffffffffffffffffff16815260200190815260200160002060020190805190602001906126659291906154fa565b50836000808973ffffffffffffffffffffffffffffffffffffffff1673ffffffffffffffffffffffffffffffffffffffff16815260200190815260200160002060030190805190602001906126bb9291906154fa565b50826000808973ffffffffffffffffffffffffffffffffffffffff1673ffffffffffffffffffffffffffffffffffffffff16815260200190815260200160002060040190805190602001906127119291906154fa565b50816000808973ffffffffffffffffffffffffffffffffffffffff1673ffffffffffffffffffffffffffffffffffffffff16815260200190815260200160002060050190805190602001906127679291906154fa565b507ff29b313176cc8c2a699c0484925570f221e8a2369917fbbfb357805e1539cf47878787878787604051808773ffffffffffffffffffffffffffffffffffffffff1673ffffffffffffffffffffffffffffffffffffffff168152602001806020018060200180602001806020018060200186810386528b818151815260200191508051906020019080838360005b838110156128115780820151818401526020810190506127f6565b50505050905090810190601f16801561283e5780820380516001836020036101000a031916815260200191505b5086810385528a818151815260200191508051906020019080838360005b8381101561287757808201518184015260208101905061285c565b50505050905090810190601f1680156128a45780820380516001836020036101000a031916815260200191505b50868103845289818151815260200191508051906020019080838360005b838110156128dd5780820151818401526020810190506128c2565b50505050905090810190601f16801561290a5780820380516001836020036101000a031916815260200191505b50868103835288818151815260200191508051906020019080838360005b83811015612943578082015181840152602081019050612928565b50505050905090810190601f1680156129705780820380516001836020036101000a031916815260200191505b50868103825287818151815260200191508051906020019080838360005b838110156129a957808201518184015260208101905061298e565b50505050905090810190601f1680156129d65780820380516001836020036101000a031916815260200191505b509b50505050505050505050505060405180910390a1600180805490500390509695505050505050565b6000806000808473ffffffffffffffffffffffffffffffffffffffff1673ffffffffffffffffffffffffffffffffffffffff168152602001908152602001600020600e01549050600060018080805490500381548110612a5c57fe5b9060005260206000200160009054906101000a900473ffffffffffffffffffffffffffffffffffffffff1690508060018381548110612a9757fe5b9060005260206000200160006101000a81548173ffffffffffffffffffffffffffffffffffffffff021916908373ffffffffffffffffffffffffffffffffffffffff160217905550816000808373ffffffffffffffffffffffffffffffffffffffff1673ffffffffffffffffffffffffffffffffffffffff168152602001908152602001600020600e01819055506001805480919060019003612b3a919061557a565b507fe4bcc6498edf10769326df819d9da6da86da61003f14f98bf82e7a872f915cba8483604051808373ffffffffffffffffffffffffffffffffffffffff1673ffffffffffffffffffffffffffffffffffffffff1681526020018281526020019250505060405180910390a17f51f4f408b33ce076534acbf94bfac811f5870aed57d5093e4bfe69265721d0f9816000808473ffffffffffffffffffffffffffffffffffffffff1673ffffffffffffffffffffffffffffffffffffffff1681526020019081526020016000206001016000808573ffffffffffffffffffffffffffffffffffffffff1673ffffffffffffffffffffffffffffffffffffffff1681526020019081526020016000206002016000808673ffffffffffffffffffffffffffffffffffffffff1673ffffffffffffffffffffffffffffffffffffffff1681526020019081526020016000206003016000808773ffffffffffffffffffffffffffffffffffffffff1673ffffffffffffffffffffffffffffffffffffffff1681526020019081526020016000206004016000808873ffffffffffffffffffffffffffffffffffffffff1673ffffffffffffffffffffffffffffffffffffffff168152602001908152602001600020600501604051808773ffffffffffffffffffffffffffffffffffffffff1673ffffffffffffffffffffffffffffffffffffffff168152602001806020018060200180602001806020018060200186810386528b818154600181600116156101000203166002900481526020019150805460018160011615610100020316600290048015612dd85780601f10612dad57610100808354040283529160200191612dd8565b820191906000526020600020905b815481529060010190602001808311612dbb57829003601f168201915b505086810385528a818154600181600116156101000203166002900481526020019150805460018160011615610100020316600290048015612e5b5780601f10612e3057610100808354040283529160200191612e5b565b820191906000526020600020905b815481529060010190602001808311612e3e57829003601f168201915b5050868103845289818154600181600116156101000203166002900481526020019150805460018160011615610100020316600290048015612ede5780601f10612eb357610100808354040283529160200191612ede565b820191906000526020600020905b815481529060010190602001808311612ec157829003601f168201915b5050868103835288818154600181600116156101000203166002900481526020019150805460018160011615610100020316600290048015612f615780601f10612f3657610100808354040283529160200191612f61565b820191906000526020600020905b815481529060010190602001808311612f4457829003601f168201915b5050868103825287818154600181600116156101000203166002900481526020019150805460018160011615610100020316600290048015612fe45780601f10612fb957610100808354040283529160200191612fe4565b820191906000526020600020905b815481529060010190602001808311612fc757829003601f168201915b50509b50505050505050505050505060405180910390a17fae1c53ff7db51561582de21910131058f1f16e94ff094c7bfb996b46d9b033ba816000808473ffffffffffffffffffffffffffffffffffffffff1673ffffffffffffffffffffffffffffffffffffffff1681526020019081526020016000206006016000808573ffffffffffffffffffffffffffffffffffffffff1673ffffffffffffffffffffffffffffffffffffffff1681526020019081526020016000206007016000808673ffffffffffffffffffffffffffffffffffffffff1673ffffffffffffffffffffffffffffffffffffffff1681526020019081526020016000206008016000808773ffffffffffffffffffffffffffffffffffffffff1673ffffffffffffffffffffffffffffffffffffffff1681526020019081526020016000206009016000808873ffffffffffffffffffffffffffffffffffffffff1673ffffffffffffffffffffffffffffffffffffffff168152602001908152602001600020600a01604051808773ffffffffffffffffffffffffffffffffffffffff1673ffffffffffffffffffffffffffffffffffffffff168152602001806020018060200180602001806020018060200186810386528b81815460018160011615610100020316600290048152602001915080546001816001161561010002031660029004801561322d5780601f106132025761010080835404028352916020019161322d565b820191906000526020600020905b81548152906001019060200180831161321057829003601f168201915b505086810385528a8181546001816001161561010002031660029004815260200191508054600181600116156101000203166002900480156132b05780601f10613285576101008083540402835291602001916132b0565b820191906000526020600020905b81548152906001019060200180831161329357829003601f168201915b50508681038452898181546001816001161561010002031660029004815260200191508054600181600116156101000203166002900480156133335780601f1061330857610100808354040283529160200191613333565b820191906000526020600020905b81548152906001019060200180831161331657829003601f168201915b50508681038352888181546001816001161561010002031660029004815260200191508054600181600116156101000203166002900480156133b65780601f1061338b576101008083540402835291602001916133b6565b820191906000526020600020905b81548152906001019060200180831161339957829003601f168201915b50508681038252878181546001816001161561010002031660029004815260200191508054600181600116156101000203166002900480156134395780601f1061340e57610100808354040283529160200191613439565b820191906000526020600020905b81548152906001019060200180831161341c57829003601f168201915b50509b50505050505050505050505060405180910390a17f59ddfe789c5ca95fdcda10a5caa291f7df8c76155a23f8bba0baec1b4539ba0f816000808473ffffffffffffffffffffffffffffffffffffffff1673ffffffffffffffffffffffffffffffffffffffff168152602001908152602001600020600b016000808573ffffffffffffffffffffffffffffffffffffffff1673ffffffffffffffffffffffffffffffffffffffff168152602001908152602001600020600c016000808673ffffffffffffffffffffffffffffffffffffffff1673ffffffffffffffffffffffffffffffffffffffff168152602001908152602001600020600d0186604051808673ffffffffffffffffffffffffffffffffffffffff1673ffffffffffffffffffffffffffffffffffffffff1681526020018060200180602001806020018581526020018481038452888181546001816001161561010002031660029004815260200191508054600181600116156101000203166002900480156135ff5780601f106135d4576101008083540402835291602001916135ff565b820191906000526020600020905b8154815290600101906020018083116135e257829003601f168201915b50508481038352878181546001816001161561010002031660029004815260200191508054600181600116156101000203166002900480156136825780601f1061365757610100808354040283529160200191613682565b820191906000526020600020905b81548152906001019060200180831161366557829003601f168201915b50508481038252868181546001816001161561010002031660029004815260200191508054600181600116156101000203166002900480156137055780601f106136da57610100808354040283529160200191613705565b820191906000526020600020905b8154815290600101906020018083116136e857829003601f168201915b50509850505050505050505060405180910390a18192505050919050565b6000826000808673ffffffffffffffffffffffffffffffffffffffff1673ffffffffffffffffffffffffffffffffffffffff168152602001908152602001600020600601908051906020019061377a9291906154fa565b50816000808673ffffffffffffffffffffffffffffffffffffffff1673ffffffffffffffffffffffffffffffffffffffff16815260200190815260200160002060080190805190602001906137d09291906154fa565b50600190509392505050565b60006060806060806060866000808973ffffffffffffffffffffffffffffffffffffffff1673ffffffffffffffffffffffffffffffffffffffff1681526020019081526020016000206001016000808a73ffffffffffffffffffffffffffffffffffffffff1673ffffffffffffffffffffffffffffffffffffffff1681526020019081526020016000206002016000808b73ffffffffffffffffffffffffffffffffffffffff1673ffffffffffffffffffffffffffffffffffffffff1681526020019081526020016000206003016000808c73ffffffffffffffffffffffffffffffffffffffff1673ffffffffffffffffffffffffffffffffffffffff1681526020019081526020016000206004016000808d73ffffffffffffffffffffffffffffffffffffffff1673ffffffffffffffffffffffffffffffffffffffff168152602001908152602001600020600501848054600181600116156101000203166002900480601f0160208091040260200160405190810160405280929190818152602001828054600181600116156101000203166002900480156139c15780601f10613996576101008083540402835291602001916139c1565b820191906000526020600020905b8154815290600101906020018083116139a457829003601f168201915b50505050509450838054600181600116156101000203166002900480601f016020809104026020016040519081016040528092919081815260200182805460018160011615610100020316600290048015613a5d5780601f10613a3257610100808354040283529160200191613a5d565b820191906000526020600020905b815481529060010190602001808311613a4057829003601f168201915b50505050509350828054600181600116156101000203166002900480601f016020809104026020016040519081016040528092919081815260200182805460018160011615610100020316600290048015613af95780601f10613ace57610100808354040283529160200191613af9565b820191906000526020600020905b815481529060010190602001808311613adc57829003601f168201915b50505050509250818054600181600116156101000203166002900480601f016020809104026020016040519081016040528092919081815260200182805460018160011615610100020316600290048015613b955780601f10613b6a57610100808354040283529160200191613b95565b820191906000526020600020905b815481529060010190602001808311613b7857829003601f168201915b50505050509150808054600181600116156101000203166002900480601f016020809104026020016040519081016040528092919081815260200182805460018160011615610100020316600290048015613c315780601f10613c0657610100808354040283529160200191613c31565b820191906000526020600020905b815481529060010190602001808311613c1457829003601f168201915b5050505050905095509550955095509550955091939550919395565b606080606060008060008673ffffffffffffffffffffffffffffffffffffffff1673ffffffffffffffffffffffffffffffffffffffff168152602001908152602001600020600b016000808773ffffffffffffffffffffffffffffffffffffffff1673ffffffffffffffffffffffffffffffffffffffff168152602001908152602001600020600c016000808873ffffffffffffffffffffffffffffffffffffffff1673ffffffffffffffffffffffffffffffffffffffff168152602001908152602001600020600d016000808973ffffffffffffffffffffffffffffffffffffffff1673ffffffffffffffffffffffffffffffffffffffff168152602001908152602001600020600e0154838054600181600116156101000203166002900480601f016020809104026020016040519081016040528092919081815260200182805460018160011615610100020316600290048015613dee5780601f10613dc357610100808354040283529160200191613dee565b820191906000526020600020905b815481529060010190602001808311613dd157829003601f168201915b50505050509350828054600181600116156101000203166002900480601f016020809104026020016040519081016040528092919081815260200182805460018160011615610100020316600290048015613e8a5780601f10613e5f57610100808354040283529160200191613e8a565b820191906000526020600020905b815481529060010190602001808311613e6d57829003601f168201915b50505050509250818054600181600116156101000203166002900480601f016020809104026020016040519081016040528092919081815260200182805460018160011615610100020316600290048015613f265780601f10613efb57610100808354040283529160200191613f26565b820191906000526020600020905b815481529060010190602001808311613f0957829003601f168201915b5050505050915093509350935093509193509193565b6000826000808673ffffffffffffffffffffffffffffffffffffffff1673ffffffffffffffffffffffffffffffffffffffff168152602001908152602001600020600a019080519060200190613f939291906154fa565b50816000808673ffffffffffffffffffffffffffffffffffffffff1673ffffffffffffffffffffffffffffffffffffffff1681526020019081526020016000206008019080519060200190613fe99291906154fa565b50600190509392505050565b6000826000808673ffffffffffffffffffffffffffffffffffffffff1673ffffffffffffffffffffffffffffffffffffffff168152602001908152602001600020600d01908051906020019061404c9291906154fa565b50816000808673ffffffffffffffffffffffffffffffffffffffff1673ffffffffffffffffffffffffffffffffffffffff16815260200190815260200160002060080190805190602001906140a29291906154fa565b50600190509392505050565b6000826000808673ffffffffffffffffffffffffffffffffffffffff1673ffffffffffffffffffffffffffffffffffffffff16815260200190815260200160002060010190805190602001906141059291906154fa565b50816000808673ffffffffffffffffffffffffffffffffffffffff1673ffffffffffffffffffffffffffffffffffffffff168152602001908152602001600020600801908051906020019061415b9291906154fa565b507f51f4f408b33ce076534acbf94bfac811f5870aed57d5093e4bfe69265721d0f984846000808873ffffffffffffffffffffffffffffffffffffffff1673ffffffffffffffffffffffffffffffffffffffff1681526020019081526020016000206002016000808973ffffffffffffffffffffffffffffffffffffffff1673ffffffffffffffffffffffffffffffffffffffff1681526020019081526020016000206003016000808a73ffffffffffffffffffffffffffffffffffffffff1673ffffffffffffffffffffffffffffffffffffffff1681526020019081526020016000206004016000808b73ffffffffffffffffffffffffffffffffffffffff1673ffffffffffffffffffffffffffffffffffffffff168152602001908152602001600020600501604051808773ffffffffffffffffffffffffffffffffffffffff1673ffffffffffffffffffffffffffffffffffffffff168152602001806020018060200180602001806020018060200186810386528b818151815260200191508051906020019080838360005b838110156143055780820151818401526020810190506142ea565b50505050905090810190601f1680156143325780820380516001836020036101000a031916815260200191505b5086810385528a8181546001816001161561010002031660029004815260200191508054600181600116156101000203166002900480156143b45780601f10614389576101008083540402835291602001916143b4565b820191906000526020600020905b81548152906001019060200180831161439757829003601f168201915b50508681038452898181546001816001161561010002031660029004815260200191508054600181600116156101000203166002900480156144375780601f1061440c57610100808354040283529160200191614437565b820191906000526020600020905b81548152906001019060200180831161441a57829003601f168201915b50508681038352888181546001816001161561010002031660029004815260200191508054600181600116156101000203166002900480156144ba5780601f1061448f576101008083540402835291602001916144ba565b820191906000526020600020905b81548152906001019060200180831161449d57829003601f168201915b505086810382528781815460018160011615610100020316600290048152602001915080546001816001161561010002031660029004801561453d5780601f106145125761010080835404028352916020019161453d565b820191906000526020600020905b81548152906001019060200180831161452057829003601f168201915b50509b50505050505050505050505060405180910390a1600190509392505050565b6000826000808673ffffffffffffffffffffffffffffffffffffffff1673ffffffffffffffffffffffffffffffffffffffff16815260200190815260200160002060030190805190602001906145b69291906154fa565b50816000808673ffffffffffffffffffffffffffffffffffffffff1673ffffffffffffffffffffffffffffffffffffffff168152602001908152602001600020600801908051906020019061460c9291906154fa565b50600190509392505050565b6000826000808673ffffffffffffffffffffffffffffffffffffffff1673ffffffffffffffffffffffffffffffffffffffff168152602001908152602001600020600901908051906020019061466f9291906154fa565b50816000808673ffffffffffffffffffffffffffffffffffffffff1673ffffffffffffffffffffffffffffffffffffffff16815260200190815260200160002060080190805190602001906146c59291906154fa565b50600190509392505050565b6000600180549050905090565b6000826000808673ffffffffffffffffffffffffffffffffffffffff1673ffffffffffffffffffffffffffffffffffffffff168152602001908152602001600020600b0190805190602001906147359291906154fa565b50816000808673ffffffffffffffffffffffffffffffffffffffff1673ffffffffffffffffffffffffffffffffffffffff168152602001908152602001600020600801908051906020019061478b9291906154fa565b50600190509392505050565b6000856000808973ffffffffffffffffffffffffffffffffffffffff1673ffffffffffffffffffffffffffffffffffffffff16815260200190815260200160002060060190805190602001906147ee9291906154fa565b50846000808973ffffffffffffffffffffffffffffffffffffffff1673ffffffffffffffffffffffffffffffffffffffff16815260200190815260200160002060070190805190602001906148449291906154fa565b50836000808973ffffffffffffffffffffffffffffffffffffffff1673ffffffffffffffffffffffffffffffffffffffff168152602001908152602001600020600801908051906020019061489a9291906154fa565b50826000808973ffffffffffffffffffffffffffffffffffffffff1673ffffffffffffffffffffffffffffffffffffffff16815260200190815260200160002060090190805190602001906148f09291906154fa565b50816000808973ffffffffffffffffffffffffffffffffffffffff1673ffffffffffffffffffffffffffffffffffffffff168152602001908152602001600020600a0190805190602001906149469291906154fa565b507fc8086a065c4ec899a0af789bcc22b955c528e1dc823b196e9dfbcbf175052900878787878787604051808773ffffffffffffffffffffffffffffffffffffffff1673ffffffffffffffffffffffffffffffffffffffff168152602001806020018060200180602001806020018060200186810386528b818151815260200191508051906020019080838360005b838110156149f05780820151818401526020810190506149d5565b50505050905090810190601f168015614a1d5780820380516001836020036101000a031916815260200191505b5086810385528a818151815260200191508051906020019080838360005b83811015614a56578082015181840152602081019050614a3b565b50505050905090810190601f168015614a835780820380516001836020036101000a031916815260200191505b50868103845289818151815260200191508051906020019080838360005b83811015614abc578082015181840152602081019050614aa1565b50505050905090810190601f168015614ae95780820380516001836020036101000a031916815260200191505b50868103835288818151815260200191508051906020019080838360005b83811015614b22578082015181840152602081019050614b07565b50505050905090810190601f168015614b4f5780820380516001836020036101000a031916815260200191505b50868103825287818151815260200191508051906020019080838360005b83811015614b88578082015181840152602081019050614b6d565b50505050905090810190601f168015614bb55780820380516001836020036101000a031916815260200191505b509b50505050505050505050505060405180910390a1600180805490500390509695505050505050565b6000826000808673ffffffffffffffffffffffffffffffffffffffff1673ffffffffffffffffffffffffffffffffffffffff1681526020019081526020016000206002019080519060200190614c369291906154fa565b50816000808673ffffffffffffffffffffffffffffffffffffffff1673ffffffffffffffffffffffffffffffffffffffff1681526020019081526020016000206008019080519060200190614c8c9291906154fa565b50600190509392505050565b60608060608060606000808773ffffffffffffffffffffffffffffffffffffffff1673ffffffffffffffffffffffffffffffffffffffff1681526020019081526020016000206006016000808873ffffffffffffffffffffffffffffffffffffffff1673ffffffffffffffffffffffffffffffffffffffff1681526020019081526020016000206007016000808973ffffffffffffffffffffffffffffffffffffffff1673ffffffffffffffffffffffffffffffffffffffff1681526020019081526020016000206008016000808a73ffffffffffffffffffffffffffffffffffffffff1673ffffffffffffffffffffffffffffffffffffffff1681526020019081526020016000206009016000808b73ffffffffffffffffffffffffffffffffffffffff1673ffffffffffffffffffffffffffffffffffffffff168152602001908152602001600020600a01848054600181600116156101000203166002900480601f016020809104026020016040519081016040528092919081815260200182805460018160011615610100020316600290048015614e7a5780601f10614e4f57610100808354040283529160200191614e7a565b820191906000526020600020905b815481529060010190602001808311614e5d57829003601f168201915b50505050509450838054600181600116156101000203166002900480601f016020809104026020016040519081016040528092919081815260200182805460018160011615610100020316600290048015614f165780601f10614eeb57610100808354040283529160200191614f16565b820191906000526020600020905b815481529060010190602001808311614ef957829003601f168201915b50505050509350828054600181600116156101000203166002900480601f016020809104026020016040519081016040528092919081815260200182805460018160011615610100020316600290048015614fb25780601f10614f8757610100808354040283529160200191614fb2565b820191906000526020600020905b815481529060010190602001808311614f9557829003601f168201915b50505050509250818054600181600116156101000203166002900480601f01602080910402602001604051908101604052809291908181526020018280546001816001161561010002031660029004801561504e5780601f106150235761010080835404028352916020019161504e565b820191906000526020600020905b81548152906001019060200180831161503157829003601f168201915b50505050509150808054600181600116156101000203166002900480601f0160208091040260200160405190810160405280929190818152602001828054600181600116156101000203166002900480156150ea5780601f106150bf576101008083540402835291602001916150ea565b820191906000526020600020905b8154815290600101906020018083116150cd57829003601f168201915b505050505090509450945094509450945091939590929450565b6000836000808773ffffffffffffffffffffffffffffffffffffffff1673ffffffffffffffffffffffffffffffffffffffff168152602001908152602001600020600b01908051906020019061515b9291906154fa565b50826000808773ffffffffffffffffffffffffffffffffffffffff1673ffffffffffffffffffffffffffffffffffffffff168152602001908152602001600020600c0190805190602001906151b19291906154fa565b50816000808773ffffffffffffffffffffffffffffffffffffffff1673ffffffffffffffffffffffffffffffffffffffff168152602001908152602001600020600d0190805190602001906152079291906154fa565b506001808690806001815401808255809150509060018203906000526020600020016000909192909190916101000a81548173ffffffffffffffffffffffffffffffffffffffff021916908373ffffffffffffffffffffffffffffffffffffffff160217905550036000808773ffffffffffffffffffffffffffffffffffffffff1673ffffffffffffffffffffffffffffffffffffffff168152602001908152602001600020600e01819055507f4ca481b35121b4e26949304a0ae4ec69db3644c8a5594acee7ff5b621e20ac15858585856000808b73ffffffffffffffffffffffffffffffffffffffff1673ffffffffffffffffffffffffffffffffffffffff168152602001908152602001600020600e0154604051808673ffffffffffffffffffffffffffffffffffffffff1673ffffffffffffffffffffffffffffffffffffffff168152602001806020018060200180602001858152602001848103845288818151815260200191508051906020019080838360005b8381101561539b578082015181840152602081019050615380565b50505050905090810190601f1680156153c85780820380516001836020036101000a031916815260200191505b50848103835287818151815260200191508051906020019080838360005b838110156154015780820151818401526020810190506153e6565b50505050905090810190601f16801561542e5780820380516001836020036101000a031916815260200191505b50848103825286818151815260200191508051906020019080838360005b8381101561546757808201518184015260208101905061544c565b50505050905090810190601f1680156154945780820380516001836020036101000a031916815260200191505b509850505050505050505060405180910390a160018080549050039050949350505050565b6000600182815481106154c857fe5b9060005260206000200160009054906101000a900473ffffffffffffffffffffffffffffffffffffffff169050919050565b828054600181600116156101000203166002900490600052602060002090601f016020900481019282601f1061553b57805160ff1916838001178555615569565b82800160010185558215615569579182015b8281111561556857825182559160200191906001019061554d565b5b50905061557691906155a6565b5090565b8154818355818111156155a1578183600052602060002091820191016155a091906155a6565b5b505050565b6155c891905b808211156155c45760008160009055506001016155ac565b5090565b9056fea165627a7a72305820a63678fffc9c5b8d175aebe15fb25d56bf508fea8ac50a1f3f1bd37bada7d1dc0029",
  "source": "pragma solidity >=0.4.21 <0.6.0;\r\n\r\ncontract UserManagementStorage {\r\n   //eventInsert\r\n   event SetUserManagementEvent(\r\n      address _userAddress,\r\n      //address _userId,\r\n      string _fullName,\r\n      string _email,\r\n      string _password,\r\n      string _gender,\r\n      string _dateOfBirth);\r\n\r\n   event SetUserManagementAdditionEvent(\r\n      address _userAddress,\r\n      string _isLocked,\r\n      string _createdTime,\r\n      string _modifiedTime,\r\n      string _idCardNo,\r\n      string _idCardIssuePlace);\r\n\r\n   event SetUserManagementAdditionFlusEvent(\r\n      address _userAddress,\r\n      string _phoneNumber,\r\n      string _job,\r\n      string _userAddr,\r\n      uint256 _index);\r\n\r\n   //eventUpdate\r\n   event SetLogUpdateUserManagementEven(\r\n      address _userAddress,\r\n      //address _userId,\r\n      string _fullName,\r\n      string _email,\r\n      string _password,\r\n      string _gender,\r\n      string _dateOfBirth);\r\n   event SetLogUpdateUserManagementAdditionEven(\r\n      address _userAddress,\r\n      string _isLocked,\r\n      string _createdTime,\r\n      string _modifiedTime,\r\n      string _idCardNo,\r\n      string _idCardIssuePlace);\r\n   event SetLogUpdateUserManagementAdditionFlusEven(\r\n      address _userAddress,\r\n      string _phoneNumber,\r\n      string _job,\r\n      string _userAddr,\r\n      uint256 _index);\r\n\r\n   //eventDelete\r\n   event SetLogDeleteUserManagement(\r\n      address _userAddress,\r\n      uint256 index);\r\n\r\n   struct UserManagement {\r\n      address userAddress;\r\n      //address userId;\r\n      string fullName;\r\n      string email;\r\n      string password;\r\n      string gender;\r\n      string dateOfBirth;\r\n      string isLocked;\r\n\r\n      string createdTime;\r\n      string modifiedTime;\r\n      string idCardNo;\r\n      string idCardIssuePlace;\r\n\r\n      string phoneNumber;\r\n      string job;\r\n      string userAddr;\r\n      uint256 index;\r\n   }\r\n\r\n   mapping(address => UserManagement) userManagementStructs;\r\n\r\n   address[] userIndex;\r\n\r\n   function isUser(address _userAddress) public view returns(bool isIndeed) {\r\n      if(userIndex.length == 0) return false;\r\n      return (userIndex[userManagementStructs[_userAddress].index] == _userAddress);\r\n   }\r\n\r\n   function insertUser(\r\n      address _userAddress,\r\n      //address _userId,\r\n      string memory _fullName,\r\n      string memory _email,\r\n      string memory _password,\r\n      string memory _gender,\r\n      string memory _dateOfBirth\r\n      )\r\n      public returns(uint256 index){\r\n      //if(isUser(_userAddress)) revert('throw');\r\n      //userManagementStructs[_userAddress].userId = _userId;\r\n      userManagementStructs[_userAddress].fullName = _fullName;\r\n      userManagementStructs[_userAddress].email = _email;\r\n      userManagementStructs[_userAddress].password = _password;\r\n      userManagementStructs[_userAddress].gender = _gender;\r\n      userManagementStructs[_userAddress].dateOfBirth = _dateOfBirth;\r\n\r\n      emit SetUserManagementEvent(_userAddress, _fullName, _email, _password, _gender, _dateOfBirth);\r\n      // emit SetUserManagementAdditionEvent(_userAddress, _createdTime, _modifiedTime, _idCardNo, _idCardIssuePlace);\r\n      // emit SetUserManagementAdditionFlusEvent(\r\n      //    _userAddress,\r\n      //    _phoneNumber,\r\n      //    _job,\r\n      //    _userAddr,\r\n      //    userManagementAdditionFlusStructs[_userAddress].index);\r\n      return userIndex.length-1;\r\n   }\r\n\r\n   function insertUserDetail(\r\n      address _userAddress,\r\n      string memory _isLocked,\r\n      string memory _createdTime,\r\n      string memory _modifiedTime,\r\n      string  memory _idCardNo,\r\n      string  memory _idCardIssuePlace\r\n      )\r\n      public returns(uint256 index){\r\n      userManagementStructs[_userAddress].isLocked = _isLocked;\r\n      userManagementStructs[_userAddress].createdTime = _createdTime;\r\n      userManagementStructs[_userAddress].modifiedTime = _modifiedTime;\r\n      userManagementStructs[_userAddress].idCardNo = _idCardNo;\r\n      userManagementStructs[_userAddress].idCardIssuePlace = _idCardIssuePlace;\r\n\r\n      emit SetUserManagementAdditionEvent(_userAddress, _isLocked, _createdTime, _modifiedTime, _idCardNo, _idCardIssuePlace);\r\n      return userIndex.length-1;\r\n   }\r\n\r\n   function insertUserDetailFlus(\r\n      address _userAddress,\r\n      string memory _phoneNumber,\r\n      string  memory _job,\r\n      string  memory _userAddr\r\n      )\r\n      public returns(uint256 index){\r\n      // if(isUser(_userAddress)) revert('throw');\r\n      userManagementStructs[_userAddress].phoneNumber = _phoneNumber;\r\n      userManagementStructs[_userAddress].job = _job;\r\n      userManagementStructs[_userAddress].userAddr = _userAddr;\r\n      userManagementStructs[_userAddress].index = userIndex.push(_userAddress)-1;\r\n      emit SetUserManagementAdditionFlusEvent(\r\n         _userAddress,\r\n         _phoneNumber,\r\n         _job,\r\n         _userAddr,\r\n         userManagementStructs[_userAddress].index);\r\n      return userIndex.length-1;\r\n   }\r\n\r\n   function deleteUser(address _userAddress) public returns(uint256 index){\r\n      // if(!isUser(_userAddress)) revert('throw');\r\n      uint256 rowToDelete = userManagementStructs[_userAddress].index;\r\n      address keyToMove = userIndex[userIndex.length-1];\r\n      userIndex[rowToDelete] = keyToMove; //vi tri can delete = vi tri cuoi ds\r\n      userManagementStructs[keyToMove].index = rowToDelete;\r\n\r\n      userIndex.length--;\r\n      emit SetLogDeleteUserManagement(\r\n         _userAddress,\r\n         rowToDelete);\r\n\r\n      emit SetLogUpdateUserManagementEven(\r\n         keyToMove,\r\n         //userManagementStructs[keyToMove].userId,\r\n         userManagementStructs[keyToMove].fullName,\r\n         userManagementStructs[keyToMove].email,\r\n         userManagementStructs[keyToMove].password,\r\n         userManagementStructs[keyToMove].gender,\r\n         userManagementStructs[keyToMove].dateOfBirth\r\n         );\r\n      emit SetLogUpdateUserManagementAdditionEven(\r\n         keyToMove,\r\n         userManagementStructs[keyToMove].isLocked,\r\n         userManagementStructs[keyToMove].createdTime,\r\n         userManagementStructs[keyToMove].modifiedTime,\r\n         userManagementStructs[keyToMove].idCardNo,\r\n         userManagementStructs[keyToMove].idCardIssuePlace\r\n         );\r\n      emit SetLogUpdateUserManagementAdditionFlusEven(\r\n         keyToMove,\r\n         userManagementStructs[keyToMove].phoneNumber,\r\n         userManagementStructs[keyToMove].job,\r\n         userManagementStructs[keyToMove].userAddr,\r\n         rowToDelete);\r\n      return rowToDelete;\r\n   }\r\n\r\n   function getUser(address _userAddress) public view returns(\r\n      address userAddress,\r\n      //address _userId,\r\n      string memory _fullName,\r\n      string memory _email,\r\n      string memory _password,\r\n      string memory _gender,\r\n      string memory _dateOfBirth\r\n      ){\r\n      // if(!isUser(_userAddress)) revert('throw');\r\n      return(\r\n         _userAddress,\r\n         //userManagementStructs[_userAddress].userId,\r\n         userManagementStructs[_userAddress].fullName,\r\n         userManagementStructs[_userAddress].email,\r\n         userManagementStructs[_userAddress].password,\r\n         userManagementStructs[_userAddress].gender,\r\n         userManagementStructs[_userAddress].dateOfBirth);\r\n   }\r\n\r\n   function getUserDetailMore(address _userAddress) public view returns(\r\n      string memory _isLocked,\r\n      string memory _createdTime,\r\n      string memory _modifiedTime,\r\n      string memory _idCardNo,\r\n      string memory _idCardIssuePlace\r\n      ){\r\n      // if(!isUser(_userAddress)) revert('throw');\r\n      return(\r\n         userManagementStructs[_userAddress].isLocked,\r\n         userManagementStructs[_userAddress].createdTime,\r\n         userManagementStructs[_userAddress].modifiedTime,\r\n         userManagementStructs[_userAddress].idCardNo,\r\n         userManagementStructs[_userAddress].idCardIssuePlace);\r\n   }\r\n\r\n   function getUserDetailMoreMore(address _userAddress) public view returns(\r\n      string memory _phoneNumber,\r\n      string  memory  _job,\r\n      string  memory  _userAddr,\r\n      uint256 index\r\n      ){\r\n      // if(!isUser(_userAddress)) revert('throw');\r\n      return(\r\n         userManagementStructs[_userAddress].phoneNumber,\r\n         userManagementStructs[_userAddress].job,\r\n         userManagementStructs[_userAddress].userAddr,\r\n         userManagementStructs[_userAddress].index);\r\n   }\r\n\r\n\r\n// UPDATE\r\n\r\n\r\n   function updateFullName(address _userAddress, string  memory  _fullName, string  memory _modifiedTime)\r\n   public returns(bool success) {\r\n      // if(!isUser(_userAddress))  revert('throw');\r\n      userManagementStructs[_userAddress].fullName = _fullName;\r\n      userManagementStructs[_userAddress].modifiedTime = _modifiedTime;\r\n      emit SetLogUpdateUserManagementEven(\r\n         _userAddress,\r\n         //userManagementStructs[_userAddress].userId,\r\n         _fullName,\r\n         userManagementStructs[_userAddress].email,\r\n         userManagementStructs[_userAddress].password,\r\n         userManagementStructs[_userAddress].gender,\r\n         userManagementStructs[_userAddress].dateOfBirth\r\n         );\r\n      return true;\r\n   }\r\n\r\n   function updateEmail(address _userAddress, string  memory  _email, string  memory _modifiedTime)\r\n   public returns(bool success) {\r\n      // if(!isUser(_userAddress))  revert('throw');\r\n      userManagementStructs[_userAddress].email = _email;\r\n      userManagementStructs[_userAddress].modifiedTime = _modifiedTime;\r\n      // emit SetLogUpdateUserManagementEven(\r\n      //    _userAddress,\r\n      //    userManagementStructs[_userAddress].userId,\r\n      //    userManagementStructs[_userAddress].fullName,\r\n      //    _email,\r\n      //    userManagementStructs[_userAddress].password,\r\n      //    userManagementStructs[_userAddress].gender,\r\n      //    userManagementStructs[_userAddress].dateOfBirth\r\n      //    );\r\n      return true;\r\n   }\r\n\r\n   function updatePassword(address _userAddress, string  memory  _password, string  memory _modifiedTime)\r\n      public returns(bool success) {\r\n      // if(!isUser(_userAddress))  revert('throw');\r\n      userManagementStructs[_userAddress].password = _password;\r\n      userManagementStructs[_userAddress].modifiedTime = _modifiedTime;\r\n      // emit SetLogUpdateUserManagementEven(\r\n      //    _userAddress,\r\n      //    userManagementStructs[_userAddress].userId,\r\n      //    userManagementStructs[_userAddress].fullName,\r\n      //    userManagementStructs[_userAddress].email,\r\n      //    _password,\r\n      //    userManagementStructs[_userAddress].gender,\r\n      //    userManagementStructs[_userAddress].dateOfBirth\r\n      //    );\r\n      return true;\r\n   }\r\n\r\n   function updateGender(address _userAddress, string  memory  _gender, string  memory _modifiedTime)\r\n      public returns(bool success) {\r\n      // if(!isUser(_userAddress))  revert('throw');\r\n      userManagementStructs[_userAddress].gender = _gender;\r\n      userManagementStructs[_userAddress].modifiedTime = _modifiedTime;\r\n      // emit SetLogUpdateUserManagementEven(\r\n      //    _userAddress,\r\n      //    userManagementStructs[_userAddress].userId,\r\n      //    userManagementStructs[_userAddress].fullName,\r\n      //    userManagementStructs[_userAddress].email,\r\n      //    userManagementStructs[_userAddress].password,\r\n      //    _gender,\r\n      //    userManagementStructs[_userAddress].dateOfBirth\r\n      //    );\r\n      return true;\r\n   }\r\n\r\n   function updateDateOfBirth(address _userAddress, string memory  _dateOfBirth, string  memory _modifiedTime)\r\n      public returns(bool success) {\r\n      // if(!isUser(_userAddress))  revert('throw');\r\n      userManagementStructs[_userAddress].dateOfBirth = _dateOfBirth;\r\n      userManagementStructs[_userAddress].modifiedTime = _modifiedTime;\r\n      // emit SetLogUpdateUserManagementEven(\r\n      //    _userAddress,\r\n      //    userManagementStructs[_userAddress].userId,\r\n      //    userManagementStructs[_userAddress].fullName,\r\n      //    userManagementStructs[_userAddress].email,\r\n      //    userManagementStructs[_userAddress].password,\r\n      //    userManagementStructs[_userAddress].gender,\r\n      //    _dateOfBirth\r\n      //    );\r\n      return true;\r\n   }\r\n\r\n   function updateIsLocked(address _userAddress, string  memory  _isLocked, string  memory _modifiedTime)\r\n   public returns(bool success) {\r\n      // if(!isUser(_userAddress))  revert('throw');\r\n      userManagementStructs[_userAddress].isLocked = _isLocked;\r\n      userManagementStructs[_userAddress].modifiedTime = _modifiedTime;\r\n      // emit SetLogUpdateUserManagementAdditionEven(\r\n      //    _userAddress,\r\n      //    _isLocked,\r\n      //    userManagementStructs[_userAddress].createdTime,\r\n      //    userManagementStructs[_userAddress].modifiedTime,\r\n      //    userManagementStructs[_userAddress].idCardNo,\r\n      //    userManagementStructs[_userAddress].idCardIssuePlace\r\n      //    );\r\n      return true;\r\n   }\r\n\r\n   function updateIdCardNo(address _userAddress, string memory _idCardNo, string  memory _modifiedTime)\r\n   public returns(bool success) {\r\n      // if(!isUser(_userAddress))  revert('throw');\r\n      userManagementStructs[_userAddress].idCardNo = _idCardNo;\r\n      userManagementStructs[_userAddress].modifiedTime = _modifiedTime;\r\n      // emit SetLogUpdateUserManagementAdditionEven(\r\n      //    _userAddress,\r\n      //    userManagementStructs[_userAddress].isLocked,\r\n      //    userManagementStructs[_userAddress].createdTime,\r\n      //    userManagementStructs[_userAddress].modifiedTime,\r\n      //    _idCardNo,\r\n      //    userManagementStructs[_userAddress].idCardIssuePlace\r\n      //    );\r\n      return true;\r\n   }\r\n\r\n   function updateIdCardIssuePlace(address _userAddress, string memory _idCardIssuePlace, string  memory _modifiedTime)\r\n   public returns(bool success) {\r\n      // if(!isUser(_userAddress))  revert('throw');\r\n      userManagementStructs[_userAddress].idCardIssuePlace = _idCardIssuePlace;\r\n      userManagementStructs[_userAddress].modifiedTime = _modifiedTime;\r\n      // emit SetLogUpdateUserManagementAdditionEven(\r\n      //    _userAddress,\r\n      //    userManagementStructs[_userAddress].isLocked,\r\n      //    userManagementStructs[_userAddress].createdTime,\r\n      //    userManagementStructs[_userAddress].modifiedTime,\r\n      //    userManagementStructs[_userAddress].idCardNo,\r\n      //    _idCardIssuePlace);\r\n      return true;\r\n   }\r\n\r\n   function updatePhoneNumber(address _userAddress, string memory _phoneNumber, string  memory _modifiedTime)\r\n   public returns(bool success) {\r\n      // if(!isUser(_userAddress))  revert('throw');\r\n      userManagementStructs[_userAddress].phoneNumber = _phoneNumber;\r\n      userManagementStructs[_userAddress].modifiedTime = _modifiedTime;\r\n      // emit SetLogUpdateUserManagementAdditionFlusEven(\r\n      //    _userAddress,\r\n      //    _phoneNumber,\r\n      //    userManagementStructs[_userAddress].job,\r\n      //    userManagementStructs[_userAddress].userAddr,\r\n      //    userManagementStructs[_userAddress].index);\r\n      return true;\r\n   }\r\n\r\n   function updateJob(address _userAddress, string memory   _job, string  memory _modifiedTime)\r\n   public returns(bool success) {\r\n      // if(!isUser(_userAddress))  revert('throw');\r\n      userManagementStructs[_userAddress].job = _job;\r\n      userManagementStructs[_userAddress].modifiedTime = _modifiedTime;\r\n      // userManagementStructs[_userAddress].userAddr = _userAddr;\r\n      // emit SetLogUpdateUserManagementAdditionFlusEven(\r\n      //    _userAddress,\r\n      //    userManagementStructs[_userAddress].phoneNumber,\r\n      //    _job,\r\n      //    userManagementStructs[_userAddress].userAddr,\r\n      //    userManagementStructs[_userAddress].index);\r\n      return true;\r\n   }\r\n\r\n   function updateUserAddr(address _userAddress, string memory   _userAddr, string  memory _modifiedTime)\r\n   public returns(bool success) {\r\n      // if(!isUser(_userAddress))  revert('throw');\r\n      userManagementStructs[_userAddress].userAddr = _userAddr;\r\n      userManagementStructs[_userAddress].modifiedTime = _modifiedTime;\r\n      // emit SetLogUpdateUserManagementAdditionFlusEven(\r\n      //    _userAddress,\r\n      //    userManagementStructs[_userAddress].phoneNumber,\r\n      //    userManagementStructs[_userAddress].job,\r\n      //    _userAddr,\r\n      //    userManagementStructs[_userAddress].index);\r\n      return true;\r\n   }\r\n\r\n   function getUserCount() public view returns(uint256 count){\r\n         return userIndex.length;\r\n      }\r\n\r\n   function getUserAtIndex(uint256 _index)\r\n      public\r\n      view\r\n      returns(address userAddress)\r\n   {\r\n      return userIndex[_index];\r\n   }\r\n\r\n}",
  "sourcePath": "C:/xampp/htdocs/projectBlockchain/blockchaindemo/TG_UNIVERSITY_CERTIFICATE_VERIFICATION_SERVER/contracts/User.sol",
  "compiler": {
    "name": "solc",
    "version": "0.5.8+commit.23d335f2.Emscripten.clang"
  },
  "schemaVersion": "3.0.11",
  "updatedAt": "2019-07-01T11:46:03.005Z",
  "devdoc": {
    "methods": {}
  },
  "userdoc": {
    "methods": {}
  }
}