{
  "contractName": "UserManagementStorage",
  "abi": [
    {
      "anonymous": false,
      "inputs": [
        {
          "indexed": false,
          "name": "_userAddress",
          "type": "address"
        },
        {
          "indexed": false,
          "name": "_userId",
          "type": "string"
        },
        {
          "indexed": false,
          "name": "_fullName",
          "type": "string"
        },
        {
          "indexed": false,
          "name": "_email",
          "type": "string"
        },
        {
          "indexed": false,
          "name": "_password",
          "type": "string"
        },
        {
          "indexed": false,
          "name": "_gender",
          "type": "string"
        },
        {
          "indexed": false,
          "name": "_dateOfBirth",
          "type": "uint256"
        },
        {
          "indexed": false,
          "name": "_isLocked",
          "type": "string"
        }
      ],
      "name": "SetUserManagementEvent",
      "type": "event"
    },
    {
      "anonymous": false,
      "inputs": [
        {
          "indexed": false,
          "name": "_userAddress",
          "type": "address"
        },
        {
          "indexed": false,
          "name": "_isLocked",
          "type": "string"
        },
        {
          "indexed": false,
          "name": "_createdTime",
          "type": "uint256"
        },
        {
          "indexed": false,
          "name": "_modifiedTime",
          "type": "uint256"
        },
        {
          "indexed": false,
          "name": "_idCardNo",
          "type": "string"
        },
        {
          "indexed": false,
          "name": "_idCardIssuePlace",
          "type": "string"
        },
        {
          "indexed": false,
          "name": "_index",
          "type": "uint256"
        }
      ],
      "name": "SetUserManagementAdditionEvent",
      "type": "event"
    },
    {
      "anonymous": false,
      "inputs": [
        {
          "indexed": false,
          "name": "_userAddress",
          "type": "address"
        },
        {
          "indexed": false,
          "name": "_phoneNumber",
          "type": "uint256"
        },
        {
          "indexed": false,
          "name": "_job",
          "type": "string"
        },
        {
          "indexed": false,
          "name": "_userAddr",
          "type": "string"
        },
        {
          "indexed": false,
          "name": "_index",
          "type": "uint256"
        },
        {
          "indexed": false,
          "name": "_index",
          "type": "uint256"
        }
      ],
      "name": "SetUserManagementAdditionFlusEvent",
      "type": "event"
    },
    {
      "anonymous": false,
      "inputs": [
        {
          "indexed": false,
          "name": "_userAddress",
          "type": "address"
        },
        {
          "indexed": false,
          "name": "_userId",
          "type": "string"
        },
        {
          "indexed": false,
          "name": "_fullName",
          "type": "string"
        },
        {
          "indexed": false,
          "name": "_email",
          "type": "string"
        },
        {
          "indexed": false,
          "name": "_password",
          "type": "string"
        },
        {
          "indexed": false,
          "name": "_gender",
          "type": "string"
        },
        {
          "indexed": false,
          "name": "_dateOfBirth",
          "type": "uint256"
        },
        {
          "indexed": false,
          "name": "_isLocked",
          "type": "string"
        }
      ],
      "name": "SetLogUpdateUserManagementEven",
      "type": "event"
    },
    {
      "anonymous": false,
      "inputs": [
        {
          "indexed": false,
          "name": "_userAddress",
          "type": "address"
        },
        {
          "indexed": false,
          "name": "_isLocked",
          "type": "string"
        },
        {
          "indexed": false,
          "name": "_modifiedTime",
          "type": "uint256"
        },
        {
          "indexed": false,
          "name": "_createdTime",
          "type": "uint256"
        },
        {
          "indexed": false,
          "name": "_idCardNo",
          "type": "string"
        },
        {
          "indexed": false,
          "name": "_idCardIssuePlace",
          "type": "string"
        },
        {
          "indexed": false,
          "name": "_index",
          "type": "uint256"
        }
      ],
      "name": "SetLogUpdateUserManagementAdditionEven",
      "type": "event"
    },
    {
      "anonymous": false,
      "inputs": [
        {
          "indexed": false,
          "name": "_userAddress",
          "type": "address"
        },
        {
          "indexed": false,
          "name": "_phoneNumber",
          "type": "uint256"
        },
        {
          "indexed": false,
          "name": "_job",
          "type": "string"
        },
        {
          "indexed": false,
          "name": "_userAddr",
          "type": "string"
        },
        {
          "indexed": false,
          "name": "_index",
          "type": "uint256"
        },
        {
          "indexed": false,
          "name": "_index",
          "type": "uint256"
        }
      ],
      "name": "SetLogUpdateUserManagementAdditionFlusEven",
      "type": "event"
    },
    {
      "anonymous": false,
      "inputs": [
        {
          "indexed": false,
          "name": "_userAddress",
          "type": "address"
        },
        {
          "indexed": false,
          "name": "index",
          "type": "uint256"
        }
      ],
      "name": "SetLogDeleteUserManagement",
      "type": "event"
    },
    {
      "constant": true,
      "inputs": [
        {
          "name": "_userAddress",
          "type": "address"
        }
      ],
      "name": "isUser",
      "outputs": [
        {
          "name": "isIndeed",
          "type": "bool"
        }
      ],
      "payable": false,
      "stateMutability": "view",
      "type": "function"
    },
    {
      "constant": false,
      "inputs": [
        {
          "name": "_userAddress",
          "type": "address"
        },
        {
          "name": "_userId",
          "type": "string"
        },
        {
          "name": "_fullName",
          "type": "string"
        },
        {
          "name": "_email",
          "type": "string"
        },
        {
          "name": "_password",
          "type": "string"
        },
        {
          "name": "_gender",
          "type": "string"
        },
        {
          "name": "_dateOfBirth",
          "type": "uint256"
        },
        {
          "name": "_isLocked",
          "type": "string"
        }
      ],
      "name": "insertUser",
      "outputs": [
        {
          "name": "index",
          "type": "uint256"
        }
      ],
      "payable": false,
      "stateMutability": "nonpayable",
      "type": "function"
    },
    {
      "constant": false,
      "inputs": [
        {
          "name": "_userAddress",
          "type": "address"
        },
        {
          "name": "_isLocked",
          "type": "string"
        },
        {
          "name": "_createdTime",
          "type": "uint256"
        },
        {
          "name": "_modifiedTime",
          "type": "uint256"
        },
        {
          "name": "_idCardNo",
          "type": "string"
        },
        {
          "name": "_idCardIssuePlace",
          "type": "string"
        }
      ],
      "name": "insertUserDetail",
      "outputs": [
        {
          "name": "index",
          "type": "uint256"
        }
      ],
      "payable": false,
      "stateMutability": "nonpayable",
      "type": "function"
    },
    {
      "constant": false,
      "inputs": [
        {
          "name": "_userAddress",
          "type": "address"
        },
        {
          "name": "_phoneNumber",
          "type": "uint256"
        },
        {
          "name": "_job",
          "type": "string"
        },
        {
          "name": "_userAddr",
          "type": "string"
        },
        {
          "name": "_password",
          "type": "string"
        }
      ],
      "name": "insertUserDetailFlus",
      "outputs": [
        {
          "name": "index",
          "type": "uint256"
        }
      ],
      "payable": false,
      "stateMutability": "nonpayable",
      "type": "function"
    },
    {
      "constant": false,
      "inputs": [
        {
          "name": "_userAddress",
          "type": "address"
        }
      ],
      "name": "deleteUser",
      "outputs": [
        {
          "name": "index",
          "type": "uint256"
        }
      ],
      "payable": false,
      "stateMutability": "nonpayable",
      "type": "function"
    },
    {
      "constant": true,
      "inputs": [
        {
          "name": "_userAddress",
          "type": "address"
        }
      ],
      "name": "getUser",
      "outputs": [
        {
          "name": "userAddress",
          "type": "address"
        },
        {
          "name": "_userId",
          "type": "string"
        },
        {
          "name": "_fullName",
          "type": "string"
        },
        {
          "name": "_email",
          "type": "string"
        },
        {
          "name": "_password",
          "type": "string"
        },
        {
          "name": "_gender",
          "type": "string"
        },
        {
          "name": "_dateOfBirth",
          "type": "uint256"
        }
      ],
      "payable": false,
      "stateMutability": "view",
      "type": "function"
    },
    {
      "constant": true,
      "inputs": [
        {
          "name": "_userAddress",
          "type": "address"
        }
      ],
      "name": "getUserDetailMore",
      "outputs": [
        {
          "name": "_isLocked",
          "type": "string"
        },
        {
          "name": "_createdTime",
          "type": "uint256"
        },
        {
          "name": "_modifiedTime",
          "type": "uint256"
        },
        {
          "name": "_idCardNo",
          "type": "string"
        },
        {
          "name": "_idCardIssuePlace",
          "type": "string"
        }
      ],
      "payable": false,
      "stateMutability": "view",
      "type": "function"
    },
    {
      "constant": true,
      "inputs": [
        {
          "name": "_userAddress",
          "type": "address"
        }
      ],
      "name": "getUserDetailMoreMore",
      "outputs": [
        {
          "name": "_phoneNumber",
          "type": "uint256"
        },
        {
          "name": "_job",
          "type": "string"
        },
        {
          "name": "_userAddr",
          "type": "string"
        },
        {
          "name": "index",
          "type": "uint256"
        },
        {
          "name": "_dateOfBirth",
          "type": "uint256"
        },
        {
          "name": "_index",
          "type": "uint256"
        }
      ],
      "payable": false,
      "stateMutability": "view",
      "type": "function"
    },
    {
      "constant": false,
      "inputs": [
        {
          "name": "_userAddress",
          "type": "address"
        },
        {
          "name": "_fullName",
          "type": "string"
        },
        {
          "name": "_modifiedTime",
          "type": "uint256"
        },
        {
          "name": "_modifiedTime",
          "type": "uint256"
        },
        {
          "name": "_idCardNo",
          "type": "string"
        },
        {
          "name": "_idCardIssuePlace",
          "type": "string"
        }
      ],
      "name": "updateFullName",
      "outputs": [
        {
          "name": "success",
          "type": "bool"
        },
        {
          "name": "_createdTime",
          "type": "uint256"
        },
        {
          "name": "_modifiedTime",
          "type": "uint256"
        },
        {
          "name": "_idCardNo",
          "type": "string"
        },
        {
          "name": "_idCardIssuePlace",
          "type": "string"
        },
        {
          "name": "_index",
          "type": "uint256"
        }
      ],
      "payable": false,
      "stateMutability": "nonpayable",
      "type": "function"
    },
    {
      "constant": false,
      "inputs": [
        {
          "name": "_userAddress",
          "type": "address"
        },
        {
          "name": "_email",
          "type": "string"
        },
        {
          "name": "_modifiedTime",
          "type": "uint256"
        },
        {
          "name": "_email",
          "type": "string"
        },
        {
          "name": "_password",
          "type": "string"
        },
        {
          "name": "_gender",
          "type": "string"
        },
        {
          "name": "_dateOfBirth",
          "type": "uint256"
        }
      ],
      "name": "updateEmail",
      "outputs": [
        {
          "name": "success",
          "type": "bool"
        },
        {
          "name": "_job",
          "type": "string"
        },
        {
          "name": "_userAddr",
          "type": "string"
        },
        {
          "name": "_password",
          "type": "string"
        },
        {
          "name": "_index",
          "type": "uint256"
        }
      ],
      "payable": false,
      "stateMutability": "nonpayable",
      "type": "function"
    },
    {
      "constant": false,
      "inputs": [
        {
          "name": "_userAddress",
          "type": "address"
        },
        {
          "name": "_password",
          "type": "string"
        },
        {
          "name": "_modifiedTime",
          "type": "uint256"
        },
        {
          "name": "_modifiedTime",
          "type": "uint256"
        },
        {
          "name": "_idCardNo",
          "type": "string"
        },
        {
          "name": "_idCardIssuePlace",
          "type": "string"
        },
        {
          "name": "_dateOfBirth",
          "type": "uint256"
        },
        {
          "name": "_isLocked",
          "type": "string"
        }
      ],
      "name": "updatePassword",
      "outputs": [
        {
          "name": "success",
          "type": "bool"
        }
      ],
      "payable": false,
      "stateMutability": "nonpayable",
      "type": "function"
    },
    {
      "constant": false,
      "inputs": [
        {
          "name": "_userAddress",
          "type": "address"
        },
        {
          "name": "_gender",
          "type": "string"
        },
        {
          "name": "_modifiedTime",
          "type": "uint256"
        },
        {
          "name": "_userAddr",
          "type": "string"
        },
        {
          "name": "_idCardNo",
          "type": "string"
        },
        {
          "name": "_idCardIssuePlace",
          "type": "string"
        },
        {
          "name": "_index",
          "type": "uint256"
        }
      ],
      "name": "updateGender",
      "outputs": [
        {
          "name": "success",
          "type": "bool"
        }
      ],
      "payable": false,
      "stateMutability": "nonpayable",
      "type": "function"
    },
    {
      "constant": false,
      "inputs": [
        {
          "name": "_userAddress",
          "type": "address"
        },
        {
          "name": "_dateOfBirth",
          "type": "uint256"
        },
        {
          "name": "_modifiedTime",
          "type": "uint256"
        },
        {
          "name": "_userAddr",
          "type": "string"
        },
        {
          "name": "_password",
          "type": "string"
        },
        {
          "name": "_index",
          "type": "uint256"
        }
      ],
      "name": "updateDateOfBirth",
      "outputs": [
        {
          "name": "success",
          "type": "bool"
        }
      ],
      "payable": false,
      "stateMutability": "nonpayable",
      "type": "function"
    },
    {
      "constant": false,
      "inputs": [
        {
          "name": "_userAddress",
          "type": "address"
        },
        {
          "name": "_isLocked",
          "type": "string"
        },
        {
          "name": "_modifiedTime",
          "type": "uint256"
        }
      ],
      "name": "updateIsLocked",
      "outputs": [
        {
          "name": "success",
          "type": "bool"
        }
      ],
      "payable": false,
      "stateMutability": "nonpayable",
      "type": "function"
    },
    {
      "constant": false,
      "inputs": [
        {
          "name": "_userAddress",
          "type": "address"
        },
        {
          "name": "_idCardNo",
          "type": "string"
        },
        {
          "name": "_modifiedTime",
          "type": "uint256"
        }
      ],
      "name": "updateIdCardNo",
      "outputs": [
        {
          "name": "success",
          "type": "bool"
        }
      ],
      "payable": false,
      "stateMutability": "nonpayable",
      "type": "function"
    },
    {
      "constant": false,
      "inputs": [
        {
          "name": "_userAddress",
          "type": "address"
        },
        {
          "name": "_idCardIssuePlace",
          "type": "string"
        },
        {
          "name": "_modifiedTime",
          "type": "uint256"
        }
      ],
      "name": "updateIdCardIssuePlace",
      "outputs": [
        {
          "name": "success",
          "type": "bool"
        }
      ],
      "payable": false,
      "stateMutability": "nonpayable",
      "type": "function"
    },
    {
      "constant": false,
      "inputs": [
        {
          "name": "_userAddress",
          "type": "address"
        },
        {
          "name": "_phoneNumber",
          "type": "uint256"
        },
        {
          "name": "_modifiedTime",
          "type": "uint256"
        }
      ],
      "name": "updatePhoneNumber",
      "outputs": [
        {
          "name": "success",
          "type": "bool"
        }
      ],
      "payable": false,
      "stateMutability": "nonpayable",
      "type": "function"
    },
    {
      "constant": false,
      "inputs": [
        {
          "name": "_userAddress",
          "type": "address"
        },
        {
          "name": "_job",
          "type": "string"
        },
        {
          "name": "_modifiedTime",
          "type": "uint256"
        }
      ],
      "name": "updateJob",
      "outputs": [
        {
          "name": "success",
          "type": "bool"
        }
      ],
      "payable": false,
      "stateMutability": "nonpayable",
      "type": "function"
    },
    {
      "constant": false,
      "inputs": [
        {
          "name": "_userAddress",
          "type": "address"
        },
        {
          "name": "_userAddr",
          "type": "string"
        },
        {
          "name": "_modifiedTime",
          "type": "uint256"
        }
      ],
      "name": "updateUserAddr",
      "outputs": [
        {
          "name": "success",
          "type": "bool"
        }
      ],
      "payable": false,
      "stateMutability": "nonpayable",
      "type": "function"
    },
    {
      "constant": true,
      "inputs": [],
      "name": "getUserCount",
      "outputs": [
        {
          "name": "count",
          "type": "uint256"
        }
      ],
      "payable": false,
      "stateMutability": "view",
      "type": "function"
    },
    {
      "constant": true,
      "inputs": [
        {
          "name": "_index",
          "type": "uint256"
        }
      ],
      "name": "getUserAtIndex",
      "outputs": [
        {
          "name": "userAddress",
          "type": "address"
        }
      ],
      "payable": false,
      "stateMutability": "view",
      "type": "function"
    }
  ],
  "bytecode": "0x608060405234801561001057600080fd5b506148ae806100206000396000f3fe60806040526004361061011d576000357c0100000000000000000000000000000000000000000000000000000000900463ffffffff1680631509b077146101225780634209fff11461019f57806342513d571461020857806350c2a067146103125780635c60f22614610550578063605dadbe146105b55780636219bd9d1461075257806369680c481461085c5780636a036c29146109665780636f77926b14610cc857806370c6842414610f7c578063758dc246146110c0578063b066a315146111ca578063b5cb15f7146112d4578063c89ba890146112ff578063dadd9b2314611409578063e161bf3714611513578063e45af46e1461161d578063e6d50c9914611727578063e8103e15146118d7578063ffcc7bbf14611954575b600080fd5b34801561012e57600080fd5b506101856004803603606081101561014557600080fd5b81019080803573ffffffffffffffffffffffffffffffffffffffff16906020019092919080359060200190929190803590602001909291905050506119cf565b604051808215151515815260200191505060405180910390f35b3480156101ab57600080fd5b506101ee600480360360208110156101c257600080fd5b81019080803573ffffffffffffffffffffffffffffffffffffffff169060200190929190505050611a68565b604051808215151515815260200191505060405180910390f35b34801561021457600080fd5b506102f86004803603606081101561022b57600080fd5b81019080803573ffffffffffffffffffffffffffffffffffffffff1690602001909291908035906020019064010000000081111561026857600080fd5b82018360208201111561027a57600080fd5b8035906020019184600183028401116401000000008311171561029c57600080fd5b91908080601f016020809104026020016040519081016040528093929190818152602001838380828437600081840152601f19601f82011690508083019250505050505050919291929080359060200190929190505050611b31565b604051808215151515815260200191505060405180910390f35b34801561031e57600080fd5b5061053a600480360360c081101561033557600080fd5b81019080803573ffffffffffffffffffffffffffffffffffffffff1690602001909291908035906020019064010000000081111561037257600080fd5b82018360208201111561038457600080fd5b803590602001918460018302840111640100000000831117156103a657600080fd5b91908080601f016020809104026020016040519081016040528093929190818152602001838380828437600081840152601f19601f82011690508083019250505050505050919291929080359060200190929190803590602001909291908035906020019064010000000081111561041d57600080fd5b82018360208201111561042f57600080fd5b8035906020019184600183028401116401000000008311171561045157600080fd5b91908080601f016020809104026020016040519081016040528093929190818152602001838380828437600081840152601f19601f820116905080830192505050505050509192919290803590602001906401000000008111156104b457600080fd5b8201836020820111156104c657600080fd5b803590602001918460018302840111640100000000831117156104e857600080fd5b91908080601f016020809104026020016040519081016040528093929190818152602001838380828437600081840152601f19601f820116905080830192505050505050509192919290505050611bda565b6040518082815260200191505060405180910390f35b34801561055c57600080fd5b5061059f6004803603602081101561057357600080fd5b81019080803573ffffffffffffffffffffffffffffffffffffffff169060200190929190505050611f38565b6040518082815260200191505060405180910390f35b3480156105c157600080fd5b5061073c600480360360808110156105d857600080fd5b81019080803573ffffffffffffffffffffffffffffffffffffffff169060200190929190803590602001909291908035906020019064010000000081111561061f57600080fd5b82018360208201111561063157600080fd5b8035906020019184600183028401116401000000008311171561065357600080fd5b91908080601f016020809104026020016040519081016040528093929190818152602001838380828437600081840152601f19601f820116905080830192505050505050509192919290803590602001906401000000008111156106b657600080fd5b8201836020820111156106c857600080fd5b803590602001918460018302840111640100000000831117156106ea57600080fd5b91908080601f016020809104026020016040519081016040528093929190818152602001838380828437600081840152601f19601f820116905080830192505050505050509192919290505050612b25565b6040518082815260200191505060405180910390f35b34801561075e57600080fd5b506108426004803603606081101561077557600080fd5b81019080803573ffffffffffffffffffffffffffffffffffffffff169060200190929190803590602001906401000000008111156107b257600080fd5b8201836020820111156107c457600080fd5b803590602001918460018302840111640100000000831117156107e657600080fd5b91908080601f016020809104026020016040519081016040528093929190818152602001838380828437600081840152601f19601f82011690508083019250505050505050919291929080359060200190929190505050612e65565b604051808215151515815260200191505060405180910390f35b34801561086857600080fd5b5061094c6004803603606081101561087f57600080fd5b81019080803573ffffffffffffffffffffffffffffffffffffffff169060200190929190803590602001906401000000008111156108bc57600080fd5b8201836020820111156108ce57600080fd5b803590602001918460018302840111640100000000831117156108f057600080fd5b91908080601f016020809104026020016040519081016040528093929190818152602001838380828437600081840152601f19601f82011690508083019250505050505050919291929080359060200190929190505050612f0e565b604051808215151515815260200191505060405180910390f35b34801561097257600080fd5b50610cb2600480360360e081101561098957600080fd5b81019080803573ffffffffffffffffffffffffffffffffffffffff169060200190929190803590602001906401000000008111156109c657600080fd5b8201836020820111156109d857600080fd5b803590602001918460018302840111640100000000831117156109fa57600080fd5b91908080601f016020809104026020016040519081016040528093929190818152602001838380828437600081840152601f19601f82011690508083019250505050505050919291929080359060200190640100000000811115610a5d57600080fd5b820183602082011115610a6f57600080fd5b80359060200191846001830284011164010000000083111715610a9157600080fd5b91908080601f016020809104026020016040519081016040528093929190818152602001838380828437600081840152601f19601f82011690508083019250505050505050919291929080359060200190640100000000811115610af457600080fd5b820183602082011115610b0657600080fd5b80359060200191846001830284011164010000000083111715610b2857600080fd5b91908080601f016020809104026020016040519081016040528093929190818152602001838380828437600081840152601f19601f82011690508083019250505050505050919291929080359060200190640100000000811115610b8b57600080fd5b820183602082011115610b9d57600080fd5b80359060200191846001830284011164010000000083111715610bbf57600080fd5b91908080601f016020809104026020016040519081016040528093929190818152602001838380828437600081840152601f19601f82011690508083019250505050505050919291929080359060200190640100000000811115610c2257600080fd5b820183602082011115610c3457600080fd5b80359060200191846001830284011164010000000083111715610c5657600080fd5b91908080601f016020809104026020016040519081016040528093929190818152602001838380828437600081840152601f19601f82011690508083019250505050505050919291929080359060200190929190505050612fb7565b6040518082815260200191505060405180910390f35b348015610cd457600080fd5b50610d1760048036036020811015610ceb57600080fd5b81019080803573ffffffffffffffffffffffffffffffffffffffff16906020019092919050505061344e565b604051808873ffffffffffffffffffffffffffffffffffffffff1673ffffffffffffffffffffffffffffffffffffffff168152602001806020018060200180602001806020018060200187815260200186810386528c818151815260200191508051906020019080838360005b83811015610d9f578082015181840152602081019050610d84565b50505050905090810190601f168015610dcc5780820380516001836020036101000a031916815260200191505b5086810385528b818151815260200191508051906020019080838360005b83811015610e05578082015181840152602081019050610dea565b50505050905090810190601f168015610e325780820380516001836020036101000a031916815260200191505b5086810384528a818151815260200191508051906020019080838360005b83811015610e6b578082015181840152602081019050610e50565b50505050905090810190601f168015610e985780820380516001836020036101000a031916815260200191505b50868103835289818151815260200191508051906020019080838360005b83811015610ed1578082015181840152602081019050610eb6565b50505050905090810190601f168015610efe5780820380516001836020036101000a031916815260200191505b50868103825288818151815260200191508051906020019080838360005b83811015610f37578082015181840152602081019050610f1c565b50505050905090810190601f168015610f645780820380516001836020036101000a031916815260200191505b509c5050505050505050505050505060405180910390f35b348015610f8857600080fd5b50610fcb60048036036020811015610f9f57600080fd5b81019080803573ffffffffffffffffffffffffffffffffffffffff169060200190929190505050613907565b604051808581526020018060200180602001848152602001838103835286818151815260200191508051906020019080838360005b8381101561101b578082015181840152602081019050611000565b50505050905090810190601f1680156110485780820380516001836020036101000a031916815260200191505b50838103825285818151815260200191508051906020019080838360005b83811015611081578082015181840152602081019050611066565b50505050905090810190601f1680156110ae5780820380516001836020036101000a031916815260200191505b50965050505050505060405180910390f35b3480156110cc57600080fd5b506111b0600480360360608110156110e357600080fd5b81019080803573ffffffffffffffffffffffffffffffffffffffff1690602001909291908035906020019064010000000081111561112057600080fd5b82018360208201111561113257600080fd5b8035906020019184600183028401116401000000008311171561115457600080fd5b91908080601f016020809104026020016040519081016040528093929190818152602001838380828437600081840152601f19601f82011690508083019250505050505050919291929080359060200190929190505050613b5b565b604051808215151515815260200191505060405180910390f35b3480156111d657600080fd5b506112ba600480360360608110156111ed57600080fd5b81019080803573ffffffffffffffffffffffffffffffffffffffff1690602001909291908035906020019064010000000081111561122a57600080fd5b82018360208201111561123c57600080fd5b8035906020019184600183028401116401000000008311171561125e57600080fd5b91908080601f016020809104026020016040519081016040528093929190818152602001838380828437600081840152601f19601f82011690508083019250505050505050919291929080359060200190929190505050613c04565b604051808215151515815260200191505060405180910390f35b3480156112e057600080fd5b506112e9613cad565b6040518082815260200191505060405180910390f35b34801561130b57600080fd5b506113ef6004803603606081101561132257600080fd5b81019080803573ffffffffffffffffffffffffffffffffffffffff1690602001909291908035906020019064010000000081111561135f57600080fd5b82018360208201111561137157600080fd5b8035906020019184600183028401116401000000008311171561139357600080fd5b91908080601f016020809104026020016040519081016040528093929190818152602001838380828437600081840152601f19601f82011690508083019250505050505050919291929080359060200190929190505050613cba565b604051808215151515815260200191505060405180910390f35b34801561141557600080fd5b506114f96004803603606081101561142c57600080fd5b81019080803573ffffffffffffffffffffffffffffffffffffffff1690602001909291908035906020019064010000000081111561146957600080fd5b82018360208201111561147b57600080fd5b8035906020019184600183028401116401000000008311171561149d57600080fd5b91908080601f016020809104026020016040519081016040528093929190818152602001838380828437600081840152601f19601f82011690508083019250505050505050919291929080359060200190929190505050613d63565b604051808215151515815260200191505060405180910390f35b34801561151f57600080fd5b506116036004803603606081101561153657600080fd5b81019080803573ffffffffffffffffffffffffffffffffffffffff1690602001909291908035906020019064010000000081111561157357600080fd5b82018360208201111561158557600080fd5b803590602001918460018302840111640100000000831117156115a757600080fd5b91908080601f016020809104026020016040519081016040528093929190818152602001838380828437600081840152601f19601f82011690508083019250505050505050919291929080359060200190929190505050613e0c565b604051808215151515815260200191505060405180910390f35b34801561162957600080fd5b5061170d6004803603606081101561164057600080fd5b81019080803573ffffffffffffffffffffffffffffffffffffffff1690602001909291908035906020019064010000000081111561167d57600080fd5b82018360208201111561168f57600080fd5b803590602001918460018302840111640100000000831117156116b157600080fd5b91908080601f016020809104026020016040519081016040528093929190818152602001838380828437600081840152601f19601f820116905080830192505050505050509192919290803590602001909291905050506142f6565b604051808215151515815260200191505060405180910390f35b34801561173357600080fd5b506117766004803603602081101561174a57600080fd5b81019080803573ffffffffffffffffffffffffffffffffffffffff16906020019092919050505061439f565b60405180806020018681526020018581526020018060200180602001848103845289818151815260200191508051906020019080838360005b838110156117ca5780820151818401526020810190506117af565b50505050905090810190601f1680156117f75780820380516001836020036101000a031916815260200191505b50848103835286818151815260200191508051906020019080838360005b83811015611830578082015181840152602081019050611815565b50505050905090810190601f16801561185d5780820380516001836020036101000a031916815260200191505b50848103825285818151815260200191508051906020019080838360005b8381101561189657808201518184015260208101905061187b565b50505050905090810190601f1680156118c35780820380516001836020036101000a031916815260200191505b509850505050505050505060405180910390f35b3480156118e357600080fd5b5061193a600480360360608110156118fa57600080fd5b81019080803573ffffffffffffffffffffffffffffffffffffffff16906020019092919080359060200190929190803590602001909291905050506146d5565b604051808215151515815260200191505060405180910390f35b34801561196057600080fd5b5061198d6004803603602081101561197757600080fd5b810190808035906020019092919050505061476e565b604051808273ffffffffffffffffffffffffffffffffffffffff1673ffffffffffffffffffffffffffffffffffffffff16815260200191505060405180910390f35b6000826000808673ffffffffffffffffffffffffffffffffffffffff1673ffffffffffffffffffffffffffffffffffffffff16815260200190815260200160002060060181905550816000808673ffffffffffffffffffffffffffffffffffffffff1673ffffffffffffffffffffffffffffffffffffffff16815260200190815260200160002060090181905550600190509392505050565b6000806001805490501415611a805760009050611b2c565b8173ffffffffffffffffffffffffffffffffffffffff1660016000808573ffffffffffffffffffffffffffffffffffffffff1673ffffffffffffffffffffffffffffffffffffffff168152602001908152602001600020600f0154815481101515611ae757fe5b9060005260206000200160009054906101000a900473ffffffffffffffffffffffffffffffffffffffff1673ffffffffffffffffffffffffffffffffffffffff161490505b919050565b6000826000808673ffffffffffffffffffffffffffffffffffffffff1673ffffffffffffffffffffffffffffffffffffffff168152602001908152602001600020600a019080519060200190611b889291906147b1565b50816000808673ffffffffffffffffffffffffffffffffffffffff1673ffffffffffffffffffffffffffffffffffffffff16815260200190815260200160002060090181905550600190509392505050565b6000856000808973ffffffffffffffffffffffffffffffffffffffff1673ffffffffffffffffffffffffffffffffffffffff1681526020019081526020016000206007019080519060200190611c319291906147b1565b50846000808973ffffffffffffffffffffffffffffffffffffffff1673ffffffffffffffffffffffffffffffffffffffff16815260200190815260200160002060080181905550836000808973ffffffffffffffffffffffffffffffffffffffff1673ffffffffffffffffffffffffffffffffffffffff16815260200190815260200160002060090181905550826000808973ffffffffffffffffffffffffffffffffffffffff1673ffffffffffffffffffffffffffffffffffffffff168152602001908152602001600020600a019080519060200190611d139291906147b1565b50816000808973ffffffffffffffffffffffffffffffffffffffff1673ffffffffffffffffffffffffffffffffffffffff168152602001908152602001600020600b019080519060200190611d699291906147b1565b507f853479132350ce65d30939818e8113c9941b75f364dd04579ae1d5ff21de5d7a878787878787604051808773ffffffffffffffffffffffffffffffffffffffff1673ffffffffffffffffffffffffffffffffffffffff168152602001806020018681526020018581526020018060200180602001848103845289818151815260200191508051906020019080838360005b83811015611e17578082015181840152602081019050611dfc565b50505050905090810190601f168015611e445780820380516001836020036101000a031916815260200191505b50848103835286818151815260200191508051906020019080838360005b83811015611e7d578082015181840152602081019050611e62565b50505050905090810190601f168015611eaa5780820380516001836020036101000a031916815260200191505b50848103825285818151815260200191508051906020019080838360005b83811015611ee3578082015181840152602081019050611ec8565b50505050905090810190601f168015611f105780820380516001836020036101000a031916815260200191505b50995050505050505050505060405180910390a1600180805490500390509695505050505050565b6000806000808473ffffffffffffffffffffffffffffffffffffffff1673ffffffffffffffffffffffffffffffffffffffff168152602001908152602001600020600f015490506000600180808054905003815481101515611f9657fe5b9060005260206000200160009054906101000a900473ffffffffffffffffffffffffffffffffffffffff16905080600183815481101515611fd357fe5b9060005260206000200160006101000a81548173ffffffffffffffffffffffffffffffffffffffff021916908373ffffffffffffffffffffffffffffffffffffffff160217905550816000808373ffffffffffffffffffffffffffffffffffffffff1673ffffffffffffffffffffffffffffffffffffffff168152602001908152602001600020600f018190555060018054809190600190036120769190614831565b507fe4bcc6498edf10769326df819d9da6da86da61003f14f98bf82e7a872f915cba8483604051808373ffffffffffffffffffffffffffffffffffffffff1673ffffffffffffffffffffffffffffffffffffffff1681526020018281526020019250505060405180910390a17f821ec99a76e497da0346a83e2703fdf12f2bcb624dd95ff8b23cc03506c51c80816000808473ffffffffffffffffffffffffffffffffffffffff1673ffffffffffffffffffffffffffffffffffffffff1681526020019081526020016000206001016000808573ffffffffffffffffffffffffffffffffffffffff1673ffffffffffffffffffffffffffffffffffffffff1681526020019081526020016000206002016000808673ffffffffffffffffffffffffffffffffffffffff1673ffffffffffffffffffffffffffffffffffffffff1681526020019081526020016000206003016000808773ffffffffffffffffffffffffffffffffffffffff1673ffffffffffffffffffffffffffffffffffffffff1681526020019081526020016000206004016000808873ffffffffffffffffffffffffffffffffffffffff1673ffffffffffffffffffffffffffffffffffffffff1681526020019081526020016000206005016000808973ffffffffffffffffffffffffffffffffffffffff1673ffffffffffffffffffffffffffffffffffffffff16815260200190815260200160002060060154604051808873ffffffffffffffffffffffffffffffffffffffff1673ffffffffffffffffffffffffffffffffffffffff168152602001806020018060200180602001806020018060200187815260200186810386528c81815460018160011615610100020316600290048152602001915080546001816001161561010002031660029004801561235c5780601f106123315761010080835404028352916020019161235c565b820191906000526020600020905b81548152906001019060200180831161233f57829003601f168201915b505086810385528b8181546001816001161561010002031660029004815260200191508054600181600116156101000203166002900480156123df5780601f106123b4576101008083540402835291602001916123df565b820191906000526020600020905b8154815290600101906020018083116123c257829003601f168201915b505086810384528a8181546001816001161561010002031660029004815260200191508054600181600116156101000203166002900480156124625780601f1061243757610100808354040283529160200191612462565b820191906000526020600020905b81548152906001019060200180831161244557829003601f168201915b50508681038352898181546001816001161561010002031660029004815260200191508054600181600116156101000203166002900480156124e55780601f106124ba576101008083540402835291602001916124e5565b820191906000526020600020905b8154815290600101906020018083116124c857829003601f168201915b50508681038252888181546001816001161561010002031660029004815260200191508054600181600116156101000203166002900480156125685780601f1061253d57610100808354040283529160200191612568565b820191906000526020600020905b81548152906001019060200180831161254b57829003601f168201915b50509c5050505050505050505050505060405180910390a17f9a320617399909ab65e726b0053c85f7976f843324cb54053c34885154944dab816000808473ffffffffffffffffffffffffffffffffffffffff1673ffffffffffffffffffffffffffffffffffffffff1681526020019081526020016000206007016000808573ffffffffffffffffffffffffffffffffffffffff1673ffffffffffffffffffffffffffffffffffffffff168152602001908152602001600020600801546000808673ffffffffffffffffffffffffffffffffffffffff1673ffffffffffffffffffffffffffffffffffffffff168152602001908152602001600020600901546000808773ffffffffffffffffffffffffffffffffffffffff1673ffffffffffffffffffffffffffffffffffffffff168152602001908152602001600020600a016000808873ffffffffffffffffffffffffffffffffffffffff1673ffffffffffffffffffffffffffffffffffffffff168152602001908152602001600020600b01604051808773ffffffffffffffffffffffffffffffffffffffff1673ffffffffffffffffffffffffffffffffffffffff1681526020018060200186815260200185815260200180602001806020018481038452898181546001816001161561010002031660029004815260200191508054600181600116156101000203166002900480156127b85780601f1061278d576101008083540402835291602001916127b8565b820191906000526020600020905b81548152906001019060200180831161279b57829003601f168201915b505084810383528681815460018160011615610100020316600290048152602001915080546001816001161561010002031660029004801561283b5780601f106128105761010080835404028352916020019161283b565b820191906000526020600020905b81548152906001019060200180831161281e57829003601f168201915b50508481038252858181546001816001161561010002031660029004815260200191508054600181600116156101000203166002900480156128be5780601f10612893576101008083540402835291602001916128be565b820191906000526020600020905b8154815290600101906020018083116128a157829003601f168201915b5050995050505050505050505060405180910390a17fc448b9c4590823db2c91411b68f7ebe813cbc9889e72e5ec1fecc3b4ea322e0a816000808473ffffffffffffffffffffffffffffffffffffffff1673ffffffffffffffffffffffffffffffffffffffff168152602001908152602001600020600c01546000808573ffffffffffffffffffffffffffffffffffffffff1673ffffffffffffffffffffffffffffffffffffffff168152602001908152602001600020600d016000808673ffffffffffffffffffffffffffffffffffffffff1673ffffffffffffffffffffffffffffffffffffffff168152602001908152602001600020600e0186604051808673ffffffffffffffffffffffffffffffffffffffff1673ffffffffffffffffffffffffffffffffffffffff1681526020018581526020018060200180602001848152602001838103835286818154600181600116156101000203166002900481526020019150805460018160011615610100020316600290048015612a855780601f10612a5a57610100808354040283529160200191612a85565b820191906000526020600020905b815481529060010190602001808311612a6857829003601f168201915b5050838103825285818154600181600116156101000203166002900481526020019150805460018160011615610100020316600290048015612b085780601f10612add57610100808354040283529160200191612b08565b820191906000526020600020905b815481529060010190602001808311612aeb57829003601f168201915b505097505050505050505060405180910390a18192505050919050565b6000836000808773ffffffffffffffffffffffffffffffffffffffff1673ffffffffffffffffffffffffffffffffffffffff168152602001908152602001600020600c0181905550826000808773ffffffffffffffffffffffffffffffffffffffff1673ffffffffffffffffffffffffffffffffffffffff168152602001908152602001600020600d019080519060200190612bc29291906147b1565b50816000808773ffffffffffffffffffffffffffffffffffffffff1673ffffffffffffffffffffffffffffffffffffffff168152602001908152602001600020600e019080519060200190612c189291906147b1565b506001808690806001815401808255809150509060018203906000526020600020016000909192909190916101000a81548173ffffffffffffffffffffffffffffffffffffffff021916908373ffffffffffffffffffffffffffffffffffffffff160217905550036000808773ffffffffffffffffffffffffffffffffffffffff1673ffffffffffffffffffffffffffffffffffffffff168152602001908152602001600020600f01819055507f7c81ae1e404201d264d5d1fb1ae588ed672b8a07e043651d86b8bd098368b97c858585856000808b73ffffffffffffffffffffffffffffffffffffffff1673ffffffffffffffffffffffffffffffffffffffff168152602001908152602001600020600f0154604051808673ffffffffffffffffffffffffffffffffffffffff1673ffffffffffffffffffffffffffffffffffffffff1681526020018581526020018060200180602001848152602001838103835286818151815260200191508051906020019080838360005b83811015612dae578082015181840152602081019050612d93565b50505050905090810190601f168015612ddb5780820380516001836020036101000a031916815260200191505b50838103825285818151815260200191508051906020019080838360005b83811015612e14578082015181840152602081019050612df9565b50505050905090810190601f168015612e415780820380516001836020036101000a031916815260200191505b5097505050505050505060405180910390a160018080549050039050949350505050565b6000826000808673ffffffffffffffffffffffffffffffffffffffff1673ffffffffffffffffffffffffffffffffffffffff168152602001908152602001600020600b019080519060200190612ebc9291906147b1565b50816000808673ffffffffffffffffffffffffffffffffffffffff1673ffffffffffffffffffffffffffffffffffffffff16815260200190815260200160002060090181905550600190509392505050565b6000826000808673ffffffffffffffffffffffffffffffffffffffff1673ffffffffffffffffffffffffffffffffffffffff1681526020019081526020016000206003019080519060200190612f659291906147b1565b50816000808673ffffffffffffffffffffffffffffffffffffffff1673ffffffffffffffffffffffffffffffffffffffff16815260200190815260200160002060090181905550600190509392505050565b6000866000808a73ffffffffffffffffffffffffffffffffffffffff1673ffffffffffffffffffffffffffffffffffffffff168152602001908152602001600020600101908051906020019061300e9291906147b1565b50856000808a73ffffffffffffffffffffffffffffffffffffffff1673ffffffffffffffffffffffffffffffffffffffff16815260200190815260200160002060020190805190602001906130649291906147b1565b50846000808a73ffffffffffffffffffffffffffffffffffffffff1673ffffffffffffffffffffffffffffffffffffffff16815260200190815260200160002060030190805190602001906130ba9291906147b1565b50836000808a73ffffffffffffffffffffffffffffffffffffffff1673ffffffffffffffffffffffffffffffffffffffff16815260200190815260200160002060040190805190602001906131109291906147b1565b50826000808a73ffffffffffffffffffffffffffffffffffffffff1673ffffffffffffffffffffffffffffffffffffffff16815260200190815260200160002060050190805190602001906131669291906147b1565b50816000808a73ffffffffffffffffffffffffffffffffffffffff1673ffffffffffffffffffffffffffffffffffffffff168152602001908152602001600020600601819055507f79dcaaf1a6d5a30ad2c715118ef71bb5d3539dbb266e56a4c1eb70b4a9b1950c88888888888888604051808873ffffffffffffffffffffffffffffffffffffffff1673ffffffffffffffffffffffffffffffffffffffff168152602001806020018060200180602001806020018060200187815260200186810386528c818151815260200191508051906020019080838360005b8381101561325d578082015181840152602081019050613242565b50505050905090810190601f16801561328a5780820380516001836020036101000a031916815260200191505b5086810385528b818151815260200191508051906020019080838360005b838110156132c35780820151818401526020810190506132a8565b50505050905090810190601f1680156132f05780820380516001836020036101000a031916815260200191505b5086810384528a818151815260200191508051906020019080838360005b8381101561332957808201518184015260208101905061330e565b50505050905090810190601f1680156133565780820380516001836020036101000a031916815260200191505b50868103835289818151815260200191508051906020019080838360005b8381101561338f578082015181840152602081019050613374565b50505050905090810190601f1680156133bc5780820380516001836020036101000a031916815260200191505b50868103825288818151815260200191508051906020019080838360005b838110156133f55780820151818401526020810190506133da565b50505050905090810190601f1680156134225780820380516001836020036101000a031916815260200191505b509c5050505050505050505050505060405180910390a160018080549050039050979650505050505050565b600060608060608060606000876000808a73ffffffffffffffffffffffffffffffffffffffff1673ffffffffffffffffffffffffffffffffffffffff1681526020019081526020016000206001016000808b73ffffffffffffffffffffffffffffffffffffffff1673ffffffffffffffffffffffffffffffffffffffff1681526020019081526020016000206002016000808c73ffffffffffffffffffffffffffffffffffffffff1673ffffffffffffffffffffffffffffffffffffffff1681526020019081526020016000206003016000808d73ffffffffffffffffffffffffffffffffffffffff1673ffffffffffffffffffffffffffffffffffffffff1681526020019081526020016000206004016000808e73ffffffffffffffffffffffffffffffffffffffff1673ffffffffffffffffffffffffffffffffffffffff1681526020019081526020016000206005016000808f73ffffffffffffffffffffffffffffffffffffffff1673ffffffffffffffffffffffffffffffffffffffff16815260200190815260200160002060060154858054600181600116156101000203166002900480601f0160208091040260200160405190810160405280929190818152602001828054600181600116156101000203166002900480156136775780601f1061364c57610100808354040283529160200191613677565b820191906000526020600020905b81548152906001019060200180831161365a57829003601f168201915b50505050509550848054600181600116156101000203166002900480601f0160208091040260200160405190810160405280929190818152602001828054600181600116156101000203166002900480156137135780601f106136e857610100808354040283529160200191613713565b820191906000526020600020905b8154815290600101906020018083116136f657829003601f168201915b50505050509450838054600181600116156101000203166002900480601f0160208091040260200160405190810160405280929190818152602001828054600181600116156101000203166002900480156137af5780601f10613784576101008083540402835291602001916137af565b820191906000526020600020905b81548152906001019060200180831161379257829003601f168201915b50505050509350828054600181600116156101000203166002900480601f01602080910402602001604051908101604052809291908181526020018280546001816001161561010002031660029004801561384b5780601f106138205761010080835404028352916020019161384b565b820191906000526020600020905b81548152906001019060200180831161382e57829003601f168201915b50505050509250818054600181600116156101000203166002900480601f0160208091040260200160405190810160405280929190818152602001828054600181600116156101000203166002900480156138e75780601f106138bc576101008083540402835291602001916138e7565b820191906000526020600020905b8154815290600101906020018083116138ca57829003601f168201915b505050505091509650965096509650965096509650919395979092949650565b600060608060008060008673ffffffffffffffffffffffffffffffffffffffff1673ffffffffffffffffffffffffffffffffffffffff168152602001908152602001600020600c01546000808773ffffffffffffffffffffffffffffffffffffffff1673ffffffffffffffffffffffffffffffffffffffff168152602001908152602001600020600d016000808873ffffffffffffffffffffffffffffffffffffffff1673ffffffffffffffffffffffffffffffffffffffff168152602001908152602001600020600e016000808973ffffffffffffffffffffffffffffffffffffffff1673ffffffffffffffffffffffffffffffffffffffff168152602001908152602001600020600f0154828054600181600116156101000203166002900480601f016020809104026020016040519081016040528092919081815260200182805460018160011615610100020316600290048015613aa95780601f10613a7e57610100808354040283529160200191613aa9565b820191906000526020600020905b815481529060010190602001808311613a8c57829003601f168201915b50505050509250818054600181600116156101000203166002900480601f016020809104026020016040519081016040528092919081815260200182805460018160011615610100020316600290048015613b455780601f10613b1a57610100808354040283529160200191613b45565b820191906000526020600020905b815481529060010190602001808311613b2857829003601f168201915b5050505050915093509350935093509193509193565b6000826000808673ffffffffffffffffffffffffffffffffffffffff1673ffffffffffffffffffffffffffffffffffffffff1681526020019081526020016000206005019080519060200190613bb29291906147b1565b50816000808673ffffffffffffffffffffffffffffffffffffffff1673ffffffffffffffffffffffffffffffffffffffff16815260200190815260200160002060090181905550600190509392505050565b6000826000808673ffffffffffffffffffffffffffffffffffffffff1673ffffffffffffffffffffffffffffffffffffffff168152602001908152602001600020600d019080519060200190613c5b9291906147b1565b50816000808673ffffffffffffffffffffffffffffffffffffffff1673ffffffffffffffffffffffffffffffffffffffff16815260200190815260200160002060090181905550600190509392505050565b6000600180549050905090565b6000826000808673ffffffffffffffffffffffffffffffffffffffff1673ffffffffffffffffffffffffffffffffffffffff1681526020019081526020016000206004019080519060200190613d119291906147b1565b50816000808673ffffffffffffffffffffffffffffffffffffffff1673ffffffffffffffffffffffffffffffffffffffff16815260200190815260200160002060090181905550600190509392505050565b6000826000808673ffffffffffffffffffffffffffffffffffffffff1673ffffffffffffffffffffffffffffffffffffffff1681526020019081526020016000206007019080519060200190613dba9291906147b1565b50816000808673ffffffffffffffffffffffffffffffffffffffff1673ffffffffffffffffffffffffffffffffffffffff16815260200190815260200160002060090181905550600190509392505050565b6000826000808673ffffffffffffffffffffffffffffffffffffffff1673ffffffffffffffffffffffffffffffffffffffff1681526020019081526020016000206002019080519060200190613e639291906147b1565b50816000808673ffffffffffffffffffffffffffffffffffffffff1673ffffffffffffffffffffffffffffffffffffffff168152602001908152602001600020600901819055507f821ec99a76e497da0346a83e2703fdf12f2bcb624dd95ff8b23cc03506c51c80846000808773ffffffffffffffffffffffffffffffffffffffff1673ffffffffffffffffffffffffffffffffffffffff168152602001908152602001600020600101856000808973ffffffffffffffffffffffffffffffffffffffff1673ffffffffffffffffffffffffffffffffffffffff1681526020019081526020016000206003016000808a73ffffffffffffffffffffffffffffffffffffffff1673ffffffffffffffffffffffffffffffffffffffff1681526020019081526020016000206004016000808b73ffffffffffffffffffffffffffffffffffffffff1673ffffffffffffffffffffffffffffffffffffffff1681526020019081526020016000206005016000808c73ffffffffffffffffffffffffffffffffffffffff1673ffffffffffffffffffffffffffffffffffffffff16815260200190815260200160002060060154604051808873ffffffffffffffffffffffffffffffffffffffff1673ffffffffffffffffffffffffffffffffffffffff168152602001806020018060200180602001806020018060200187815260200186810386528c8181546001816001161561010002031660029004815260200191508054600181600116156101000203166002900480156140e45780601f106140b9576101008083540402835291602001916140e4565b820191906000526020600020905b8154815290600101906020018083116140c757829003601f168201915b505086810385528b818151815260200191508051906020019080838360005b8381101561411e578082015181840152602081019050614103565b50505050905090810190601f16801561414b5780820380516001836020036101000a031916815260200191505b5086810384528a8181546001816001161561010002031660029004815260200191508054600181600116156101000203166002900480156141cd5780601f106141a2576101008083540402835291602001916141cd565b820191906000526020600020905b8154815290600101906020018083116141b057829003601f168201915b50508681038352898181546001816001161561010002031660029004815260200191508054600181600116156101000203166002900480156142505780601f1061422557610100808354040283529160200191614250565b820191906000526020600020905b81548152906001019060200180831161423357829003601f168201915b50508681038252888181546001816001161561010002031660029004815260200191508054600181600116156101000203166002900480156142d35780601f106142a8576101008083540402835291602001916142d3565b820191906000526020600020905b8154815290600101906020018083116142b657829003601f168201915b50509c5050505050505050505050505060405180910390a1600190509392505050565b6000826000808673ffffffffffffffffffffffffffffffffffffffff1673ffffffffffffffffffffffffffffffffffffffff168152602001908152602001600020600e01908051906020019061434d9291906147b1565b50816000808673ffffffffffffffffffffffffffffffffffffffff1673ffffffffffffffffffffffffffffffffffffffff16815260200190815260200160002060090181905550600190509392505050565b60606000806060806000808773ffffffffffffffffffffffffffffffffffffffff1673ffffffffffffffffffffffffffffffffffffffff1681526020019081526020016000206007016000808873ffffffffffffffffffffffffffffffffffffffff1673ffffffffffffffffffffffffffffffffffffffff168152602001908152602001600020600801546000808973ffffffffffffffffffffffffffffffffffffffff1673ffffffffffffffffffffffffffffffffffffffff168152602001908152602001600020600901546000808a73ffffffffffffffffffffffffffffffffffffffff1673ffffffffffffffffffffffffffffffffffffffff168152602001908152602001600020600a016000808b73ffffffffffffffffffffffffffffffffffffffff1673ffffffffffffffffffffffffffffffffffffffff168152602001908152602001600020600b01848054600181600116156101000203166002900480601f0160208091040260200160405190810160405280929190818152602001828054600181600116156101000203166002900480156145835780601f1061455857610100808354040283529160200191614583565b820191906000526020600020905b81548152906001019060200180831161456657829003601f168201915b50505050509450818054600181600116156101000203166002900480601f01602080910402602001604051908101604052809291908181526020018280546001816001161561010002031660029004801561461f5780601f106145f45761010080835404028352916020019161461f565b820191906000526020600020905b81548152906001019060200180831161460257829003601f168201915b50505050509150808054600181600116156101000203166002900480601f0160208091040260200160405190810160405280929190818152602001828054600181600116156101000203166002900480156146bb5780601f10614690576101008083540402835291602001916146bb565b820191906000526020600020905b81548152906001019060200180831161469e57829003601f168201915b505050505090509450945094509450945091939590929450565b6000826000808673ffffffffffffffffffffffffffffffffffffffff1673ffffffffffffffffffffffffffffffffffffffff168152602001908152602001600020600c0181905550816000808673ffffffffffffffffffffffffffffffffffffffff1673ffffffffffffffffffffffffffffffffffffffff16815260200190815260200160002060090181905550600190509392505050565b600060018281548110151561477f57fe5b9060005260206000200160009054906101000a900473ffffffffffffffffffffffffffffffffffffffff169050919050565b828054600181600116156101000203166002900490600052602060002090601f016020900481019282601f106147f257805160ff1916838001178555614820565b82800160010185558215614820579182015b8281111561481f578251825591602001919060010190614804565b5b50905061482d919061485d565b5090565b81548183558181111561485857818360005260206000209182019101614857919061485d565b5b505050565b61487f91905b8082111561487b576000816000905550600101614863565b5090565b9056fea165627a7a72305820f36e611c0acf105a3210634a825bb68a8eaff75c1cff66c5002c0a4b310e207b0029",
  "source": "pragma solidity >=0.4.21 <0.6.0;\r\n\r\ncontract UserManagementStorage {\r\n   //eventInsert\r\n   event SetUserManagementEvent(\r\n      address _userAddress,\r\n      string _userId,\r\n      string _fullName,\r\n      string _email,\r\n      string _password,\r\n      string _gender,\r\n      uint256 _dateOfBirth);\r\n\r\n   event SetUserManagementAdditionEvent(\r\n      address _userAddress,\r\n      string _isLocked,\r\n      uint256 _createdTime,\r\n      uint256 _modifiedTime,\r\n      string _idCardNo,\r\n      string _idCardIssuePlace);\r\n\r\n   event SetUserManagementAdditionFlusEvent(\r\n      address _userAddress,\r\n      uint256 _phoneNumber,\r\n      string _job,\r\n      string _userAddr,\r\n      uint256 _index);\r\n\r\n   //eventUpdate\r\n   event SetLogUpdateUserManagementEven(\r\n      address _userAddress,\r\n      string _userId,\r\n      string _fullName,\r\n      string _email,\r\n      string _password,\r\n      string _gender,\r\n      uint256 _dateOfBirth);\r\n   event SetLogUpdateUserManagementAdditionEven(\r\n      address _userAddress,\r\n      string _isLocked,\r\n      uint256 _modifiedTime,\r\n      uint256 _createdTime,\r\n      string _idCardNo,\r\n      string _idCardIssuePlace);\r\n   event SetLogUpdateUserManagementAdditionFlusEven(\r\n      address _userAddress,\r\n      uint256 _phoneNumber,\r\n      string _job,\r\n      string _userAddr,\r\n      uint256 _index);\r\n\r\n   //eventDelete\r\n   event SetLogDeleteUserManagement(\r\n      address _userAddress,\r\n      uint256 index);\r\n\r\n   struct UserManagement {\r\n      address userAddress;\r\n      string userId;\r\n      string fullName;\r\n      string email;\r\n      string password;\r\n      string gender;\r\n      uint256 dateOfBirth;\r\n      string isLocked;\r\n\r\n      uint256 createdTime;\r\n      uint256 modifiedTime;\r\n      string idCardNo;\r\n      string idCardIssuePlace;\r\n\r\n      uint256 phoneNumber;\r\n      string job;\r\n      string userAddr;\r\n      uint256 index;\r\n   }\r\n\r\n   mapping(address => UserManagement) userManagementStructs;\r\n\r\n   address[] userIndex;\r\n\r\n   function isUser(address _userAddress) public view returns(bool isIndeed) {\r\n      if(userIndex.length == 0) return false;\r\n      return (userIndex[userManagementStructs[_userAddress].index] == _userAddress);\r\n   }\r\n\r\n   function insertUser(\r\n      address _userAddress,\r\n      string memory _userId,\r\n      string memory _fullName,\r\n      string memory _email,\r\n      string memory _password,\r\n      string memory _gender,\r\n      uint256 _dateOfBirth\r\n      )\r\n      public returns(uint256 index){\r\n      //if(isUser(_userAddress)) revert('throw');\r\n      userManagementStructs[_userAddress].userId = _userId;\r\n      userManagementStructs[_userAddress].fullName = _fullName;\r\n      userManagementStructs[_userAddress].email = _email;\r\n      userManagementStructs[_userAddress].password = _password;\r\n      userManagementStructs[_userAddress].gender = _gender;\r\n      userManagementStructs[_userAddress].dateOfBirth = _dateOfBirth;\r\n\r\n      emit SetUserManagementEvent(_userAddress, _userId, _fullName, _email, _password, _gender, _dateOfBirth);\r\n      // emit SetUserManagementAdditionEvent(_userAddress, _createdTime, _modifiedTime, _idCardNo, _idCardIssuePlace);\r\n      // emit SetUserManagementAdditionFlusEvent(\r\n      //    _userAddress,\r\n      //    _phoneNumber,\r\n      //    _job,\r\n      //    _userAddr,\r\n      //    userManagementAdditionFlusStructs[_userAddress].index);\r\n      return userIndex.length-1;\r\n   }\r\n\r\n   function insertUserDetail(\r\n      address _userAddress,\r\n      string memory _isLocked,\r\n      uint256 _createdTime,\r\n      uint256 _modifiedTime,\r\n      string  memory _idCardNo,\r\n      string  memory _idCardIssuePlace\r\n      )\r\n      public returns(uint256 index){\r\n      userManagementStructs[_userAddress].isLocked = _isLocked;\r\n      userManagementStructs[_userAddress].createdTime = _createdTime;\r\n      userManagementStructs[_userAddress].modifiedTime = _modifiedTime;\r\n      userManagementStructs[_userAddress].idCardNo = _idCardNo;\r\n      userManagementStructs[_userAddress].idCardIssuePlace = _idCardIssuePlace;\r\n\r\n      emit SetUserManagementAdditionEvent(_userAddress, _isLocked, _createdTime, _modifiedTime, _idCardNo, _idCardIssuePlace);\r\n      return userIndex.length-1;\r\n   }\r\n\r\n   function insertUserDetailFlus(\r\n      address _userAddress,\r\n      uint256 _phoneNumber,\r\n      string  memory _job,\r\n      string  memory _userAddr\r\n      )\r\n      public returns(uint256 index){\r\n      // if(isUser(_userAddress)) revert('throw');\r\n      userManagementStructs[_userAddress].phoneNumber = _phoneNumber;\r\n      userManagementStructs[_userAddress].job = _job;\r\n      userManagementStructs[_userAddress].userAddr = _userAddr;\r\n      userManagementStructs[_userAddress].index = userIndex.push(_userAddress)-1;\r\n      emit SetUserManagementAdditionFlusEvent(\r\n         _userAddress,\r\n         _phoneNumber,\r\n         _job,\r\n         _userAddr,\r\n         userManagementStructs[_userAddress].index);\r\n      return userIndex.length-1;\r\n   }\r\n\r\n   function deleteUser(address _userAddress) public returns(uint256 index){\r\n      // if(!isUser(_userAddress)) revert('throw');\r\n      uint256 rowToDelete = userManagementStructs[_userAddress].index;\r\n      address keyToMove = userIndex[userIndex.length-1];\r\n      userIndex[rowToDelete] = keyToMove; //vi tri can delete = vi tri cuoi ds\r\n      userManagementStructs[keyToMove].index = rowToDelete;\r\n\r\n      userIndex.length--;\r\n      emit SetLogDeleteUserManagement(\r\n         _userAddress,\r\n         rowToDelete);\r\n\r\n      emit SetLogUpdateUserManagementEven(\r\n         keyToMove,\r\n         userManagementStructs[keyToMove].userId,\r\n         userManagementStructs[keyToMove].fullName,\r\n         userManagementStructs[keyToMove].email,\r\n         userManagementStructs[keyToMove].password,\r\n         userManagementStructs[keyToMove].gender,\r\n         userManagementStructs[keyToMove].dateOfBirth\r\n         );\r\n      emit SetLogUpdateUserManagementAdditionEven(\r\n         keyToMove,\r\n         userManagementStructs[keyToMove].isLocked,\r\n         userManagementStructs[keyToMove].createdTime,\r\n         userManagementStructs[keyToMove].modifiedTime,\r\n         userManagementStructs[keyToMove].idCardNo,\r\n         userManagementStructs[keyToMove].idCardIssuePlace\r\n         );\r\n      emit SetLogUpdateUserManagementAdditionFlusEven(\r\n         keyToMove,\r\n         userManagementStructs[keyToMove].phoneNumber,\r\n         userManagementStructs[keyToMove].job,\r\n         userManagementStructs[keyToMove].userAddr,\r\n         rowToDelete);\r\n      return rowToDelete;\r\n   }\r\n\r\n   function getUser(address _userAddress) public view returns(\r\n      address userAddress,\r\n      string memory _userId,\r\n      string memory _fullName,\r\n      string memory _email,\r\n      string memory _password,\r\n      string memory _gender,\r\n      uint256 _dateOfBirth\r\n      ){\r\n      // if(!isUser(_userAddress)) revert('throw');\r\n      return(\r\n         _userAddress,\r\n         userManagementStructs[_userAddress].userId,\r\n         userManagementStructs[_userAddress].fullName,\r\n         userManagementStructs[_userAddress].email,\r\n         userManagementStructs[_userAddress].password,\r\n         userManagementStructs[_userAddress].gender,\r\n         userManagementStructs[_userAddress].dateOfBirth);\r\n   }\r\n\r\n   function getUserDetailMore(address _userAddress) public view returns(\r\n      string memory _isLocked,\r\n      uint256 _createdTime,\r\n      uint256 _modifiedTime,\r\n      string memory _idCardNo,\r\n      string memory _idCardIssuePlace\r\n      ){\r\n      // if(!isUser(_userAddress)) revert('throw');\r\n      return(\r\n         userManagementStructs[_userAddress].isLocked,\r\n         userManagementStructs[_userAddress].createdTime,\r\n         userManagementStructs[_userAddress].modifiedTime,\r\n         userManagementStructs[_userAddress].idCardNo,\r\n         userManagementStructs[_userAddress].idCardIssuePlace);\r\n   }\r\n\r\n   function getUserDetailMoreMore(address _userAddress) public view returns(\r\n      uint256 _phoneNumber,\r\n      string  memory  _job,\r\n      string  memory  _userAddr,\r\n      uint256 index\r\n      ){\r\n      // if(!isUser(_userAddress)) revert('throw');\r\n      return(\r\n         userManagementStructs[_userAddress].phoneNumber,\r\n         userManagementStructs[_userAddress].job,\r\n         userManagementStructs[_userAddress].userAddr,\r\n         userManagementStructs[_userAddress].index);\r\n   }\r\n\r\n\r\n// UPDATE\r\n\r\n\r\n   function updateFullName(address _userAddress, string  memory  _fullName, uint256 _modifiedTime)\r\n   public returns(bool success) {\r\n      // if(!isUser(_userAddress))  revert('throw');\r\n      userManagementStructs[_userAddress].fullName = _fullName;\r\n      userManagementStructs[_userAddress].modifiedTime = _modifiedTime;\r\n      emit SetLogUpdateUserManagementEven(\r\n         _userAddress,\r\n         userManagementStructs[_userAddress].userId,\r\n         _fullName,\r\n         userManagementStructs[_userAddress].email,\r\n         userManagementStructs[_userAddress].password,\r\n         userManagementStructs[_userAddress].gender,\r\n         userManagementStructs[_userAddress].dateOfBirth\r\n         );\r\n      return true;\r\n   }\r\n\r\n   function updateEmail(address _userAddress, string  memory  _email, uint256 _modifiedTime)\r\n   public returns(bool success) {\r\n      // if(!isUser(_userAddress))  revert('throw');\r\n      userManagementStructs[_userAddress].email = _email;\r\n      userManagementStructs[_userAddress].modifiedTime = _modifiedTime;\r\n      // emit SetLogUpdateUserManagementEven(\r\n      //    _userAddress,\r\n      //    userManagementStructs[_userAddress].userId,\r\n      //    userManagementStructs[_userAddress].fullName,\r\n      //    _email,\r\n      //    userManagementStructs[_userAddress].password,\r\n      //    userManagementStructs[_userAddress].gender,\r\n      //    userManagementStructs[_userAddress].dateOfBirth\r\n      //    );\r\n      return true;\r\n   }\r\n\r\n   function updatePassword(address _userAddress, string  memory  _password, uint256 _modifiedTime)\r\n      public returns(bool success) {\r\n      // if(!isUser(_userAddress))  revert('throw');\r\n      userManagementStructs[_userAddress].password = _password;\r\n      userManagementStructs[_userAddress].modifiedTime = _modifiedTime;\r\n      // emit SetLogUpdateUserManagementEven(\r\n      //    _userAddress,\r\n      //    userManagementStructs[_userAddress].userId,\r\n      //    userManagementStructs[_userAddress].fullName,\r\n      //    userManagementStructs[_userAddress].email,\r\n      //    _password,\r\n      //    userManagementStructs[_userAddress].gender,\r\n      //    userManagementStructs[_userAddress].dateOfBirth\r\n      //    );\r\n      return true;\r\n   }\r\n\r\n   function updateGender(address _userAddress, string  memory  _gender, uint256 _modifiedTime)\r\n      public returns(bool success) {\r\n      // if(!isUser(_userAddress))  revert('throw');\r\n      userManagementStructs[_userAddress].gender = _gender;\r\n      userManagementStructs[_userAddress].modifiedTime = _modifiedTime;\r\n      // emit SetLogUpdateUserManagementEven(\r\n      //    _userAddress,\r\n      //    userManagementStructs[_userAddress].userId,\r\n      //    userManagementStructs[_userAddress].fullName,\r\n      //    userManagementStructs[_userAddress].email,\r\n      //    userManagementStructs[_userAddress].password,\r\n      //    _gender,\r\n      //    userManagementStructs[_userAddress].dateOfBirth\r\n      //    );\r\n      return true;\r\n   }\r\n\r\n   function updateDateOfBirth(address _userAddress, uint256  _dateOfBirth, uint256 _modifiedTime)\r\n      public returns(bool success) {\r\n      // if(!isUser(_userAddress))  revert('throw');\r\n      userManagementStructs[_userAddress].dateOfBirth = _dateOfBirth;\r\n      userManagementStructs[_userAddress].modifiedTime = _modifiedTime;\r\n      // emit SetLogUpdateUserManagementEven(\r\n      //    _userAddress,\r\n      //    userManagementStructs[_userAddress].userId,\r\n      //    userManagementStructs[_userAddress].fullName,\r\n      //    userManagementStructs[_userAddress].email,\r\n      //    userManagementStructs[_userAddress].password,\r\n      //    userManagementStructs[_userAddress].gender,\r\n      //    _dateOfBirth\r\n      //    );\r\n      return true;\r\n   }\r\n\r\n   function updateIsLocked(address _userAddress, string  memory  _isLocked, uint256 _modifiedTime)\r\n   public returns(bool success) {\r\n      // if(!isUser(_userAddress))  revert('throw');\r\n      userManagementStructs[_userAddress].isLocked = _isLocked;\r\n      userManagementStructs[_userAddress].modifiedTime = _modifiedTime;\r\n      // emit SetLogUpdateUserManagementAdditionEven(\r\n      //    _userAddress,\r\n      //    _isLocked,\r\n      //    userManagementStructs[_userAddress].createdTime,\r\n      //    userManagementStructs[_userAddress].modifiedTime,\r\n      //    userManagementStructs[_userAddress].idCardNo,\r\n      //    userManagementStructs[_userAddress].idCardIssuePlace\r\n      //    );\r\n      return true;\r\n   }\r\n\r\n   function updateIdCardNo(address _userAddress, string memory _idCardNo, uint256 _modifiedTime)\r\n   public returns(bool success) {\r\n      // if(!isUser(_userAddress))  revert('throw');\r\n      userManagementStructs[_userAddress].idCardNo = _idCardNo;\r\n      userManagementStructs[_userAddress].modifiedTime = _modifiedTime;\r\n      // emit SetLogUpdateUserManagementAdditionEven(\r\n      //    _userAddress,\r\n      //    userManagementStructs[_userAddress].isLocked,\r\n      //    userManagementStructs[_userAddress].createdTime,\r\n      //    userManagementStructs[_userAddress].modifiedTime,\r\n      //    _idCardNo,\r\n      //    userManagementStructs[_userAddress].idCardIssuePlace\r\n      //    );\r\n      return true;\r\n   }\r\n\r\n   function updateIdCardIssuePlace(address _userAddress, string memory _idCardIssuePlace, uint256 _modifiedTime)\r\n   public returns(bool success) {\r\n      // if(!isUser(_userAddress))  revert('throw');\r\n      userManagementStructs[_userAddress].idCardIssuePlace = _idCardIssuePlace;\r\n      userManagementStructs[_userAddress].modifiedTime = _modifiedTime;\r\n      // emit SetLogUpdateUserManagementAdditionEven(\r\n      //    _userAddress,\r\n      //    userManagementStructs[_userAddress].isLocked,\r\n      //    userManagementStructs[_userAddress].createdTime,\r\n      //    userManagementStructs[_userAddress].modifiedTime,\r\n      //    userManagementStructs[_userAddress].idCardNo,\r\n      //    _idCardIssuePlace);\r\n      return true;\r\n   }\r\n\r\n   function updatePhoneNumber(address _userAddress, uint256 _phoneNumber, uint256 _modifiedTime)\r\n   public returns(bool success) {\r\n      // if(!isUser(_userAddress))  revert('throw');\r\n      userManagementStructs[_userAddress].phoneNumber = _phoneNumber;\r\n      userManagementStructs[_userAddress].modifiedTime = _modifiedTime;\r\n      // emit SetLogUpdateUserManagementAdditionFlusEven(\r\n      //    _userAddress,\r\n      //    _phoneNumber,\r\n      //    userManagementStructs[_userAddress].job,\r\n      //    userManagementStructs[_userAddress].userAddr,\r\n      //    userManagementStructs[_userAddress].index);\r\n      return true;\r\n   }\r\n\r\n   function updateJob(address _userAddress, string memory   _job, uint256 _modifiedTime)\r\n   public returns(bool success) {\r\n      // if(!isUser(_userAddress))  revert('throw');\r\n      userManagementStructs[_userAddress].job = _job;\r\n      userManagementStructs[_userAddress].modifiedTime = _modifiedTime;\r\n      // userManagementStructs[_userAddress].userAddr = _userAddr;\r\n      // emit SetLogUpdateUserManagementAdditionFlusEven(\r\n      //    _userAddress,\r\n      //    userManagementStructs[_userAddress].phoneNumber,\r\n      //    _job,\r\n      //    userManagementStructs[_userAddress].userAddr,\r\n      //    userManagementStructs[_userAddress].index);\r\n      return true;\r\n   }\r\n\r\n   function updateUserAddr(address _userAddress, string memory   _userAddr, uint256 _modifiedTime)\r\n   public returns(bool success) {\r\n      // if(!isUser(_userAddress))  revert('throw');\r\n      userManagementStructs[_userAddress].userAddr = _userAddr;\r\n      userManagementStructs[_userAddress].modifiedTime = _modifiedTime;\r\n      // emit SetLogUpdateUserManagementAdditionFlusEven(\r\n      //    _userAddress,\r\n      //    userManagementStructs[_userAddress].phoneNumber,\r\n      //    userManagementStructs[_userAddress].job,\r\n      //    _userAddr,\r\n      //    userManagementStructs[_userAddress].index);\r\n      return true;\r\n   }\r\n\r\n   function getUserCount() public view returns(uint256 count){\r\n         return userIndex.length;\r\n      }\r\n\r\n   function getUserAtIndex(uint256 _index)\r\n      public\r\n      view\r\n      returns(address userAddress)\r\n   {\r\n      return userIndex[_index];\r\n   }\r\n\r\n}",
  "sourcePath": "C:/Users/DELL/Documents/Downloads/Microsoft.SkypeApp_kzf8qxf38zg5c!App/All/TG_UNIVERSITY_CERTIFICATE_VERIFICATION_SERVER/contracts/User.sol",
  "compiler": {
    "name": "solc",
    "version": "0.5.0+commit.1d4f565a.Emscripten.clang"
  },
  "schemaVersion": "3.0.9",
  "updatedAt": "2019-06-11T07:33:32.648Z",
  "devdoc": {
    "methods": {}
  },
  "userdoc": {
    "methods": {}
  }
}