{
  "contractName": "UserManagementStorage",
  "abi": [
    {
      "anonymous": false,
      "inputs": [
        {
          "indexed": false,
          "name": "_userAddress",
          "type": "address"
        },
        {
          "indexed": false,
          "name": "_userId",
          "type": "string"
        },
        {
          "indexed": false,
          "name": "_fullName",
          "type": "string"
        },
        {
          "indexed": false,
          "name": "_email",
          "type": "string"
        },
        {
          "indexed": false,
          "name": "_password",
          "type": "string"
        },
        {
          "indexed": false,
          "name": "_gender",
          "type": "string"
        },
        {
          "indexed": false,
          "name": "_dateOfBirth",
          "type": "string"
        },
        {
          "indexed": false,
          "name": "_isLocked",
          "type": "string"
        }
      ],
      "name": "SetUserManagementEvent",
      "type": "event"
    },
    {
      "anonymous": false,
      "inputs": [
        {
          "indexed": false,
          "name": "_userAddress",
          "type": "address"
        },
        {
          "indexed": false,
          "name": "_isLocked",
          "type": "string"
        },
        {
          "indexed": false,
          "name": "_createdTime",
          "type": "string"
        },
        {
          "indexed": false,
          "name": "_modifiedTime",
          "type": "string"
        },
        {
          "indexed": false,
          "name": "_idCardNo",
          "type": "string"
        },
        {
          "indexed": false,
          "name": "_idCardIssuePlace",
          "type": "string"
        },
        {
          "indexed": false,
          "name": "_index",
          "type": "uint256"
        }
      ],
      "name": "SetUserManagementAdditionEvent",
      "type": "event"
    },
    {
      "anonymous": false,
      "inputs": [
        {
          "indexed": false,
          "name": "_userAddress",
          "type": "address"
        },
        {
          "indexed": false,
          "name": "_phoneNumber",
          "type": "string"
        },
        {
          "indexed": false,
          "name": "_job",
          "type": "string"
        },
        {
          "indexed": false,
          "name": "_userAddr",
          "type": "string"
        },
        {
          "indexed": false,
          "name": "_index",
          "type": "uint256"
        },
        {
          "indexed": false,
          "name": "_index",
          "type": "uint256"
        }
      ],
      "name": "SetUserManagementAdditionFlusEvent",
      "type": "event"
    },
    {
      "anonymous": false,
      "inputs": [
        {
          "indexed": false,
          "name": "_userAddress",
          "type": "address"
        },
        {
          "indexed": false,
          "name": "_userId",
          "type": "string"
        },
        {
          "indexed": false,
          "name": "_fullName",
          "type": "string"
        },
        {
          "indexed": false,
          "name": "_email",
          "type": "string"
        },
        {
          "indexed": false,
          "name": "_password",
          "type": "string"
        },
        {
          "indexed": false,
          "name": "_gender",
          "type": "string"
        },
        {
          "indexed": false,
          "name": "_dateOfBirth",
          "type": "string"
        },
        {
          "indexed": false,
          "name": "_isLocked",
          "type": "string"
        }
      ],
      "name": "SetLogUpdateUserManagementEven",
      "type": "event"
    },
    {
      "anonymous": false,
      "inputs": [
        {
          "indexed": false,
          "name": "_userAddress",
          "type": "address"
        },
        {
          "indexed": false,
          "name": "_isLocked",
          "type": "string"
        },
        {
          "indexed": false,
          "name": "_modifiedTime",
          "type": "string"
        },
        {
          "indexed": false,
          "name": "_createdTime",
          "type": "string"
        },
        {
          "indexed": false,
          "name": "_idCardNo",
          "type": "string"
        },
        {
          "indexed": false,
          "name": "_idCardIssuePlace",
          "type": "string"
        },
        {
          "indexed": false,
          "name": "_index",
          "type": "uint256"
        }
      ],
      "name": "SetLogUpdateUserManagementAdditionEven",
      "type": "event"
    },
    {
      "anonymous": false,
      "inputs": [
        {
          "indexed": false,
          "name": "_userAddress",
          "type": "address"
        },
        {
          "indexed": false,
          "name": "_phoneNumber",
          "type": "string"
        },
        {
          "indexed": false,
          "name": "_job",
          "type": "string"
        },
        {
          "indexed": false,
          "name": "_userAddr",
          "type": "string"
        },
        {
          "indexed": false,
          "name": "_index",
          "type": "uint256"
        },
        {
          "indexed": false,
          "name": "_index",
          "type": "uint256"
        }
      ],
      "name": "SetLogUpdateUserManagementAdditionFlusEven",
      "type": "event"
    },
    {
      "anonymous": false,
      "inputs": [
        {
          "indexed": false,
          "name": "_userAddress",
          "type": "address"
        },
        {
          "indexed": false,
          "name": "index",
          "type": "uint256"
        }
      ],
      "name": "SetLogDeleteUserManagement",
      "type": "event"
    },
    {
      "constant": true,
      "inputs": [
        {
          "name": "_userAddress",
          "type": "address"
        }
      ],
      "name": "isUser",
      "outputs": [
        {
          "name": "isIndeed",
          "type": "bool"
        }
      ],
      "payable": false,
      "stateMutability": "view",
      "type": "function"
    },
    {
      "constant": false,
      "inputs": [
        {
          "name": "_userAddress",
          "type": "address"
        },
        {
          "name": "_userId",
          "type": "string"
        },
        {
          "name": "_fullName",
          "type": "string"
        },
        {
          "name": "_email",
          "type": "string"
        },
        {
          "name": "_password",
          "type": "string"
        },
        {
          "name": "_gender",
          "type": "string"
        },
        {
          "name": "_dateOfBirth",
          "type": "string"
        },
        {
          "name": "_isLocked",
          "type": "string"
        }
      ],
      "name": "insertUser",
      "outputs": [
        {
          "name": "index",
          "type": "uint256"
        }
      ],
      "payable": false,
      "stateMutability": "nonpayable",
      "type": "function"
    },
    {
      "constant": false,
      "inputs": [
        {
          "name": "_userAddress",
          "type": "address"
        },
        {
          "name": "_isLocked",
          "type": "string"
        },
        {
          "name": "_createdTime",
          "type": "string"
        },
        {
          "name": "_modifiedTime",
          "type": "string"
        },
        {
          "name": "_idCardNo",
          "type": "string"
        },
        {
          "name": "_idCardIssuePlace",
          "type": "string"
        }
      ],
      "name": "insertUserDetail",
      "outputs": [
        {
          "name": "index",
          "type": "uint256"
        }
      ],
      "payable": false,
      "stateMutability": "nonpayable",
      "type": "function"
    },
    {
      "constant": false,
      "inputs": [
        {
          "name": "_userAddress",
          "type": "address"
        },
        {
          "name": "_phoneNumber",
          "type": "string"
        },
        {
          "name": "_job",
          "type": "string"
        },
        {
          "name": "_userAddr",
          "type": "string"
        },
        {
          "name": "_password",
          "type": "string"
        }
      ],
      "name": "insertUserDetailFlus",
      "outputs": [
        {
          "name": "index",
          "type": "uint256"
        }
      ],
      "payable": false,
      "stateMutability": "nonpayable",
      "type": "function"
    },
    {
      "constant": false,
      "inputs": [
        {
          "name": "_userAddress",
          "type": "address"
        }
      ],
      "name": "deleteUser",
      "outputs": [
        {
          "name": "index",
          "type": "uint256"
        }
      ],
      "payable": false,
      "stateMutability": "nonpayable",
      "type": "function"
    },
    {
      "constant": true,
      "inputs": [
        {
          "name": "_userAddress",
          "type": "address"
        }
      ],
      "name": "getUser",
      "outputs": [
        {
          "name": "userAddress",
          "type": "address"
        },
        {
          "name": "_userId",
          "type": "string"
        },
        {
          "name": "_fullName",
          "type": "string"
        },
        {
          "name": "_email",
          "type": "string"
        },
        {
          "name": "_password",
          "type": "string"
        },
        {
          "name": "_gender",
          "type": "string"
        },
        {
          "name": "_dateOfBirth",
          "type": "string"
        }
      ],
      "payable": false,
      "stateMutability": "view",
      "type": "function"
    },
    {
      "constant": true,
      "inputs": [
        {
          "name": "_userAddress",
          "type": "address"
        }
      ],
      "name": "getUserDetailMore",
      "outputs": [
        {
          "name": "_isLocked",
          "type": "string"
        },
        {
          "name": "_createdTime",
          "type": "string"
        },
        {
          "name": "_modifiedTime",
          "type": "string"
        },
        {
          "name": "_idCardNo",
          "type": "string"
        },
        {
          "name": "_idCardIssuePlace",
          "type": "string"
        }
      ],
      "payable": false,
      "stateMutability": "view",
      "type": "function"
    },
    {
      "constant": true,
      "inputs": [
        {
          "name": "_userAddress",
          "type": "address"
        }
      ],
      "name": "getUserDetailMoreMore",
      "outputs": [
        {
          "name": "_phoneNumber",
          "type": "string"
        },
        {
          "name": "_job",
          "type": "string"
        },
        {
          "name": "_userAddr",
          "type": "string"
        },
        {
          "name": "index",
          "type": "uint256"
        },
        {
          "name": "_dateOfBirth",
          "type": "uint256"
        },
        {
          "name": "_index",
          "type": "uint256"
        }
      ],
      "payable": false,
      "stateMutability": "view",
      "type": "function"
    },
    {
      "constant": false,
      "inputs": [
        {
          "name": "_userAddress",
          "type": "address"
        },
        {
          "name": "_fullName",
          "type": "string"
        },
        {
          "name": "_modifiedTime",
          "type": "string"
        },
        {
          "name": "_idCardNo",
          "type": "string"
        },
        {
          "name": "_idCardIssuePlace",
          "type": "string"
        },
        {
          "name": "_idCardIssuePlace",
          "type": "string"
        }
      ],
      "name": "updateFullName",
      "outputs": [
        {
          "name": "success",
          "type": "bool"
        },
        {
          "name": "_createdTime",
          "type": "uint256"
        },
        {
          "name": "_modifiedTime",
          "type": "uint256"
        },
        {
          "name": "_idCardNo",
          "type": "string"
        },
        {
          "name": "_idCardIssuePlace",
          "type": "string"
        },
        {
          "name": "_index",
          "type": "uint256"
        }
      ],
      "payable": false,
      "stateMutability": "nonpayable",
      "type": "function"
    },
    {
      "constant": false,
      "inputs": [
        {
          "name": "_userAddress",
          "type": "address"
        },
        {
          "name": "_email",
          "type": "string"
        },
        {
          "name": "_modifiedTime",
          "type": "string"
        },
        {
          "name": "_userAddr",
          "type": "string"
        },
        {
          "name": "_password",
          "type": "string"
        },
        {
          "name": "_gender",
          "type": "string"
        },
        {
          "name": "_dateOfBirth",
          "type": "uint256"
        }
      ],
      "name": "updateEmail",
      "outputs": [
        {
          "name": "success",
          "type": "bool"
        },
        {
          "name": "_job",
          "type": "string"
        },
        {
          "name": "_userAddr",
          "type": "string"
        },
        {
          "name": "_password",
          "type": "string"
        },
        {
          "name": "_index",
          "type": "uint256"
        }
      ],
      "payable": false,
      "stateMutability": "nonpayable",
      "type": "function"
    },
    {
      "constant": false,
      "inputs": [
        {
          "name": "_userAddress",
          "type": "address"
        },
        {
          "name": "_password",
          "type": "string"
        },
        {
          "name": "_modifiedTime",
          "type": "string"
        },
        {
          "name": "_email",
          "type": "string"
        },
        {
          "name": "_password",
          "type": "string"
        },
        {
          "name": "_gender",
          "type": "string"
        },
        {
          "name": "_dateOfBirth",
          "type": "uint256"
        },
        {
          "name": "_isLocked",
          "type": "string"
        }
      ],
      "name": "updatePassword",
      "outputs": [
        {
          "name": "success",
          "type": "bool"
        }
      ],
      "payable": false,
      "stateMutability": "nonpayable",
      "type": "function"
    },
    {
      "constant": false,
      "inputs": [
        {
          "name": "_userAddress",
          "type": "address"
        },
        {
          "name": "_gender",
          "type": "string"
        },
        {
          "name": "_modifiedTime",
          "type": "string"
        },
        {
          "name": "_userAddr",
          "type": "string"
        },
        {
          "name": "_idCardNo",
          "type": "string"
        },
        {
          "name": "_idCardIssuePlace",
          "type": "string"
        },
        {
          "name": "_index",
          "type": "uint256"
        }
      ],
      "name": "updateGender",
      "outputs": [
        {
          "name": "success",
          "type": "bool"
        }
      ],
      "payable": false,
      "stateMutability": "nonpayable",
      "type": "function"
    },
    {
      "constant": false,
      "inputs": [
        {
          "name": "_userAddress",
          "type": "address"
        },
        {
          "name": "_dateOfBirth",
          "type": "string"
        },
        {
          "name": "_modifiedTime",
          "type": "string"
        },
        {
          "name": "_userAddr",
          "type": "string"
        },
        {
          "name": "_password",
          "type": "string"
        },
        {
          "name": "_index",
          "type": "uint256"
        }
      ],
      "name": "updateDateOfBirth",
      "outputs": [
        {
          "name": "success",
          "type": "bool"
        }
      ],
      "payable": false,
      "stateMutability": "nonpayable",
      "type": "function"
    },
    {
      "constant": false,
      "inputs": [
        {
          "name": "_userAddress",
          "type": "address"
        },
        {
          "name": "_isLocked",
          "type": "string"
        },
        {
          "name": "_modifiedTime",
          "type": "string"
        }
      ],
      "name": "updateIsLocked",
      "outputs": [
        {
          "name": "success",
          "type": "bool"
        }
      ],
      "payable": false,
      "stateMutability": "nonpayable",
      "type": "function"
    },
    {
      "constant": false,
      "inputs": [
        {
          "name": "_userAddress",
          "type": "address"
        },
        {
          "name": "_idCardNo",
          "type": "string"
        },
        {
          "name": "_modifiedTime",
          "type": "string"
        }
      ],
      "name": "updateIdCardNo",
      "outputs": [
        {
          "name": "success",
          "type": "bool"
        }
      ],
      "payable": false,
      "stateMutability": "nonpayable",
      "type": "function"
    },
    {
      "constant": false,
      "inputs": [
        {
          "name": "_userAddress",
          "type": "address"
        },
        {
          "name": "_idCardIssuePlace",
          "type": "string"
        },
        {
          "name": "_modifiedTime",
          "type": "string"
        }
      ],
      "name": "updateIdCardIssuePlace",
      "outputs": [
        {
          "name": "success",
          "type": "bool"
        }
      ],
      "payable": false,
      "stateMutability": "nonpayable",
      "type": "function"
    },
    {
      "constant": false,
      "inputs": [
        {
          "name": "_userAddress",
          "type": "address"
        },
        {
          "name": "_phoneNumber",
          "type": "string"
        },
        {
          "name": "_modifiedTime",
          "type": "string"
        }
      ],
      "name": "updatePhoneNumber",
      "outputs": [
        {
          "name": "success",
          "type": "bool"
        }
      ],
      "payable": false,
      "stateMutability": "nonpayable",
      "type": "function"
    },
    {
      "constant": false,
      "inputs": [
        {
          "name": "_userAddress",
          "type": "address"
        },
        {
          "name": "_job",
          "type": "string"
        },
        {
          "name": "_modifiedTime",
          "type": "string"
        }
      ],
      "name": "updateJob",
      "outputs": [
        {
          "name": "success",
          "type": "bool"
        }
      ],
      "payable": false,
      "stateMutability": "nonpayable",
      "type": "function"
    },
    {
      "constant": false,
      "inputs": [
        {
          "name": "_userAddress",
          "type": "address"
        },
        {
          "name": "_userAddr",
          "type": "string"
        },
        {
          "name": "_modifiedTime",
          "type": "string"
        }
      ],
      "name": "updateUserAddr",
      "outputs": [
        {
          "name": "success",
          "type": "bool"
        }
      ],
      "payable": false,
      "stateMutability": "nonpayable",
      "type": "function"
    },
    {
      "constant": true,
      "inputs": [],
      "name": "getUserCount",
      "outputs": [
        {
          "name": "count",
          "type": "uint256"
        }
      ],
      "payable": false,
      "stateMutability": "view",
      "type": "function"
    },
    {
      "constant": true,
      "inputs": [
        {
          "name": "_index",
          "type": "uint256"
        }
      ],
      "name": "getUserAtIndex",
      "outputs": [
        {
          "name": "userAddress",
          "type": "address"
        }
      ],
      "payable": false,
      "stateMutability": "view",
      "type": "function"
    }
  ],
  "bytecode": "0x608060405234801561001057600080fd5b50615b3380620000216000396000f3fe60806040526004361061011d576000357c0100000000000000000000000000000000000000000000000000000000900463ffffffff168063143edcbd146101225780634209fff1146102b95780634969e1c9146103225780634f035c8b146104b95780635c60f2261461065057806367d37122146106b55780636f77926b1461084c57806370c6842414610b655780637ca5d08f14610d0e5780638072bf4614610ea55780638cecb2f21461103c57806391912894146111d3578063922d3da51461136a578063b4ec678914611759578063b5cb15f7146118f0578063cac7484d1461191b578063cc9519a214611ab2578063cd2ea00414611e0a578063e6d50c9914611fa1578063ff7b376c1461221b578063ffcc7bbf14612445575b600080fd5b34801561012e57600080fd5b5061029f6004803603606081101561014557600080fd5b81019080803573ffffffffffffffffffffffffffffffffffffffff1690602001909291908035906020019064010000000081111561018257600080fd5b82018360208201111561019457600080fd5b803590602001918460018302840111640100000000831117156101b657600080fd5b91908080601f016020809104026020016040519081016040528093929190818152602001838380828437600081840152601f19601f8201169050808301925050505050505091929192908035906020019064010000000081111561021957600080fd5b82018360208201111561022b57600080fd5b8035906020019184600183028401116401000000008311171561024d57600080fd5b91908080601f016020809104026020016040519081016040528093929190818152602001838380828437600081840152601f19601f8201169050808301925050505050505091929192905050506124c0565b604051808215151515815260200191505060405180910390f35b3480156102c557600080fd5b50610308600480360360208110156102dc57600080fd5b81019080803573ffffffffffffffffffffffffffffffffffffffff169060200190929190505050612579565b604051808215151515815260200191505060405180910390f35b34801561032e57600080fd5b5061049f6004803603606081101561034557600080fd5b81019080803573ffffffffffffffffffffffffffffffffffffffff1690602001909291908035906020019064010000000081111561038257600080fd5b82018360208201111561039457600080fd5b803590602001918460018302840111640100000000831117156103b657600080fd5b91908080601f016020809104026020016040519081016040528093929190818152602001838380828437600081840152601f19601f8201169050808301925050505050505091929192908035906020019064010000000081111561041957600080fd5b82018360208201111561042b57600080fd5b8035906020019184600183028401116401000000008311171561044d57600080fd5b91908080601f016020809104026020016040519081016040528093929190818152602001838380828437600081840152601f19601f820116905080830192505050505050509192919290505050612642565b604051808215151515815260200191505060405180910390f35b3480156104c557600080fd5b50610636600480360360608110156104dc57600080fd5b81019080803573ffffffffffffffffffffffffffffffffffffffff1690602001909291908035906020019064010000000081111561051957600080fd5b82018360208201111561052b57600080fd5b8035906020019184600183028401116401000000008311171561054d57600080fd5b91908080601f016020809104026020016040519081016040528093929190818152602001838380828437600081840152601f19601f820116905080830192505050505050509192919290803590602001906401000000008111156105b057600080fd5b8201836020820111156105c257600080fd5b803590602001918460018302840111640100000000831117156105e457600080fd5b91908080601f016020809104026020016040519081016040528093929190818152602001838380828437600081840152601f19601f8201169050808301925050505050505091929192905050506126fb565b604051808215151515815260200191505060405180910390f35b34801561065c57600080fd5b5061069f6004803603602081101561067357600080fd5b81019080803573ffffffffffffffffffffffffffffffffffffffff1690602001909291905050506127b4565b6040518082815260200191505060405180910390f35b3480156106c157600080fd5b50610832600480360360608110156106d857600080fd5b81019080803573ffffffffffffffffffffffffffffffffffffffff1690602001909291908035906020019064010000000081111561071557600080fd5b82018360208201111561072757600080fd5b8035906020019184600183028401116401000000008311171561074957600080fd5b91908080601f016020809104026020016040519081016040528093929190818152602001838380828437600081840152601f19601f820116905080830192505050505050509192919290803590602001906401000000008111156107ac57600080fd5b8201836020820111156107be57600080fd5b803590602001918460018302840111640100000000831117156107e057600080fd5b91908080601f016020809104026020016040519081016040528093929190818152602001838380828437600081840152601f19601f8201169050808301925050505050505091929192905050506135a5565b604051808215151515815260200191505060405180910390f35b34801561085857600080fd5b5061089b6004803603602081101561086f57600080fd5b81019080803573ffffffffffffffffffffffffffffffffffffffff16906020019092919050505061365e565b604051808873ffffffffffffffffffffffffffffffffffffffff1673ffffffffffffffffffffffffffffffffffffffff16815260200180602001806020018060200180602001806020018060200187810387528d818151815260200191508051906020019080838360005b83811015610921578082015181840152602081019050610906565b50505050905090810190601f16801561094e5780820380516001836020036101000a031916815260200191505b5087810386528c818151815260200191508051906020019080838360005b8381101561098757808201518184015260208101905061096c565b50505050905090810190601f1680156109b45780820380516001836020036101000a031916815260200191505b5087810385528b818151815260200191508051906020019080838360005b838110156109ed5780820151818401526020810190506109d2565b50505050905090810190601f168015610a1a5780820380516001836020036101000a031916815260200191505b5087810384528a818151815260200191508051906020019080838360005b83811015610a53578082015181840152602081019050610a38565b50505050905090810190601f168015610a805780820380516001836020036101000a031916815260200191505b50878103835289818151815260200191508051906020019080838360005b83811015610ab9578082015181840152602081019050610a9e565b50505050905090810190601f168015610ae65780820380516001836020036101000a031916815260200191505b50878103825288818151815260200191508051906020019080838360005b83811015610b1f578082015181840152602081019050610b04565b50505050905090810190601f168015610b4c5780820380516001836020036101000a031916815260200191505b509d505050505050505050505050505060405180910390f35b348015610b7157600080fd5b50610bb460048036036020811015610b8857600080fd5b81019080803573ffffffffffffffffffffffffffffffffffffffff169060200190929190505050613bb1565b60405180806020018060200180602001858152602001848103845288818151815260200191508051906020019080838360005b83811015610c02578082015181840152602081019050610be7565b50505050905090810190601f168015610c2f5780820380516001836020036101000a031916815260200191505b50848103835287818151815260200191508051906020019080838360005b83811015610c68578082015181840152602081019050610c4d565b50505050905090810190601f168015610c955780820380516001836020036101000a031916815260200191505b50848103825286818151815260200191508051906020019080838360005b83811015610cce578082015181840152602081019050610cb3565b50505050905090810190601f168015610cfb5780820380516001836020036101000a031916815260200191505b5097505050505050505060405180910390f35b348015610d1a57600080fd5b50610e8b60048036036060811015610d3157600080fd5b81019080803573ffffffffffffffffffffffffffffffffffffffff16906020019092919080359060200190640100000000811115610d6e57600080fd5b820183602082011115610d8057600080fd5b80359060200191846001830284011164010000000083111715610da257600080fd5b91908080601f016020809104026020016040519081016040528093929190818152602001838380828437600081840152601f19601f82011690508083019250505050505050919291929080359060200190640100000000811115610e0557600080fd5b820183602082011115610e1757600080fd5b80359060200191846001830284011164010000000083111715610e3957600080fd5b91908080601f016020809104026020016040519081016040528093929190818152602001838380828437600081840152601f19601f820116905080830192505050505050509192919290505050613ea0565b604051808215151515815260200191505060405180910390f35b348015610eb157600080fd5b5061102260048036036060811015610ec857600080fd5b81019080803573ffffffffffffffffffffffffffffffffffffffff16906020019092919080359060200190640100000000811115610f0557600080fd5b820183602082011115610f1757600080fd5b80359060200191846001830284011164010000000083111715610f3957600080fd5b91908080601f016020809104026020016040519081016040528093929190818152602001838380828437600081840152601f19601f82011690508083019250505050505050919291929080359060200190640100000000811115610f9c57600080fd5b820183602082011115610fae57600080fd5b80359060200191846001830284011164010000000083111715610fd057600080fd5b91908080601f016020809104026020016040519081016040528093929190818152602001838380828437600081840152601f19601f820116905080830192505050505050509192919290505050613f59565b604051808215151515815260200191505060405180910390f35b34801561104857600080fd5b506111b96004803603606081101561105f57600080fd5b81019080803573ffffffffffffffffffffffffffffffffffffffff1690602001909291908035906020019064010000000081111561109c57600080fd5b8201836020820111156110ae57600080fd5b803590602001918460018302840111640100000000831117156110d057600080fd5b91908080601f016020809104026020016040519081016040528093929190818152602001838380828437600081840152601f19601f8201169050808301925050505050505091929192908035906020019064010000000081111561113357600080fd5b82018360208201111561114557600080fd5b8035906020019184600183028401116401000000008311171561116757600080fd5b91908080601f016020809104026020016040519081016040528093929190818152602001838380828437600081840152601f19601f820116905080830192505050505050509192919290505050614012565b604051808215151515815260200191505060405180910390f35b3480156111df57600080fd5b50611350600480360360608110156111f657600080fd5b81019080803573ffffffffffffffffffffffffffffffffffffffff1690602001909291908035906020019064010000000081111561123357600080fd5b82018360208201111561124557600080fd5b8035906020019184600183028401116401000000008311171561126757600080fd5b91908080601f016020809104026020016040519081016040528093929190818152602001838380828437600081840152601f19601f820116905080830192505050505050509192919290803590602001906401000000008111156112ca57600080fd5b8201836020820111156112dc57600080fd5b803590602001918460018302840111640100000000831117156112fe57600080fd5b91908080601f016020809104026020016040519081016040528093929190818152602001838380828437600081840152601f19601f82011690508083019250505050505050919291929050505061458d565b604051808215151515815260200191505060405180910390f35b34801561137657600080fd5b50611743600480360360e081101561138d57600080fd5b81019080803573ffffffffffffffffffffffffffffffffffffffff169060200190929190803590602001906401000000008111156113ca57600080fd5b8201836020820111156113dc57600080fd5b803590602001918460018302840111640100000000831117156113fe57600080fd5b91908080601f016020809104026020016040519081016040528093929190818152602001838380828437600081840152601f19601f8201169050808301925050505050505091929192908035906020019064010000000081111561146157600080fd5b82018360208201111561147357600080fd5b8035906020019184600183028401116401000000008311171561149557600080fd5b91908080601f016020809104026020016040519081016040528093929190818152602001838380828437600081840152601f19601f820116905080830192505050505050509192919290803590602001906401000000008111156114f857600080fd5b82018360208201111561150a57600080fd5b8035906020019184600183028401116401000000008311171561152c57600080fd5b91908080601f016020809104026020016040519081016040528093929190818152602001838380828437600081840152601f19601f8201169050808301925050505050505091929192908035906020019064010000000081111561158f57600080fd5b8201836020820111156115a157600080fd5b803590602001918460018302840111640100000000831117156115c357600080fd5b91908080601f016020809104026020016040519081016040528093929190818152602001838380828437600081840152601f19601f8201169050808301925050505050505091929192908035906020019064010000000081111561162657600080fd5b82018360208201111561163857600080fd5b8035906020019184600183028401116401000000008311171561165a57600080fd5b91908080601f016020809104026020016040519081016040528093929190818152602001838380828437600081840152601f19601f820116905080830192505050505050509192919290803590602001906401000000008111156116bd57600080fd5b8201836020820111156116cf57600080fd5b803590602001918460018302840111640100000000831117156116f157600080fd5b91908080601f016020809104026020016040519081016040528093929190818152602001838380828437600081840152601f19601f820116905080830192505050505050509192919290505050614646565b6040518082815260200191505060405180910390f35b34801561176557600080fd5b506118d66004803603606081101561177c57600080fd5b81019080803573ffffffffffffffffffffffffffffffffffffffff169060200190929190803590602001906401000000008111156117b957600080fd5b8201836020820111156117cb57600080fd5b803590602001918460018302840111640100000000831117156117ed57600080fd5b91908080601f016020809104026020016040519081016040528093929190818152602001838380828437600081840152601f19601f8201169050808301925050505050505091929192908035906020019064010000000081111561185057600080fd5b82018360208201111561186257600080fd5b8035906020019184600183028401116401000000008311171561188457600080fd5b91908080601f016020809104026020016040519081016040528093929190818152602001838380828437600081840152601f19601f820116905080830192505050505050509192919290505050614b52565b604051808215151515815260200191505060405180910390f35b3480156118fc57600080fd5b50611905614c0b565b6040518082815260200191505060405180910390f35b34801561192757600080fd5b50611a986004803603606081101561193e57600080fd5b81019080803573ffffffffffffffffffffffffffffffffffffffff1690602001909291908035906020019064010000000081111561197b57600080fd5b82018360208201111561198d57600080fd5b803590602001918460018302840111640100000000831117156119af57600080fd5b91908080601f016020809104026020016040519081016040528093929190818152602001838380828437600081840152601f19601f82011690508083019250505050505050919291929080359060200190640100000000811115611a1257600080fd5b820183602082011115611a2457600080fd5b80359060200191846001830284011164010000000083111715611a4657600080fd5b91908080601f016020809104026020016040519081016040528093929190818152602001838380828437600081840152601f19601f820116905080830192505050505050509192919290505050614c18565b604051808215151515815260200191505060405180910390f35b348015611abe57600080fd5b50611df4600480360360c0811015611ad557600080fd5b81019080803573ffffffffffffffffffffffffffffffffffffffff16906020019092919080359060200190640100000000811115611b1257600080fd5b820183602082011115611b2457600080fd5b80359060200191846001830284011164010000000083111715611b4657600080fd5b91908080601f016020809104026020016040519081016040528093929190818152602001838380828437600081840152601f19601f82011690508083019250505050505050919291929080359060200190640100000000811115611ba957600080fd5b820183602082011115611bbb57600080fd5b80359060200191846001830284011164010000000083111715611bdd57600080fd5b91908080601f016020809104026020016040519081016040528093929190818152602001838380828437600081840152601f19601f82011690508083019250505050505050919291929080359060200190640100000000811115611c4057600080fd5b820183602082011115611c5257600080fd5b80359060200191846001830284011164010000000083111715611c7457600080fd5b91908080601f016020809104026020016040519081016040528093929190818152602001838380828437600081840152601f19601f82011690508083019250505050505050919291929080359060200190640100000000811115611cd757600080fd5b820183602082011115611ce957600080fd5b80359060200191846001830284011164010000000083111715611d0b57600080fd5b91908080601f016020809104026020016040519081016040528093929190818152602001838380828437600081840152601f19601f82011690508083019250505050505050919291929080359060200190640100000000811115611d6e57600080fd5b820183602082011115611d8057600080fd5b80359060200191846001830284011164010000000083111715611da257600080fd5b91908080601f016020809104026020016040519081016040528093929190818152602001838380828437600081840152601f19601f820116905080830192505050505050509192919290505050614cd1565b6040518082815260200191505060405180910390f35b348015611e1657600080fd5b50611f8760048036036060811015611e2d57600080fd5b81019080803573ffffffffffffffffffffffffffffffffffffffff16906020019092919080359060200190640100000000811115611e6a57600080fd5b820183602082011115611e7c57600080fd5b80359060200191846001830284011164010000000083111715611e9e57600080fd5b91908080601f016020809104026020016040519081016040528093929190818152602001838380828437600081840152601f19601f82011690508083019250505050505050919291929080359060200190640100000000811115611f0157600080fd5b820183602082011115611f1357600080fd5b80359060200191846001830284011164010000000083111715611f3557600080fd5b91908080601f016020809104026020016040519081016040528093929190818152602001838380828437600081840152601f19601f820116905080830192505050505050509192919290505050615119565b604051808215151515815260200191505060405180910390f35b348015611fad57600080fd5b50611ff060048036036020811015611fc457600080fd5b81019080803573ffffffffffffffffffffffffffffffffffffffff1690602001909291905050506151d2565b60405180806020018060200180602001806020018060200186810386528b818151815260200191508051906020019080838360005b83811015612040578082015181840152602081019050612025565b50505050905090810190601f16801561206d5780820380516001836020036101000a031916815260200191505b5086810385528a818151815260200191508051906020019080838360005b838110156120a657808201518184015260208101905061208b565b50505050905090810190601f1680156120d35780820380516001836020036101000a031916815260200191505b50868103845289818151815260200191508051906020019080838360005b8381101561210c5780820151818401526020810190506120f1565b50505050905090810190601f1680156121395780820380516001836020036101000a031916815260200191505b50868103835288818151815260200191508051906020019080838360005b83811015612172578082015181840152602081019050612157565b50505050905090810190601f16801561219f5780820380516001836020036101000a031916815260200191505b50868103825287818151815260200191508051906020019080838360005b838110156121d85780820151818401526020810190506121bd565b50505050905090810190601f1680156122055780820380516001836020036101000a031916815260200191505b509a505050505050505050505060405180910390f35b34801561222757600080fd5b5061242f6004803603608081101561223e57600080fd5b81019080803573ffffffffffffffffffffffffffffffffffffffff1690602001909291908035906020019064010000000081111561227b57600080fd5b82018360208201111561228d57600080fd5b803590602001918460018302840111640100000000831117156122af57600080fd5b91908080601f016020809104026020016040519081016040528093929190818152602001838380828437600081840152601f19601f8201169050808301925050505050505091929192908035906020019064010000000081111561231257600080fd5b82018360208201111561232457600080fd5b8035906020019184600183028401116401000000008311171561234657600080fd5b91908080601f016020809104026020016040519081016040528093929190818152602001838380828437600081840152601f19601f820116905080830192505050505050509192919290803590602001906401000000008111156123a957600080fd5b8201836020820111156123bb57600080fd5b803590602001918460018302840111640100000000831117156123dd57600080fd5b91908080601f016020809104026020016040519081016040528093929190818152602001838380828437600081840152601f19601f82011690508083019250505050505050919291929050505061563e565b6040518082815260200191505060405180910390f35b34801561245157600080fd5b5061247e6004803603602081101561246857600080fd5b81019080803590602001909291905050506159f3565b604051808273ffffffffffffffffffffffffffffffffffffffff1673ffffffffffffffffffffffffffffffffffffffff16815260200191505060405180910390f35b6000826000808673ffffffffffffffffffffffffffffffffffffffff1673ffffffffffffffffffffffffffffffffffffffff1681526020019081526020016000206005019080519060200190612517929190615a36565b50816000808673ffffffffffffffffffffffffffffffffffffffff1673ffffffffffffffffffffffffffffffffffffffff168152602001908152602001600020600901908051906020019061256d929190615a36565b50600190509392505050565b6000806001805490501415612591576000905061263d565b8173ffffffffffffffffffffffffffffffffffffffff1660016000808573ffffffffffffffffffffffffffffffffffffffff1673ffffffffffffffffffffffffffffffffffffffff168152602001908152602001600020600f01548154811015156125f857fe5b9060005260206000200160009054906101000a900473ffffffffffffffffffffffffffffffffffffffff1673ffffffffffffffffffffffffffffffffffffffff161490505b919050565b6000826000808673ffffffffffffffffffffffffffffffffffffffff1673ffffffffffffffffffffffffffffffffffffffff168152602001908152602001600020600d019080519060200190612699929190615a36565b50816000808673ffffffffffffffffffffffffffffffffffffffff1673ffffffffffffffffffffffffffffffffffffffff16815260200190815260200160002060090190805190602001906126ef929190615a36565b50600190509392505050565b6000826000808673ffffffffffffffffffffffffffffffffffffffff1673ffffffffffffffffffffffffffffffffffffffff1681526020019081526020016000206006019080519060200190612752929190615a36565b50816000808673ffffffffffffffffffffffffffffffffffffffff1673ffffffffffffffffffffffffffffffffffffffff16815260200190815260200160002060090190805190602001906127a8929190615a36565b50600190509392505050565b6000806000808473ffffffffffffffffffffffffffffffffffffffff1673ffffffffffffffffffffffffffffffffffffffff168152602001908152602001600020600f01549050600060018080805490500381548110151561281257fe5b9060005260206000200160009054906101000a900473ffffffffffffffffffffffffffffffffffffffff1690508060018381548110151561284f57fe5b9060005260206000200160006101000a81548173ffffffffffffffffffffffffffffffffffffffff021916908373ffffffffffffffffffffffffffffffffffffffff160217905550816000808373ffffffffffffffffffffffffffffffffffffffff1673ffffffffffffffffffffffffffffffffffffffff168152602001908152602001600020600f018190555060018054809190600190036128f29190615ab6565b507fe4bcc6498edf10769326df819d9da6da86da61003f14f98bf82e7a872f915cba8483604051808373ffffffffffffffffffffffffffffffffffffffff1673ffffffffffffffffffffffffffffffffffffffff1681526020018281526020019250505060405180910390a17f88577e6b67173a88ee0b9837c7dac6e61091314d06b39f93b986d864cb5a7b32816000808473ffffffffffffffffffffffffffffffffffffffff1673ffffffffffffffffffffffffffffffffffffffff1681526020019081526020016000206001016000808573ffffffffffffffffffffffffffffffffffffffff1673ffffffffffffffffffffffffffffffffffffffff1681526020019081526020016000206002016000808673ffffffffffffffffffffffffffffffffffffffff1673ffffffffffffffffffffffffffffffffffffffff1681526020019081526020016000206003016000808773ffffffffffffffffffffffffffffffffffffffff1673ffffffffffffffffffffffffffffffffffffffff1681526020019081526020016000206004016000808873ffffffffffffffffffffffffffffffffffffffff1673ffffffffffffffffffffffffffffffffffffffff1681526020019081526020016000206005016000808973ffffffffffffffffffffffffffffffffffffffff1673ffffffffffffffffffffffffffffffffffffffff168152602001908152602001600020600601604051808873ffffffffffffffffffffffffffffffffffffffff1673ffffffffffffffffffffffffffffffffffffffff16815260200180602001806020018060200180602001806020018060200187810387528d818154600181600116156101000203166002900481526020019150805460018160011615610100020316600290048015612bd55780601f10612baa57610100808354040283529160200191612bd5565b820191906000526020600020905b815481529060010190602001808311612bb857829003601f168201915b505087810386528c818154600181600116156101000203166002900481526020019150805460018160011615610100020316600290048015612c585780601f10612c2d57610100808354040283529160200191612c58565b820191906000526020600020905b815481529060010190602001808311612c3b57829003601f168201915b505087810385528b818154600181600116156101000203166002900481526020019150805460018160011615610100020316600290048015612cdb5780601f10612cb057610100808354040283529160200191612cdb565b820191906000526020600020905b815481529060010190602001808311612cbe57829003601f168201915b505087810384528a818154600181600116156101000203166002900481526020019150805460018160011615610100020316600290048015612d5e5780601f10612d3357610100808354040283529160200191612d5e565b820191906000526020600020905b815481529060010190602001808311612d4157829003601f168201915b5050878103835289818154600181600116156101000203166002900481526020019150805460018160011615610100020316600290048015612de15780601f10612db657610100808354040283529160200191612de1565b820191906000526020600020905b815481529060010190602001808311612dc457829003601f168201915b5050878103825288818154600181600116156101000203166002900481526020019150805460018160011615610100020316600290048015612e645780601f10612e3957610100808354040283529160200191612e64565b820191906000526020600020905b815481529060010190602001808311612e4757829003601f168201915b50509d505050505050505050505050505060405180910390a17fae1c53ff7db51561582de21910131058f1f16e94ff094c7bfb996b46d9b033ba816000808473ffffffffffffffffffffffffffffffffffffffff1673ffffffffffffffffffffffffffffffffffffffff1681526020019081526020016000206007016000808573ffffffffffffffffffffffffffffffffffffffff1673ffffffffffffffffffffffffffffffffffffffff1681526020019081526020016000206008016000808673ffffffffffffffffffffffffffffffffffffffff1673ffffffffffffffffffffffffffffffffffffffff1681526020019081526020016000206009016000808773ffffffffffffffffffffffffffffffffffffffff1673ffffffffffffffffffffffffffffffffffffffff168152602001908152602001600020600a016000808873ffffffffffffffffffffffffffffffffffffffff1673ffffffffffffffffffffffffffffffffffffffff168152602001908152602001600020600b01604051808773ffffffffffffffffffffffffffffffffffffffff1673ffffffffffffffffffffffffffffffffffffffff168152602001806020018060200180602001806020018060200186810386528b8181546001816001161561010002031660029004815260200191508054600181600116156101000203166002900480156130af5780601f10613084576101008083540402835291602001916130af565b820191906000526020600020905b81548152906001019060200180831161309257829003601f168201915b505086810385528a8181546001816001161561010002031660029004815260200191508054600181600116156101000203166002900480156131325780601f1061310757610100808354040283529160200191613132565b820191906000526020600020905b81548152906001019060200180831161311557829003601f168201915b50508681038452898181546001816001161561010002031660029004815260200191508054600181600116156101000203166002900480156131b55780601f1061318a576101008083540402835291602001916131b5565b820191906000526020600020905b81548152906001019060200180831161319857829003601f168201915b50508681038352888181546001816001161561010002031660029004815260200191508054600181600116156101000203166002900480156132385780601f1061320d57610100808354040283529160200191613238565b820191906000526020600020905b81548152906001019060200180831161321b57829003601f168201915b50508681038252878181546001816001161561010002031660029004815260200191508054600181600116156101000203166002900480156132bb5780601f10613290576101008083540402835291602001916132bb565b820191906000526020600020905b81548152906001019060200180831161329e57829003601f168201915b50509b50505050505050505050505060405180910390a17f59ddfe789c5ca95fdcda10a5caa291f7df8c76155a23f8bba0baec1b4539ba0f816000808473ffffffffffffffffffffffffffffffffffffffff1673ffffffffffffffffffffffffffffffffffffffff168152602001908152602001600020600c016000808573ffffffffffffffffffffffffffffffffffffffff1673ffffffffffffffffffffffffffffffffffffffff168152602001908152602001600020600d016000808673ffffffffffffffffffffffffffffffffffffffff1673ffffffffffffffffffffffffffffffffffffffff168152602001908152602001600020600e0186604051808673ffffffffffffffffffffffffffffffffffffffff1673ffffffffffffffffffffffffffffffffffffffff1681526020018060200180602001806020018581526020018481038452888181546001816001161561010002031660029004815260200191508054600181600116156101000203166002900480156134815780601f1061345657610100808354040283529160200191613481565b820191906000526020600020905b81548152906001019060200180831161346457829003601f168201915b50508481038352878181546001816001161561010002031660029004815260200191508054600181600116156101000203166002900480156135045780601f106134d957610100808354040283529160200191613504565b820191906000526020600020905b8154815290600101906020018083116134e757829003601f168201915b50508481038252868181546001816001161561010002031660029004815260200191508054600181600116156101000203166002900480156135875780601f1061355c57610100808354040283529160200191613587565b820191906000526020600020905b81548152906001019060200180831161356a57829003601f168201915b50509850505050505050505060405180910390a18192505050919050565b6000826000808673ffffffffffffffffffffffffffffffffffffffff1673ffffffffffffffffffffffffffffffffffffffff16815260200190815260200160002060070190805190602001906135fc929190615a36565b50816000808673ffffffffffffffffffffffffffffffffffffffff1673ffffffffffffffffffffffffffffffffffffffff1681526020019081526020016000206009019080519060200190613652929190615a36565b50600190509392505050565b6000606080606080606080876000808a73ffffffffffffffffffffffffffffffffffffffff1673ffffffffffffffffffffffffffffffffffffffff1681526020019081526020016000206001016000808b73ffffffffffffffffffffffffffffffffffffffff1673ffffffffffffffffffffffffffffffffffffffff1681526020019081526020016000206002016000808c73ffffffffffffffffffffffffffffffffffffffff1673ffffffffffffffffffffffffffffffffffffffff1681526020019081526020016000206003016000808d73ffffffffffffffffffffffffffffffffffffffff1673ffffffffffffffffffffffffffffffffffffffff1681526020019081526020016000206004016000808e73ffffffffffffffffffffffffffffffffffffffff1673ffffffffffffffffffffffffffffffffffffffff1681526020019081526020016000206005016000808f73ffffffffffffffffffffffffffffffffffffffff1673ffffffffffffffffffffffffffffffffffffffff168152602001908152602001600020600601858054600181600116156101000203166002900480601f0160208091040260200160405190810160405280929190818152602001828054600181600116156101000203166002900480156138855780601f1061385a57610100808354040283529160200191613885565b820191906000526020600020905b81548152906001019060200180831161386857829003601f168201915b50505050509550848054600181600116156101000203166002900480601f0160208091040260200160405190810160405280929190818152602001828054600181600116156101000203166002900480156139215780601f106138f657610100808354040283529160200191613921565b820191906000526020600020905b81548152906001019060200180831161390457829003601f168201915b50505050509450838054600181600116156101000203166002900480601f0160208091040260200160405190810160405280929190818152602001828054600181600116156101000203166002900480156139bd5780601f10613992576101008083540402835291602001916139bd565b820191906000526020600020905b8154815290600101906020018083116139a057829003601f168201915b50505050509350828054600181600116156101000203166002900480601f016020809104026020016040519081016040528092919081815260200182805460018160011615610100020316600290048015613a595780601f10613a2e57610100808354040283529160200191613a59565b820191906000526020600020905b815481529060010190602001808311613a3c57829003601f168201915b50505050509250818054600181600116156101000203166002900480601f016020809104026020016040519081016040528092919081815260200182805460018160011615610100020316600290048015613af55780601f10613aca57610100808354040283529160200191613af5565b820191906000526020600020905b815481529060010190602001808311613ad857829003601f168201915b50505050509150808054600181600116156101000203166002900480601f016020809104026020016040519081016040528092919081815260200182805460018160011615610100020316600290048015613b915780601f10613b6657610100808354040283529160200191613b91565b820191906000526020600020905b815481529060010190602001808311613b7457829003601f168201915b505050505090509650965096509650965096509650919395979092949650565b606080606060008060008673ffffffffffffffffffffffffffffffffffffffff1673ffffffffffffffffffffffffffffffffffffffff168152602001908152602001600020600c016000808773ffffffffffffffffffffffffffffffffffffffff1673ffffffffffffffffffffffffffffffffffffffff168152602001908152602001600020600d016000808873ffffffffffffffffffffffffffffffffffffffff1673ffffffffffffffffffffffffffffffffffffffff168152602001908152602001600020600e016000808973ffffffffffffffffffffffffffffffffffffffff1673ffffffffffffffffffffffffffffffffffffffff168152602001908152602001600020600f0154838054600181600116156101000203166002900480601f016020809104026020016040519081016040528092919081815260200182805460018160011615610100020316600290048015613d525780601f10613d2757610100808354040283529160200191613d52565b820191906000526020600020905b815481529060010190602001808311613d3557829003601f168201915b50505050509350828054600181600116156101000203166002900480601f016020809104026020016040519081016040528092919081815260200182805460018160011615610100020316600290048015613dee5780601f10613dc357610100808354040283529160200191613dee565b820191906000526020600020905b815481529060010190602001808311613dd157829003601f168201915b50505050509250818054600181600116156101000203166002900480601f016020809104026020016040519081016040528092919081815260200182805460018160011615610100020316600290048015613e8a5780601f10613e5f57610100808354040283529160200191613e8a565b820191906000526020600020905b815481529060010190602001808311613e6d57829003601f168201915b5050505050915093509350935093509193509193565b6000826000808673ffffffffffffffffffffffffffffffffffffffff1673ffffffffffffffffffffffffffffffffffffffff168152602001908152602001600020600b019080519060200190613ef7929190615a36565b50816000808673ffffffffffffffffffffffffffffffffffffffff1673ffffffffffffffffffffffffffffffffffffffff1681526020019081526020016000206009019080519060200190613f4d929190615a36565b50600190509392505050565b6000826000808673ffffffffffffffffffffffffffffffffffffffff1673ffffffffffffffffffffffffffffffffffffffff168152602001908152602001600020600e019080519060200190613fb0929190615a36565b50816000808673ffffffffffffffffffffffffffffffffffffffff1673ffffffffffffffffffffffffffffffffffffffff1681526020019081526020016000206009019080519060200190614006929190615a36565b50600190509392505050565b6000826000808673ffffffffffffffffffffffffffffffffffffffff1673ffffffffffffffffffffffffffffffffffffffff1681526020019081526020016000206002019080519060200190614069929190615a36565b50816000808673ffffffffffffffffffffffffffffffffffffffff1673ffffffffffffffffffffffffffffffffffffffff16815260200190815260200160002060090190805190602001906140bf929190615a36565b507f88577e6b67173a88ee0b9837c7dac6e61091314d06b39f93b986d864cb5a7b32846000808773ffffffffffffffffffffffffffffffffffffffff1673ffffffffffffffffffffffffffffffffffffffff168152602001908152602001600020600101856000808973ffffffffffffffffffffffffffffffffffffffff1673ffffffffffffffffffffffffffffffffffffffff1681526020019081526020016000206003016000808a73ffffffffffffffffffffffffffffffffffffffff1673ffffffffffffffffffffffffffffffffffffffff1681526020019081526020016000206004016000808b73ffffffffffffffffffffffffffffffffffffffff1673ffffffffffffffffffffffffffffffffffffffff1681526020019081526020016000206005016000808c73ffffffffffffffffffffffffffffffffffffffff1673ffffffffffffffffffffffffffffffffffffffff168152602001908152602001600020600601604051808873ffffffffffffffffffffffffffffffffffffffff1673ffffffffffffffffffffffffffffffffffffffff16815260200180602001806020018060200180602001806020018060200187810387528d8181546001816001161561010002031660029004815260200191508054600181600116156101000203166002900480156142f75780601f106142cc576101008083540402835291602001916142f7565b820191906000526020600020905b8154815290600101906020018083116142da57829003601f168201915b505087810386528c818151815260200191508051906020019080838360005b83811015614331578082015181840152602081019050614316565b50505050905090810190601f16801561435e5780820380516001836020036101000a031916815260200191505b5087810385528b8181546001816001161561010002031660029004815260200191508054600181600116156101000203166002900480156143e05780601f106143b5576101008083540402835291602001916143e0565b820191906000526020600020905b8154815290600101906020018083116143c357829003601f168201915b505087810384528a8181546001816001161561010002031660029004815260200191508054600181600116156101000203166002900480156144635780601f1061443857610100808354040283529160200191614463565b820191906000526020600020905b81548152906001019060200180831161444657829003601f168201915b50508781038352898181546001816001161561010002031660029004815260200191508054600181600116156101000203166002900480156144e65780601f106144bb576101008083540402835291602001916144e6565b820191906000526020600020905b8154815290600101906020018083116144c957829003601f168201915b50508781038252888181546001816001161561010002031660029004815260200191508054600181600116156101000203166002900480156145695780601f1061453e57610100808354040283529160200191614569565b820191906000526020600020905b81548152906001019060200180831161454c57829003601f168201915b50509d505050505050505050505050505060405180910390a1600190509392505050565b6000826000808673ffffffffffffffffffffffffffffffffffffffff1673ffffffffffffffffffffffffffffffffffffffff16815260200190815260200160002060040190805190602001906145e4929190615a36565b50816000808673ffffffffffffffffffffffffffffffffffffffff1673ffffffffffffffffffffffffffffffffffffffff168152602001908152602001600020600901908051906020019061463a929190615a36565b50600190509392505050565b6000866000808a73ffffffffffffffffffffffffffffffffffffffff1673ffffffffffffffffffffffffffffffffffffffff168152602001908152602001600020600101908051906020019061469d929190615a36565b50856000808a73ffffffffffffffffffffffffffffffffffffffff1673ffffffffffffffffffffffffffffffffffffffff16815260200190815260200160002060020190805190602001906146f3929190615a36565b50846000808a73ffffffffffffffffffffffffffffffffffffffff1673ffffffffffffffffffffffffffffffffffffffff1681526020019081526020016000206003019080519060200190614749929190615a36565b50836000808a73ffffffffffffffffffffffffffffffffffffffff1673ffffffffffffffffffffffffffffffffffffffff168152602001908152602001600020600401908051906020019061479f929190615a36565b50826000808a73ffffffffffffffffffffffffffffffffffffffff1673ffffffffffffffffffffffffffffffffffffffff16815260200190815260200160002060050190805190602001906147f5929190615a36565b50816000808a73ffffffffffffffffffffffffffffffffffffffff1673ffffffffffffffffffffffffffffffffffffffff168152602001908152602001600020600601908051906020019061484b929190615a36565b507f862f7d0790f009d982a167eb9de5cf2ca7606dbbe691ea277cdf3d216a16d4a388888888888888604051808873ffffffffffffffffffffffffffffffffffffffff1673ffffffffffffffffffffffffffffffffffffffff16815260200180602001806020018060200180602001806020018060200187810387528d818151815260200191508051906020019080838360005b838110156148fa5780820151818401526020810190506148df565b50505050905090810190601f1680156149275780820380516001836020036101000a031916815260200191505b5087810386528c818151815260200191508051906020019080838360005b83811015614960578082015181840152602081019050614945565b50505050905090810190601f16801561498d5780820380516001836020036101000a031916815260200191505b5087810385528b818151815260200191508051906020019080838360005b838110156149c65780820151818401526020810190506149ab565b50505050905090810190601f1680156149f35780820380516001836020036101000a031916815260200191505b5087810384528a818151815260200191508051906020019080838360005b83811015614a2c578082015181840152602081019050614a11565b50505050905090810190601f168015614a595780820380516001836020036101000a031916815260200191505b50878103835289818151815260200191508051906020019080838360005b83811015614a92578082015181840152602081019050614a77565b50505050905090810190601f168015614abf5780820380516001836020036101000a031916815260200191505b50878103825288818151815260200191508051906020019080838360005b83811015614af8578082015181840152602081019050614add565b50505050905090810190601f168015614b255780820380516001836020036101000a031916815260200191505b509d505050505050505050505050505060405180910390a160018080549050039050979650505050505050565b6000826000808673ffffffffffffffffffffffffffffffffffffffff1673ffffffffffffffffffffffffffffffffffffffff168152602001908152602001600020600a019080519060200190614ba9929190615a36565b50816000808673ffffffffffffffffffffffffffffffffffffffff1673ffffffffffffffffffffffffffffffffffffffff1681526020019081526020016000206009019080519060200190614bff929190615a36565b50600190509392505050565b6000600180549050905090565b6000826000808673ffffffffffffffffffffffffffffffffffffffff1673ffffffffffffffffffffffffffffffffffffffff168152602001908152602001600020600c019080519060200190614c6f929190615a36565b50816000808673ffffffffffffffffffffffffffffffffffffffff1673ffffffffffffffffffffffffffffffffffffffff1681526020019081526020016000206009019080519060200190614cc5929190615a36565b50600190509392505050565b6000856000808973ffffffffffffffffffffffffffffffffffffffff1673ffffffffffffffffffffffffffffffffffffffff1681526020019081526020016000206007019080519060200190614d28929190615a36565b50846000808973ffffffffffffffffffffffffffffffffffffffff1673ffffffffffffffffffffffffffffffffffffffff1681526020019081526020016000206008019080519060200190614d7e929190615a36565b50836000808973ffffffffffffffffffffffffffffffffffffffff1673ffffffffffffffffffffffffffffffffffffffff1681526020019081526020016000206009019080519060200190614dd4929190615a36565b50826000808973ffffffffffffffffffffffffffffffffffffffff1673ffffffffffffffffffffffffffffffffffffffff168152602001908152602001600020600a019080519060200190614e2a929190615a36565b50816000808973ffffffffffffffffffffffffffffffffffffffff1673ffffffffffffffffffffffffffffffffffffffff168152602001908152602001600020600b019080519060200190614e80929190615a36565b507fc8086a065c4ec899a0af789bcc22b955c528e1dc823b196e9dfbcbf175052900878787878787604051808773ffffffffffffffffffffffffffffffffffffffff1673ffffffffffffffffffffffffffffffffffffffff168152602001806020018060200180602001806020018060200186810386528b818151815260200191508051906020019080838360005b83811015614f2a578082015181840152602081019050614f0f565b50505050905090810190601f168015614f575780820380516001836020036101000a031916815260200191505b5086810385528a818151815260200191508051906020019080838360005b83811015614f90578082015181840152602081019050614f75565b50505050905090810190601f168015614fbd5780820380516001836020036101000a031916815260200191505b50868103845289818151815260200191508051906020019080838360005b83811015614ff6578082015181840152602081019050614fdb565b50505050905090810190601f1680156150235780820380516001836020036101000a031916815260200191505b50868103835288818151815260200191508051906020019080838360005b8381101561505c578082015181840152602081019050615041565b50505050905090810190601f1680156150895780820380516001836020036101000a031916815260200191505b50868103825287818151815260200191508051906020019080838360005b838110156150c25780820151818401526020810190506150a7565b50505050905090810190601f1680156150ef5780820380516001836020036101000a031916815260200191505b509b50505050505050505050505060405180910390a1600180805490500390509695505050505050565b6000826000808673ffffffffffffffffffffffffffffffffffffffff1673ffffffffffffffffffffffffffffffffffffffff1681526020019081526020016000206003019080519060200190615170929190615a36565b50816000808673ffffffffffffffffffffffffffffffffffffffff1673ffffffffffffffffffffffffffffffffffffffff16815260200190815260200160002060090190805190602001906151c6929190615a36565b50600190509392505050565b60608060608060606000808773ffffffffffffffffffffffffffffffffffffffff1673ffffffffffffffffffffffffffffffffffffffff1681526020019081526020016000206007016000808873ffffffffffffffffffffffffffffffffffffffff1673ffffffffffffffffffffffffffffffffffffffff1681526020019081526020016000206008016000808973ffffffffffffffffffffffffffffffffffffffff1673ffffffffffffffffffffffffffffffffffffffff1681526020019081526020016000206009016000808a73ffffffffffffffffffffffffffffffffffffffff1673ffffffffffffffffffffffffffffffffffffffff168152602001908152602001600020600a016000808b73ffffffffffffffffffffffffffffffffffffffff1673ffffffffffffffffffffffffffffffffffffffff168152602001908152602001600020600b01848054600181600116156101000203166002900480601f0160208091040260200160405190810160405280929190818152602001828054600181600116156101000203166002900480156153b45780601f10615389576101008083540402835291602001916153b4565b820191906000526020600020905b81548152906001019060200180831161539757829003601f168201915b50505050509450838054600181600116156101000203166002900480601f0160208091040260200160405190810160405280929190818152602001828054600181600116156101000203166002900480156154505780601f1061542557610100808354040283529160200191615450565b820191906000526020600020905b81548152906001019060200180831161543357829003601f168201915b50505050509350828054600181600116156101000203166002900480601f0160208091040260200160405190810160405280929190818152602001828054600181600116156101000203166002900480156154ec5780601f106154c1576101008083540402835291602001916154ec565b820191906000526020600020905b8154815290600101906020018083116154cf57829003601f168201915b50505050509250818054600181600116156101000203166002900480601f0160208091040260200160405190810160405280929190818152602001828054600181600116156101000203166002900480156155885780601f1061555d57610100808354040283529160200191615588565b820191906000526020600020905b81548152906001019060200180831161556b57829003601f168201915b50505050509150808054600181600116156101000203166002900480601f0160208091040260200160405190810160405280929190818152602001828054600181600116156101000203166002900480156156245780601f106155f957610100808354040283529160200191615624565b820191906000526020600020905b81548152906001019060200180831161560757829003601f168201915b505050505090509450945094509450945091939590929450565b6000836000808773ffffffffffffffffffffffffffffffffffffffff1673ffffffffffffffffffffffffffffffffffffffff168152602001908152602001600020600c019080519060200190615695929190615a36565b50826000808773ffffffffffffffffffffffffffffffffffffffff1673ffffffffffffffffffffffffffffffffffffffff168152602001908152602001600020600d0190805190602001906156eb929190615a36565b50816000808773ffffffffffffffffffffffffffffffffffffffff1673ffffffffffffffffffffffffffffffffffffffff168152602001908152602001600020600e019080519060200190615741929190615a36565b506001808690806001815401808255809150509060018203906000526020600020016000909192909190916101000a81548173ffffffffffffffffffffffffffffffffffffffff021916908373ffffffffffffffffffffffffffffffffffffffff160217905550036000808773ffffffffffffffffffffffffffffffffffffffff1673ffffffffffffffffffffffffffffffffffffffff168152602001908152602001600020600f01819055507f4ca481b35121b4e26949304a0ae4ec69db3644c8a5594acee7ff5b621e20ac15858585856000808b73ffffffffffffffffffffffffffffffffffffffff1673ffffffffffffffffffffffffffffffffffffffff168152602001908152602001600020600f0154604051808673ffffffffffffffffffffffffffffffffffffffff1673ffffffffffffffffffffffffffffffffffffffff168152602001806020018060200180602001858152602001848103845288818151815260200191508051906020019080838360005b838110156158d55780820151818401526020810190506158ba565b50505050905090810190601f1680156159025780820380516001836020036101000a031916815260200191505b50848103835287818151815260200191508051906020019080838360005b8381101561593b578082015181840152602081019050615920565b50505050905090810190601f1680156159685780820380516001836020036101000a031916815260200191505b50848103825286818151815260200191508051906020019080838360005b838110156159a1578082015181840152602081019050615986565b50505050905090810190601f1680156159ce5780820380516001836020036101000a031916815260200191505b509850505050505050505060405180910390a160018080549050039050949350505050565b6000600182815481101515615a0457fe5b9060005260206000200160009054906101000a900473ffffffffffffffffffffffffffffffffffffffff169050919050565b828054600181600116156101000203166002900490600052602060002090601f016020900481019282601f10615a7757805160ff1916838001178555615aa5565b82800160010185558215615aa5579182015b82811115615aa4578251825591602001919060010190615a89565b5b509050615ab29190615ae2565b5090565b815481835581811115615add57818360005260206000209182019101615adc9190615ae2565b5b505050565b615b0491905b80821115615b00576000816000905550600101615ae8565b5090565b9056fea165627a7a72305820bf9bda4c2e28905a67a4726d8c87b7b6945dab10e11270dfa3cbe23685fffc920029",
  "source": "pragma solidity >=0.4.21 <0.6.0;\r\n\r\ncontract UserManagementStorage {\r\n   //eventInsert\r\n   event SetUserManagementEvent(\r\n      address _userAddress,\r\n      string _userId,\r\n      string _fullName,\r\n      string _email,\r\n      string _password,\r\n      string _gender,\r\n      string _dateOfBirth);\r\n\r\n   event SetUserManagementAdditionEvent(\r\n      address _userAddress,\r\n      string _isLocked,\r\n      string _createdTime,\r\n      string _modifiedTime,\r\n      string _idCardNo,\r\n      string _idCardIssuePlace);\r\n\r\n   event SetUserManagementAdditionFlusEvent(\r\n      address _userAddress,\r\n      string _phoneNumber,\r\n      string _job,\r\n      string _userAddr,\r\n      uint256 _index);\r\n\r\n   //eventUpdate\r\n   event SetLogUpdateUserManagementEven(\r\n      address _userAddress,\r\n      string _userId,\r\n      string _fullName,\r\n      string _email,\r\n      string _password,\r\n      string _gender,\r\n      string _dateOfBirth);\r\n   event SetLogUpdateUserManagementAdditionEven(\r\n      address _userAddress,\r\n      string _isLocked,\r\n      string _modifiedTime,\r\n      string _createdTime,\r\n      string _idCardNo,\r\n      string _idCardIssuePlace);\r\n   event SetLogUpdateUserManagementAdditionFlusEven(\r\n      address _userAddress,\r\n      string _phoneNumber,\r\n      string _job,\r\n      string _userAddr,\r\n      uint256 _index);\r\n\r\n   //eventDelete\r\n   event SetLogDeleteUserManagement(\r\n      address _userAddress,\r\n      uint256 index);\r\n\r\n   struct UserManagement {\r\n      address userAddress;\r\n      string userId;\r\n      string fullName;\r\n      string email;\r\n      string password;\r\n      string gender;\r\n      string dateOfBirth;\r\n      string isLocked;\r\n\r\n      string createdTime;\r\n      string modifiedTime;\r\n      string idCardNo;\r\n      string idCardIssuePlace;\r\n\r\n      string phoneNumber;\r\n      string job;\r\n      string userAddr;\r\n      uint256 index;\r\n   }\r\n\r\n   mapping(address => UserManagement) userManagementStructs;\r\n\r\n   address[] userIndex;\r\n\r\n   function isUser(address _userAddress) public view returns(bool isIndeed) {\r\n      if(userIndex.length == 0) return false;\r\n      return (userIndex[userManagementStructs[_userAddress].index] == _userAddress);\r\n   }\r\n\r\n   function insertUser(\r\n      address _userAddress,\r\n      string memory _userId,\r\n      string memory _fullName,\r\n      string memory _email,\r\n      string memory _password,\r\n      string memory _gender,\r\n      string memory _dateOfBirth\r\n      )\r\n      public returns(uint256 index){\r\n      //if(isUser(_userAddress)) revert('throw');\r\n      userManagementStructs[_userAddress].userId = _userId;\r\n      userManagementStructs[_userAddress].fullName = _fullName;\r\n      userManagementStructs[_userAddress].email = _email;\r\n      userManagementStructs[_userAddress].password = _password;\r\n      userManagementStructs[_userAddress].gender = _gender;\r\n      userManagementStructs[_userAddress].dateOfBirth = _dateOfBirth;\r\n\r\n      emit SetUserManagementEvent(_userAddress, _userId, _fullName, _email, _password, _gender, _dateOfBirth);\r\n      // emit SetUserManagementAdditionEvent(_userAddress, _createdTime, _modifiedTime, _idCardNo, _idCardIssuePlace);\r\n      // emit SetUserManagementAdditionFlusEvent(\r\n      //    _userAddress,\r\n      //    _phoneNumber,\r\n      //    _job,\r\n      //    _userAddr,\r\n      //    userManagementAdditionFlusStructs[_userAddress].index);\r\n      return userIndex.length-1;\r\n   }\r\n\r\n   function insertUserDetail(\r\n      address _userAddress,\r\n      string memory _isLocked,\r\n      string memory _createdTime,\r\n      string memory _modifiedTime,\r\n      string  memory _idCardNo,\r\n      string  memory _idCardIssuePlace\r\n      )\r\n      public returns(uint256 index){\r\n      userManagementStructs[_userAddress].isLocked = _isLocked;\r\n      userManagementStructs[_userAddress].createdTime = _createdTime;\r\n      userManagementStructs[_userAddress].modifiedTime = _modifiedTime;\r\n      userManagementStructs[_userAddress].idCardNo = _idCardNo;\r\n      userManagementStructs[_userAddress].idCardIssuePlace = _idCardIssuePlace;\r\n\r\n      emit SetUserManagementAdditionEvent(_userAddress, _isLocked, _createdTime, _modifiedTime, _idCardNo, _idCardIssuePlace);\r\n      return userIndex.length-1;\r\n   }\r\n\r\n   function insertUserDetailFlus(\r\n      address _userAddress,\r\n      string memory _phoneNumber,\r\n      string  memory _job,\r\n      string  memory _userAddr\r\n      )\r\n      public returns(uint256 index){\r\n      // if(isUser(_userAddress)) revert('throw');\r\n      userManagementStructs[_userAddress].phoneNumber = _phoneNumber;\r\n      userManagementStructs[_userAddress].job = _job;\r\n      userManagementStructs[_userAddress].userAddr = _userAddr;\r\n      userManagementStructs[_userAddress].index = userIndex.push(_userAddress)-1;\r\n      emit SetUserManagementAdditionFlusEvent(\r\n         _userAddress,\r\n         _phoneNumber,\r\n         _job,\r\n         _userAddr,\r\n         userManagementStructs[_userAddress].index);\r\n      return userIndex.length-1;\r\n   }\r\n\r\n   function deleteUser(address _userAddress) public returns(uint256 index){\r\n      // if(!isUser(_userAddress)) revert('throw');\r\n      uint256 rowToDelete = userManagementStructs[_userAddress].index;\r\n      address keyToMove = userIndex[userIndex.length-1];\r\n      userIndex[rowToDelete] = keyToMove; //vi tri can delete = vi tri cuoi ds\r\n      userManagementStructs[keyToMove].index = rowToDelete;\r\n\r\n      userIndex.length--;\r\n      emit SetLogDeleteUserManagement(\r\n         _userAddress,\r\n         rowToDelete);\r\n\r\n      emit SetLogUpdateUserManagementEven(\r\n         keyToMove,\r\n         userManagementStructs[keyToMove].userId,\r\n         userManagementStructs[keyToMove].fullName,\r\n         userManagementStructs[keyToMove].email,\r\n         userManagementStructs[keyToMove].password,\r\n         userManagementStructs[keyToMove].gender,\r\n         userManagementStructs[keyToMove].dateOfBirth\r\n         );\r\n      emit SetLogUpdateUserManagementAdditionEven(\r\n         keyToMove,\r\n         userManagementStructs[keyToMove].isLocked,\r\n         userManagementStructs[keyToMove].createdTime,\r\n         userManagementStructs[keyToMove].modifiedTime,\r\n         userManagementStructs[keyToMove].idCardNo,\r\n         userManagementStructs[keyToMove].idCardIssuePlace\r\n         );\r\n      emit SetLogUpdateUserManagementAdditionFlusEven(\r\n         keyToMove,\r\n         userManagementStructs[keyToMove].phoneNumber,\r\n         userManagementStructs[keyToMove].job,\r\n         userManagementStructs[keyToMove].userAddr,\r\n         rowToDelete);\r\n      return rowToDelete;\r\n   }\r\n\r\n   function getUser(address _userAddress) public view returns(\r\n      address userAddress,\r\n      string memory _userId,\r\n      string memory _fullName,\r\n      string memory _email,\r\n      string memory _password,\r\n      string memory _gender,\r\n      string memory _dateOfBirth\r\n      ){\r\n      // if(!isUser(_userAddress)) revert('throw');\r\n      return(\r\n         _userAddress,\r\n         userManagementStructs[_userAddress].userId,\r\n         userManagementStructs[_userAddress].fullName,\r\n         userManagementStructs[_userAddress].email,\r\n         userManagementStructs[_userAddress].password,\r\n         userManagementStructs[_userAddress].gender,\r\n         userManagementStructs[_userAddress].dateOfBirth);\r\n   }\r\n\r\n   function getUserDetailMore(address _userAddress) public view returns(\r\n      string memory _isLocked,\r\n      string memory _createdTime,\r\n      string memory _modifiedTime,\r\n      string memory _idCardNo,\r\n      string memory _idCardIssuePlace\r\n      ){\r\n      // if(!isUser(_userAddress)) revert('throw');\r\n      return(\r\n         userManagementStructs[_userAddress].isLocked,\r\n         userManagementStructs[_userAddress].createdTime,\r\n         userManagementStructs[_userAddress].modifiedTime,\r\n         userManagementStructs[_userAddress].idCardNo,\r\n         userManagementStructs[_userAddress].idCardIssuePlace);\r\n   }\r\n\r\n   function getUserDetailMoreMore(address _userAddress) public view returns(\r\n      string memory _phoneNumber,\r\n      string  memory  _job,\r\n      string  memory  _userAddr,\r\n      uint256 index\r\n      ){\r\n      // if(!isUser(_userAddress)) revert('throw');\r\n      return(\r\n         userManagementStructs[_userAddress].phoneNumber,\r\n         userManagementStructs[_userAddress].job,\r\n         userManagementStructs[_userAddress].userAddr,\r\n         userManagementStructs[_userAddress].index);\r\n   }\r\n\r\n\r\n// UPDATE\r\n\r\n\r\n   function updateFullName(address _userAddress, string  memory  _fullName, string memory _modifiedTime)\r\n   public returns(bool success) {\r\n      // if(!isUser(_userAddress))  revert('throw');\r\n      userManagementStructs[_userAddress].fullName = _fullName;\r\n      userManagementStructs[_userAddress].modifiedTime = _modifiedTime;\r\n      emit SetLogUpdateUserManagementEven(\r\n         _userAddress,\r\n         userManagementStructs[_userAddress].userId,\r\n         _fullName,\r\n         userManagementStructs[_userAddress].email,\r\n         userManagementStructs[_userAddress].password,\r\n         userManagementStructs[_userAddress].gender,\r\n         userManagementStructs[_userAddress].dateOfBirth\r\n         );\r\n      return true;\r\n   }\r\n\r\n   function updateEmail(address _userAddress, string  memory  _email, string memory _modifiedTime)\r\n   public returns(bool success) {\r\n      // if(!isUser(_userAddress))  revert('throw');\r\n      userManagementStructs[_userAddress].email = _email;\r\n      userManagementStructs[_userAddress].modifiedTime = _modifiedTime;\r\n      // emit SetLogUpdateUserManagementEven(\r\n      //    _userAddress,\r\n      //    userManagementStructs[_userAddress].userId,\r\n      //    userManagementStructs[_userAddress].fullName,\r\n      //    _email,\r\n      //    userManagementStructs[_userAddress].password,\r\n      //    userManagementStructs[_userAddress].gender,\r\n      //    userManagementStructs[_userAddress].dateOfBirth\r\n      //    );\r\n      return true;\r\n   }\r\n\r\n   function updatePassword(address _userAddress, string  memory  _password, string memory _modifiedTime)\r\n      public returns(bool success) {\r\n      // if(!isUser(_userAddress))  revert('throw');\r\n      userManagementStructs[_userAddress].password = _password;\r\n      userManagementStructs[_userAddress].modifiedTime = _modifiedTime;\r\n      // emit SetLogUpdateUserManagementEven(\r\n      //    _userAddress,\r\n      //    userManagementStructs[_userAddress].userId,\r\n      //    userManagementStructs[_userAddress].fullName,\r\n      //    userManagementStructs[_userAddress].email,\r\n      //    _password,\r\n      //    userManagementStructs[_userAddress].gender,\r\n      //    userManagementStructs[_userAddress].dateOfBirth\r\n      //    );\r\n      return true;\r\n   }\r\n\r\n   function updateGender(address _userAddress, string  memory  _gender, string memory _modifiedTime)\r\n      public returns(bool success) {\r\n      // if(!isUser(_userAddress))  revert('throw');\r\n      userManagementStructs[_userAddress].gender = _gender;\r\n      userManagementStructs[_userAddress].modifiedTime = _modifiedTime;\r\n      // emit SetLogUpdateUserManagementEven(\r\n      //    _userAddress,\r\n      //    userManagementStructs[_userAddress].userId,\r\n      //    userManagementStructs[_userAddress].fullName,\r\n      //    userManagementStructs[_userAddress].email,\r\n      //    userManagementStructs[_userAddress].password,\r\n      //    _gender,\r\n      //    userManagementStructs[_userAddress].dateOfBirth\r\n      //    );\r\n      return true;\r\n   }\r\n\r\n   function updateDateOfBirth(address _userAddress, string memory  _dateOfBirth, string memory _modifiedTime)\r\n      public returns(bool success) {\r\n      // if(!isUser(_userAddress))  revert('throw');\r\n      userManagementStructs[_userAddress].dateOfBirth = _dateOfBirth;\r\n      userManagementStructs[_userAddress].modifiedTime = _modifiedTime;\r\n      // emit SetLogUpdateUserManagementEven(\r\n      //    _userAddress,\r\n      //    userManagementStructs[_userAddress].userId,\r\n      //    userManagementStructs[_userAddress].fullName,\r\n      //    userManagementStructs[_userAddress].email,\r\n      //    userManagementStructs[_userAddress].password,\r\n      //    userManagementStructs[_userAddress].gender,\r\n      //    _dateOfBirth\r\n      //    );\r\n      return true;\r\n   }\r\n\r\n   function updateIsLocked(address _userAddress, string  memory  _isLocked, string memory _modifiedTime)\r\n   public returns(bool success) {\r\n      // if(!isUser(_userAddress))  revert('throw');\r\n      userManagementStructs[_userAddress].isLocked = _isLocked;\r\n      userManagementStructs[_userAddress].modifiedTime = _modifiedTime;\r\n      // emit SetLogUpdateUserManagementAdditionEven(\r\n      //    _userAddress,\r\n      //    _isLocked,\r\n      //    userManagementStructs[_userAddress].createdTime,\r\n      //    userManagementStructs[_userAddress].modifiedTime,\r\n      //    userManagementStructs[_userAddress].idCardNo,\r\n      //    userManagementStructs[_userAddress].idCardIssuePlace\r\n      //    );\r\n      return true;\r\n   }\r\n\r\n   function updateIdCardNo(address _userAddress, string memory _idCardNo, string memory _modifiedTime)\r\n   public returns(bool success) {\r\n      // if(!isUser(_userAddress))  revert('throw');\r\n      userManagementStructs[_userAddress].idCardNo = _idCardNo;\r\n      userManagementStructs[_userAddress].modifiedTime = _modifiedTime;\r\n      // emit SetLogUpdateUserManagementAdditionEven(\r\n      //    _userAddress,\r\n      //    userManagementStructs[_userAddress].isLocked,\r\n      //    userManagementStructs[_userAddress].createdTime,\r\n      //    userManagementStructs[_userAddress].modifiedTime,\r\n      //    _idCardNo,\r\n      //    userManagementStructs[_userAddress].idCardIssuePlace\r\n      //    );\r\n      return true;\r\n   }\r\n\r\n   function updateIdCardIssuePlace(address _userAddress, string memory _idCardIssuePlace, string memory _modifiedTime)\r\n   public returns(bool success) {\r\n      // if(!isUser(_userAddress))  revert('throw');\r\n      userManagementStructs[_userAddress].idCardIssuePlace = _idCardIssuePlace;\r\n      userManagementStructs[_userAddress].modifiedTime = _modifiedTime;\r\n      // emit SetLogUpdateUserManagementAdditionEven(\r\n      //    _userAddress,\r\n      //    userManagementStructs[_userAddress].isLocked,\r\n      //    userManagementStructs[_userAddress].createdTime,\r\n      //    userManagementStructs[_userAddress].modifiedTime,\r\n      //    userManagementStructs[_userAddress].idCardNo,\r\n      //    _idCardIssuePlace);\r\n      return true;\r\n   }\r\n\r\n   function updatePhoneNumber(address _userAddress, string memory _phoneNumber, string memory _modifiedTime)\r\n   public returns(bool success) {\r\n      // if(!isUser(_userAddress))  revert('throw');\r\n      userManagementStructs[_userAddress].phoneNumber = _phoneNumber;\r\n      userManagementStructs[_userAddress].modifiedTime = _modifiedTime;\r\n      // emit SetLogUpdateUserManagementAdditionFlusEven(\r\n      //    _userAddress,\r\n      //    _phoneNumber,\r\n      //    userManagementStructs[_userAddress].job,\r\n      //    userManagementStructs[_userAddress].userAddr,\r\n      //    userManagementStructs[_userAddress].index);\r\n      return true;\r\n   }\r\n\r\n   function updateJob(address _userAddress, string memory   _job, string memory _modifiedTime)\r\n   public returns(bool success) {\r\n      // if(!isUser(_userAddress))  revert('throw');\r\n      userManagementStructs[_userAddress].job = _job;\r\n      userManagementStructs[_userAddress].modifiedTime = _modifiedTime;\r\n      // userManagementStructs[_userAddress].userAddr = _userAddr;\r\n      // emit SetLogUpdateUserManagementAdditionFlusEven(\r\n      //    _userAddress,\r\n      //    userManagementStructs[_userAddress].phoneNumber,\r\n      //    _job,\r\n      //    userManagementStructs[_userAddress].userAddr,\r\n      //    userManagementStructs[_userAddress].index);\r\n      return true;\r\n   }\r\n\r\n   function updateUserAddr(address _userAddress, string memory   _userAddr, string memory _modifiedTime)\r\n   public returns(bool success) {\r\n      // if(!isUser(_userAddress))  revert('throw');\r\n      userManagementStructs[_userAddress].userAddr = _userAddr;\r\n      userManagementStructs[_userAddress].modifiedTime = _modifiedTime;\r\n      // emit SetLogUpdateUserManagementAdditionFlusEven(\r\n      //    _userAddress,\r\n      //    userManagementStructs[_userAddress].phoneNumber,\r\n      //    userManagementStructs[_userAddress].job,\r\n      //    _userAddr,\r\n      //    userManagementStructs[_userAddress].index);\r\n      return true;\r\n   }\r\n\r\n   function getUserCount() public view returns(uint256 count){\r\n         return userIndex.length;\r\n      }\r\n\r\n   function getUserAtIndex(uint256 _index)\r\n      public\r\n      view\r\n      returns(address userAddress)\r\n   {\r\n      return userIndex[_index];\r\n   }\r\n\r\n}",
  "sourcePath": "C:/xampp/htdocs/projectBlockchain/blockchaindemo/TG_UNIVERSITY_CERTIFICATE_VERIFICATION_SERVER/contracts/User.sol",
  "compiler": {
    "name": "solc",
    "version": "0.5.0+commit.1d4f565a.Emscripten.clang"
  },
  "schemaVersion": "3.0.9",
  "updatedAt": "2019-06-13T16:07:30.697Z",
  "devdoc": {
    "methods": {}
  },
  "userdoc": {
    "methods": {}
  }
}